{"abi":[{"type":"constructor","inputs":[{"name":"liquidityGuard_","type":"address","internalType":"address"},{"name":"riskPolicy_","type":"address","internalType":"address"},{"name":"riskReportNFT_","type":"address","internalType":"address"}],"stateMutability":"nonpayable"},{"type":"receive","stateMutability":"payable"},{"type":"function","name":"decodePackedRisk","inputs":[{"name":"packedRiskReport","type":"uint256","internalType":"uint256"}],"outputs":[{"name":"report","type":"tuple","internalType":"struct LiquidityV2DecodedRiskReport","components":[{"name":"core","type":"tuple","internalType":"struct PolicyCoreView","components":[{"name":"kind","type":"uint8","internalType":"enum PolicyKind"},{"name":"operation","type":"uint8","internalType":"uint8"},{"name":"version","type":"uint8","internalType":"uint8"},{"name":"finalCategory","type":"uint8","internalType":"enum PolicyRiskCategory"},{"name":"offChainCategory","type":"uint8","internalType":"enum PolicyRiskCategory"},{"name":"compositeScore","type":"uint8","internalType":"uint8"},{"name":"onChainScore","type":"uint8","internalType":"uint8"},{"name":"offChainScore","type":"uint8","internalType":"uint8"},{"name":"onChainCriticalCount","type":"uint8","internalType":"uint8"},{"name":"onChainWarningCount","type":"uint8","internalType":"uint8"},{"name":"offChainInfoCount","type":"uint8","internalType":"uint8"},{"name":"anyHardBlock","type":"bool","internalType":"bool"},{"name":"offChainValid","type":"bool","internalType":"bool"},{"name":"onChainFlagsPacked","type":"uint32","internalType":"uint32"},{"name":"offChainFlagsPacked","type":"uint32","internalType":"uint32"},{"name":"tokenFlagsPacked","type":"uint32","internalType":"uint32"},{"name":"priceImpactBps","type":"uint16","internalType":"uint16"},{"name":"outputDiscrepancyBps","type":"uint16","internalType":"uint16"},{"name":"ratioDeviationBps","type":"uint16","internalType":"uint16"},{"name":"tokenCriticalCount","type":"uint8","internalType":"uint8"},{"name":"tokenWarningCount","type":"uint8","internalType":"uint8"},{"name":"tokenRiskEvaluated","type":"bool","internalType":"bool"}]},{"name":"offChain","type":"tuple","internalType":"struct PolicyOffChainView","components":[{"name":"hasDangerousDelegateCall","type":"bool","internalType":"bool"},{"name":"hasSelfDestruct","type":"bool","internalType":"bool"},{"name":"hasApprovalDrain","type":"bool","internalType":"bool"},{"name":"hasOwnerSweep","type":"bool","internalType":"bool"},{"name":"hasReentrancy","type":"bool","internalType":"bool"},{"name":"hasUnexpectedCreate","type":"bool","internalType":"bool"},{"name":"hasUpgradeCall","type":"bool","internalType":"bool"},{"name":"isExitFrozen","type":"bool","internalType":"bool"},{"name":"isRemovalFrozen","type":"bool","internalType":"bool"},{"name":"isFirstDeposit","type":"bool","internalType":"bool"},{"name":"isFeeOnTransfer","type":"bool","internalType":"bool"},{"name":"anyOracleStale","type":"bool","internalType":"bool"},{"name":"anyContractUnverified","type":"bool","internalType":"bool"},{"name":"oracleDeviation","type":"bool","internalType":"bool"},{"name":"simulationReverted","type":"bool","internalType":"bool"}]},{"name":"tokenRisk","type":"tuple","internalType":"struct PolicyTokenFlagsView","components":[{"name":"evaluated","type":"bool","internalType":"bool"},{"name":"notAContract","type":"bool","internalType":"bool"},{"name":"emptyBytecode","type":"bool","internalType":"bool"},{"name":"decimalsRevert","type":"bool","internalType":"bool"},{"name":"weirdDecimals","type":"bool","internalType":"bool"},{"name":"highDecimals","type":"bool","internalType":"bool"},{"name":"totalSupplyRevert","type":"bool","internalType":"bool"},{"name":"zeroTotalSupply","type":"bool","internalType":"bool"},{"name":"veryLowTotalSupply","type":"bool","internalType":"bool"},{"name":"symbolRevert","type":"bool","internalType":"bool"},{"name":"nameRevert","type":"bool","internalType":"bool"},{"name":"isEip1967Proxy","type":"bool","internalType":"bool"},{"name":"isEip1822Proxy","type":"bool","internalType":"bool"},{"name":"isMinimalProxy","type":"bool","internalType":"bool"},{"name":"hasOwner","type":"bool","internalType":"bool"},{"name":"ownershipRenounced","type":"bool","internalType":"bool"},{"name":"ownerIsEoa","type":"bool","internalType":"bool"},{"name":"isPausable","type":"bool","internalType":"bool"},{"name":"isCurrentlyPaused","type":"bool","internalType":"bool"},{"name":"hasBlacklist","type":"bool","internalType":"bool"},{"name":"hasBlocklist","type":"bool","internalType":"bool"},{"name":"possibleFeeOnTransfer","type":"bool","internalType":"bool"},{"name":"hasTransferFeeGetter","type":"bool","internalType":"bool"},{"name":"hasTaxFunction","type":"bool","internalType":"bool"},{"name":"possibleRebasing","type":"bool","internalType":"bool"},{"name":"hasMintCapability","type":"bool","internalType":"bool"},{"name":"hasBurnCapability","type":"bool","internalType":"bool"},{"name":"hasPermit","type":"bool","internalType":"bool"},{"name":"hasFlashMint","type":"bool","internalType":"bool"}]},{"name":"enhancedView","type":"tuple","internalType":"struct EnhancedCoreView","components":[{"name":"economicSeverityTier","type":"uint8","internalType":"uint8"},{"name":"oracleAgeTier","type":"uint8","internalType":"uint8"},{"name":"excessPullTier","type":"uint8","internalType":"uint8"},{"name":"sharePriceDriftTier","type":"uint8","internalType":"uint8"},{"name":"compoundRiskCount","type":"uint8","internalType":"uint8"},{"name":"simulationRevertBlock","type":"bool","internalType":"bool"},{"name":"sweepSeverityTier","type":"uint8","internalType":"uint8"},{"name":"enhancedDataPresent","type":"bool","internalType":"bool"}]},{"name":"operation","type":"uint8","internalType":"enum LiquidityOpType"},{"name":"onChain","type":"tuple","internalType":"struct LiquidityV2OnChainView","components":[{"name":"routerNotTrusted","type":"bool","internalType":"bool"},{"name":"pairNotExists","type":"bool","internalType":"bool"},{"name":"zeroLiquidity","type":"bool","internalType":"bool"},{"name":"lowLiquidity","type":"bool","internalType":"bool"},{"name":"lowLpSupply","type":"bool","internalType":"bool"},{"name":"firstDepositorRisk","type":"bool","internalType":"bool"},{"name":"severeImbalance","type":"bool","internalType":"bool"},{"name":"kInvariantBroken","type":"bool","internalType":"bool"},{"name":"poolTooNew","type":"bool","internalType":"bool"},{"name":"amountRatioDeviation","type":"bool","internalType":"bool"},{"name":"highLpImpact","type":"bool","internalType":"bool"},{"name":"flashloanRisk","type":"bool","internalType":"bool"},{"name":"zeroLpOut","type":"bool","internalType":"bool"},{"name":"zeroAmountsOut","type":"bool","internalType":"bool"},{"name":"dustLp","type":"bool","internalType":"bool"}]}]}],"stateMutability":"view"},{"type":"function","name":"guardedAddLiquidity","inputs":[{"name":"params","type":"tuple","internalType":"struct LiquidityV2Router.AddLiquidityParams","components":[{"name":"ammRouter","type":"address","internalType":"address"},{"name":"tokenA","type":"address","internalType":"address"},{"name":"tokenB","type":"address","internalType":"address"},{"name":"amountADesired","type":"uint256","internalType":"uint256"},{"name":"amountBDesired","type":"uint256","internalType":"uint256"},{"name":"amountAMin","type":"uint256","internalType":"uint256"},{"name":"amountBMin","type":"uint256","internalType":"uint256"},{"name":"lpRecipient","type":"address","internalType":"address"},{"name":"refundRecipient","type":"address","internalType":"address"},{"name":"deadline","type":"uint256","internalType":"uint256"}]}],"outputs":[{"name":"amountAUsed","type":"uint256","internalType":"uint256"},{"name":"amountBUsed","type":"uint256","internalType":"uint256"},{"name":"liquidity","type":"uint256","internalType":"uint256"}],"stateMutability":"nonpayable"},{"type":"function","name":"guardedAddLiquidityETH","inputs":[{"name":"params","type":"tuple","internalType":"struct LiquidityV2Router.AddLiquidityETHParams","components":[{"name":"ammRouter","type":"address","internalType":"address"},{"name":"token","type":"address","internalType":"address"},{"name":"amountTokenDesired","type":"uint256","internalType":"uint256"},{"name":"amountTokenMin","type":"uint256","internalType":"uint256"},{"name":"amountETHMin","type":"uint256","internalType":"uint256"},{"name":"lpRecipient","type":"address","internalType":"address"},{"name":"refundRecipient","type":"address","internalType":"address"},{"name":"deadline","type":"uint256","internalType":"uint256"}]}],"outputs":[{"name":"tokenUsed","type":"uint256","internalType":"uint256"},{"name":"ethUsed","type":"uint256","internalType":"uint256"},{"name":"liquidity","type":"uint256","internalType":"uint256"}],"stateMutability":"payable"},{"type":"function","name":"guardedRemoveLiquidity","inputs":[{"name":"params","type":"tuple","internalType":"struct LiquidityV2Router.RemoveLiquidityParams","components":[{"name":"ammRouter","type":"address","internalType":"address"},{"name":"tokenA","type":"address","internalType":"address"},{"name":"tokenB","type":"address","internalType":"address"},{"name":"lpAmountToBurn","type":"uint256","internalType":"uint256"},{"name":"amountAMin","type":"uint256","internalType":"uint256"},{"name":"amountBMin","type":"uint256","internalType":"uint256"},{"name":"tokenRecipient","type":"address","internalType":"address"},{"name":"deadline","type":"uint256","internalType":"uint256"}]}],"outputs":[{"name":"amountAOut","type":"uint256","internalType":"uint256"},{"name":"amountBOut","type":"uint256","internalType":"uint256"},{"name":"packedRiskReport","type":"uint256","internalType":"uint256"}],"stateMutability":"nonpayable"},{"type":"function","name":"guardedRemoveLiquidityETH","inputs":[{"name":"params","type":"tuple","internalType":"struct LiquidityV2Router.RemoveLiquidityETHParams","components":[{"name":"ammRouter","type":"address","internalType":"address"},{"name":"token","type":"address","internalType":"address"},{"name":"lpAmountToBurn","type":"uint256","internalType":"uint256"},{"name":"amountTokenMin","type":"uint256","internalType":"uint256"},{"name":"amountETHMin","type":"uint256","internalType":"uint256"},{"name":"recipient","type":"address","internalType":"address"},{"name":"deadline","type":"uint256","internalType":"uint256"}]}],"outputs":[{"name":"tokenOut","type":"uint256","internalType":"uint256"},{"name":"ethOut","type":"uint256","internalType":"uint256"},{"name":"packedRiskReport","type":"uint256","internalType":"uint256"}],"stateMutability":"nonpayable"},{"type":"function","name":"liquidityGuard","inputs":[],"outputs":[{"name":"","type":"address","internalType":"contract ILiquidityV2Guard"}],"stateMutability":"view"},{"type":"function","name":"owner","inputs":[],"outputs":[{"name":"","type":"address","internalType":"address"}],"stateMutability":"view"},{"type":"function","name":"previewGuardedAddLiquidity","inputs":[{"name":"ammRouter","type":"address","internalType":"address"},{"name":"tokenA","type":"address","internalType":"address"},{"name":"tokenB","type":"address","internalType":"address"},{"name":"amountADesired","type":"uint256","internalType":"uint256"},{"name":"amountBDesired","type":"uint256","internalType":"uint256"}],"outputs":[{"name":"result","type":"tuple","internalType":"struct LiquidityV2GuardResult","components":[{"name":"ROUTER_NOT_TRUSTED","type":"bool","internalType":"bool"},{"name":"PAIR_NOT_EXISTS","type":"bool","internalType":"bool"},{"name":"ZERO_LIQUIDITY","type":"bool","internalType":"bool"},{"name":"LOW_LIQUIDITY","type":"bool","internalType":"bool"},{"name":"LOW_LP_SUPPLY","type":"bool","internalType":"bool"},{"name":"FIRST_DEPOSITOR_RISK","type":"bool","internalType":"bool"},{"name":"SEVERE_IMBALANCE","type":"bool","internalType":"bool"},{"name":"K_INVARIANT_BROKEN","type":"bool","internalType":"bool"},{"name":"POOL_TOO_NEW","type":"bool","internalType":"bool"},{"name":"AMOUNT_RATIO_DEVIATION","type":"bool","internalType":"bool"},{"name":"HIGH_LP_IMPACT","type":"bool","internalType":"bool"},{"name":"FLASHLOAN_RISK","type":"bool","internalType":"bool"},{"name":"ZERO_LP_OUT","type":"bool","internalType":"bool"},{"name":"ZERO_AMOUNTS_OUT","type":"bool","internalType":"bool"},{"name":"DUST_LP","type":"bool","internalType":"bool"},{"name":"tokenAResult","type":"tuple","internalType":"struct TokenGuardResult","components":[{"name":"NOT_A_CONTRACT","type":"bool","internalType":"bool"},{"name":"EMPTY_BYTECODE","type":"bool","internalType":"bool"},{"name":"DECIMALS_REVERT","type":"bool","internalType":"bool"},{"name":"WEIRD_DECIMALS","type":"bool","internalType":"bool"},{"name":"HIGH_DECIMALS","type":"bool","internalType":"bool"},{"name":"TOTAL_SUPPLY_REVERT","type":"bool","internalType":"bool"},{"name":"ZERO_TOTAL_SUPPLY","type":"bool","internalType":"bool"},{"name":"VERY_LOW_TOTAL_SUPPLY","type":"bool","internalType":"bool"},{"name":"SYMBOL_REVERT","type":"bool","internalType":"bool"},{"name":"NAME_REVERT","type":"bool","internalType":"bool"},{"name":"IS_EIP1967_PROXY","type":"bool","internalType":"bool"},{"name":"IS_EIP1822_PROXY","type":"bool","internalType":"bool"},{"name":"IS_MINIMAL_PROXY","type":"bool","internalType":"bool"},{"name":"HAS_OWNER","type":"bool","internalType":"bool"},{"name":"OWNERSHIP_RENOUNCED","type":"bool","internalType":"bool"},{"name":"OWNER_IS_EOA","type":"bool","internalType":"bool"},{"name":"IS_PAUSABLE","type":"bool","internalType":"bool"},{"name":"IS_CURRENTLY_PAUSED","type":"bool","internalType":"bool"},{"name":"HAS_BLACKLIST","type":"bool","internalType":"bool"},{"name":"HAS_BLOCKLIST","type":"bool","internalType":"bool"},{"name":"POSSIBLE_FEE_ON_TRANSFER","type":"bool","internalType":"bool"},{"name":"HAS_TRANSFER_FEE_GETTER","type":"bool","internalType":"bool"},{"name":"HAS_TAX_FUNCTION","type":"bool","internalType":"bool"},{"name":"POSSIBLE_REBASING","type":"bool","internalType":"bool"},{"name":"HAS_MINT_CAPABILITY","type":"bool","internalType":"bool"},{"name":"HAS_BURN_CAPABILITY","type":"bool","internalType":"bool"},{"name":"HAS_PERMIT","type":"bool","internalType":"bool"},{"name":"HAS_FLASH_MINT","type":"bool","internalType":"bool"}]},{"name":"tokenBResult","type":"tuple","internalType":"struct TokenGuardResult","components":[{"name":"NOT_A_CONTRACT","type":"bool","internalType":"bool"},{"name":"EMPTY_BYTECODE","type":"bool","internalType":"bool"},{"name":"DECIMALS_REVERT","type":"bool","internalType":"bool"},{"name":"WEIRD_DECIMALS","type":"bool","internalType":"bool"},{"name":"HIGH_DECIMALS","type":"bool","internalType":"bool"},{"name":"TOTAL_SUPPLY_REVERT","type":"bool","internalType":"bool"},{"name":"ZERO_TOTAL_SUPPLY","type":"bool","internalType":"bool"},{"name":"VERY_LOW_TOTAL_SUPPLY","type":"bool","internalType":"bool"},{"name":"SYMBOL_REVERT","type":"bool","internalType":"bool"},{"name":"NAME_REVERT","type":"bool","internalType":"bool"},{"name":"IS_EIP1967_PROXY","type":"bool","internalType":"bool"},{"name":"IS_EIP1822_PROXY","type":"bool","internalType":"bool"},{"name":"IS_MINIMAL_PROXY","type":"bool","internalType":"bool"},{"name":"HAS_OWNER","type":"bool","internalType":"bool"},{"name":"OWNERSHIP_RENOUNCED","type":"bool","internalType":"bool"},{"name":"OWNER_IS_EOA","type":"bool","internalType":"bool"},{"name":"IS_PAUSABLE","type":"bool","internalType":"bool"},{"name":"IS_CURRENTLY_PAUSED","type":"bool","internalType":"bool"},{"name":"HAS_BLACKLIST","type":"bool","internalType":"bool"},{"name":"HAS_BLOCKLIST","type":"bool","internalType":"bool"},{"name":"POSSIBLE_FEE_ON_TRANSFER","type":"bool","internalType":"bool"},{"name":"HAS_TRANSFER_FEE_GETTER","type":"bool","internalType":"bool"},{"name":"HAS_TAX_FUNCTION","type":"bool","internalType":"bool"},{"name":"POSSIBLE_REBASING","type":"bool","internalType":"bool"},{"name":"HAS_MINT_CAPABILITY","type":"bool","internalType":"bool"},{"name":"HAS_BURN_CAPABILITY","type":"bool","internalType":"bool"},{"name":"HAS_PERMIT","type":"bool","internalType":"bool"},{"name":"HAS_FLASH_MINT","type":"bool","internalType":"bool"}]}]}],"stateMutability":"nonpayable"},{"type":"function","name":"previewGuardedAddLiquidityETH","inputs":[{"name":"ammRouter","type":"address","internalType":"address"},{"name":"token","type":"address","internalType":"address"},{"name":"amountTokenDesired","type":"uint256","internalType":"uint256"},{"name":"amountETHDesired","type":"uint256","internalType":"uint256"}],"outputs":[{"name":"result","type":"tuple","internalType":"struct LiquidityV2GuardResult","components":[{"name":"ROUTER_NOT_TRUSTED","type":"bool","internalType":"bool"},{"name":"PAIR_NOT_EXISTS","type":"bool","internalType":"bool"},{"name":"ZERO_LIQUIDITY","type":"bool","internalType":"bool"},{"name":"LOW_LIQUIDITY","type":"bool","internalType":"bool"},{"name":"LOW_LP_SUPPLY","type":"bool","internalType":"bool"},{"name":"FIRST_DEPOSITOR_RISK","type":"bool","internalType":"bool"},{"name":"SEVERE_IMBALANCE","type":"bool","internalType":"bool"},{"name":"K_INVARIANT_BROKEN","type":"bool","internalType":"bool"},{"name":"POOL_TOO_NEW","type":"bool","internalType":"bool"},{"name":"AMOUNT_RATIO_DEVIATION","type":"bool","internalType":"bool"},{"name":"HIGH_LP_IMPACT","type":"bool","internalType":"bool"},{"name":"FLASHLOAN_RISK","type":"bool","internalType":"bool"},{"name":"ZERO_LP_OUT","type":"bool","internalType":"bool"},{"name":"ZERO_AMOUNTS_OUT","type":"bool","internalType":"bool"},{"name":"DUST_LP","type":"bool","internalType":"bool"},{"name":"tokenAResult","type":"tuple","internalType":"struct TokenGuardResult","components":[{"name":"NOT_A_CONTRACT","type":"bool","internalType":"bool"},{"name":"EMPTY_BYTECODE","type":"bool","internalType":"bool"},{"name":"DECIMALS_REVERT","type":"bool","internalType":"bool"},{"name":"WEIRD_DECIMALS","type":"bool","internalType":"bool"},{"name":"HIGH_DECIMALS","type":"bool","internalType":"bool"},{"name":"TOTAL_SUPPLY_REVERT","type":"bool","internalType":"bool"},{"name":"ZERO_TOTAL_SUPPLY","type":"bool","internalType":"bool"},{"name":"VERY_LOW_TOTAL_SUPPLY","type":"bool","internalType":"bool"},{"name":"SYMBOL_REVERT","type":"bool","internalType":"bool"},{"name":"NAME_REVERT","type":"bool","internalType":"bool"},{"name":"IS_EIP1967_PROXY","type":"bool","internalType":"bool"},{"name":"IS_EIP1822_PROXY","type":"bool","internalType":"bool"},{"name":"IS_MINIMAL_PROXY","type":"bool","internalType":"bool"},{"name":"HAS_OWNER","type":"bool","internalType":"bool"},{"name":"OWNERSHIP_RENOUNCED","type":"bool","internalType":"bool"},{"name":"OWNER_IS_EOA","type":"bool","internalType":"bool"},{"name":"IS_PAUSABLE","type":"bool","internalType":"bool"},{"name":"IS_CURRENTLY_PAUSED","type":"bool","internalType":"bool"},{"name":"HAS_BLACKLIST","type":"bool","internalType":"bool"},{"name":"HAS_BLOCKLIST","type":"bool","internalType":"bool"},{"name":"POSSIBLE_FEE_ON_TRANSFER","type":"bool","internalType":"bool"},{"name":"HAS_TRANSFER_FEE_GETTER","type":"bool","internalType":"bool"},{"name":"HAS_TAX_FUNCTION","type":"bool","internalType":"bool"},{"name":"POSSIBLE_REBASING","type":"bool","internalType":"bool"},{"name":"HAS_MINT_CAPABILITY","type":"bool","internalType":"bool"},{"name":"HAS_BURN_CAPABILITY","type":"bool","internalType":"bool"},{"name":"HAS_PERMIT","type":"bool","internalType":"bool"},{"name":"HAS_FLASH_MINT","type":"bool","internalType":"bool"}]},{"name":"tokenBResult","type":"tuple","internalType":"struct TokenGuardResult","components":[{"name":"NOT_A_CONTRACT","type":"bool","internalType":"bool"},{"name":"EMPTY_BYTECODE","type":"bool","internalType":"bool"},{"name":"DECIMALS_REVERT","type":"bool","internalType":"bool"},{"name":"WEIRD_DECIMALS","type":"bool","internalType":"bool"},{"name":"HIGH_DECIMALS","type":"bool","internalType":"bool"},{"name":"TOTAL_SUPPLY_REVERT","type":"bool","internalType":"bool"},{"name":"ZERO_TOTAL_SUPPLY","type":"bool","internalType":"bool"},{"name":"VERY_LOW_TOTAL_SUPPLY","type":"bool","internalType":"bool"},{"name":"SYMBOL_REVERT","type":"bool","internalType":"bool"},{"name":"NAME_REVERT","type":"bool","internalType":"bool"},{"name":"IS_EIP1967_PROXY","type":"bool","internalType":"bool"},{"name":"IS_EIP1822_PROXY","type":"bool","internalType":"bool"},{"name":"IS_MINIMAL_PROXY","type":"bool","internalType":"bool"},{"name":"HAS_OWNER","type":"bool","internalType":"bool"},{"name":"OWNERSHIP_RENOUNCED","type":"bool","internalType":"bool"},{"name":"OWNER_IS_EOA","type":"bool","internalType":"bool"},{"name":"IS_PAUSABLE","type":"bool","internalType":"bool"},{"name":"IS_CURRENTLY_PAUSED","type":"bool","internalType":"bool"},{"name":"HAS_BLACKLIST","type":"bool","internalType":"bool"},{"name":"HAS_BLOCKLIST","type":"bool","internalType":"bool"},{"name":"POSSIBLE_FEE_ON_TRANSFER","type":"bool","internalType":"bool"},{"name":"HAS_TRANSFER_FEE_GETTER","type":"bool","internalType":"bool"},{"name":"HAS_TAX_FUNCTION","type":"bool","internalType":"bool"},{"name":"POSSIBLE_REBASING","type":"bool","internalType":"bool"},{"name":"HAS_MINT_CAPABILITY","type":"bool","internalType":"bool"},{"name":"HAS_BURN_CAPABILITY","type":"bool","internalType":"bool"},{"name":"HAS_PERMIT","type":"bool","internalType":"bool"},{"name":"HAS_FLASH_MINT","type":"bool","internalType":"bool"}]}]}],"stateMutability":"nonpayable"},{"type":"function","name":"previewGuardedRemoveLiquidity","inputs":[{"name":"ammRouter","type":"address","internalType":"address"},{"name":"tokenA","type":"address","internalType":"address"},{"name":"tokenB","type":"address","internalType":"address"},{"name":"lpAmountToBurn","type":"uint256","internalType":"uint256"}],"outputs":[{"name":"result","type":"tuple","internalType":"struct LiquidityV2GuardResult","components":[{"name":"ROUTER_NOT_TRUSTED","type":"bool","internalType":"bool"},{"name":"PAIR_NOT_EXISTS","type":"bool","internalType":"bool"},{"name":"ZERO_LIQUIDITY","type":"bool","internalType":"bool"},{"name":"LOW_LIQUIDITY","type":"bool","internalType":"bool"},{"name":"LOW_LP_SUPPLY","type":"bool","internalType":"bool"},{"name":"FIRST_DEPOSITOR_RISK","type":"bool","internalType":"bool"},{"name":"SEVERE_IMBALANCE","type":"bool","internalType":"bool"},{"name":"K_INVARIANT_BROKEN","type":"bool","internalType":"bool"},{"name":"POOL_TOO_NEW","type":"bool","internalType":"bool"},{"name":"AMOUNT_RATIO_DEVIATION","type":"bool","internalType":"bool"},{"name":"HIGH_LP_IMPACT","type":"bool","internalType":"bool"},{"name":"FLASHLOAN_RISK","type":"bool","internalType":"bool"},{"name":"ZERO_LP_OUT","type":"bool","internalType":"bool"},{"name":"ZERO_AMOUNTS_OUT","type":"bool","internalType":"bool"},{"name":"DUST_LP","type":"bool","internalType":"bool"},{"name":"tokenAResult","type":"tuple","internalType":"struct TokenGuardResult","components":[{"name":"NOT_A_CONTRACT","type":"bool","internalType":"bool"},{"name":"EMPTY_BYTECODE","type":"bool","internalType":"bool"},{"name":"DECIMALS_REVERT","type":"bool","internalType":"bool"},{"name":"WEIRD_DECIMALS","type":"bool","internalType":"bool"},{"name":"HIGH_DECIMALS","type":"bool","internalType":"bool"},{"name":"TOTAL_SUPPLY_REVERT","type":"bool","internalType":"bool"},{"name":"ZERO_TOTAL_SUPPLY","type":"bool","internalType":"bool"},{"name":"VERY_LOW_TOTAL_SUPPLY","type":"bool","internalType":"bool"},{"name":"SYMBOL_REVERT","type":"bool","internalType":"bool"},{"name":"NAME_REVERT","type":"bool","internalType":"bool"},{"name":"IS_EIP1967_PROXY","type":"bool","internalType":"bool"},{"name":"IS_EIP1822_PROXY","type":"bool","internalType":"bool"},{"name":"IS_MINIMAL_PROXY","type":"bool","internalType":"bool"},{"name":"HAS_OWNER","type":"bool","internalType":"bool"},{"name":"OWNERSHIP_RENOUNCED","type":"bool","internalType":"bool"},{"name":"OWNER_IS_EOA","type":"bool","internalType":"bool"},{"name":"IS_PAUSABLE","type":"bool","internalType":"bool"},{"name":"IS_CURRENTLY_PAUSED","type":"bool","internalType":"bool"},{"name":"HAS_BLACKLIST","type":"bool","internalType":"bool"},{"name":"HAS_BLOCKLIST","type":"bool","internalType":"bool"},{"name":"POSSIBLE_FEE_ON_TRANSFER","type":"bool","internalType":"bool"},{"name":"HAS_TRANSFER_FEE_GETTER","type":"bool","internalType":"bool"},{"name":"HAS_TAX_FUNCTION","type":"bool","internalType":"bool"},{"name":"POSSIBLE_REBASING","type":"bool","internalType":"bool"},{"name":"HAS_MINT_CAPABILITY","type":"bool","internalType":"bool"},{"name":"HAS_BURN_CAPABILITY","type":"bool","internalType":"bool"},{"name":"HAS_PERMIT","type":"bool","internalType":"bool"},{"name":"HAS_FLASH_MINT","type":"bool","internalType":"bool"}]},{"name":"tokenBResult","type":"tuple","internalType":"struct TokenGuardResult","components":[{"name":"NOT_A_CONTRACT","type":"bool","internalType":"bool"},{"name":"EMPTY_BYTECODE","type":"bool","internalType":"bool"},{"name":"DECIMALS_REVERT","type":"bool","internalType":"bool"},{"name":"WEIRD_DECIMALS","type":"bool","internalType":"bool"},{"name":"HIGH_DECIMALS","type":"bool","internalType":"bool"},{"name":"TOTAL_SUPPLY_REVERT","type":"bool","internalType":"bool"},{"name":"ZERO_TOTAL_SUPPLY","type":"bool","internalType":"bool"},{"name":"VERY_LOW_TOTAL_SUPPLY","type":"bool","internalType":"bool"},{"name":"SYMBOL_REVERT","type":"bool","internalType":"bool"},{"name":"NAME_REVERT","type":"bool","internalType":"bool"},{"name":"IS_EIP1967_PROXY","type":"bool","internalType":"bool"},{"name":"IS_EIP1822_PROXY","type":"bool","internalType":"bool"},{"name":"IS_MINIMAL_PROXY","type":"bool","internalType":"bool"},{"name":"HAS_OWNER","type":"bool","internalType":"bool"},{"name":"OWNERSHIP_RENOUNCED","type":"bool","internalType":"bool"},{"name":"OWNER_IS_EOA","type":"bool","internalType":"bool"},{"name":"IS_PAUSABLE","type":"bool","internalType":"bool"},{"name":"IS_CURRENTLY_PAUSED","type":"bool","internalType":"bool"},{"name":"HAS_BLACKLIST","type":"bool","internalType":"bool"},{"name":"HAS_BLOCKLIST","type":"bool","internalType":"bool"},{"name":"POSSIBLE_FEE_ON_TRANSFER","type":"bool","internalType":"bool"},{"name":"HAS_TRANSFER_FEE_GETTER","type":"bool","internalType":"bool"},{"name":"HAS_TAX_FUNCTION","type":"bool","internalType":"bool"},{"name":"POSSIBLE_REBASING","type":"bool","internalType":"bool"},{"name":"HAS_MINT_CAPABILITY","type":"bool","internalType":"bool"},{"name":"HAS_BURN_CAPABILITY","type":"bool","internalType":"bool"},{"name":"HAS_PERMIT","type":"bool","internalType":"bool"},{"name":"HAS_FLASH_MINT","type":"bool","internalType":"bool"}]}]}],"stateMutability":"nonpayable"},{"type":"function","name":"previewGuardedRemoveLiquidityETH","inputs":[{"name":"ammRouter","type":"address","internalType":"address"},{"name":"token","type":"address","internalType":"address"},{"name":"lpAmountToBurn","type":"uint256","internalType":"uint256"}],"outputs":[{"name":"result","type":"tuple","internalType":"struct LiquidityV2GuardResult","components":[{"name":"ROUTER_NOT_TRUSTED","type":"bool","internalType":"bool"},{"name":"PAIR_NOT_EXISTS","type":"bool","internalType":"bool"},{"name":"ZERO_LIQUIDITY","type":"bool","internalType":"bool"},{"name":"LOW_LIQUIDITY","type":"bool","internalType":"bool"},{"name":"LOW_LP_SUPPLY","type":"bool","internalType":"bool"},{"name":"FIRST_DEPOSITOR_RISK","type":"bool","internalType":"bool"},{"name":"SEVERE_IMBALANCE","type":"bool","internalType":"bool"},{"name":"K_INVARIANT_BROKEN","type":"bool","internalType":"bool"},{"name":"POOL_TOO_NEW","type":"bool","internalType":"bool"},{"name":"AMOUNT_RATIO_DEVIATION","type":"bool","internalType":"bool"},{"name":"HIGH_LP_IMPACT","type":"bool","internalType":"bool"},{"name":"FLASHLOAN_RISK","type":"bool","internalType":"bool"},{"name":"ZERO_LP_OUT","type":"bool","internalType":"bool"},{"name":"ZERO_AMOUNTS_OUT","type":"bool","internalType":"bool"},{"name":"DUST_LP","type":"bool","internalType":"bool"},{"name":"tokenAResult","type":"tuple","internalType":"struct TokenGuardResult","components":[{"name":"NOT_A_CONTRACT","type":"bool","internalType":"bool"},{"name":"EMPTY_BYTECODE","type":"bool","internalType":"bool"},{"name":"DECIMALS_REVERT","type":"bool","internalType":"bool"},{"name":"WEIRD_DECIMALS","type":"bool","internalType":"bool"},{"name":"HIGH_DECIMALS","type":"bool","internalType":"bool"},{"name":"TOTAL_SUPPLY_REVERT","type":"bool","internalType":"bool"},{"name":"ZERO_TOTAL_SUPPLY","type":"bool","internalType":"bool"},{"name":"VERY_LOW_TOTAL_SUPPLY","type":"bool","internalType":"bool"},{"name":"SYMBOL_REVERT","type":"bool","internalType":"bool"},{"name":"NAME_REVERT","type":"bool","internalType":"bool"},{"name":"IS_EIP1967_PROXY","type":"bool","internalType":"bool"},{"name":"IS_EIP1822_PROXY","type":"bool","internalType":"bool"},{"name":"IS_MINIMAL_PROXY","type":"bool","internalType":"bool"},{"name":"HAS_OWNER","type":"bool","internalType":"bool"},{"name":"OWNERSHIP_RENOUNCED","type":"bool","internalType":"bool"},{"name":"OWNER_IS_EOA","type":"bool","internalType":"bool"},{"name":"IS_PAUSABLE","type":"bool","internalType":"bool"},{"name":"IS_CURRENTLY_PAUSED","type":"bool","internalType":"bool"},{"name":"HAS_BLACKLIST","type":"bool","internalType":"bool"},{"name":"HAS_BLOCKLIST","type":"bool","internalType":"bool"},{"name":"POSSIBLE_FEE_ON_TRANSFER","type":"bool","internalType":"bool"},{"name":"HAS_TRANSFER_FEE_GETTER","type":"bool","internalType":"bool"},{"name":"HAS_TAX_FUNCTION","type":"bool","internalType":"bool"},{"name":"POSSIBLE_REBASING","type":"bool","internalType":"bool"},{"name":"HAS_MINT_CAPABILITY","type":"bool","internalType":"bool"},{"name":"HAS_BURN_CAPABILITY","type":"bool","internalType":"bool"},{"name":"HAS_PERMIT","type":"bool","internalType":"bool"},{"name":"HAS_FLASH_MINT","type":"bool","internalType":"bool"}]},{"name":"tokenBResult","type":"tuple","internalType":"struct TokenGuardResult","components":[{"name":"NOT_A_CONTRACT","type":"bool","internalType":"bool"},{"name":"EMPTY_BYTECODE","type":"bool","internalType":"bool"},{"name":"DECIMALS_REVERT","type":"bool","internalType":"bool"},{"name":"WEIRD_DECIMALS","type":"bool","internalType":"bool"},{"name":"HIGH_DECIMALS","type":"bool","internalType":"bool"},{"name":"TOTAL_SUPPLY_REVERT","type":"bool","internalType":"bool"},{"name":"ZERO_TOTAL_SUPPLY","type":"bool","internalType":"bool"},{"name":"VERY_LOW_TOTAL_SUPPLY","type":"bool","internalType":"bool"},{"name":"SYMBOL_REVERT","type":"bool","internalType":"bool"},{"name":"NAME_REVERT","type":"bool","internalType":"bool"},{"name":"IS_EIP1967_PROXY","type":"bool","internalType":"bool"},{"name":"IS_EIP1822_PROXY","type":"bool","internalType":"bool"},{"name":"IS_MINIMAL_PROXY","type":"bool","internalType":"bool"},{"name":"HAS_OWNER","type":"bool","internalType":"bool"},{"name":"OWNERSHIP_RENOUNCED","type":"bool","internalType":"bool"},{"name":"OWNER_IS_EOA","type":"bool","internalType":"bool"},{"name":"IS_PAUSABLE","type":"bool","internalType":"bool"},{"name":"IS_CURRENTLY_PAUSED","type":"bool","internalType":"bool"},{"name":"HAS_BLACKLIST","type":"bool","internalType":"bool"},{"name":"HAS_BLOCKLIST","type":"bool","internalType":"bool"},{"name":"POSSIBLE_FEE_ON_TRANSFER","type":"bool","internalType":"bool"},{"name":"HAS_TRANSFER_FEE_GETTER","type":"bool","internalType":"bool"},{"name":"HAS_TAX_FUNCTION","type":"bool","internalType":"bool"},{"name":"POSSIBLE_REBASING","type":"bool","internalType":"bool"},{"name":"HAS_MINT_CAPABILITY","type":"bool","internalType":"bool"},{"name":"HAS_BURN_CAPABILITY","type":"bool","internalType":"bool"},{"name":"HAS_PERMIT","type":"bool","internalType":"bool"},{"name":"HAS_FLASH_MINT","type":"bool","internalType":"bool"}]}]}],"stateMutability":"nonpayable"},{"type":"function","name":"renounceOwnership","inputs":[],"outputs":[],"stateMutability":"nonpayable"},{"type":"function","name":"rescueERC20","inputs":[{"name":"token","type":"address","internalType":"address"},{"name":"to","type":"address","internalType":"address"},{"name":"amount","type":"uint256","internalType":"uint256"}],"outputs":[],"stateMutability":"nonpayable"},{"type":"function","name":"rescueETH","inputs":[{"name":"to","type":"address","internalType":"address payable"},{"name":"amount","type":"uint256","internalType":"uint256"}],"outputs":[],"stateMutability":"nonpayable"},{"type":"function","name":"riskPolicy","inputs":[],"outputs":[{"name":"","type":"address","internalType":"contract ILiquidityV2RiskPolicy"}],"stateMutability":"view"},{"type":"function","name":"riskReportNFT","inputs":[],"outputs":[{"name":"","type":"address","internalType":"contract IRiskReportNFT"}],"stateMutability":"view"},{"type":"function","name":"setLiquidityGuard","inputs":[{"name":"newGuard","type":"address","internalType":"address"}],"outputs":[],"stateMutability":"nonpayable"},{"type":"function","name":"setRiskPolicy","inputs":[{"name":"newRiskPolicy","type":"address","internalType":"address"}],"outputs":[],"stateMutability":"nonpayable"},{"type":"function","name":"setRiskReportNFT","inputs":[{"name":"newRiskReportNFT","type":"address","internalType":"address"}],"outputs":[],"stateMutability":"nonpayable"},{"type":"function","name":"storeAndMintAddLiquidityCheck","inputs":[{"name":"ammRouter","type":"address","internalType":"address"},{"name":"tokenA","type":"address","internalType":"address"},{"name":"tokenB","type":"address","internalType":"address"},{"name":"amountADesired","type":"uint256","internalType":"uint256"},{"name":"amountBDesired","type":"uint256","internalType":"uint256"},{"name":"offChainData","type":"bytes","internalType":"bytes"}],"outputs":[{"name":"packedRiskReport","type":"uint256","internalType":"uint256"}],"stateMutability":"nonpayable"},{"type":"function","name":"storeAndMintAddLiquidityETHCheck","inputs":[{"name":"ammRouter","type":"address","internalType":"address"},{"name":"token","type":"address","internalType":"address"},{"name":"amountTokenDesired","type":"uint256","internalType":"uint256"},{"name":"amountETHDesired","type":"uint256","internalType":"uint256"},{"name":"offChainData","type":"bytes","internalType":"bytes"}],"outputs":[{"name":"packedRiskReport","type":"uint256","internalType":"uint256"}],"stateMutability":"nonpayable"},{"type":"function","name":"storeAndMintRemoveLiquidityCheck","inputs":[{"name":"ammRouter","type":"address","internalType":"address"},{"name":"tokenA","type":"address","internalType":"address"},{"name":"tokenB","type":"address","internalType":"address"},{"name":"lpAmountToBurn","type":"uint256","internalType":"uint256"},{"name":"offChainData","type":"bytes","internalType":"bytes"}],"outputs":[{"name":"packedRiskReport","type":"uint256","internalType":"uint256"}],"stateMutability":"nonpayable"},{"type":"function","name":"storeAndMintRemoveLiquidityETHCheck","inputs":[{"name":"ammRouter","type":"address","internalType":"address"},{"name":"token","type":"address","internalType":"address"},{"name":"lpAmountToBurn","type":"uint256","internalType":"uint256"},{"name":"offChainData","type":"bytes","internalType":"bytes"}],"outputs":[{"name":"packedRiskReport","type":"uint256","internalType":"uint256"}],"stateMutability":"nonpayable"},{"type":"function","name":"transferOwnership","inputs":[{"name":"newOwner","type":"address","internalType":"address"}],"outputs":[],"stateMutability":"nonpayable"},{"type":"event","name":"GuardedLiquidityExecuted","inputs":[{"name":"user","type":"address","indexed":true,"internalType":"address"},{"name":"ammRouter","type":"address","indexed":true,"internalType":"address"},{"name":"recipient","type":"address","indexed":true,"internalType":"address"},{"name":"operation","type":"uint8","indexed":false,"internalType":"enum LiquidityOperationType"}],"anonymous":false},{"type":"event","name":"LiquidityCheckStored","inputs":[{"name":"user","type":"address","indexed":true,"internalType":"address"},{"name":"ammRouter","type":"address","indexed":true,"internalType":"address"},{"name":"operation","type":"uint8","indexed":false,"internalType":"enum LiquidityOperationType"},{"name":"tokenA","type":"address","indexed":false,"internalType":"address"},{"name":"tokenB","type":"address","indexed":false,"internalType":"address"},{"name":"amountA","type":"uint256","indexed":false,"internalType":"uint256"},{"name":"amountB","type":"uint256","indexed":false,"internalType":"uint256"},{"name":"packedRiskReport","type":"uint256","indexed":false,"internalType":"uint256"}],"anonymous":false},{"type":"event","name":"LiquidityGuardUpdated","inputs":[{"name":"newGuard","type":"address","indexed":true,"internalType":"address"}],"anonymous":false},{"type":"event","name":"OwnershipTransferred","inputs":[{"name":"previousOwner","type":"address","indexed":true,"internalType":"address"},{"name":"newOwner","type":"address","indexed":true,"internalType":"address"}],"anonymous":false},{"type":"event","name":"RiskPolicyUpdated","inputs":[{"name":"newRiskPolicy","type":"address","indexed":true,"internalType":"address"}],"anonymous":false},{"type":"event","name":"RiskReportNFTUpdated","inputs":[{"name":"newRiskReportNFT","type":"address","indexed":true,"internalType":"address"}],"anonymous":false},{"type":"error","name":"InvalidEthValue","inputs":[]},{"type":"error","name":"InvalidRecipient","inputs":[]},{"type":"error","name":"PairNotFound","inputs":[]},{"type":"error","name":"ZeroAddress","inputs":[]}],"bytecode":{"object":"0x608060405234801561000f575f5ffd5b50604051616c56380380616c5683398181016040528101906100319190610314565b61004d6100426101ee60201b60201c565b6101f560201b60201c565b600180819055505f73ffffffffffffffffffffffffffffffffffffffff168373ffffffffffffffffffffffffffffffffffffffff1614806100b957505f73ffffffffffffffffffffffffffffffffffffffff168273ffffffffffffffffffffffffffffffffffffffff16145b806100ef57505f73ffffffffffffffffffffffffffffffffffffffff168173ffffffffffffffffffffffffffffffffffffffff16145b15610126576040517fd92e233d00000000000000000000000000000000000000000000000000000000815260040160405180910390fd5b8260025f6101000a81548173ffffffffffffffffffffffffffffffffffffffff021916908373ffffffffffffffffffffffffffffffffffffffff1602179055508160035f6101000a81548173ffffffffffffffffffffffffffffffffffffffff021916908373ffffffffffffffffffffffffffffffffffffffff1602179055508060045f6101000a81548173ffffffffffffffffffffffffffffffffffffffff021916908373ffffffffffffffffffffffffffffffffffffffff160217905550505050610364565b5f33905090565b5f5f5f9054906101000a900473ffffffffffffffffffffffffffffffffffffffff169050815f5f6101000a81548173ffffffffffffffffffffffffffffffffffffffff021916908373ffffffffffffffffffffffffffffffffffffffff1602179055508173ffffffffffffffffffffffffffffffffffffffff168173ffffffffffffffffffffffffffffffffffffffff167f8be0079c531659141344cd1fd0a4f28419497f9722a3daafe3b4186f6b6457e060405160405180910390a35050565b5f5ffd5b5f73ffffffffffffffffffffffffffffffffffffffff82169050919050565b5f6102e3826102ba565b9050919050565b6102f3816102d9565b81146102fd575f5ffd5b50565b5f8151905061030e816102ea565b92915050565b5f5f5f6060848603121561032b5761032a6102b6565b5b5f61033886828701610300565b935050602061034986828701610300565b925050604061035a86828701610300565b9150509250925092565b6168e5806103715f395ff3fe60806040526004361061014e575f3560e01c8063715018a6116100b5578063be0b801d1161006e578063be0b801d146104ef578063be11c9aa1461052d578063bf72b2a71461056b578063c1faf3ac14610595578063e98216f1146105bd578063f2fde38b146105e757610155565b8063715018a6146103e75780638da5cb5b146103fd5780639200843814610427578063b2118a8d1461044f578063b757118314610477578063b7bfad92146104b357610155565b806341be4aca1161010757806341be4aca1461028f57806355a73f90146102cb5780635a2266fe146102f55780635f78ea43146103315780636844d3a31461036d5780636e8cb336146103a957610155565b8063099a04e5146101595780631d371c1f146101815780631db83067146101b35780631f339e7b146101ef5780633e2fa3fa146102175780633ff4d9a01461025357610155565b3661015557005b5f5ffd5b348015610164575f5ffd5b5061017f600480360381019061017a919061393a565b61060f565b005b61019b6004803603810190610196919061399b565b610729565b6040516101aa939291906139d6565b60405180910390f35b3480156101be575f5ffd5b506101d960048036038101906101d49190613aa7565b610c14565b6040516101e69190613b2b565b60405180910390f35b3480156101fa575f5ffd5b5061021560048036038101906102109190613b44565b610e87565b005b348015610222575f5ffd5b5061023d60048036038101906102389190613b6f565b610f7a565b60405161024a9190613b2b565b60405180910390f35b34801561025e575f5ffd5b5061027960048036038101906102749190613c19565b6111ec565b6040516102869190614038565b60405180910390f35b34801561029a575f5ffd5b506102b560048036038101906102b09190614052565b6112a6565b6040516102c29190614038565b60405180910390f35b3480156102d6575f5ffd5b506102df611360565b6040516102ec9190614111565b60405180910390f35b348015610300575f5ffd5b5061031b6004803603810190610316919061412a565b611385565b6040516103289190613b2b565b60405180910390f35b34801561033c575f5ffd5b50610357600480360381019061035291906141c0565b6115f9565b6040516103649190613b2b565b60405180910390f35b348015610378575f5ffd5b50610393600480360381019061038e9190614256565b61186d565b6040516103a09190614b79565b60405180910390f35b3480156103b4575f5ffd5b506103cf60048036038101906103ca9190614bb1565b611916565b6040516103de939291906139d6565b60405180910390f35b3480156103f2575f5ffd5b506103fb611cd5565b005b348015610408575f5ffd5b50610411611ce8565b60405161041e9190614beb565b60405180910390f35b348015610432575f5ffd5b5061044d60048036038101906104489190613b44565b611d0f565b005b34801561045a575f5ffd5b5061047560048036038101906104709190614c04565b611e02565b005b348015610482575f5ffd5b5061049d60048036038101906104989190614c04565b611e9f565b6040516104aa9190614038565b60405180910390f35b3480156104be575f5ffd5b506104d960048036038101906104d49190614c54565b611f58565b6040516104e69190614038565b60405180910390f35b3480156104fa575f5ffd5b5061051560048036038101906105109190614cea565b612012565b604051610524939291906139d6565b60405180910390f35b348015610538575f5ffd5b50610553600480360381019061054e9190614d35565b612387565b604051610562939291906139d6565b60405180910390f35b348015610576575f5ffd5b5061057f6128d3565b60405161058c9190614d81565b60405180910390f35b3480156105a0575f5ffd5b506105bb60048036038101906105b69190613b44565b6128f8565b005b3480156105c8575f5ffd5b506105d16129eb565b6040516105de9190614dba565b60405180910390f35b3480156105f2575f5ffd5b5061060d60048036038101906106089190613b44565b612a10565b005b610617612a92565b5f73ffffffffffffffffffffffffffffffffffffffff168273ffffffffffffffffffffffffffffffffffffffff160361067c576040517fd92e233d00000000000000000000000000000000000000000000000000000000815260040160405180910390fd5b5f8273ffffffffffffffffffffffffffffffffffffffff16826040516106a190614e00565b5f6040518083038185875af1925050503d805f81146106db576040519150601f19603f3d011682016040523d82523d5f602084013e6106e0565b606091505b5050905080610724576040517f08c379a000000000000000000000000000000000000000000000000000000000815260040161071b90614e6e565b60405180910390fd5b505050565b5f5f5f610734612b10565b61074f8460a001602081019061074a9190613b44565b612b5f565b61076a8460c00160208101906107659190613b44565b612b5f565b5f34036107a3576040517f715a6e9e00000000000000000000000000000000000000000000000000000000815260040160405180910390fd5b5f34476107b09190614eb9565b905060025f9054906101000a900473ffffffffffffffffffffffffffffffffffffffff1673ffffffffffffffffffffffffffffffffffffffff1663ddaba7b7865f0160208101906108019190613b44565b8760200160208101906108149190613b44565b5f8960400135343360016040518863ffffffff1660e01b81526004016108409796959493929190614f32565b5f6040518083038186803b158015610856575f5ffd5b505afa158015610868573d5f5f3e3d5ffd5b505050506108af333087604001358860200160208101906108899190613b44565b73ffffffffffffffffffffffffffffffffffffffff16612bc7909392919063ffffffff16565b610901855f0160208101906108c49190613b44565b86604001358760200160208101906108dc9190613b44565b73ffffffffffffffffffffffffffffffffffffffff16612c509092919063ffffffff16565b845f0160208101906109139190613b44565b73ffffffffffffffffffffffffffffffffffffffff1663f305d719348760200160208101906109429190613b44565b886040013589606001358a608001358b60a00160208101906109649190613b44565b8c60e001356040518863ffffffff1660e01b815260040161098a96959493929190614f9f565b60606040518083038185885af11580156109a6573d5f5f3e3d5ffd5b50505050506040513d601f19601f820116820180604052508101906109cb9190615012565b809450819550829650505050610a25855f0160208101906109ec9190613b44565b5f876020016020810190610a009190613b44565b73ffffffffffffffffffffffffffffffffffffffff16612c509092919063ffffffff16565b8385604001351115610a9057610a8f8560c0016020810190610a479190613b44565b858760400135610a579190614eb9565b876020016020810190610a6a9190613b44565b73ffffffffffffffffffffffffffffffffffffffff16612d6b9092919063ffffffff16565b5b5f8147610a9d9190614eb9565b90505f811115610b63575f8660c0016020810190610abb9190613b44565b73ffffffffffffffffffffffffffffffffffffffff1682604051610ade90614e00565b5f6040518083038185875af1925050503d805f8114610b18576040519150601f19603f3d011682016040523d82523d5f602084013e610b1d565b606091505b5050905080610b61576040517f08c379a0000000000000000000000000000000000000000000000000000000008152600401610b58906150ac565b60405180910390fd5b505b8560a0016020810190610b769190613b44565b73ffffffffffffffffffffffffffffffffffffffff16865f016020810190610b9e9190613b44565b73ffffffffffffffffffffffffffffffffffffffff163373ffffffffffffffffffffffffffffffffffffffff167f697f0efd87c97463af219518d1bca2e283aa540a9e1a25b6ee502ddc4c1ac39f6001604051610bfb91906150ca565b60405180910390a45050610c0d612df1565b9193909250565b5f610c1d612b10565b5f60025f9054906101000a900473ffffffffffffffffffffffffffffffffffffffff1673ffffffffffffffffffffffffffffffffffffffff166310bfc47788885f895f3360036040518863ffffffff1660e01b8152600401610c85979695949392919061511c565b6108e0604051808303815f875af1158015610ca2573d5f5f3e3d5ffd5b505050506040513d601f19601f82011682018060405250810190610cc6919061564b565b905060035f9054906101000a900473ffffffffffffffffffffffffffffffffffffffff1673ffffffffffffffffffffffffffffffffffffffff16634b1d866385858460036040518563ffffffff1660e01b8152600401610d2994939291906156d0565b602060405180830381865afa158015610d44573d5f5f3e3d5ffd5b505050506040513d601f19601f82011682018060405250810190610d689190615710565b915060045f9054906101000a900473ffffffffffffffffffffffffffffffffffffffff1673ffffffffffffffffffffffffffffffffffffffff1663a0712d68836040518263ffffffff1660e01b8152600401610dc49190613b2b565b6020604051808303815f875af1158015610de0573d5f5f3e3d5ffd5b505050506040513d601f19601f82011682018060405250810190610e049190615710565b508673ffffffffffffffffffffffffffffffffffffffff163373ffffffffffffffffffffffffffffffffffffffff167f0e9fad67f57f68926c3cb913d14eb3054b77ff2d6f272c2d1e254dadd1052bad6003895f8a5f89604051610e6d9695949392919061573b565b60405180910390a350610e7e612df1565b95945050505050565b610e8f612a92565b5f73ffffffffffffffffffffffffffffffffffffffff168173ffffffffffffffffffffffffffffffffffffffff1603610ef4576040517fd92e233d00000000000000000000000000000000000000000000000000000000815260040160405180910390fd5b8060025f6101000a81548173ffffffffffffffffffffffffffffffffffffffff021916908373ffffffffffffffffffffffffffffffffffffffff1602179055508073ffffffffffffffffffffffffffffffffffffffff167f8e08b1ba1d318f1601c8a8267d12fc6ad8e10e24c778bef89c4309a9d0e3d8f660405160405180910390a250565b5f610f83612b10565b5f60025f9054906101000a900473ffffffffffffffffffffffffffffffffffffffff1673ffffffffffffffffffffffffffffffffffffffff166310bfc4778a8a8a8a8a335f6040518863ffffffff1660e01b8152600401610fea9796959493929190614f32565b6108e0604051808303815f875af1158015611007573d5f5f3e3d5ffd5b505050506040513d601f19601f8201168201806040525081019061102b919061564b565b905060035f9054906101000a900473ffffffffffffffffffffffffffffffffffffffff1673ffffffffffffffffffffffffffffffffffffffff16634b1d86638585845f6040518563ffffffff1660e01b815260040161108d94939291906156d0565b602060405180830381865afa1580156110a8573d5f5f3e3d5ffd5b505050506040513d601f19601f820116820180604052508101906110cc9190615710565b915060045f9054906101000a900473ffffffffffffffffffffffffffffffffffffffff1673ffffffffffffffffffffffffffffffffffffffff1663a0712d68836040518263ffffffff1660e01b81526004016111289190613b2b565b6020604051808303815f875af1158015611144573d5f5f3e3d5ffd5b505050506040513d601f19601f820116820180604052508101906111689190615710565b508873ffffffffffffffffffffffffffffffffffffffff163373ffffffffffffffffffffffffffffffffffffffff167f0e9fad67f57f68926c3cb913d14eb3054b77ff2d6f272c2d1e254dadd1052bad5f8b8b8b8b896040516111d09695949392919061579a565b60405180910390a3506111e1612df1565b979650505050505050565b6111f4613350565b60025f9054906101000a900473ffffffffffffffffffffffffffffffffffffffff1673ffffffffffffffffffffffffffffffffffffffff1663a965ec7333878787875f60026040518863ffffffff1660e01b815260040161125b97969594939291906157f9565b6108e0604051808303815f875af1158015611278573d5f5f3e3d5ffd5b505050506040513d601f19601f8201168201806040525081019061129c919061564b565b9050949350505050565b6112ae613350565b60025f9054906101000a900473ffffffffffffffffffffffffffffffffffffffff1673ffffffffffffffffffffffffffffffffffffffff1663a965ec733387875f888860016040518863ffffffff1660e01b81526004016113159796959493929190615866565b6108e0604051808303815f875af1158015611332573d5f5f3e3d5ffd5b505050506040513d601f19601f82011682018060405250810190611356919061564b565b9050949350505050565b60025f9054906101000a900473ffffffffffffffffffffffffffffffffffffffff1681565b5f61138e612b10565b5f60025f9054906101000a900473ffffffffffffffffffffffffffffffffffffffff1673ffffffffffffffffffffffffffffffffffffffff166310bfc477898989895f3360026040518863ffffffff1660e01b81526004016113f6979695949392919061511c565b6108e0604051808303815f875af1158015611413573d5f5f3e3d5ffd5b505050506040513d601f19601f82011682018060405250810190611437919061564b565b905060035f9054906101000a900473ffffffffffffffffffffffffffffffffffffffff1673ffffffffffffffffffffffffffffffffffffffff16634b1d866385858460026040518563ffffffff1660e01b815260040161149a94939291906156d0565b602060405180830381865afa1580156114b5573d5f5f3e3d5ffd5b505050506040513d601f19601f820116820180604052508101906114d99190615710565b915060045f9054906101000a900473ffffffffffffffffffffffffffffffffffffffff1673ffffffffffffffffffffffffffffffffffffffff1663a0712d68836040518263ffffffff1660e01b81526004016115359190613b2b565b6020604051808303815f875af1158015611551573d5f5f3e3d5ffd5b505050506040513d601f19601f820116820180604052508101906115759190615710565b508773ffffffffffffffffffffffffffffffffffffffff163373ffffffffffffffffffffffffffffffffffffffff167f0e9fad67f57f68926c3cb913d14eb3054b77ff2d6f272c2d1e254dadd1052bad60028a8a8a5f896040516115de9695949392919061573b565b60405180910390a3506115ef612df1565b9695505050505050565b5f611602612b10565b5f60025f9054906101000a900473ffffffffffffffffffffffffffffffffffffffff1673ffffffffffffffffffffffffffffffffffffffff166310bfc47789895f8a8a3360016040518863ffffffff1660e01b815260040161166a9796959493929190614f32565b6108e0604051808303815f875af1158015611687573d5f5f3e3d5ffd5b505050506040513d601f19601f820116820180604052508101906116ab919061564b565b905060035f9054906101000a900473ffffffffffffffffffffffffffffffffffffffff1673ffffffffffffffffffffffffffffffffffffffff16634b1d866385858460016040518563ffffffff1660e01b815260040161170e94939291906156d0565b602060405180830381865afa158015611729573d5f5f3e3d5ffd5b505050506040513d601f19601f8201168201806040525081019061174d9190615710565b915060045f9054906101000a900473ffffffffffffffffffffffffffffffffffffffff1673ffffffffffffffffffffffffffffffffffffffff1663a0712d68836040518263ffffffff1660e01b81526004016117a99190613b2b565b6020604051808303815f875af11580156117c5573d5f5f3e3d5ffd5b505050506040513d601f19601f820116820180604052508101906117e99190615710565b508773ffffffffffffffffffffffffffffffffffffffff163373ffffffffffffffffffffffffffffffffffffffff167f0e9fad67f57f68926c3cb913d14eb3054b77ff2d6f272c2d1e254dadd1052bad60018a5f8b8b896040516118529695949392919061579a565b60405180910390a350611863612df1565b9695505050505050565b6118756133ef565b60035f9054906101000a900473ffffffffffffffffffffffffffffffffffffffff1673ffffffffffffffffffffffffffffffffffffffff166361a76900836040518263ffffffff1660e01b81526004016118cf9190613b2b565b610b4060405180830381865afa1580156118eb573d5f5f3e3d5ffd5b505050506040513d601f19601f8201168201806040525081019061190f9190616276565b9050919050565b5f5f5f611921612b10565b61193c8460a00160208101906119379190613b44565b612b5f565b60025f9054906101000a900473ffffffffffffffffffffffffffffffffffffffff1673ffffffffffffffffffffffffffffffffffffffff1663ddaba7b7855f01602081019061198b9190613b44565b86602001602081019061199e9190613b44565b5f88604001355f3360036040518863ffffffff1660e01b81526004016119ca979695949392919061511c565b5f6040518083038186803b1580156119e0575f5ffd5b505afa1580156119f2573d5f5f3e3d5ffd5b505050505f845f016020810190611a099190613b44565b73ffffffffffffffffffffffffffffffffffffffff1663ad5c46486040518163ffffffff1660e01b8152600401602060405180830381865afa158015611a51573d5f5f3e3d5ffd5b505050506040513d601f19601f82011682018060405250810190611a7591906162b6565b90505f611aa6865f016020810190611a8d9190613b44565b876020016020810190611aa09190613b44565b84612dfa565b9050611ad9333088604001358473ffffffffffffffffffffffffffffffffffffffff16612bc7909392919063ffffffff16565b611b19865f016020810190611aee9190613b44565b87604001358373ffffffffffffffffffffffffffffffffffffffff16612c509092919063ffffffff16565b855f016020810190611b2b9190613b44565b73ffffffffffffffffffffffffffffffffffffffff166302751cec876020016020810190611b599190613b44565b886040013589606001358a608001358b60a0016020810190611b7b9190613b44565b8c60c001356040518763ffffffff1660e01b8152600401611ba196959493929190614f9f565b60408051808303815f875af1158015611bbc573d5f5f3e3d5ffd5b505050506040513d601f19601f82011682018060405250810190611be091906162e1565b8095508196505050611c24865f016020810190611bfd9190613b44565b5f8373ffffffffffffffffffffffffffffffffffffffff16612c509092919063ffffffff16565b8560a0016020810190611c379190613b44565b73ffffffffffffffffffffffffffffffffffffffff16865f016020810190611c5f9190613b44565b73ffffffffffffffffffffffffffffffffffffffff163373ffffffffffffffffffffffffffffffffffffffff167f697f0efd87c97463af219518d1bca2e283aa540a9e1a25b6ee502ddc4c1ac39f6003604051611cbc91906150ca565b60405180910390a45050611cce612df1565b9193909250565b611cdd612a92565b611ce65f612f4f565b565b5f5f5f9054906101000a900473ffffffffffffffffffffffffffffffffffffffff16905090565b611d17612a92565b5f73ffffffffffffffffffffffffffffffffffffffff168173ffffffffffffffffffffffffffffffffffffffff1603611d7c576040517fd92e233d00000000000000000000000000000000000000000000000000000000815260040160405180910390fd5b8060035f6101000a81548173ffffffffffffffffffffffffffffffffffffffff021916908373ffffffffffffffffffffffffffffffffffffffff1602179055508073ffffffffffffffffffffffffffffffffffffffff167fe8dc7a347ee88a4d9df35f0c4dd767e45984364768a29bbf6162c08923dab69f60405160405180910390a250565b611e0a612a92565b5f73ffffffffffffffffffffffffffffffffffffffff168273ffffffffffffffffffffffffffffffffffffffff1603611e6f576040517fd92e233d00000000000000000000000000000000000000000000000000000000815260040160405180910390fd5b611e9a82828573ffffffffffffffffffffffffffffffffffffffff16612d6b9092919063ffffffff16565b505050565b611ea7613350565b60025f9054906101000a900473ffffffffffffffffffffffffffffffffffffffff1673ffffffffffffffffffffffffffffffffffffffff1663a965ec733386865f875f60036040518863ffffffff1660e01b8152600401611f0e97969594939291906157f9565b6108e0604051808303815f875af1158015611f2b573d5f5f3e3d5ffd5b505050506040513d601f19601f82011682018060405250810190611f4f919061564b565b90509392505050565b611f60613350565b60025f9054906101000a900473ffffffffffffffffffffffffffffffffffffffff1673ffffffffffffffffffffffffffffffffffffffff1663a965ec733388888888885f6040518863ffffffff1660e01b8152600401611fc69796959493929190615866565b6108e0604051808303815f875af1158015611fe3573d5f5f3e3d5ffd5b505050506040513d601f19601f82011682018060405250810190612007919061564b565b905095945050505050565b5f5f5f61201d612b10565b6120388460c00160208101906120339190613b44565b612b5f565b60025f9054906101000a900473ffffffffffffffffffffffffffffffffffffffff1673ffffffffffffffffffffffffffffffffffffffff1663ddaba7b7855f0160208101906120879190613b44565b86602001602081019061209a9190613b44565b8760400160208101906120ad9190613b44565b88606001355f3360026040518863ffffffff1660e01b81526004016120d8979695949392919061511c565b5f6040518083038186803b1580156120ee575f5ffd5b505afa158015612100573d5f5f3e3d5ffd5b505050505f612145855f01602081019061211a9190613b44565b86602001602081019061212d9190613b44565b8760400160208101906121409190613b44565b612dfa565b9050612178333087606001358473ffffffffffffffffffffffffffffffffffffffff16612bc7909392919063ffffffff16565b6121b8855f01602081019061218d9190613b44565b86606001358373ffffffffffffffffffffffffffffffffffffffff16612c509092919063ffffffff16565b845f0160208101906121ca9190613b44565b73ffffffffffffffffffffffffffffffffffffffff1663baa2abde8660200160208101906121f89190613b44565b87604001602081019061220b9190613b44565b886060013589608001358a60a001358b60c001602081019061222d9190613b44565b8c60e001356040518863ffffffff1660e01b8152600401612254979695949392919061631f565b60408051808303815f875af115801561226f573d5f5f3e3d5ffd5b505050506040513d601f19601f8201168201806040525081019061229391906162e1565b80945081955050506122d7855f0160208101906122b09190613b44565b5f8373ffffffffffffffffffffffffffffffffffffffff16612c509092919063ffffffff16565b8460c00160208101906122ea9190613b44565b73ffffffffffffffffffffffffffffffffffffffff16855f0160208101906123129190613b44565b73ffffffffffffffffffffffffffffffffffffffff163373ffffffffffffffffffffffffffffffffffffffff167f697f0efd87c97463af219518d1bca2e283aa540a9e1a25b6ee502ddc4c1ac39f600260405161236f91906150ca565b60405180910390a450612380612df1565b9193909250565b5f5f5f612392612b10565b6123ad8460e00160208101906123a89190613b44565b612b5f565b6123c9846101000160208101906123c49190613b44565b612b5f565b60025f9054906101000a900473ffffffffffffffffffffffffffffffffffffffff1673ffffffffffffffffffffffffffffffffffffffff1663ddaba7b7855f0160208101906124189190613b44565b86602001602081019061242b9190613b44565b87604001602081019061243e9190613b44565b88606001358960800135335f6040518863ffffffff1660e01b815260040161246c9796959493929190614f32565b5f6040518083038186803b158015612482575f5ffd5b505afa158015612494573d5f5f3e3d5ffd5b505050506124db333086606001358760200160208101906124b59190613b44565b73ffffffffffffffffffffffffffffffffffffffff16612bc7909392919063ffffffff16565b61251e333086608001358760400160208101906124f89190613b44565b73ffffffffffffffffffffffffffffffffffffffff16612bc7909392919063ffffffff16565b612570845f0160208101906125339190613b44565b856060013586602001602081019061254b9190613b44565b73ffffffffffffffffffffffffffffffffffffffff16612c509092919063ffffffff16565b6125c2845f0160208101906125859190613b44565b856080013586604001602081019061259d9190613b44565b73ffffffffffffffffffffffffffffffffffffffff16612c509092919063ffffffff16565b835f0160208101906125d49190613b44565b73ffffffffffffffffffffffffffffffffffffffff1663e8e337008560200160208101906126029190613b44565b8660400160208101906126159190613b44565b876060013588608001358960a001358a60c001358b60e001602081019061263c9190613b44565b8c61012001356040518963ffffffff1660e01b815260040161266598979695949392919061638c565b6060604051808303815f875af1158015612681573d5f5f3e3d5ffd5b505050506040513d601f19601f820116820180604052508101906126a59190615012565b8093508194508295505050506126ff845f0160208101906126c69190613b44565b5f8660200160208101906126da9190613b44565b73ffffffffffffffffffffffffffffffffffffffff16612c509092919063ffffffff16565b61274d845f0160208101906127149190613b44565b5f8660400160208101906127289190613b44565b73ffffffffffffffffffffffffffffffffffffffff16612c509092919063ffffffff16565b82846060013511156127b9576127b8846101000160208101906127709190613b44565b8486606001356127809190614eb9565b8660200160208101906127939190613b44565b73ffffffffffffffffffffffffffffffffffffffff16612d6b9092919063ffffffff16565b5b818460800135111561282557612824846101000160208101906127dc9190613b44565b8386608001356127ec9190614eb9565b8660400160208101906127ff9190613b44565b73ffffffffffffffffffffffffffffffffffffffff16612d6b9092919063ffffffff16565b5b8360e00160208101906128389190613b44565b73ffffffffffffffffffffffffffffffffffffffff16845f0160208101906128609190613b44565b73ffffffffffffffffffffffffffffffffffffffff163373ffffffffffffffffffffffffffffffffffffffff167f697f0efd87c97463af219518d1bca2e283aa540a9e1a25b6ee502ddc4c1ac39f5f6040516128bc91906150ca565b60405180910390a46128cc612df1565b9193909250565b60035f9054906101000a900473ffffffffffffffffffffffffffffffffffffffff1681565b612900612a92565b5f73ffffffffffffffffffffffffffffffffffffffff168173ffffffffffffffffffffffffffffffffffffffff1603612965576040517fd92e233d00000000000000000000000000000000000000000000000000000000815260040160405180910390fd5b8060045f6101000a81548173ffffffffffffffffffffffffffffffffffffffff021916908373ffffffffffffffffffffffffffffffffffffffff1602179055508073ffffffffffffffffffffffffffffffffffffffff167f1e8414ec84e2e2fe9f715dd52ca9716cbfb7d5f322072e0e70bcf800075ba8ff60405160405180910390a250565b60045f9054906101000a900473ffffffffffffffffffffffffffffffffffffffff1681565b612a18612a92565b5f73ffffffffffffffffffffffffffffffffffffffff168173ffffffffffffffffffffffffffffffffffffffff1603612a86576040517f08c379a0000000000000000000000000000000000000000000000000000000008152600401612a7d90616478565b60405180910390fd5b612a8f81612f4f565b50565b612a9a613010565b73ffffffffffffffffffffffffffffffffffffffff16612ab8611ce8565b73ffffffffffffffffffffffffffffffffffffffff1614612b0e576040517f08c379a0000000000000000000000000000000000000000000000000000000008152600401612b05906164e0565b60405180910390fd5b565b600260015403612b55576040517f08c379a0000000000000000000000000000000000000000000000000000000008152600401612b4c90616548565b60405180910390fd5b6002600181905550565b5f73ffffffffffffffffffffffffffffffffffffffff168173ffffffffffffffffffffffffffffffffffffffff1603612bc4576040517f9c8d2cd200000000000000000000000000000000000000000000000000000000815260040160405180910390fd5b50565b612c4a846323b872dd60e01b858585604051602401612be893929190616566565b604051602081830303815290604052907bffffffffffffffffffffffffffffffffffffffffffffffffffffffff19166020820180517bffffffffffffffffffffffffffffffffffffffffffffffffffffffff8381831617835250505050613017565b50505050565b5f63095ea7b360e01b8383604051602401612c6c92919061659b565b604051602081830303815290604052907bffffffffffffffffffffffffffffffffffffffffffffffffffffffff19166020820180517bffffffffffffffffffffffffffffffffffffffffffffffffffffffff83818316178352505050509050612cd584826130dd565b612d6557612d5a8463095ea7b360e01b855f604051602401612cf89291906165f2565b604051602081830303815290604052907bffffffffffffffffffffffffffffffffffffffffffffffffffffffff19166020820180517bffffffffffffffffffffffffffffffffffffffffffffffffffffffff8381831617835250505050613017565b612d648482613017565b5b50505050565b612dec8363a9059cbb60e01b8484604051602401612d8a92919061659b565b604051602081830303815290604052907bffffffffffffffffffffffffffffffffffffffffffffffffffffffff19166020820180517bffffffffffffffffffffffffffffffffffffffffffffffffffffffff8381831617835250505050613017565b505050565b60018081905550565b5f8373ffffffffffffffffffffffffffffffffffffffff1663c45a01556040518163ffffffff1660e01b8152600401602060405180830381865afa158015612e44573d5f5f3e3d5ffd5b505050506040513d601f19601f82011682018060405250810190612e6891906162b6565b73ffffffffffffffffffffffffffffffffffffffff1663e6a4390584846040518363ffffffff1660e01b8152600401612ea2929190616619565b602060405180830381865afa158015612ebd573d5f5f3e3d5ffd5b505050506040513d601f19601f82011682018060405250810190612ee191906162b6565b90505f73ffffffffffffffffffffffffffffffffffffffff168173ffffffffffffffffffffffffffffffffffffffff1603612f48576040517fd719ab6900000000000000000000000000000000000000000000000000000000815260040160405180910390fd5b9392505050565b5f5f5f9054906101000a900473ffffffffffffffffffffffffffffffffffffffff169050815f5f6101000a81548173ffffffffffffffffffffffffffffffffffffffff021916908373ffffffffffffffffffffffffffffffffffffffff1602179055508173ffffffffffffffffffffffffffffffffffffffff168173ffffffffffffffffffffffffffffffffffffffff167f8be0079c531659141344cd1fd0a4f28419497f9722a3daafe3b4186f6b6457e060405160405180910390a35050565b5f33905090565b5f613078826040518060400160405280602081526020017f5361666545524332303a206c6f772d6c6576656c2063616c6c206661696c65648152508573ffffffffffffffffffffffffffffffffffffffff1661318b9092919063ffffffff16565b90505f815114806130995750808060200190518101906130989190616640565b5b6130d8576040517f08c379a00000000000000000000000000000000000000000000000000000000081526004016130cf906166db565b60405180910390fd5b505050565b5f5f5f8473ffffffffffffffffffffffffffffffffffffffff16846040516131059190616741565b5f604051808303815f865af19150503d805f811461313e576040519150601f19603f3d011682016040523d82523d5f602084013e613143565b606091505b509150915081801561317057505f8151148061316f57508080602001905181019061316e9190616640565b5b5b80156131815750613180856131a2565b5b9250505092915050565b606061319984845f856131c4565b90509392505050565b5f5f8273ffffffffffffffffffffffffffffffffffffffff163b119050919050565b606082471015613209576040517f08c379a0000000000000000000000000000000000000000000000000000000008152600401613200906167c7565b60405180910390fd5b5f5f8673ffffffffffffffffffffffffffffffffffffffff1685876040516132319190616741565b5f6040518083038185875af1925050503d805f811461326b576040519150601f19603f3d011682016040523d82523d5f602084013e613270565b606091505b50915091506132818783838761328d565b92505050949350505050565b606083156132ee575f8351036132e6576132a6856131a2565b6132e5576040517f08c379a00000000000000000000000000000000000000000000000000000000081526004016132dc9061682f565b60405180910390fd5b5b8290506132f9565b6132f88383613301565b5b949350505050565b5f825111156133135781518083602001fd5b806040517f08c379a0000000000000000000000000000000000000000000000000000000008152600401613347919061688f565b60405180910390fd5b6040518061022001604052805f151581526020015f151581526020015f151581526020015f151581526020015f151581526020015f151581526020015f151581526020015f151581526020015f151581526020015f151581526020015f151581526020015f151581526020015f151581526020015f151581526020015f151581526020016133dc613454565b81526020016133e9613454565b81525090565b6040518060c00160405280613402613541565b815260200161340f61364a565b815260200161341c6136cf565b81526020016134296137c4565b81526020015f600381111561344157613440614281565b5b815260200161344e613817565b81525090565b6040518061038001604052805f151581526020015f151581526020015f151581526020015f151581526020015f151581526020015f151581526020015f151581526020015f151581526020015f151581526020015f151581526020015f151581526020015f151581526020015f151581526020015f151581526020015f151581526020015f151581526020015f151581526020015f151581526020015f151581526020015f151581526020015f151581526020015f151581526020015f151581526020015f151581526020015f151581526020015f151581526020015f151581526020015f151581525090565b604051806102c001604052805f60028111156135605761355f614281565b5b81526020015f60ff1681526020015f60ff1681526020015f600381111561358a57613589614281565b5b81526020015f60038111156135a2576135a1614281565b5b81526020015f60ff1681526020015f60ff1681526020015f60ff1681526020015f60ff1681526020015f60ff1681526020015f60ff1681526020015f151581526020015f151581526020015f63ffffffff1681526020015f63ffffffff1681526020015f63ffffffff1681526020015f61ffff1681526020015f61ffff1681526020015f61ffff1681526020015f60ff1681526020015f60ff1681526020015f151581525090565b604051806101e001604052805f151581526020015f151581526020015f151581526020015f151581526020015f151581526020015f151581526020015f151581526020015f151581526020015f151581526020015f151581526020015f151581526020015f151581526020015f151581526020015f151581526020015f151581525090565b604051806103a001604052805f151581526020015f151581526020015f151581526020015f151581526020015f151581526020015f151581526020015f151581526020015f151581526020015f151581526020015f151581526020015f151581526020015f151581526020015f151581526020015f151581526020015f151581526020015f151581526020015f151581526020015f151581526020015f151581526020015f151581526020015f151581526020015f151581526020015f151581526020015f151581526020015f151581526020015f151581526020015f151581526020015f151581526020015f151581525090565b6040518061010001604052805f60ff1681526020015f60ff1681526020015f60ff1681526020015f60ff1681526020015f60ff1681526020015f151581526020015f60ff1681526020015f151581525090565b604051806101e001604052805f151581526020015f151581526020015f151581526020015f151581526020015f151581526020015f151581526020015f151581526020015f151581526020015f151581526020015f151581526020015f151581526020015f151581526020015f151581526020015f151581526020015f151581525090565b5f604051905090565b5f5ffd5b5f5ffd5b5f73ffffffffffffffffffffffffffffffffffffffff82169050919050565b5f6138d6826138ad565b9050919050565b6138e6816138cc565b81146138f0575f5ffd5b50565b5f81359050613901816138dd565b92915050565b5f819050919050565b61391981613907565b8114613923575f5ffd5b50565b5f8135905061393481613910565b92915050565b5f5f604083850312156139505761394f6138a5565b5b5f61395d858286016138f3565b925050602061396e85828601613926565b9150509250929050565b5f5ffd5b5f610100828403121561399257613991613978565b5b81905092915050565b5f61010082840312156139b1576139b06138a5565b5b5f6139be8482850161397c565b91505092915050565b6139d081613907565b82525050565b5f6060820190506139e95f8301866139c7565b6139f660208301856139c7565b613a0360408301846139c7565b949350505050565b5f613a15826138ad565b9050919050565b613a2581613a0b565b8114613a2f575f5ffd5b50565b5f81359050613a4081613a1c565b92915050565b5f5ffd5b5f5ffd5b5f5ffd5b5f5f83601f840112613a6757613a66613a46565b5b8235905067ffffffffffffffff811115613a8457613a83613a4a565b5b602083019150836001820283011115613aa057613a9f613a4e565b5b9250929050565b5f5f5f5f5f60808688031215613ac057613abf6138a5565b5b5f613acd88828901613a32565b9550506020613ade88828901613a32565b9450506040613aef88828901613926565b935050606086013567ffffffffffffffff811115613b1057613b0f6138a9565b5b613b1c88828901613a52565b92509250509295509295909350565b5f602082019050613b3e5f8301846139c7565b92915050565b5f60208284031215613b5957613b586138a5565b5b5f613b6684828501613a32565b91505092915050565b5f5f5f5f5f5f5f60c0888a031215613b8a57613b896138a5565b5b5f613b978a828b01613a32565b9750506020613ba88a828b01613a32565b9650506040613bb98a828b01613a32565b9550506060613bca8a828b01613926565b9450506080613bdb8a828b01613926565b93505060a088013567ffffffffffffffff811115613bfc57613bfb6138a9565b5b613c088a828b01613a52565b925092505092959891949750929550565b5f5f5f5f60808587031215613c3157613c306138a5565b5b5f613c3e87828801613a32565b9450506020613c4f87828801613a32565b9350506040613c6087828801613a32565b9250506060613c7187828801613926565b91505092959194509250565b5f8115159050919050565b613c9181613c7d565b82525050565b61038082015f820151613cac5f850182613c88565b506020820151613cbf6020850182613c88565b506040820151613cd26040850182613c88565b506060820151613ce56060850182613c88565b506080820151613cf86080850182613c88565b5060a0820151613d0b60a0850182613c88565b5060c0820151613d1e60c0850182613c88565b5060e0820151613d3160e0850182613c88565b50610100820151613d46610100850182613c88565b50610120820151613d5b610120850182613c88565b50610140820151613d70610140850182613c88565b50610160820151613d85610160850182613c88565b50610180820151613d9a610180850182613c88565b506101a0820151613daf6101a0850182613c88565b506101c0820151613dc46101c0850182613c88565b506101e0820151613dd96101e0850182613c88565b50610200820151613dee610200850182613c88565b50610220820151613e03610220850182613c88565b50610240820151613e18610240850182613c88565b50610260820151613e2d610260850182613c88565b50610280820151613e42610280850182613c88565b506102a0820151613e576102a0850182613c88565b506102c0820151613e6c6102c0850182613c88565b506102e0820151613e816102e0850182613c88565b50610300820151613e96610300850182613c88565b50610320820151613eab610320850182613c88565b50610340820151613ec0610340850182613c88565b50610360820151613ed5610360850182613c88565b50505050565b6108e082015f820151613ef05f850182613c88565b506020820151613f036020850182613c88565b506040820151613f166040850182613c88565b506060820151613f296060850182613c88565b506080820151613f3c6080850182613c88565b5060a0820151613f4f60a0850182613c88565b5060c0820151613f6260c0850182613c88565b5060e0820151613f7560e0850182613c88565b50610100820151613f8a610100850182613c88565b50610120820151613f9f610120850182613c88565b50610140820151613fb4610140850182613c88565b50610160820151613fc9610160850182613c88565b50610180820151613fde610180850182613c88565b506101a0820151613ff36101a0850182613c88565b506101c08201516140086101c0850182613c88565b506101e082015161401d6101e0850182613c97565b50610200820151614032610560850182613c97565b50505050565b5f6108e08201905061404c5f830184613edb565b92915050565b5f5f5f5f6080858703121561406a576140696138a5565b5b5f61407787828801613a32565b945050602061408887828801613a32565b935050604061409987828801613926565b92505060606140aa87828801613926565b91505092959194509250565b5f819050919050565b5f6140d96140d46140cf846138ad565b6140b6565b6138ad565b9050919050565b5f6140ea826140bf565b9050919050565b5f6140fb826140e0565b9050919050565b61410b816140f1565b82525050565b5f6020820190506141245f830184614102565b92915050565b5f5f5f5f5f5f60a08789031215614144576141436138a5565b5b5f61415189828a01613a32565b965050602061416289828a01613a32565b955050604061417389828a01613a32565b945050606061418489828a01613926565b935050608087013567ffffffffffffffff8111156141a5576141a46138a9565b5b6141b189828a01613a52565b92509250509295509295509295565b5f5f5f5f5f5f60a087890312156141da576141d96138a5565b5b5f6141e789828a01613a32565b96505060206141f889828a01613a32565b955050604061420989828a01613926565b945050606061421a89828a01613926565b935050608087013567ffffffffffffffff81111561423b5761423a6138a9565b5b61424789828a01613a52565b92509250509295509295509295565b5f6020828403121561426b5761426a6138a5565b5b5f61427884828501613926565b91505092915050565b7f4e487b71000000000000000000000000000000000000000000000000000000005f52602160045260245ffd5b600381106142bf576142be614281565b5b50565b5f8190506142cf826142ae565b919050565b5f6142de826142c2565b9050919050565b6142ee816142d4565b82525050565b5f60ff82169050919050565b614309816142f4565b82525050565b600481106143205761431f614281565b5b50565b5f8190506143308261430f565b919050565b5f61433f82614323565b9050919050565b61434f81614335565b82525050565b5f63ffffffff82169050919050565b61436d81614355565b82525050565b5f61ffff82169050919050565b61438981614373565b82525050565b6102c082015f8201516143a45f8501826142e5565b5060208201516143b76020850182614300565b5060408201516143ca6040850182614300565b5060608201516143dd6060850182614346565b5060808201516143f06080850182614346565b5060a082015161440360a0850182614300565b5060c082015161441660c0850182614300565b5060e082015161442960e0850182614300565b5061010082015161443e610100850182614300565b50610120820151614453610120850182614300565b50610140820151614468610140850182614300565b5061016082015161447d610160850182613c88565b50610180820151614492610180850182613c88565b506101a08201516144a76101a0850182614364565b506101c08201516144bc6101c0850182614364565b506101e08201516144d16101e0850182614364565b506102008201516144e6610200850182614380565b506102208201516144fb610220850182614380565b50610240820151614510610240850182614380565b50610260820151614525610260850182614300565b5061028082015161453a610280850182614300565b506102a082015161454f6102a0850182613c88565b50505050565b6101e082015f82015161456a5f850182613c88565b50602082015161457d6020850182613c88565b5060408201516145906040850182613c88565b5060608201516145a36060850182613c88565b5060808201516145b66080850182613c88565b5060a08201516145c960a0850182613c88565b5060c08201516145dc60c0850182613c88565b5060e08201516145ef60e0850182613c88565b50610100820151614604610100850182613c88565b50610120820151614619610120850182613c88565b5061014082015161462e610140850182613c88565b50610160820151614643610160850182613c88565b50610180820151614658610180850182613c88565b506101a082015161466d6101a0850182613c88565b506101c08201516146826101c0850182613c88565b50505050565b6103a082015f82015161469d5f850182613c88565b5060208201516146b06020850182613c88565b5060408201516146c36040850182613c88565b5060608201516146d66060850182613c88565b5060808201516146e96080850182613c88565b5060a08201516146fc60a0850182613c88565b5060c082015161470f60c0850182613c88565b5060e082015161472260e0850182613c88565b50610100820151614737610100850182613c88565b5061012082015161474c610120850182613c88565b50610140820151614761610140850182613c88565b50610160820151614776610160850182613c88565b5061018082015161478b610180850182613c88565b506101a08201516147a06101a0850182613c88565b506101c08201516147b56101c0850182613c88565b506101e08201516147ca6101e0850182613c88565b506102008201516147df610200850182613c88565b506102208201516147f4610220850182613c88565b50610240820151614809610240850182613c88565b5061026082015161481e610260850182613c88565b50610280820151614833610280850182613c88565b506102a08201516148486102a0850182613c88565b506102c082015161485d6102c0850182613c88565b506102e08201516148726102e0850182613c88565b50610300820151614887610300850182613c88565b5061032082015161489c610320850182613c88565b506103408201516148b1610340850182613c88565b506103608201516148c6610360850182613c88565b506103808201516148db610380850182613c88565b50505050565b61010082015f8201516148f65f850182614300565b5060208201516149096020850182614300565b50604082015161491c6040850182614300565b50606082015161492f6060850182614300565b5060808201516149426080850182614300565b5060a082015161495560a0850182613c88565b5060c082015161496860c0850182614300565b5060e082015161497b60e0850182613c88565b50505050565b6004811061499257614991614281565b5b50565b5f8190506149a282614981565b919050565b5f6149b182614995565b9050919050565b6149c1816149a7565b82525050565b6101e082015f8201516149dc5f850182613c88565b5060208201516149ef6020850182613c88565b506040820151614a026040850182613c88565b506060820151614a156060850182613c88565b506080820151614a286080850182613c88565b5060a0820151614a3b60a0850182613c88565b5060c0820151614a4e60c0850182613c88565b5060e0820151614a6160e0850182613c88565b50610100820151614a76610100850182613c88565b50610120820151614a8b610120850182613c88565b50610140820151614aa0610140850182613c88565b50610160820151614ab5610160850182613c88565b50610180820151614aca610180850182613c88565b506101a0820151614adf6101a0850182613c88565b506101c0820151614af46101c0850182613c88565b50505050565b610b4082015f820151614b0f5f85018261438f565b506020820151614b236102c0850182614555565b506040820151614b376104a0850182614688565b506060820151614b4b6108408501826148e1565b506080820151614b5f6109408501826149b8565b5060a0820151614b736109608501826149c7565b50505050565b5f610b4082019050614b8d5f830184614afa565b92915050565b5f60e08284031215614ba857614ba7613978565b5b81905092915050565b5f60e08284031215614bc657614bc56138a5565b5b5f614bd384828501614b93565b91505092915050565b614be581613a0b565b82525050565b5f602082019050614bfe5f830184614bdc565b92915050565b5f5f5f60608486031215614c1b57614c1a6138a5565b5b5f614c2886828701613a32565b9350506020614c3986828701613a32565b9250506040614c4a86828701613926565b9150509250925092565b5f5f5f5f5f60a08688031215614c6d57614c6c6138a5565b5b5f614c7a88828901613a32565b9550506020614c8b88828901613a32565b9450506040614c9c88828901613a32565b9350506060614cad88828901613926565b9250506080614cbe88828901613926565b9150509295509295909350565b5f6101008284031215614ce157614ce0613978565b5b81905092915050565b5f6101008284031215614d0057614cff6138a5565b5b5f614d0d84828501614ccb565b91505092915050565b5f6101408284031215614d2c57614d2b613978565b5b81905092915050565b5f6101408284031215614d4b57614d4a6138a5565b5b5f614d5884828501614d16565b91505092915050565b5f614d6b826140e0565b9050919050565b614d7b81614d61565b82525050565b5f602082019050614d945f830184614d72565b92915050565b5f614da4826140e0565b9050919050565b614db481614d9a565b82525050565b5f602082019050614dcd5f830184614dab565b92915050565b5f81905092915050565b50565b5f614deb5f83614dd3565b9150614df682614ddd565b5f82019050919050565b5f614e0a82614de0565b9150819050919050565b5f82825260208201905092915050565b7f4554485f5245534355455f4641494c45440000000000000000000000000000005f82015250565b5f614e58601183614e14565b9150614e6382614e24565b602082019050919050565b5f6020820190508181035f830152614e8581614e4c565b9050919050565b7f4e487b71000000000000000000000000000000000000000000000000000000005f52601160045260245ffd5b5f614ec382613907565b9150614ece83613907565b9250828203905081811115614ee657614ee5614e8c565b5b92915050565b60048110614efd57614efc614281565b5b50565b5f819050614f0d82614eec565b919050565b5f614f1c82614f00565b9050919050565b614f2c81614f12565b82525050565b5f60e082019050614f455f83018a614bdc565b614f526020830189614bdc565b614f5f6040830188614bdc565b614f6c60608301876139c7565b614f7960808301866139c7565b614f8660a0830185614bdc565b614f9360c0830184614f23565b98975050505050505050565b5f60c082019050614fb25f830189614bdc565b614fbf60208301886139c7565b614fcc60408301876139c7565b614fd960608301866139c7565b614fe66080830185614bdc565b614ff360a08301846139c7565b979650505050505050565b5f8151905061500c81613910565b92915050565b5f5f5f60608486031215615029576150286138a5565b5b5f61503686828701614ffe565b935050602061504786828701614ffe565b925050604061505886828701614ffe565b9150509250925092565b7f4554485f524546554e445f4641494c45440000000000000000000000000000005f82015250565b5f615096601183614e14565b91506150a182615062565b602082019050919050565b5f6020820190508181035f8301526150c38161508a565b9050919050565b5f6020820190506150dd5f830184614f23565b92915050565b5f819050919050565b5f6151066151016150fc846150e3565b6140b6565b613907565b9050919050565b615116816150ec565b82525050565b5f60e08201905061512f5f83018a614bdc565b61513c6020830189614bdc565b6151496040830188614bdc565b61515660608301876139c7565b615163608083018661510d565b61517060a0830185614bdc565b61517d60c0830184614f23565b98975050505050505050565b5f5ffd5b5f601f19601f8301169050919050565b7f4e487b71000000000000000000000000000000000000000000000000000000005f52604160045260245ffd5b6151d38261518d565b810181811067ffffffffffffffff821117156151f2576151f161519d565b5b80604052505050565b5f61520461389c565b905061521082826151ca565b919050565b61521e81613c7d565b8114615228575f5ffd5b50565b5f8151905061523981615215565b92915050565b5f610380828403121561525557615254615189565b5b6152606103806151fb565b90505f61526f8482850161522b565b5f8301525060206152828482850161522b565b60208301525060406152968482850161522b565b60408301525060606152aa8482850161522b565b60608301525060806152be8482850161522b565b60808301525060a06152d28482850161522b565b60a08301525060c06152e68482850161522b565b60c08301525060e06152fa8482850161522b565b60e08301525061010061530f8482850161522b565b610100830152506101206153258482850161522b565b6101208301525061014061533b8482850161522b565b610140830152506101606153518482850161522b565b610160830152506101806153678482850161522b565b610180830152506101a061537d8482850161522b565b6101a0830152506101c06153938482850161522b565b6101c0830152506101e06153a98482850161522b565b6101e0830152506102006153bf8482850161522b565b610200830152506102206153d58482850161522b565b610220830152506102406153eb8482850161522b565b610240830152506102606154018482850161522b565b610260830152506102806154178482850161522b565b610280830152506102a061542d8482850161522b565b6102a0830152506102c06154438482850161522b565b6102c0830152506102e06154598482850161522b565b6102e08301525061030061546f8482850161522b565b610300830152506103206154858482850161522b565b6103208301525061034061549b8482850161522b565b610340830152506103606154b18482850161522b565b6103608301525092915050565b5f6108e082840312156154d4576154d3615189565b5b6154df6102206151fb565b90505f6154ee8482850161522b565b5f8301525060206155018482850161522b565b60208301525060406155158482850161522b565b60408301525060606155298482850161522b565b606083015250608061553d8482850161522b565b60808301525060a06155518482850161522b565b60a08301525060c06155658482850161522b565b60c08301525060e06155798482850161522b565b60e08301525061010061558e8482850161522b565b610100830152506101206155a48482850161522b565b610120830152506101406155ba8482850161522b565b610140830152506101606155d08482850161522b565b610160830152506101806155e68482850161522b565b610180830152506101a06155fc8482850161522b565b6101a0830152506101c06156128482850161522b565b6101c0830152506101e06156288482850161523f565b6101e08301525061056061563e8482850161523f565b6102008301525092915050565b5f6108e08284031215615661576156606138a5565b5b5f61566e848285016154be565b91505092915050565b5f82825260208201905092915050565b828183375f83830152505050565b5f6156a08385615677565b93506156ad838584615687565b6156b68361518d565b840190509392505050565b6156ca816149a7565b82525050565b5f610920820190508181035f8301526156ea818688615695565b90506156f96020830185613edb565b6157076109008301846156c1565b95945050505050565b5f60208284031215615725576157246138a5565b5b5f61573284828501614ffe565b91505092915050565b5f60c08201905061574e5f830189614f23565b61575b6020830188614bdc565b6157686040830187614bdc565b61577560608301866139c7565b615782608083018561510d565b61578f60a08301846139c7565b979650505050505050565b5f60c0820190506157ad5f830189614f23565b6157ba6020830188614bdc565b6157c76040830187614bdc565b6157d460608301866139c7565b6157e160808301856139c7565b6157ee60a08301846139c7565b979650505050505050565b5f60e08201905061580c5f83018a614bdc565b6158196020830189614bdc565b6158266040830188614bdc565b6158336060830187614bdc565b61584060808301866139c7565b61584d60a083018561510d565b61585a60c0830184614f23565b98975050505050505050565b5f60e0820190506158795f83018a614bdc565b6158866020830189614bdc565b6158936040830188614bdc565b6158a06060830187614bdc565b6158ad60808301866139c7565b6158ba60a08301856139c7565b6158c760c0830184614f23565b98975050505050505050565b600381106158df575f5ffd5b50565b5f815190506158f0816158d3565b92915050565b6158ff816142f4565b8114615909575f5ffd5b50565b5f8151905061591a816158f6565b92915050565b6004811061592c575f5ffd5b50565b5f8151905061593d81615920565b92915050565b61594c81614355565b8114615956575f5ffd5b50565b5f8151905061596781615943565b92915050565b61597681614373565b8114615980575f5ffd5b50565b5f815190506159918161596d565b92915050565b5f6102c082840312156159ad576159ac615189565b5b6159b86102c06151fb565b90505f6159c7848285016158e2565b5f8301525060206159da8482850161590c565b60208301525060406159ee8482850161590c565b6040830152506060615a028482850161592f565b6060830152506080615a168482850161592f565b60808301525060a0615a2a8482850161590c565b60a08301525060c0615a3e8482850161590c565b60c08301525060e0615a528482850161590c565b60e083015250610100615a678482850161590c565b61010083015250610120615a7d8482850161590c565b61012083015250610140615a938482850161590c565b61014083015250610160615aa98482850161522b565b61016083015250610180615abf8482850161522b565b610180830152506101a0615ad584828501615959565b6101a0830152506101c0615aeb84828501615959565b6101c0830152506101e0615b0184828501615959565b6101e083015250610200615b1784828501615983565b61020083015250610220615b2d84828501615983565b61022083015250610240615b4384828501615983565b61024083015250610260615b598482850161590c565b61026083015250610280615b6f8482850161590c565b610280830152506102a0615b858482850161522b565b6102a08301525092915050565b5f6101e08284031215615ba857615ba7615189565b5b615bb36101e06151fb565b90505f615bc28482850161522b565b5f830152506020615bd58482850161522b565b6020830152506040615be98482850161522b565b6040830152506060615bfd8482850161522b565b6060830152506080615c118482850161522b565b60808301525060a0615c258482850161522b565b60a08301525060c0615c398482850161522b565b60c08301525060e0615c4d8482850161522b565b60e083015250610100615c628482850161522b565b61010083015250610120615c788482850161522b565b61012083015250610140615c8e8482850161522b565b61014083015250610160615ca48482850161522b565b61016083015250610180615cba8482850161522b565b610180830152506101a0615cd08482850161522b565b6101a0830152506101c0615ce68482850161522b565b6101c08301525092915050565b5f6103a08284031215615d0957615d08615189565b5b615d146103a06151fb565b90505f615d238482850161522b565b5f830152506020615d368482850161522b565b6020830152506040615d4a8482850161522b565b6040830152506060615d5e8482850161522b565b6060830152506080615d728482850161522b565b60808301525060a0615d868482850161522b565b60a08301525060c0615d9a8482850161522b565b60c08301525060e0615dae8482850161522b565b60e083015250610100615dc38482850161522b565b61010083015250610120615dd98482850161522b565b61012083015250610140615def8482850161522b565b61014083015250610160615e058482850161522b565b61016083015250610180615e1b8482850161522b565b610180830152506101a0615e318482850161522b565b6101a0830152506101c0615e478482850161522b565b6101c0830152506101e0615e5d8482850161522b565b6101e083015250610200615e738482850161522b565b61020083015250610220615e898482850161522b565b61022083015250610240615e9f8482850161522b565b61024083015250610260615eb58482850161522b565b61026083015250610280615ecb8482850161522b565b610280830152506102a0615ee18482850161522b565b6102a0830152506102c0615ef78482850161522b565b6102c0830152506102e0615f0d8482850161522b565b6102e083015250610300615f238482850161522b565b61030083015250610320615f398482850161522b565b61032083015250610340615f4f8482850161522b565b61034083015250610360615f658482850161522b565b61036083015250610380615f7b8482850161522b565b6103808301525092915050565b5f6101008284031215615f9e57615f9d615189565b5b615fa96101006151fb565b90505f615fb88482850161590c565b5f830152506020615fcb8482850161590c565b6020830152506040615fdf8482850161590c565b6040830152506060615ff38482850161590c565b60608301525060806160078482850161590c565b60808301525060a061601b8482850161522b565b60a08301525060c061602f8482850161590c565b60c08301525060e06160438482850161522b565b60e08301525092915050565b6004811061605b575f5ffd5b50565b5f8151905061606c8161604f565b92915050565b5f6101e0828403121561608857616087615189565b5b6160936101e06151fb565b90505f6160a28482850161522b565b5f8301525060206160b58482850161522b565b60208301525060406160c98482850161522b565b60408301525060606160dd8482850161522b565b60608301525060806160f18482850161522b565b60808301525060a06161058482850161522b565b60a08301525060c06161198482850161522b565b60c08301525060e061612d8482850161522b565b60e0830152506101006161428482850161522b565b610100830152506101206161588482850161522b565b6101208301525061014061616e8482850161522b565b610140830152506101606161848482850161522b565b6101608301525061018061619a8482850161522b565b610180830152506101a06161b08482850161522b565b6101a0830152506101c06161c68482850161522b565b6101c08301525092915050565b5f610b4082840312156161e9576161e8615189565b5b6161f360c06151fb565b90505f61620284828501615997565b5f830152506102c061621684828501615b92565b6020830152506104a061622b84828501615cf3565b60408301525061084061624084828501615f88565b6060830152506109406162558482850161605e565b60808301525061096061626a84828501616072565b60a08301525092915050565b5f610b40828403121561628c5761628b6138a5565b5b5f616299848285016161d3565b91505092915050565b5f815190506162b081613a1c565b92915050565b5f602082840312156162cb576162ca6138a5565b5b5f6162d8848285016162a2565b91505092915050565b5f5f604083850312156162f7576162f66138a5565b5b5f61630485828601614ffe565b925050602061631585828601614ffe565b9150509250929050565b5f60e0820190506163325f83018a614bdc565b61633f6020830189614bdc565b61634c60408301886139c7565b61635960608301876139c7565b61636660808301866139c7565b61637360a0830185614bdc565b61638060c08301846139c7565b98975050505050505050565b5f610100820190506163a05f83018b614bdc565b6163ad602083018a614bdc565b6163ba60408301896139c7565b6163c760608301886139c7565b6163d460808301876139c7565b6163e160a08301866139c7565b6163ee60c0830185614bdc565b6163fb60e08301846139c7565b9998505050505050505050565b7f4f776e61626c653a206e6577206f776e657220697320746865207a65726f20615f8201527f6464726573730000000000000000000000000000000000000000000000000000602082015250565b5f616462602683614e14565b915061646d82616408565b604082019050919050565b5f6020820190508181035f83015261648f81616456565b9050919050565b7f4f776e61626c653a2063616c6c6572206973206e6f7420746865206f776e65725f82015250565b5f6164ca602083614e14565b91506164d582616496565b602082019050919050565b5f6020820190508181035f8301526164f7816164be565b9050919050565b7f5265656e7472616e637947756172643a207265656e7472616e742063616c6c005f82015250565b5f616532601f83614e14565b915061653d826164fe565b602082019050919050565b5f6020820190508181035f83015261655f81616526565b9050919050565b5f6060820190506165795f830186614bdc565b6165866020830185614bdc565b61659360408301846139c7565b949350505050565b5f6040820190506165ae5f830185614bdc565b6165bb60208301846139c7565b9392505050565b5f6165dc6165d76165d2846150e3565b6140b6565b6142f4565b9050919050565b6165ec816165c2565b82525050565b5f6040820190506166055f830185614bdc565b61661260208301846165e3565b9392505050565b5f60408201905061662c5f830185614bdc565b6166396020830184614bdc565b9392505050565b5f60208284031215616655576166546138a5565b5b5f6166628482850161522b565b91505092915050565b7f5361666545524332303a204552433230206f7065726174696f6e20646964206e5f8201527f6f74207375636365656400000000000000000000000000000000000000000000602082015250565b5f6166c5602a83614e14565b91506166d08261666b565b604082019050919050565b5f6020820190508181035f8301526166f2816166b9565b9050919050565b5f81519050919050565b8281835e5f83830152505050565b5f61671b826166f9565b6167258185614dd3565b9350616735818560208601616703565b80840191505092915050565b5f61674c8284616711565b915081905092915050565b7f416464726573733a20696e73756666696369656e742062616c616e636520666f5f8201527f722063616c6c0000000000000000000000000000000000000000000000000000602082015250565b5f6167b1602683614e14565b91506167bc82616757565b604082019050919050565b5f6020820190508181035f8301526167de816167a5565b9050919050565b7f416464726573733a2063616c6c20746f206e6f6e2d636f6e74726163740000005f82015250565b5f616819601d83614e14565b9150616824826167e5565b602082019050919050565b5f6020820190508181035f8301526168468161680d565b9050919050565b5f81519050919050565b5f6168618261684d565b61686b8185614e14565b935061687b818560208601616703565b6168848161518d565b840191505092915050565b5f6020820190508181035f8301526168a78184616857565b90509291505056fea264697066735822122018740dbae10f152e5979196203499b3555809e76a34f893887291427012cf95664736f6c634300081e0033","linkReferences":{}},"methodIdentifiers":{"decodePackedRisk(uint256)":"6844d3a3","guardedAddLiquidity((address,address,address,uint256,uint256,uint256,uint256,address,address,uint256))":"be11c9aa","guardedAddLiquidityETH((address,address,uint256,uint256,uint256,address,address,uint256))":"1d371c1f","guardedRemoveLiquidity((address,address,address,uint256,uint256,uint256,address,uint256))":"be0b801d","guardedRemoveLiquidityETH((address,address,uint256,uint256,uint256,address,uint256))":"6e8cb336","liquidityGuard()":"55a73f90","owner()":"8da5cb5b","previewGuardedAddLiquidity(address,address,address,uint256,uint256)":"b7bfad92","previewGuardedAddLiquidityETH(address,address,uint256,uint256)":"41be4aca","previewGuardedRemoveLiquidity(address,address,address,uint256)":"3ff4d9a0","previewGuardedRemoveLiquidityETH(address,address,uint256)":"b7571183","renounceOwnership()":"715018a6","rescueERC20(address,address,uint256)":"b2118a8d","rescueETH(address,uint256)":"099a04e5","riskPolicy()":"bf72b2a7","riskReportNFT()":"e98216f1","setLiquidityGuard(address)":"1f339e7b","setRiskPolicy(address)":"92008438","setRiskReportNFT(address)":"c1faf3ac","storeAndMintAddLiquidityCheck(address,address,address,uint256,uint256,bytes)":"3e2fa3fa","storeAndMintAddLiquidityETHCheck(address,address,uint256,uint256,bytes)":"5f78ea43","storeAndMintRemoveLiquidityCheck(address,address,address,uint256,bytes)":"5a2266fe","storeAndMintRemoveLiquidityETHCheck(address,address,uint256,bytes)":"1db83067","transferOwnership(address)":"f2fde38b"},"id":7}