{"abi":[{"type":"constructor","inputs":[{"name":"vaultGuard_","type":"address","internalType":"address"},{"name":"riskPolicy_","type":"address","internalType":"address"},{"name":"riskReportNFT_","type":"address","internalType":"address"}],"stateMutability":"nonpayable"},{"type":"function","name":"decodePackedRisk","inputs":[{"name":"packedRiskReport","type":"uint256","internalType":"uint256"}],"outputs":[{"name":"report","type":"tuple","internalType":"struct ERC4626DecodedRiskReport","components":[{"name":"core","type":"tuple","internalType":"struct PolicyCoreView","components":[{"name":"kind","type":"uint8","internalType":"enum PolicyKind"},{"name":"operation","type":"uint8","internalType":"uint8"},{"name":"version","type":"uint8","internalType":"uint8"},{"name":"finalCategory","type":"uint8","internalType":"enum PolicyRiskCategory"},{"name":"offChainCategory","type":"uint8","internalType":"enum PolicyRiskCategory"},{"name":"compositeScore","type":"uint8","internalType":"uint8"},{"name":"onChainScore","type":"uint8","internalType":"uint8"},{"name":"offChainScore","type":"uint8","internalType":"uint8"},{"name":"onChainCriticalCount","type":"uint8","internalType":"uint8"},{"name":"onChainWarningCount","type":"uint8","internalType":"uint8"},{"name":"offChainInfoCount","type":"uint8","internalType":"uint8"},{"name":"anyHardBlock","type":"bool","internalType":"bool"},{"name":"offChainValid","type":"bool","internalType":"bool"},{"name":"onChainFlagsPacked","type":"uint32","internalType":"uint32"},{"name":"offChainFlagsPacked","type":"uint32","internalType":"uint32"},{"name":"tokenFlagsPacked","type":"uint32","internalType":"uint32"},{"name":"priceImpactBps","type":"uint16","internalType":"uint16"},{"name":"outputDiscrepancyBps","type":"uint16","internalType":"uint16"},{"name":"ratioDeviationBps","type":"uint16","internalType":"uint16"},{"name":"tokenCriticalCount","type":"uint8","internalType":"uint8"},{"name":"tokenWarningCount","type":"uint8","internalType":"uint8"},{"name":"tokenRiskEvaluated","type":"bool","internalType":"bool"}]},{"name":"offChain","type":"tuple","internalType":"struct PolicyOffChainView","components":[{"name":"hasDangerousDelegateCall","type":"bool","internalType":"bool"},{"name":"hasSelfDestruct","type":"bool","internalType":"bool"},{"name":"hasApprovalDrain","type":"bool","internalType":"bool"},{"name":"hasOwnerSweep","type":"bool","internalType":"bool"},{"name":"hasReentrancy","type":"bool","internalType":"bool"},{"name":"hasUnexpectedCreate","type":"bool","internalType":"bool"},{"name":"hasUpgradeCall","type":"bool","internalType":"bool"},{"name":"isExitFrozen","type":"bool","internalType":"bool"},{"name":"isRemovalFrozen","type":"bool","internalType":"bool"},{"name":"isFirstDeposit","type":"bool","internalType":"bool"},{"name":"isFeeOnTransfer","type":"bool","internalType":"bool"},{"name":"anyOracleStale","type":"bool","internalType":"bool"},{"name":"anyContractUnverified","type":"bool","internalType":"bool"},{"name":"oracleDeviation","type":"bool","internalType":"bool"},{"name":"simulationReverted","type":"bool","internalType":"bool"}]},{"name":"tokenRisk","type":"tuple","internalType":"struct PolicyTokenFlagsView","components":[{"name":"evaluated","type":"bool","internalType":"bool"},{"name":"notAContract","type":"bool","internalType":"bool"},{"name":"emptyBytecode","type":"bool","internalType":"bool"},{"name":"decimalsRevert","type":"bool","internalType":"bool"},{"name":"weirdDecimals","type":"bool","internalType":"bool"},{"name":"highDecimals","type":"bool","internalType":"bool"},{"name":"totalSupplyRevert","type":"bool","internalType":"bool"},{"name":"zeroTotalSupply","type":"bool","internalType":"bool"},{"name":"veryLowTotalSupply","type":"bool","internalType":"bool"},{"name":"symbolRevert","type":"bool","internalType":"bool"},{"name":"nameRevert","type":"bool","internalType":"bool"},{"name":"isEip1967Proxy","type":"bool","internalType":"bool"},{"name":"isEip1822Proxy","type":"bool","internalType":"bool"},{"name":"isMinimalProxy","type":"bool","internalType":"bool"},{"name":"hasOwner","type":"bool","internalType":"bool"},{"name":"ownershipRenounced","type":"bool","internalType":"bool"},{"name":"ownerIsEoa","type":"bool","internalType":"bool"},{"name":"isPausable","type":"bool","internalType":"bool"},{"name":"isCurrentlyPaused","type":"bool","internalType":"bool"},{"name":"hasBlacklist","type":"bool","internalType":"bool"},{"name":"hasBlocklist","type":"bool","internalType":"bool"},{"name":"possibleFeeOnTransfer","type":"bool","internalType":"bool"},{"name":"hasTransferFeeGetter","type":"bool","internalType":"bool"},{"name":"hasTaxFunction","type":"bool","internalType":"bool"},{"name":"possibleRebasing","type":"bool","internalType":"bool"},{"name":"hasMintCapability","type":"bool","internalType":"bool"},{"name":"hasBurnCapability","type":"bool","internalType":"bool"},{"name":"hasPermit","type":"bool","internalType":"bool"},{"name":"hasFlashMint","type":"bool","internalType":"bool"}]},{"name":"enhancedView","type":"tuple","internalType":"struct EnhancedCoreView","components":[{"name":"economicSeverityTier","type":"uint8","internalType":"uint8"},{"name":"oracleAgeTier","type":"uint8","internalType":"uint8"},{"name":"excessPullTier","type":"uint8","internalType":"uint8"},{"name":"sharePriceDriftTier","type":"uint8","internalType":"uint8"},{"name":"compoundRiskCount","type":"uint8","internalType":"uint8"},{"name":"simulationRevertBlock","type":"bool","internalType":"bool"},{"name":"sweepSeverityTier","type":"uint8","internalType":"uint8"},{"name":"enhancedDataPresent","type":"bool","internalType":"bool"}]},{"name":"operation","type":"uint8","internalType":"enum VaultOpType"},{"name":"onChain","type":"tuple","internalType":"struct ERC4626OnChainView","components":[{"name":"vaultNotWhitelisted","type":"bool","internalType":"bool"},{"name":"vaultZeroSupply","type":"bool","internalType":"bool"},{"name":"donationAttack","type":"bool","internalType":"bool"},{"name":"shareInflationRisk","type":"bool","internalType":"bool"},{"name":"vaultBalanceMismatch","type":"bool","internalType":"bool"},{"name":"exchangeRateAnomaly","type":"bool","internalType":"bool"},{"name":"previewRevert","type":"bool","internalType":"bool"},{"name":"zeroSharesOut","type":"bool","internalType":"bool"},{"name":"zeroAssetsOut","type":"bool","internalType":"bool"},{"name":"dustShares","type":"bool","internalType":"bool"},{"name":"dustAssets","type":"bool","internalType":"bool"},{"name":"exceedsMaxDeposit","type":"bool","internalType":"bool"},{"name":"exceedsMaxRedeem","type":"bool","internalType":"bool"},{"name":"previewConvertMismatch","type":"bool","internalType":"bool"}]}]}],"stateMutability":"view"},{"type":"function","name":"guardedDeposit","inputs":[{"name":"vault","type":"address","internalType":"address"},{"name":"assetAmount","type":"uint256","internalType":"uint256"},{"name":"receiver","type":"address","internalType":"address"},{"name":"minSharesOut","type":"uint256","internalType":"uint256"},{"name":"offChainData","type":"bytes","internalType":"bytes"}],"outputs":[{"name":"sharesOut","type":"uint256","internalType":"uint256"}],"stateMutability":"nonpayable"},{"type":"function","name":"guardedRedeem","inputs":[{"name":"vault","type":"address","internalType":"address"},{"name":"shareAmount","type":"uint256","internalType":"uint256"},{"name":"receiver","type":"address","internalType":"address"},{"name":"minAssetsOut","type":"uint256","internalType":"uint256"},{"name":"offChainData","type":"bytes","internalType":"bytes"}],"outputs":[{"name":"assetsOut","type":"uint256","internalType":"uint256"}],"stateMutability":"nonpayable"},{"type":"function","name":"owner","inputs":[],"outputs":[{"name":"","type":"address","internalType":"address"}],"stateMutability":"view"},{"type":"function","name":"previewGuardedDeposit","inputs":[{"name":"vault","type":"address","internalType":"address"},{"name":"assetAmount","type":"uint256","internalType":"uint256"}],"outputs":[{"name":"result","type":"tuple","internalType":"struct VaultGuardResult","components":[{"name":"VAULT_NOT_WHITELISTED","type":"bool","internalType":"bool"},{"name":"VAULT_ZERO_SUPPLY","type":"bool","internalType":"bool"},{"name":"DONATION_ATTACK","type":"bool","internalType":"bool"},{"name":"SHARE_INFLATION_RISK","type":"bool","internalType":"bool"},{"name":"VAULT_BALANCE_MISMATCH","type":"bool","internalType":"bool"},{"name":"EXCHANGE_RATE_ANOMALY","type":"bool","internalType":"bool"},{"name":"PREVIEW_REVERT","type":"bool","internalType":"bool"},{"name":"ZERO_SHARES_OUT","type":"bool","internalType":"bool"},{"name":"ZERO_ASSETS_OUT","type":"bool","internalType":"bool"},{"name":"DUST_SHARES","type":"bool","internalType":"bool"},{"name":"DUST_ASSETS","type":"bool","internalType":"bool"},{"name":"EXCEEDS_MAX_DEPOSIT","type":"bool","internalType":"bool"},{"name":"EXCEEDS_MAX_REDEEM","type":"bool","internalType":"bool"},{"name":"PREVIEW_CONVERT_MISMATCH","type":"bool","internalType":"bool"},{"name":"tokenResult","type":"tuple","internalType":"struct TokenGuardResult","components":[{"name":"NOT_A_CONTRACT","type":"bool","internalType":"bool"},{"name":"EMPTY_BYTECODE","type":"bool","internalType":"bool"},{"name":"DECIMALS_REVERT","type":"bool","internalType":"bool"},{"name":"WEIRD_DECIMALS","type":"bool","internalType":"bool"},{"name":"HIGH_DECIMALS","type":"bool","internalType":"bool"},{"name":"TOTAL_SUPPLY_REVERT","type":"bool","internalType":"bool"},{"name":"ZERO_TOTAL_SUPPLY","type":"bool","internalType":"bool"},{"name":"VERY_LOW_TOTAL_SUPPLY","type":"bool","internalType":"bool"},{"name":"SYMBOL_REVERT","type":"bool","internalType":"bool"},{"name":"NAME_REVERT","type":"bool","internalType":"bool"},{"name":"IS_EIP1967_PROXY","type":"bool","internalType":"bool"},{"name":"IS_EIP1822_PROXY","type":"bool","internalType":"bool"},{"name":"IS_MINIMAL_PROXY","type":"bool","internalType":"bool"},{"name":"HAS_OWNER","type":"bool","internalType":"bool"},{"name":"OWNERSHIP_RENOUNCED","type":"bool","internalType":"bool"},{"name":"OWNER_IS_EOA","type":"bool","internalType":"bool"},{"name":"IS_PAUSABLE","type":"bool","internalType":"bool"},{"name":"IS_CURRENTLY_PAUSED","type":"bool","internalType":"bool"},{"name":"HAS_BLACKLIST","type":"bool","internalType":"bool"},{"name":"HAS_BLOCKLIST","type":"bool","internalType":"bool"},{"name":"POSSIBLE_FEE_ON_TRANSFER","type":"bool","internalType":"bool"},{"name":"HAS_TRANSFER_FEE_GETTER","type":"bool","internalType":"bool"},{"name":"HAS_TAX_FUNCTION","type":"bool","internalType":"bool"},{"name":"POSSIBLE_REBASING","type":"bool","internalType":"bool"},{"name":"HAS_MINT_CAPABILITY","type":"bool","internalType":"bool"},{"name":"HAS_BURN_CAPABILITY","type":"bool","internalType":"bool"},{"name":"HAS_PERMIT","type":"bool","internalType":"bool"},{"name":"HAS_FLASH_MINT","type":"bool","internalType":"bool"}]}]},{"name":"previewShares","type":"uint256","internalType":"uint256"},{"name":"previewAssets","type":"uint256","internalType":"uint256"}],"stateMutability":"nonpayable"},{"type":"function","name":"previewGuardedRedeem","inputs":[{"name":"vault","type":"address","internalType":"address"},{"name":"shareAmount","type":"uint256","internalType":"uint256"}],"outputs":[{"name":"result","type":"tuple","internalType":"struct VaultGuardResult","components":[{"name":"VAULT_NOT_WHITELISTED","type":"bool","internalType":"bool"},{"name":"VAULT_ZERO_SUPPLY","type":"bool","internalType":"bool"},{"name":"DONATION_ATTACK","type":"bool","internalType":"bool"},{"name":"SHARE_INFLATION_RISK","type":"bool","internalType":"bool"},{"name":"VAULT_BALANCE_MISMATCH","type":"bool","internalType":"bool"},{"name":"EXCHANGE_RATE_ANOMALY","type":"bool","internalType":"bool"},{"name":"PREVIEW_REVERT","type":"bool","internalType":"bool"},{"name":"ZERO_SHARES_OUT","type":"bool","internalType":"bool"},{"name":"ZERO_ASSETS_OUT","type":"bool","internalType":"bool"},{"name":"DUST_SHARES","type":"bool","internalType":"bool"},{"name":"DUST_ASSETS","type":"bool","internalType":"bool"},{"name":"EXCEEDS_MAX_DEPOSIT","type":"bool","internalType":"bool"},{"name":"EXCEEDS_MAX_REDEEM","type":"bool","internalType":"bool"},{"name":"PREVIEW_CONVERT_MISMATCH","type":"bool","internalType":"bool"},{"name":"tokenResult","type":"tuple","internalType":"struct TokenGuardResult","components":[{"name":"NOT_A_CONTRACT","type":"bool","internalType":"bool"},{"name":"EMPTY_BYTECODE","type":"bool","internalType":"bool"},{"name":"DECIMALS_REVERT","type":"bool","internalType":"bool"},{"name":"WEIRD_DECIMALS","type":"bool","internalType":"bool"},{"name":"HIGH_DECIMALS","type":"bool","internalType":"bool"},{"name":"TOTAL_SUPPLY_REVERT","type":"bool","internalType":"bool"},{"name":"ZERO_TOTAL_SUPPLY","type":"bool","internalType":"bool"},{"name":"VERY_LOW_TOTAL_SUPPLY","type":"bool","internalType":"bool"},{"name":"SYMBOL_REVERT","type":"bool","internalType":"bool"},{"name":"NAME_REVERT","type":"bool","internalType":"bool"},{"name":"IS_EIP1967_PROXY","type":"bool","internalType":"bool"},{"name":"IS_EIP1822_PROXY","type":"bool","internalType":"bool"},{"name":"IS_MINIMAL_PROXY","type":"bool","internalType":"bool"},{"name":"HAS_OWNER","type":"bool","internalType":"bool"},{"name":"OWNERSHIP_RENOUNCED","type":"bool","internalType":"bool"},{"name":"OWNER_IS_EOA","type":"bool","internalType":"bool"},{"name":"IS_PAUSABLE","type":"bool","internalType":"bool"},{"name":"IS_CURRENTLY_PAUSED","type":"bool","internalType":"bool"},{"name":"HAS_BLACKLIST","type":"bool","internalType":"bool"},{"name":"HAS_BLOCKLIST","type":"bool","internalType":"bool"},{"name":"POSSIBLE_FEE_ON_TRANSFER","type":"bool","internalType":"bool"},{"name":"HAS_TRANSFER_FEE_GETTER","type":"bool","internalType":"bool"},{"name":"HAS_TAX_FUNCTION","type":"bool","internalType":"bool"},{"name":"POSSIBLE_REBASING","type":"bool","internalType":"bool"},{"name":"HAS_MINT_CAPABILITY","type":"bool","internalType":"bool"},{"name":"HAS_BURN_CAPABILITY","type":"bool","internalType":"bool"},{"name":"HAS_PERMIT","type":"bool","internalType":"bool"},{"name":"HAS_FLASH_MINT","type":"bool","internalType":"bool"}]}]},{"name":"previewShares","type":"uint256","internalType":"uint256"},{"name":"previewAssets","type":"uint256","internalType":"uint256"}],"stateMutability":"nonpayable"},{"type":"function","name":"renounceOwnership","inputs":[],"outputs":[],"stateMutability":"nonpayable"},{"type":"function","name":"rescueERC20","inputs":[{"name":"token","type":"address","internalType":"address"},{"name":"to","type":"address","internalType":"address"},{"name":"amount","type":"uint256","internalType":"uint256"}],"outputs":[],"stateMutability":"nonpayable"},{"type":"function","name":"riskPolicy","inputs":[],"outputs":[{"name":"","type":"address","internalType":"contract IERC4626RiskPolicy"}],"stateMutability":"view"},{"type":"function","name":"riskReportNFT","inputs":[],"outputs":[{"name":"","type":"address","internalType":"contract IRiskReportNFT"}],"stateMutability":"view"},{"type":"function","name":"setRiskPolicy","inputs":[{"name":"newRiskPolicy","type":"address","internalType":"address"}],"outputs":[],"stateMutability":"nonpayable"},{"type":"function","name":"setRiskReportNFT","inputs":[{"name":"newRiskReportNFT","type":"address","internalType":"address"}],"outputs":[],"stateMutability":"nonpayable"},{"type":"function","name":"setVaultGuard","inputs":[{"name":"newGuard","type":"address","internalType":"address"}],"outputs":[],"stateMutability":"nonpayable"},{"type":"function","name":"storeAndMintDepositCheck","inputs":[{"name":"vault","type":"address","internalType":"address"},{"name":"assetAmount","type":"uint256","internalType":"uint256"},{"name":"offChainData","type":"bytes","internalType":"bytes"}],"outputs":[{"name":"","type":"uint256","internalType":"uint256"}],"stateMutability":"nonpayable"},{"type":"function","name":"storeAndMintRedeemCheck","inputs":[{"name":"vault","type":"address","internalType":"address"},{"name":"shareAmount","type":"uint256","internalType":"uint256"},{"name":"offChainData","type":"bytes","internalType":"bytes"}],"outputs":[{"name":"value","type":"uint256","internalType":"uint256"}],"stateMutability":"nonpayable"},{"type":"function","name":"transferOwnership","inputs":[{"name":"newOwner","type":"address","internalType":"address"}],"outputs":[],"stateMutability":"nonpayable"},{"type":"function","name":"vaultGuard","inputs":[],"outputs":[{"name":"","type":"address","internalType":"contract IERC4626VaultGuard"}],"stateMutability":"view"},{"type":"event","name":"GuardedDepositExecuted","inputs":[{"name":"user","type":"address","indexed":true,"internalType":"address"},{"name":"vault","type":"address","indexed":true,"internalType":"address"},{"name":"receiver","type":"address","indexed":true,"internalType":"address"},{"name":"assetsIn","type":"uint256","indexed":false,"internalType":"uint256"},{"name":"sharesOut","type":"uint256","indexed":false,"internalType":"uint256"}],"anonymous":false},{"type":"event","name":"GuardedRedeemExecuted","inputs":[{"name":"user","type":"address","indexed":true,"internalType":"address"},{"name":"vault","type":"address","indexed":true,"internalType":"address"},{"name":"receiver","type":"address","indexed":true,"internalType":"address"},{"name":"sharesIn","type":"uint256","indexed":false,"internalType":"uint256"},{"name":"assetsOut","type":"uint256","indexed":false,"internalType":"uint256"}],"anonymous":false},{"type":"event","name":"OwnershipTransferred","inputs":[{"name":"previousOwner","type":"address","indexed":true,"internalType":"address"},{"name":"newOwner","type":"address","indexed":true,"internalType":"address"}],"anonymous":false},{"type":"event","name":"RiskPolicyUpdated","inputs":[{"name":"newRiskPolicy","type":"address","indexed":true,"internalType":"address"}],"anonymous":false},{"type":"event","name":"VaultCheckStored","inputs":[{"name":"user","type":"address","indexed":true,"internalType":"address"},{"name":"vault","type":"address","indexed":true,"internalType":"address"},{"name":"operation","type":"uint8","indexed":false,"internalType":"enum VaultOpType"},{"name":"amount","type":"uint256","indexed":false,"internalType":"uint256"},{"name":"packedRiskReport","type":"uint256","indexed":false,"internalType":"uint256"}],"anonymous":false},{"type":"event","name":"VaultGuardUpdated","inputs":[{"name":"newGuard","type":"address","indexed":true,"internalType":"address"}],"anonymous":false},{"type":"error","name":"InvalidReceiver","inputs":[]},{"type":"error","name":"SlippageExceeded","inputs":[{"name":"actual","type":"uint256","internalType":"uint256"},{"name":"minimum","type":"uint256","internalType":"uint256"}]},{"type":"error","name":"StaleStoredCheck","inputs":[]},{"type":"error","name":"VaultStateChanged","inputs":[]},{"type":"error","name":"ZeroAddress","inputs":[]},{"type":"error","name":"ZeroOutput","inputs":[]}],"bytecode":{"object":"0x608060405234801561000f575f5ffd5b50604051614be7380380614be7833981810160405281019061003191906102de565b61004d6100426101b860201b60201c565b6101bf60201b60201c565b600180819055505f73ffffffffffffffffffffffffffffffffffffffff168373ffffffffffffffffffffffffffffffffffffffff1614806100b957505f73ffffffffffffffffffffffffffffffffffffffff168273ffffffffffffffffffffffffffffffffffffffff16145b156100f0576040517fd92e233d00000000000000000000000000000000000000000000000000000000815260040160405180910390fd5b8260025f6101000a81548173ffffffffffffffffffffffffffffffffffffffff021916908373ffffffffffffffffffffffffffffffffffffffff1602179055508160035f6101000a81548173ffffffffffffffffffffffffffffffffffffffff021916908373ffffffffffffffffffffffffffffffffffffffff1602179055508060045f6101000a81548173ffffffffffffffffffffffffffffffffffffffff021916908373ffffffffffffffffffffffffffffffffffffffff16021790555050505061032e565b5f33905090565b5f5f5f9054906101000a900473ffffffffffffffffffffffffffffffffffffffff169050815f5f6101000a81548173ffffffffffffffffffffffffffffffffffffffff021916908373ffffffffffffffffffffffffffffffffffffffff1602179055508173ffffffffffffffffffffffffffffffffffffffff168173ffffffffffffffffffffffffffffffffffffffff167f8be0079c531659141344cd1fd0a4f28419497f9722a3daafe3b4186f6b6457e060405160405180910390a35050565b5f5ffd5b5f73ffffffffffffffffffffffffffffffffffffffff82169050919050565b5f6102ad82610284565b9050919050565b6102bd816102a3565b81146102c7575f5ffd5b50565b5f815190506102d8816102b4565b92915050565b5f5f5f606084860312156102f5576102f4610280565b5b5f610302868287016102ca565b9350506020610313868287016102ca565b9250506040610324868287016102ca565b9150509250925092565b6148ac8061033b5f395ff3fe608060405234801561000f575f5ffd5b5060043610610109575f3560e01c80638da5cb5b116100a0578063c1faf3ac1161006f578063c1faf3ac146102b7578063cac19892146102d3578063e3132e1014610303578063e98216f114610335578063f2fde38b1461035357610109565b80638da5cb5b146102435780639200843814610261578063b2118a8d1461027d578063bf72b2a71461029957610109565b8063479ffb2f116100dc578063479ffb2f146101cf5780634d1c96d1146101eb5780636844d3a314610209578063715018a61461023957610109565b80630d1c125d1461010d5780631c3d651f1461013f5780632fbc25821461016f5780633dcf702b1461019f575b5f5ffd5b61012760048036038101906101229190612239565b61036f565b60405161013693929190612617565b60405180910390f35b610159600480360381019061015491906126b0565b610425565b6040516101669190612721565b60405180910390f35b6101896004803603810190610184919061273a565b61062d565b6040516101969190612721565b60405180910390f35b6101b960048036038101906101b4919061273a565b610a4c565b6040516101c69190612721565b60405180910390f35b6101e960048036038101906101e491906127d0565b610da5565b005b6101f3610e98565b6040516102009190612856565b60405180910390f35b610223600480360381019061021e919061286f565b610ebd565b604051610230919061317d565b60405180910390f35b610241610f66565b005b61024b610f79565b60405161025891906131a6565b60405180910390f35b61027b600480360381019061027691906127d0565b610fa0565b005b610297600480360381019061029291906131bf565b611093565b005b6102a1611130565b6040516102ae919061322f565b60405180910390f35b6102d160048036038101906102cc91906127d0565b611155565b005b6102ed60048036038101906102e891906126b0565b611205565b6040516102fa9190612721565b60405180910390f35b61031d60048036038101906103189190612239565b61140d565b60405161032c93929190612617565b60405180910390f35b61033d6114c4565b60405161034a9190613268565b60405180910390f35b61036d600480360381019061036891906127d0565b6114e9565b005b610377611c6c565b5f5f60025f9054906101000a900473ffffffffffffffffffffffffffffffffffffffff1673ffffffffffffffffffffffffffffffffffffffff1663618fd18386865f6040518463ffffffff1660e01b81526004016103d793929190613290565b610580604051808303815f875af11580156103f4573d5f5f3e3d5ffd5b505050506040513d601f19601f82011682018060405250810190610418919061376f565b9250925092509250925092565b5f61042e61156b565b5f5f5f60025f9054906101000a900473ffffffffffffffffffffffffffffffffffffffff1673ffffffffffffffffffffffffffffffffffffffff1663f9cd3a8f89338a60016040518563ffffffff1660e01b815260040161049294939291906137c2565b610580604051808303815f875af11580156104af573d5f5f3e3d5ffd5b505050506040513d601f19601f820116820180604052508101906104d3919061376f565b9250925092505f60035f9054906101000a900473ffffffffffffffffffffffffffffffffffffffff1673ffffffffffffffffffffffffffffffffffffffff1663a6ee85888888875f6040518563ffffffff1660e01b815260040161053a949392919061385e565b602060405180830381865afa158015610555573d5f5f3e3d5ffd5b505050506040513d601f19601f82011682018060405250810190610579919061389e565b905060045f9054906101000a900473ffffffffffffffffffffffffffffffffffffffff1673ffffffffffffffffffffffffffffffffffffffff1663a0712d68826040518263ffffffff1660e01b81526004016105d59190612721565b6020604051808303815f875af11580156105f1573d5f5f3e3d5ffd5b505050506040513d601f19601f82011682018060405250810190610615919061389e565b50809450505050506106256115ba565b949350505050565b5f61063661156b565b5f73ffffffffffffffffffffffffffffffffffffffff168573ffffffffffffffffffffffffffffffffffffffff160361069b576040517f1e4ec46b00000000000000000000000000000000000000000000000000000000815260040160405180910390fd5b60025f9054906101000a900473ffffffffffffffffffffffffffffffffffffffff1673ffffffffffffffffffffffffffffffffffffffff16631e00d38c88338960016040518563ffffffff1660e01b81526004016106fc94939291906137c2565b5f6040518083038186803b158015610712575f5ffd5b505afa158015610724573d5f5f3e3d5ffd5b505050505f60025f9054906101000a900473ffffffffffffffffffffffffffffffffffffffff1673ffffffffffffffffffffffffffffffffffffffff1663b280221289336040518363ffffffff1660e01b81526004016107859291906138c9565b6105a060405180830381865afa1580156107a1573d5f5f3e3d5ffd5b505050506040513d601f19601f820116820180604052508101906107c591906138f0565b50505090505f8873ffffffffffffffffffffffffffffffffffffffff166338d52e0f6040518163ffffffff1660e01b8152600401602060405180830381865afa158015610814573d5f5f3e3d5ffd5b505050506040513d601f19601f82011682018060405250810190610838919061396c565b905061086733308a8473ffffffffffffffffffffffffffffffffffffffff166115c3909392919063ffffffff16565b61089289898373ffffffffffffffffffffffffffffffffffffffff1661164c9092919063ffffffff16565b8873ffffffffffffffffffffffffffffffffffffffff16636e553f6589896040518363ffffffff1660e01b81526004016108cd929190613997565b6020604051808303815f875af11580156108e9573d5f5f3e3d5ffd5b505050506040513d601f19601f8201168201806040525081019061090d919061389e565b925061093a895f8373ffffffffffffffffffffffffffffffffffffffff1661164c9092919063ffffffff16565b5f8303610973576040517fe618637e00000000000000000000000000000000000000000000000000000000815260040160405180910390fd5b858310156109ba5782866040517f71c4efed0000000000000000000000000000000000000000000000000000000081526004016109b19291906139be565b60405180910390fd5b8673ffffffffffffffffffffffffffffffffffffffff168973ffffffffffffffffffffffffffffffffffffffff163373ffffffffffffffffffffffffffffffffffffffff167fc9b38d99084045ed69bbab4fc17855f1d4bccfa37104270972318cf096f1fd088b87604051610a309291906139be565b60405180910390a45050610a426115ba565b9695505050505050565b5f610a5561156b565b5f73ffffffffffffffffffffffffffffffffffffffff168573ffffffffffffffffffffffffffffffffffffffff1603610aba576040517f1e4ec46b00000000000000000000000000000000000000000000000000000000815260040160405180910390fd5b60025f9054906101000a900473ffffffffffffffffffffffffffffffffffffffff1673ffffffffffffffffffffffffffffffffffffffff16631e00d38c8833895f6040518563ffffffff1660e01b8152600401610b1a94939291906137c2565b5f6040518083038186803b158015610b30575f5ffd5b505afa158015610b42573d5f5f3e3d5ffd5b505050505f60025f9054906101000a900473ffffffffffffffffffffffffffffffffffffffff1673ffffffffffffffffffffffffffffffffffffffff1663b280221289336040518363ffffffff1660e01b8152600401610ba39291906138c9565b6105a060405180830381865afa158015610bbf573d5f5f3e3d5ffd5b505050506040513d601f19601f82011682018060405250810190610be391906138f0565b5050509050610c153330898b73ffffffffffffffffffffffffffffffffffffffff166115c3909392919063ffffffff16565b8773ffffffffffffffffffffffffffffffffffffffff1663ba0876528888306040518463ffffffff1660e01b8152600401610c52939291906139e5565b6020604051808303815f875af1158015610c6e573d5f5f3e3d5ffd5b505050506040513d601f19601f82011682018060405250810190610c92919061389e565b91505f8203610ccd576040517fe618637e00000000000000000000000000000000000000000000000000000000815260040160405180910390fd5b84821015610d145781856040517f71c4efed000000000000000000000000000000000000000000000000000000008152600401610d0b9291906139be565b60405180910390fd5b8573ffffffffffffffffffffffffffffffffffffffff168873ffffffffffffffffffffffffffffffffffffffff163373ffffffffffffffffffffffffffffffffffffffff167fee5b14d8b60dd24c1d4e6ad9176c85adf077dc968c4b13953c0d3c517b7ce4dd8a86604051610d8a9291906139be565b60405180910390a450610d9b6115ba565b9695505050505050565b610dad611767565b5f73ffffffffffffffffffffffffffffffffffffffff168173ffffffffffffffffffffffffffffffffffffffff1603610e12576040517fd92e233d00000000000000000000000000000000000000000000000000000000815260040160405180910390fd5b8060025f6101000a81548173ffffffffffffffffffffffffffffffffffffffff021916908373ffffffffffffffffffffffffffffffffffffffff1602179055508073ffffffffffffffffffffffffffffffffffffffff167fa546036a4f54520da72ff75111f73e64a03c72c9ba5dbc475b0ef3a3f1da90be60405160405180910390a250565b60025f9054906101000a900473ffffffffffffffffffffffffffffffffffffffff1681565b610ec5611cf6565b60035f9054906101000a900473ffffffffffffffffffffffffffffffffffffffff1673ffffffffffffffffffffffffffffffffffffffff166361a76900836040518263ffffffff1660e01b8152600401610f1f9190612721565b610b2060405180830381865afa158015610f3b573d5f5f3e3d5ffd5b505050506040513d601f19601f82011682018060405250810190610f5f91906143a7565b9050919050565b610f6e611767565b610f775f6117e5565b565b5f5f5f9054906101000a900473ffffffffffffffffffffffffffffffffffffffff16905090565b610fa8611767565b5f73ffffffffffffffffffffffffffffffffffffffff168173ffffffffffffffffffffffffffffffffffffffff160361100d576040517fd92e233d00000000000000000000000000000000000000000000000000000000815260040160405180910390fd5b8060035f6101000a81548173ffffffffffffffffffffffffffffffffffffffff021916908373ffffffffffffffffffffffffffffffffffffffff1602179055508073ffffffffffffffffffffffffffffffffffffffff167fe8dc7a347ee88a4d9df35f0c4dd767e45984364768a29bbf6162c08923dab69f60405160405180910390a250565b61109b611767565b5f73ffffffffffffffffffffffffffffffffffffffff168273ffffffffffffffffffffffffffffffffffffffff1603611100576040517fd92e233d00000000000000000000000000000000000000000000000000000000815260040160405180910390fd5b61112b82828573ffffffffffffffffffffffffffffffffffffffff166118a69092919063ffffffff16565b505050565b60035f9054906101000a900473ffffffffffffffffffffffffffffffffffffffff1681565b61115d611767565b5f73ffffffffffffffffffffffffffffffffffffffff168173ffffffffffffffffffffffffffffffffffffffff16036111c2576040517fd92e233d00000000000000000000000000000000000000000000000000000000815260040160405180910390fd5b8060045f6101000a81548173ffffffffffffffffffffffffffffffffffffffff021916908373ffffffffffffffffffffffffffffffffffffffff16021790555050565b5f61120e61156b565b5f5f5f60025f9054906101000a900473ffffffffffffffffffffffffffffffffffffffff1673ffffffffffffffffffffffffffffffffffffffff1663f9cd3a8f89338a5f6040518563ffffffff1660e01b815260040161127194939291906137c2565b610580604051808303815f875af115801561128e573d5f5f3e3d5ffd5b505050506040513d601f19601f820116820180604052508101906112b2919061376f565b9250925092505f60035f9054906101000a900473ffffffffffffffffffffffffffffffffffffffff1673ffffffffffffffffffffffffffffffffffffffff1663a6ee858888888760036040518563ffffffff1660e01b815260040161131a949392919061385e565b602060405180830381865afa158015611335573d5f5f3e3d5ffd5b505050506040513d601f19601f82011682018060405250810190611359919061389e565b905060045f9054906101000a900473ffffffffffffffffffffffffffffffffffffffff1673ffffffffffffffffffffffffffffffffffffffff1663a0712d68826040518263ffffffff1660e01b81526004016113b59190612721565b6020604051808303815f875af11580156113d1573d5f5f3e3d5ffd5b505050506040513d601f19601f820116820180604052508101906113f5919061389e565b50809450505050506114056115ba565b949350505050565b611415611c6c565b5f5f60025f9054906101000a900473ffffffffffffffffffffffffffffffffffffffff1673ffffffffffffffffffffffffffffffffffffffff1663618fd183868660016040518463ffffffff1660e01b815260040161147693929190613290565b610580604051808303815f875af1158015611493573d5f5f3e3d5ffd5b505050506040513d601f19601f820116820180604052508101906114b7919061376f565b9250925092509250925092565b60045f9054906101000a900473ffffffffffffffffffffffffffffffffffffffff1681565b6114f1611767565b5f73ffffffffffffffffffffffffffffffffffffffff168173ffffffffffffffffffffffffffffffffffffffff160361155f576040517f08c379a000000000000000000000000000000000000000000000000000000000815260040161155690614453565b60405180910390fd5b611568816117e5565b50565b6002600154036115b0576040517f08c379a00000000000000000000000000000000000000000000000000000000081526004016115a7906144bb565b60405180910390fd5b6002600181905550565b60018081905550565b611646846323b872dd60e01b8585856040516024016115e4939291906144d9565b604051602081830303815290604052907bffffffffffffffffffffffffffffffffffffffffffffffffffffffff19166020820180517bffffffffffffffffffffffffffffffffffffffffffffffffffffffff838183161783525050505061192c565b50505050565b5f63095ea7b360e01b838360405160240161166892919061450e565b604051602081830303815290604052907bffffffffffffffffffffffffffffffffffffffffffffffffffffffff19166020820180517bffffffffffffffffffffffffffffffffffffffffffffffffffffffff838183161783525050505090506116d184826119f2565b611761576117568463095ea7b360e01b855f6040516024016116f492919061456e565b604051602081830303815290604052907bffffffffffffffffffffffffffffffffffffffffffffffffffffffff19166020820180517bffffffffffffffffffffffffffffffffffffffffffffffffffffffff838183161783525050505061192c565b611760848261192c565b5b50505050565b61176f611aa0565b73ffffffffffffffffffffffffffffffffffffffff1661178d610f79565b73ffffffffffffffffffffffffffffffffffffffff16146117e3576040517f08c379a00000000000000000000000000000000000000000000000000000000081526004016117da906145df565b60405180910390fd5b565b5f5f5f9054906101000a900473ffffffffffffffffffffffffffffffffffffffff169050815f5f6101000a81548173ffffffffffffffffffffffffffffffffffffffff021916908373ffffffffffffffffffffffffffffffffffffffff1602179055508173ffffffffffffffffffffffffffffffffffffffff168173ffffffffffffffffffffffffffffffffffffffff167f8be0079c531659141344cd1fd0a4f28419497f9722a3daafe3b4186f6b6457e060405160405180910390a35050565b6119278363a9059cbb60e01b84846040516024016118c592919061450e565b604051602081830303815290604052907bffffffffffffffffffffffffffffffffffffffffffffffffffffffff19166020820180517bffffffffffffffffffffffffffffffffffffffffffffffffffffffff838183161783525050505061192c565b505050565b5f61198d826040518060400160405280602081526020017f5361666545524332303a206c6f772d6c6576656c2063616c6c206661696c65648152508573ffffffffffffffffffffffffffffffffffffffff16611aa79092919063ffffffff16565b90505f815114806119ae5750808060200190518101906119ad91906145fd565b5b6119ed576040517f08c379a00000000000000000000000000000000000000000000000000000000081526004016119e490614698565b60405180910390fd5b505050565b5f5f5f8473ffffffffffffffffffffffffffffffffffffffff1684604051611a1a9190614708565b5f604051808303815f865af19150503d805f8114611a53576040519150601f19603f3d011682016040523d82523d5f602084013e611a58565b606091505b5091509150818015611a8557505f81511480611a84575080806020019051810190611a8391906145fd565b5b5b8015611a965750611a9585611abe565b5b9250505092915050565b5f33905090565b6060611ab584845f85611ae0565b90509392505050565b5f5f8273ffffffffffffffffffffffffffffffffffffffff163b119050919050565b606082471015611b25576040517f08c379a0000000000000000000000000000000000000000000000000000000008152600401611b1c9061478e565b60405180910390fd5b5f5f8673ffffffffffffffffffffffffffffffffffffffff168587604051611b4d9190614708565b5f6040518083038185875af1925050503d805f8114611b87576040519150601f19603f3d011682016040523d82523d5f602084013e611b8c565b606091505b5091509150611b9d87838387611ba9565b92505050949350505050565b60608315611c0a575f835103611c0257611bc285611abe565b611c01576040517f08c379a0000000000000000000000000000000000000000000000000000000008152600401611bf8906147f6565b60405180910390fd5b5b829050611c15565b611c148383611c1d565b5b949350505050565b5f82511115611c2f5781518083602001fd5b806040517f08c379a0000000000000000000000000000000000000000000000000000000008152600401611c639190614856565b60405180910390fd5b604051806101e001604052805f151581526020015f151581526020015f151581526020015f151581526020015f151581526020015f151581526020015f151581526020015f151581526020015f151581526020015f151581526020015f151581526020015f151581526020015f151581526020015f15158152602001611cf0611d5b565b81525090565b6040518060c00160405280611d09611e48565b8152602001611d16611f51565b8152602001611d23611fd6565b8152602001611d306120cb565b81526020015f6003811115611d4857611d4761289a565b5b8152602001611d5561211e565b81525090565b6040518061038001604052805f151581526020015f151581526020015f151581526020015f151581526020015f151581526020015f151581526020015f151581526020015f151581526020015f151581526020015f151581526020015f151581526020015f151581526020015f151581526020015f151581526020015f151581526020015f151581526020015f151581526020015f151581526020015f151581526020015f151581526020015f151581526020015f151581526020015f151581526020015f151581526020015f151581526020015f151581526020015f151581526020015f151581525090565b604051806102c001604052805f6002811115611e6757611e6661289a565b5b81526020015f60ff1681526020015f60ff1681526020015f6003811115611e9157611e9061289a565b5b81526020015f6003811115611ea957611ea861289a565b5b81526020015f60ff1681526020015f60ff1681526020015f60ff1681526020015f60ff1681526020015f60ff1681526020015f60ff1681526020015f151581526020015f151581526020015f63ffffffff1681526020015f63ffffffff1681526020015f63ffffffff1681526020015f61ffff1681526020015f61ffff1681526020015f61ffff1681526020015f60ff1681526020015f60ff1681526020015f151581525090565b604051806101e001604052805f151581526020015f151581526020015f151581526020015f151581526020015f151581526020015f151581526020015f151581526020015f151581526020015f151581526020015f151581526020015f151581526020015f151581526020015f151581526020015f151581526020015f151581525090565b604051806103a001604052805f151581526020015f151581526020015f151581526020015f151581526020015f151581526020015f151581526020015f151581526020015f151581526020015f151581526020015f151581526020015f151581526020015f151581526020015f151581526020015f151581526020015f151581526020015f151581526020015f151581526020015f151581526020015f151581526020015f151581526020015f151581526020015f151581526020015f151581526020015f151581526020015f151581526020015f151581526020015f151581526020015f151581526020015f151581525090565b6040518061010001604052805f60ff1681526020015f60ff1681526020015f60ff1681526020015f60ff1681526020015f60ff1681526020015f151581526020015f60ff1681526020015f151581525090565b604051806101c001604052805f151581526020015f151581526020015f151581526020015f151581526020015f151581526020015f151581526020015f151581526020015f151581526020015f151581526020015f151581526020015f151581526020015f151581526020015f151581526020015f151581525090565b5f604051905090565b5f5ffd5b5f5ffd5b5f73ffffffffffffffffffffffffffffffffffffffff82169050919050565b5f6121d5826121ac565b9050919050565b6121e5816121cb565b81146121ef575f5ffd5b50565b5f81359050612200816121dc565b92915050565b5f819050919050565b61221881612206565b8114612222575f5ffd5b50565b5f813590506122338161220f565b92915050565b5f5f6040838503121561224f5761224e6121a4565b5b5f61225c858286016121f2565b925050602061226d85828601612225565b9150509250929050565b5f8115159050919050565b61228b81612277565b82525050565b61038082015f8201516122a65f850182612282565b5060208201516122b96020850182612282565b5060408201516122cc6040850182612282565b5060608201516122df6060850182612282565b5060808201516122f26080850182612282565b5060a082015161230560a0850182612282565b5060c082015161231860c0850182612282565b5060e082015161232b60e0850182612282565b50610100820151612340610100850182612282565b50610120820151612355610120850182612282565b5061014082015161236a610140850182612282565b5061016082015161237f610160850182612282565b50610180820151612394610180850182612282565b506101a08201516123a96101a0850182612282565b506101c08201516123be6101c0850182612282565b506101e08201516123d36101e0850182612282565b506102008201516123e8610200850182612282565b506102208201516123fd610220850182612282565b50610240820151612412610240850182612282565b50610260820151612427610260850182612282565b5061028082015161243c610280850182612282565b506102a08201516124516102a0850182612282565b506102c08201516124666102c0850182612282565b506102e082015161247b6102e0850182612282565b50610300820151612490610300850182612282565b506103208201516124a5610320850182612282565b506103408201516124ba610340850182612282565b506103608201516124cf610360850182612282565b50505050565b61054082015f8201516124ea5f850182612282565b5060208201516124fd6020850182612282565b5060408201516125106040850182612282565b5060608201516125236060850182612282565b5060808201516125366080850182612282565b5060a082015161254960a0850182612282565b5060c082015161255c60c0850182612282565b5060e082015161256f60e0850182612282565b50610100820151612584610100850182612282565b50610120820151612599610120850182612282565b506101408201516125ae610140850182612282565b506101608201516125c3610160850182612282565b506101808201516125d8610180850182612282565b506101a08201516125ed6101a0850182612282565b506101c08201516126026101c0850182612291565b50505050565b61261181612206565b82525050565b5f6105808201905061262b5f8301866124d5565b612639610540830185612608565b612647610560830184612608565b949350505050565b5f5ffd5b5f5ffd5b5f5ffd5b5f5f83601f8401126126705761266f61264f565b5b8235905067ffffffffffffffff81111561268d5761268c612653565b5b6020830191508360018202830111156126a9576126a8612657565b5b9250929050565b5f5f5f5f606085870312156126c8576126c76121a4565b5b5f6126d5878288016121f2565b94505060206126e687828801612225565b935050604085013567ffffffffffffffff811115612707576127066121a8565b5b6127138782880161265b565b925092505092959194509250565b5f6020820190506127345f830184612608565b92915050565b5f5f5f5f5f5f60a08789031215612754576127536121a4565b5b5f61276189828a016121f2565b965050602061277289828a01612225565b955050604061278389828a016121f2565b945050606061279489828a01612225565b935050608087013567ffffffffffffffff8111156127b5576127b46121a8565b5b6127c189828a0161265b565b92509250509295509295509295565b5f602082840312156127e5576127e46121a4565b5b5f6127f2848285016121f2565b91505092915050565b5f819050919050565b5f61281e612819612814846121ac565b6127fb565b6121ac565b9050919050565b5f61282f82612804565b9050919050565b5f61284082612825565b9050919050565b61285081612836565b82525050565b5f6020820190506128695f830184612847565b92915050565b5f60208284031215612884576128836121a4565b5b5f61289184828501612225565b91505092915050565b7f4e487b71000000000000000000000000000000000000000000000000000000005f52602160045260245ffd5b600381106128d8576128d761289a565b5b50565b5f8190506128e8826128c7565b919050565b5f6128f7826128db565b9050919050565b612907816128ed565b82525050565b5f60ff82169050919050565b6129228161290d565b82525050565b600481106129395761293861289a565b5b50565b5f81905061294982612928565b919050565b5f6129588261293c565b9050919050565b6129688161294e565b82525050565b5f63ffffffff82169050919050565b6129868161296e565b82525050565b5f61ffff82169050919050565b6129a28161298c565b82525050565b6102c082015f8201516129bd5f8501826128fe565b5060208201516129d06020850182612919565b5060408201516129e36040850182612919565b5060608201516129f6606085018261295f565b506080820151612a09608085018261295f565b5060a0820151612a1c60a0850182612919565b5060c0820151612a2f60c0850182612919565b5060e0820151612a4260e0850182612919565b50610100820151612a57610100850182612919565b50610120820151612a6c610120850182612919565b50610140820151612a81610140850182612919565b50610160820151612a96610160850182612282565b50610180820151612aab610180850182612282565b506101a0820151612ac06101a085018261297d565b506101c0820151612ad56101c085018261297d565b506101e0820151612aea6101e085018261297d565b50610200820151612aff610200850182612999565b50610220820151612b14610220850182612999565b50610240820151612b29610240850182612999565b50610260820151612b3e610260850182612919565b50610280820151612b53610280850182612919565b506102a0820151612b686102a0850182612282565b50505050565b6101e082015f820151612b835f850182612282565b506020820151612b966020850182612282565b506040820151612ba96040850182612282565b506060820151612bbc6060850182612282565b506080820151612bcf6080850182612282565b5060a0820151612be260a0850182612282565b5060c0820151612bf560c0850182612282565b5060e0820151612c0860e0850182612282565b50610100820151612c1d610100850182612282565b50610120820151612c32610120850182612282565b50610140820151612c47610140850182612282565b50610160820151612c5c610160850182612282565b50610180820151612c71610180850182612282565b506101a0820151612c866101a0850182612282565b506101c0820151612c9b6101c0850182612282565b50505050565b6103a082015f820151612cb65f850182612282565b506020820151612cc96020850182612282565b506040820151612cdc6040850182612282565b506060820151612cef6060850182612282565b506080820151612d026080850182612282565b5060a0820151612d1560a0850182612282565b5060c0820151612d2860c0850182612282565b5060e0820151612d3b60e0850182612282565b50610100820151612d50610100850182612282565b50610120820151612d65610120850182612282565b50610140820151612d7a610140850182612282565b50610160820151612d8f610160850182612282565b50610180820151612da4610180850182612282565b506101a0820151612db96101a0850182612282565b506101c0820151612dce6101c0850182612282565b506101e0820151612de36101e0850182612282565b50610200820151612df8610200850182612282565b50610220820151612e0d610220850182612282565b50610240820151612e22610240850182612282565b50610260820151612e37610260850182612282565b50610280820151612e4c610280850182612282565b506102a0820151612e616102a0850182612282565b506102c0820151612e766102c0850182612282565b506102e0820151612e8b6102e0850182612282565b50610300820151612ea0610300850182612282565b50610320820151612eb5610320850182612282565b50610340820151612eca610340850182612282565b50610360820151612edf610360850182612282565b50610380820151612ef4610380850182612282565b50505050565b61010082015f820151612f0f5f850182612919565b506020820151612f226020850182612919565b506040820151612f356040850182612919565b506060820151612f486060850182612919565b506080820151612f5b6080850182612919565b5060a0820151612f6e60a0850182612282565b5060c0820151612f8160c0850182612919565b5060e0820151612f9460e0850182612282565b50505050565b60048110612fab57612faa61289a565b5b50565b5f819050612fbb82612f9a565b919050565b5f612fca82612fae565b9050919050565b612fda81612fc0565b82525050565b6101c082015f820151612ff55f850182612282565b5060208201516130086020850182612282565b50604082015161301b6040850182612282565b50606082015161302e6060850182612282565b5060808201516130416080850182612282565b5060a082015161305460a0850182612282565b5060c082015161306760c0850182612282565b5060e082015161307a60e0850182612282565b5061010082015161308f610100850182612282565b506101208201516130a4610120850182612282565b506101408201516130b9610140850182612282565b506101608201516130ce610160850182612282565b506101808201516130e3610180850182612282565b506101a08201516130f86101a0850182612282565b50505050565b610b2082015f8201516131135f8501826129a8565b5060208201516131276102c0850182612b6e565b50604082015161313b6104a0850182612ca1565b50606082015161314f610840850182612efa565b506080820151613163610940850182612fd1565b5060a0820151613177610960850182612fe0565b50505050565b5f610b20820190506131915f8301846130fe565b92915050565b6131a0816121cb565b82525050565b5f6020820190506131b95f830184613197565b92915050565b5f5f5f606084860312156131d6576131d56121a4565b5b5f6131e3868287016121f2565b93505060206131f4868287016121f2565b925050604061320586828701612225565b9150509250925092565b5f61321982612825565b9050919050565b6132298161320f565b82525050565b5f6020820190506132425f830184613220565b92915050565b5f61325282612825565b9050919050565b61326281613248565b82525050565b5f60208201905061327b5f830184613259565b92915050565b61328a81612277565b82525050565b5f6060820190506132a35f830186613197565b6132b06020830185612608565b6132bd6040830184613281565b949350505050565b5f5ffd5b5f601f19601f8301169050919050565b7f4e487b71000000000000000000000000000000000000000000000000000000005f52604160045260245ffd5b61330f826132c9565b810181811067ffffffffffffffff8211171561332e5761332d6132d9565b5b80604052505050565b5f61334061219b565b905061334c8282613306565b919050565b61335a81612277565b8114613364575f5ffd5b50565b5f8151905061337581613351565b92915050565b5f6103808284031215613391576133906132c5565b5b61339c610380613337565b90505f6133ab84828501613367565b5f8301525060206133be84828501613367565b60208301525060406133d284828501613367565b60408301525060606133e684828501613367565b60608301525060806133fa84828501613367565b60808301525060a061340e84828501613367565b60a08301525060c061342284828501613367565b60c08301525060e061343684828501613367565b60e08301525061010061344b84828501613367565b6101008301525061012061346184828501613367565b6101208301525061014061347784828501613367565b6101408301525061016061348d84828501613367565b610160830152506101806134a384828501613367565b610180830152506101a06134b984828501613367565b6101a0830152506101c06134cf84828501613367565b6101c0830152506101e06134e584828501613367565b6101e0830152506102006134fb84828501613367565b6102008301525061022061351184828501613367565b6102208301525061024061352784828501613367565b6102408301525061026061353d84828501613367565b6102608301525061028061355384828501613367565b610280830152506102a061356984828501613367565b6102a0830152506102c061357f84828501613367565b6102c0830152506102e061359584828501613367565b6102e0830152506103006135ab84828501613367565b610300830152506103206135c184828501613367565b610320830152506103406135d784828501613367565b610340830152506103606135ed84828501613367565b6103608301525092915050565b5f61054082840312156136105761360f6132c5565b5b61361b6101e0613337565b90505f61362a84828501613367565b5f83015250602061363d84828501613367565b602083015250604061365184828501613367565b604083015250606061366584828501613367565b606083015250608061367984828501613367565b60808301525060a061368d84828501613367565b60a08301525060c06136a184828501613367565b60c08301525060e06136b584828501613367565b60e0830152506101006136ca84828501613367565b610100830152506101206136e084828501613367565b610120830152506101406136f684828501613367565b6101408301525061016061370c84828501613367565b6101608301525061018061372284828501613367565b610180830152506101a061373884828501613367565b6101a0830152506101c061374e8482850161337b565b6101c08301525092915050565b5f815190506137698161220f565b92915050565b5f5f5f6105808486031215613787576137866121a4565b5b5f613794868287016135fa565b9350506105406137a68682870161375b565b9250506105606137b88682870161375b565b9150509250925092565b5f6080820190506137d55f830187613197565b6137e26020830186613197565b6137ef6040830185612608565b6137fc6060830184613281565b95945050505050565b5f82825260208201905092915050565b828183375f83830152505050565b5f61382e8385613805565b935061383b838584613815565b613844836132c9565b840190509392505050565b61385881612fc0565b82525050565b5f610580820190508181035f830152613878818688613823565b905061388760208301856124d5565b61389561056083018461384f565b95945050505050565b5f602082840312156138b3576138b26121a4565b5b5f6138c08482850161375b565b91505092915050565b5f6040820190506138dc5f830185613197565b6138e96020830184613197565b9392505050565b5f5f5f5f6105a08587031215613909576139086121a4565b5b5f613916878288016135fa565b9450506105406139288782880161375b565b93505061056061393a8782880161375b565b92505061058061394c8782880161375b565b91505092959194509250565b5f81519050613966816121dc565b92915050565b5f60208284031215613981576139806121a4565b5b5f61398e84828501613958565b91505092915050565b5f6040820190506139aa5f830185612608565b6139b76020830184613197565b9392505050565b5f6040820190506139d15f830185612608565b6139de6020830184612608565b9392505050565b5f6060820190506139f85f830186612608565b613a056020830185613197565b613a126040830184613197565b949350505050565b60038110613a26575f5ffd5b50565b5f81519050613a3781613a1a565b92915050565b613a468161290d565b8114613a50575f5ffd5b50565b5f81519050613a6181613a3d565b92915050565b60048110613a73575f5ffd5b50565b5f81519050613a8481613a67565b92915050565b613a938161296e565b8114613a9d575f5ffd5b50565b5f81519050613aae81613a8a565b92915050565b613abd8161298c565b8114613ac7575f5ffd5b50565b5f81519050613ad881613ab4565b92915050565b5f6102c08284031215613af457613af36132c5565b5b613aff6102c0613337565b90505f613b0e84828501613a29565b5f830152506020613b2184828501613a53565b6020830152506040613b3584828501613a53565b6040830152506060613b4984828501613a76565b6060830152506080613b5d84828501613a76565b60808301525060a0613b7184828501613a53565b60a08301525060c0613b8584828501613a53565b60c08301525060e0613b9984828501613a53565b60e083015250610100613bae84828501613a53565b61010083015250610120613bc484828501613a53565b61012083015250610140613bda84828501613a53565b61014083015250610160613bf084828501613367565b61016083015250610180613c0684828501613367565b610180830152506101a0613c1c84828501613aa0565b6101a0830152506101c0613c3284828501613aa0565b6101c0830152506101e0613c4884828501613aa0565b6101e083015250610200613c5e84828501613aca565b61020083015250610220613c7484828501613aca565b61022083015250610240613c8a84828501613aca565b61024083015250610260613ca084828501613a53565b61026083015250610280613cb684828501613a53565b610280830152506102a0613ccc84828501613367565b6102a08301525092915050565b5f6101e08284031215613cef57613cee6132c5565b5b613cfa6101e0613337565b90505f613d0984828501613367565b5f830152506020613d1c84828501613367565b6020830152506040613d3084828501613367565b6040830152506060613d4484828501613367565b6060830152506080613d5884828501613367565b60808301525060a0613d6c84828501613367565b60a08301525060c0613d8084828501613367565b60c08301525060e0613d9484828501613367565b60e083015250610100613da984828501613367565b61010083015250610120613dbf84828501613367565b61012083015250610140613dd584828501613367565b61014083015250610160613deb84828501613367565b61016083015250610180613e0184828501613367565b610180830152506101a0613e1784828501613367565b6101a0830152506101c0613e2d84828501613367565b6101c08301525092915050565b5f6103a08284031215613e5057613e4f6132c5565b5b613e5b6103a0613337565b90505f613e6a84828501613367565b5f830152506020613e7d84828501613367565b6020830152506040613e9184828501613367565b6040830152506060613ea584828501613367565b6060830152506080613eb984828501613367565b60808301525060a0613ecd84828501613367565b60a08301525060c0613ee184828501613367565b60c08301525060e0613ef584828501613367565b60e083015250610100613f0a84828501613367565b61010083015250610120613f2084828501613367565b61012083015250610140613f3684828501613367565b61014083015250610160613f4c84828501613367565b61016083015250610180613f6284828501613367565b610180830152506101a0613f7884828501613367565b6101a0830152506101c0613f8e84828501613367565b6101c0830152506101e0613fa484828501613367565b6101e083015250610200613fba84828501613367565b61020083015250610220613fd084828501613367565b61022083015250610240613fe684828501613367565b61024083015250610260613ffc84828501613367565b6102608301525061028061401284828501613367565b610280830152506102a061402884828501613367565b6102a0830152506102c061403e84828501613367565b6102c0830152506102e061405484828501613367565b6102e08301525061030061406a84828501613367565b6103008301525061032061408084828501613367565b6103208301525061034061409684828501613367565b610340830152506103606140ac84828501613367565b610360830152506103806140c284828501613367565b6103808301525092915050565b5f61010082840312156140e5576140e46132c5565b5b6140f0610100613337565b90505f6140ff84828501613a53565b5f83015250602061411284828501613a53565b602083015250604061412684828501613a53565b604083015250606061413a84828501613a53565b606083015250608061414e84828501613a53565b60808301525060a061416284828501613367565b60a08301525060c061417684828501613a53565b60c08301525060e061418a84828501613367565b60e08301525092915050565b600481106141a2575f5ffd5b50565b5f815190506141b381614196565b92915050565b5f6101c082840312156141cf576141ce6132c5565b5b6141da6101c0613337565b90505f6141e984828501613367565b5f8301525060206141fc84828501613367565b602083015250604061421084828501613367565b604083015250606061422484828501613367565b606083015250608061423884828501613367565b60808301525060a061424c84828501613367565b60a08301525060c061426084828501613367565b60c08301525060e061427484828501613367565b60e08301525061010061428984828501613367565b6101008301525061012061429f84828501613367565b610120830152506101406142b584828501613367565b610140830152506101606142cb84828501613367565b610160830152506101806142e184828501613367565b610180830152506101a06142f784828501613367565b6101a08301525092915050565b5f610b20828403121561431a576143196132c5565b5b61432460c0613337565b90505f61433384828501613ade565b5f830152506102c061434784828501613cd9565b6020830152506104a061435c84828501613e3a565b604083015250610840614371848285016140cf565b606083015250610940614386848285016141a5565b60808301525061096061439b848285016141b9565b60a08301525092915050565b5f610b2082840312156143bd576143bc6121a4565b5b5f6143ca84828501614304565b91505092915050565b5f82825260208201905092915050565b7f4f776e61626c653a206e6577206f776e657220697320746865207a65726f20615f8201527f6464726573730000000000000000000000000000000000000000000000000000602082015250565b5f61443d6026836143d3565b9150614448826143e3565b604082019050919050565b5f6020820190508181035f83015261446a81614431565b9050919050565b7f5265656e7472616e637947756172643a207265656e7472616e742063616c6c005f82015250565b5f6144a5601f836143d3565b91506144b082614471565b602082019050919050565b5f6020820190508181035f8301526144d281614499565b9050919050565b5f6060820190506144ec5f830186613197565b6144f96020830185613197565b6145066040830184612608565b949350505050565b5f6040820190506145215f830185613197565b61452e6020830184612608565b9392505050565b5f819050919050565b5f61455861455361454e84614535565b6127fb565b61290d565b9050919050565b6145688161453e565b82525050565b5f6040820190506145815f830185613197565b61458e602083018461455f565b9392505050565b7f4f776e61626c653a2063616c6c6572206973206e6f7420746865206f776e65725f82015250565b5f6145c96020836143d3565b91506145d482614595565b602082019050919050565b5f6020820190508181035f8301526145f6816145bd565b9050919050565b5f60208284031215614612576146116121a4565b5b5f61461f84828501613367565b91505092915050565b7f5361666545524332303a204552433230206f7065726174696f6e20646964206e5f8201527f6f74207375636365656400000000000000000000000000000000000000000000602082015250565b5f614682602a836143d3565b915061468d82614628565b604082019050919050565b5f6020820190508181035f8301526146af81614676565b9050919050565b5f81519050919050565b5f81905092915050565b8281835e5f83830152505050565b5f6146e2826146b6565b6146ec81856146c0565b93506146fc8185602086016146ca565b80840191505092915050565b5f61471382846146d8565b915081905092915050565b7f416464726573733a20696e73756666696369656e742062616c616e636520666f5f8201527f722063616c6c0000000000000000000000000000000000000000000000000000602082015250565b5f6147786026836143d3565b91506147838261471e565b604082019050919050565b5f6020820190508181035f8301526147a58161476c565b9050919050565b7f416464726573733a2063616c6c20746f206e6f6e2d636f6e74726163740000005f82015250565b5f6147e0601d836143d3565b91506147eb826147ac565b602082019050919050565b5f6020820190508181035f83015261480d816147d4565b9050919050565b5f81519050919050565b5f61482882614814565b61483281856143d3565b93506148428185602086016146ca565b61484b816132c9565b840191505092915050565b5f6020820190508181035f83015261486e818461481e565b90509291505056fea2646970667358221220659a1b2033ea9fb4dc85393cce38c637800925d8023f426c96dc74fb87f230d664736f6c634300081e0033","linkReferences":{}},"methodIdentifiers":{"decodePackedRisk(uint256)":"6844d3a3","guardedDeposit(address,uint256,address,uint256,bytes)":"2fbc2582","guardedRedeem(address,uint256,address,uint256,bytes)":"3dcf702b","owner()":"8da5cb5b","previewGuardedDeposit(address,uint256)":"e3132e10","previewGuardedRedeem(address,uint256)":"0d1c125d","renounceOwnership()":"715018a6","rescueERC20(address,address,uint256)":"b2118a8d","riskPolicy()":"bf72b2a7","riskReportNFT()":"e98216f1","setRiskPolicy(address)":"92008438","setRiskReportNFT(address)":"c1faf3ac","setVaultGuard(address)":"479ffb2f","storeAndMintDepositCheck(address,uint256,bytes)":"1c3d651f","storeAndMintRedeemCheck(address,uint256,bytes)":"cac19892","transferOwnership(address)":"f2fde38b","vaultGuard()":"4d1c96d1"},"id":9}