{"abi":[{"type":"function","name":"decode","inputs":[{"name":"packedReport","type":"uint256","internalType":"uint256"}],"outputs":[{"name":"report","type":"tuple","internalType":"struct LiquidityV2DecodedRiskReport","components":[{"name":"core","type":"tuple","internalType":"struct PolicyCoreView","components":[{"name":"kind","type":"uint8","internalType":"enum PolicyKind"},{"name":"operation","type":"uint8","internalType":"uint8"},{"name":"version","type":"uint8","internalType":"uint8"},{"name":"finalCategory","type":"uint8","internalType":"enum PolicyRiskCategory"},{"name":"offChainCategory","type":"uint8","internalType":"enum PolicyRiskCategory"},{"name":"compositeScore","type":"uint8","internalType":"uint8"},{"name":"onChainScore","type":"uint8","internalType":"uint8"},{"name":"offChainScore","type":"uint8","internalType":"uint8"},{"name":"onChainCriticalCount","type":"uint8","internalType":"uint8"},{"name":"onChainWarningCount","type":"uint8","internalType":"uint8"},{"name":"offChainInfoCount","type":"uint8","internalType":"uint8"},{"name":"anyHardBlock","type":"bool","internalType":"bool"},{"name":"offChainValid","type":"bool","internalType":"bool"},{"name":"onChainFlagsPacked","type":"uint32","internalType":"uint32"},{"name":"offChainFlagsPacked","type":"uint32","internalType":"uint32"},{"name":"tokenFlagsPacked","type":"uint32","internalType":"uint32"},{"name":"priceImpactBps","type":"uint16","internalType":"uint16"},{"name":"outputDiscrepancyBps","type":"uint16","internalType":"uint16"},{"name":"ratioDeviationBps","type":"uint16","internalType":"uint16"},{"name":"tokenCriticalCount","type":"uint8","internalType":"uint8"},{"name":"tokenWarningCount","type":"uint8","internalType":"uint8"},{"name":"tokenRiskEvaluated","type":"bool","internalType":"bool"}]},{"name":"offChain","type":"tuple","internalType":"struct PolicyOffChainView","components":[{"name":"hasDangerousDelegateCall","type":"bool","internalType":"bool"},{"name":"hasSelfDestruct","type":"bool","internalType":"bool"},{"name":"hasApprovalDrain","type":"bool","internalType":"bool"},{"name":"hasOwnerSweep","type":"bool","internalType":"bool"},{"name":"hasReentrancy","type":"bool","internalType":"bool"},{"name":"hasUnexpectedCreate","type":"bool","internalType":"bool"},{"name":"hasUpgradeCall","type":"bool","internalType":"bool"},{"name":"isExitFrozen","type":"bool","internalType":"bool"},{"name":"isRemovalFrozen","type":"bool","internalType":"bool"},{"name":"isFirstDeposit","type":"bool","internalType":"bool"},{"name":"isFeeOnTransfer","type":"bool","internalType":"bool"},{"name":"anyOracleStale","type":"bool","internalType":"bool"},{"name":"anyContractUnverified","type":"bool","internalType":"bool"},{"name":"oracleDeviation","type":"bool","internalType":"bool"},{"name":"simulationReverted","type":"bool","internalType":"bool"}]},{"name":"tokenRisk","type":"tuple","internalType":"struct PolicyTokenFlagsView","components":[{"name":"evaluated","type":"bool","internalType":"bool"},{"name":"notAContract","type":"bool","internalType":"bool"},{"name":"emptyBytecode","type":"bool","internalType":"bool"},{"name":"decimalsRevert","type":"bool","internalType":"bool"},{"name":"weirdDecimals","type":"bool","internalType":"bool"},{"name":"highDecimals","type":"bool","internalType":"bool"},{"name":"totalSupplyRevert","type":"bool","internalType":"bool"},{"name":"zeroTotalSupply","type":"bool","internalType":"bool"},{"name":"veryLowTotalSupply","type":"bool","internalType":"bool"},{"name":"symbolRevert","type":"bool","internalType":"bool"},{"name":"nameRevert","type":"bool","internalType":"bool"},{"name":"isEip1967Proxy","type":"bool","internalType":"bool"},{"name":"isEip1822Proxy","type":"bool","internalType":"bool"},{"name":"isMinimalProxy","type":"bool","internalType":"bool"},{"name":"hasOwner","type":"bool","internalType":"bool"},{"name":"ownershipRenounced","type":"bool","internalType":"bool"},{"name":"ownerIsEoa","type":"bool","internalType":"bool"},{"name":"isPausable","type":"bool","internalType":"bool"},{"name":"isCurrentlyPaused","type":"bool","internalType":"bool"},{"name":"hasBlacklist","type":"bool","internalType":"bool"},{"name":"hasBlocklist","type":"bool","internalType":"bool"},{"name":"possibleFeeOnTransfer","type":"bool","internalType":"bool"},{"name":"hasTransferFeeGetter","type":"bool","internalType":"bool"},{"name":"hasTaxFunction","type":"bool","internalType":"bool"},{"name":"possibleRebasing","type":"bool","internalType":"bool"},{"name":"hasMintCapability","type":"bool","internalType":"bool"},{"name":"hasBurnCapability","type":"bool","internalType":"bool"},{"name":"hasPermit","type":"bool","internalType":"bool"},{"name":"hasFlashMint","type":"bool","internalType":"bool"}]},{"name":"enhancedView","type":"tuple","internalType":"struct EnhancedCoreView","components":[{"name":"economicSeverityTier","type":"uint8","internalType":"uint8"},{"name":"oracleAgeTier","type":"uint8","internalType":"uint8"},{"name":"excessPullTier","type":"uint8","internalType":"uint8"},{"name":"sharePriceDriftTier","type":"uint8","internalType":"uint8"},{"name":"compoundRiskCount","type":"uint8","internalType":"uint8"},{"name":"simulationRevertBlock","type":"bool","internalType":"bool"},{"name":"sweepSeverityTier","type":"uint8","internalType":"uint8"},{"name":"enhancedDataPresent","type":"bool","internalType":"bool"}]},{"name":"operation","type":"uint8","internalType":"enum LiquidityOpType"},{"name":"onChain","type":"tuple","internalType":"struct LiquidityV2OnChainView","components":[{"name":"routerNotTrusted","type":"bool","internalType":"bool"},{"name":"pairNotExists","type":"bool","internalType":"bool"},{"name":"zeroLiquidity","type":"bool","internalType":"bool"},{"name":"lowLiquidity","type":"bool","internalType":"bool"},{"name":"lowLpSupply","type":"bool","internalType":"bool"},{"name":"firstDepositorRisk","type":"bool","internalType":"bool"},{"name":"severeImbalance","type":"bool","internalType":"bool"},{"name":"kInvariantBroken","type":"bool","internalType":"bool"},{"name":"poolTooNew","type":"bool","internalType":"bool"},{"name":"amountRatioDeviation","type":"bool","internalType":"bool"},{"name":"highLpImpact","type":"bool","internalType":"bool"},{"name":"flashloanRisk","type":"bool","internalType":"bool"},{"name":"zeroLpOut","type":"bool","internalType":"bool"},{"name":"zeroAmountsOut","type":"bool","internalType":"bool"},{"name":"dustLp","type":"bool","internalType":"bool"}]}]}],"stateMutability":"pure"},{"type":"function","name":"decodeOffChain","inputs":[{"name":"offChainData","type":"bytes","internalType":"bytes"}],"outputs":[{"name":"normalized","type":"tuple","internalType":"struct PolicyNormalizedOffChainResult","components":[{"name":"valid","type":"bool","internalType":"bool"},{"name":"riskScore","type":"uint8","internalType":"uint8"},{"name":"hasDangerousDelegateCall","type":"bool","internalType":"bool"},{"name":"hasSelfDestruct","type":"bool","internalType":"bool"},{"name":"hasApprovalDrain","type":"bool","internalType":"bool"},{"name":"hasOwnerSweep","type":"bool","internalType":"bool"},{"name":"hasReentrancy","type":"bool","internalType":"bool"},{"name":"hasUnexpectedCreate","type":"bool","internalType":"bool"},{"name":"hasUpgradeCall","type":"bool","internalType":"bool"},{"name":"isExitFrozen","type":"bool","internalType":"bool"},{"name":"isRemovalFrozen","type":"bool","internalType":"bool"},{"name":"isFirstDeposit","type":"bool","internalType":"bool"},{"name":"isFeeOnTransfer","type":"bool","internalType":"bool"},{"name":"anyOracleStale","type":"bool","internalType":"bool"},{"name":"anyContractUnverified","type":"bool","internalType":"bool"},{"name":"oracleDeviation","type":"bool","internalType":"bool"},{"name":"simulationReverted","type":"bool","internalType":"bool"},{"name":"priceImpactBps","type":"uint16","internalType":"uint16"},{"name":"outputDiscrepancyBps","type":"uint16","internalType":"uint16"},{"name":"ratioDeviationBps","type":"uint16","internalType":"uint16"}]},{"name":"economicData","type":"tuple","internalType":"struct ExtendedEconomicData","components":[{"name":"outputDiscrepancyBps","type":"uint256","internalType":"uint256"},{"name":"sharePriceDriftBps","type":"uint256","internalType":"uint256"},{"name":"excessPullBps","type":"uint256","internalType":"uint256"},{"name":"assetOracleAge","type":"uint256","internalType":"uint256"},{"name":"exitSimulatedOut","type":"uint256","internalType":"uint256"},{"name":"sweepAmountUSD","type":"uint256","internalType":"uint256"},{"name":"priceImpactBps","type":"uint256","internalType":"uint256"},{"name":"measuredFeePercent","type":"uint256","internalType":"uint256"},{"name":"inputHeadroomBps","type":"uint256","internalType":"uint256"},{"name":"tokenInOracleAge","type":"uint256","internalType":"uint256"},{"name":"tokenOutOracleAge","type":"uint256","internalType":"uint256"},{"name":"oracleFairAmountOut","type":"uint256","internalType":"uint256"},{"name":"actualAmountOut","type":"uint256","internalType":"uint256"},{"name":"lpMintDiscrepancyBps","type":"uint256","internalType":"uint256"},{"name":"ratioDeviationBps","type":"uint256","internalType":"uint256"},{"name":"excessValueLostUSD","type":"uint256","internalType":"uint256"},{"name":"tokenAOracleAge","type":"uint256","internalType":"uint256"},{"name":"tokenBOracleAge","type":"uint256","internalType":"uint256"},{"name":"removalSimAmountA","type":"uint256","internalType":"uint256"},{"name":"removalSimAmountB","type":"uint256","internalType":"uint256"},{"name":"simulationReverted","type":"bool","internalType":"bool"},{"name":"isExitFrozen","type":"bool","internalType":"bool"},{"name":"isRemovalFrozen","type":"bool","internalType":"bool"},{"name":"sweepDetected","type":"bool","internalType":"bool"},{"name":"upgradeCallDetected","type":"bool","internalType":"bool"},{"name":"feeOnTransferConfirmed","type":"bool","internalType":"bool"}]}],"stateMutability":"pure"},{"type":"function","name":"evaluate","inputs":[{"name":"offChainData","type":"bytes","internalType":"bytes"},{"name":"onChainData","type":"tuple","internalType":"struct LiquidityV2GuardResult","components":[{"name":"ROUTER_NOT_TRUSTED","type":"bool","internalType":"bool"},{"name":"PAIR_NOT_EXISTS","type":"bool","internalType":"bool"},{"name":"ZERO_LIQUIDITY","type":"bool","internalType":"bool"},{"name":"LOW_LIQUIDITY","type":"bool","internalType":"bool"},{"name":"LOW_LP_SUPPLY","type":"bool","internalType":"bool"},{"name":"FIRST_DEPOSITOR_RISK","type":"bool","internalType":"bool"},{"name":"SEVERE_IMBALANCE","type":"bool","internalType":"bool"},{"name":"K_INVARIANT_BROKEN","type":"bool","internalType":"bool"},{"name":"POOL_TOO_NEW","type":"bool","internalType":"bool"},{"name":"AMOUNT_RATIO_DEVIATION","type":"bool","internalType":"bool"},{"name":"HIGH_LP_IMPACT","type":"bool","internalType":"bool"},{"name":"FLASHLOAN_RISK","type":"bool","internalType":"bool"},{"name":"ZERO_LP_OUT","type":"bool","internalType":"bool"},{"name":"ZERO_AMOUNTS_OUT","type":"bool","internalType":"bool"},{"name":"DUST_LP","type":"bool","internalType":"bool"},{"name":"tokenAResult","type":"tuple","internalType":"struct TokenGuardResult","components":[{"name":"NOT_A_CONTRACT","type":"bool","internalType":"bool"},{"name":"EMPTY_BYTECODE","type":"bool","internalType":"bool"},{"name":"DECIMALS_REVERT","type":"bool","internalType":"bool"},{"name":"WEIRD_DECIMALS","type":"bool","internalType":"bool"},{"name":"HIGH_DECIMALS","type":"bool","internalType":"bool"},{"name":"TOTAL_SUPPLY_REVERT","type":"bool","internalType":"bool"},{"name":"ZERO_TOTAL_SUPPLY","type":"bool","internalType":"bool"},{"name":"VERY_LOW_TOTAL_SUPPLY","type":"bool","internalType":"bool"},{"name":"SYMBOL_REVERT","type":"bool","internalType":"bool"},{"name":"NAME_REVERT","type":"bool","internalType":"bool"},{"name":"IS_EIP1967_PROXY","type":"bool","internalType":"bool"},{"name":"IS_EIP1822_PROXY","type":"bool","internalType":"bool"},{"name":"IS_MINIMAL_PROXY","type":"bool","internalType":"bool"},{"name":"HAS_OWNER","type":"bool","internalType":"bool"},{"name":"OWNERSHIP_RENOUNCED","type":"bool","internalType":"bool"},{"name":"OWNER_IS_EOA","type":"bool","internalType":"bool"},{"name":"IS_PAUSABLE","type":"bool","internalType":"bool"},{"name":"IS_CURRENTLY_PAUSED","type":"bool","internalType":"bool"},{"name":"HAS_BLACKLIST","type":"bool","internalType":"bool"},{"name":"HAS_BLOCKLIST","type":"bool","internalType":"bool"},{"name":"POSSIBLE_FEE_ON_TRANSFER","type":"bool","internalType":"bool"},{"name":"HAS_TRANSFER_FEE_GETTER","type":"bool","internalType":"bool"},{"name":"HAS_TAX_FUNCTION","type":"bool","internalType":"bool"},{"name":"POSSIBLE_REBASING","type":"bool","internalType":"bool"},{"name":"HAS_MINT_CAPABILITY","type":"bool","internalType":"bool"},{"name":"HAS_BURN_CAPABILITY","type":"bool","internalType":"bool"},{"name":"HAS_PERMIT","type":"bool","internalType":"bool"},{"name":"HAS_FLASH_MINT","type":"bool","internalType":"bool"}]},{"name":"tokenBResult","type":"tuple","internalType":"struct TokenGuardResult","components":[{"name":"NOT_A_CONTRACT","type":"bool","internalType":"bool"},{"name":"EMPTY_BYTECODE","type":"bool","internalType":"bool"},{"name":"DECIMALS_REVERT","type":"bool","internalType":"bool"},{"name":"WEIRD_DECIMALS","type":"bool","internalType":"bool"},{"name":"HIGH_DECIMALS","type":"bool","internalType":"bool"},{"name":"TOTAL_SUPPLY_REVERT","type":"bool","internalType":"bool"},{"name":"ZERO_TOTAL_SUPPLY","type":"bool","internalType":"bool"},{"name":"VERY_LOW_TOTAL_SUPPLY","type":"bool","internalType":"bool"},{"name":"SYMBOL_REVERT","type":"bool","internalType":"bool"},{"name":"NAME_REVERT","type":"bool","internalType":"bool"},{"name":"IS_EIP1967_PROXY","type":"bool","internalType":"bool"},{"name":"IS_EIP1822_PROXY","type":"bool","internalType":"bool"},{"name":"IS_MINIMAL_PROXY","type":"bool","internalType":"bool"},{"name":"HAS_OWNER","type":"bool","internalType":"bool"},{"name":"OWNERSHIP_RENOUNCED","type":"bool","internalType":"bool"},{"name":"OWNER_IS_EOA","type":"bool","internalType":"bool"},{"name":"IS_PAUSABLE","type":"bool","internalType":"bool"},{"name":"IS_CURRENTLY_PAUSED","type":"bool","internalType":"bool"},{"name":"HAS_BLACKLIST","type":"bool","internalType":"bool"},{"name":"HAS_BLOCKLIST","type":"bool","internalType":"bool"},{"name":"POSSIBLE_FEE_ON_TRANSFER","type":"bool","internalType":"bool"},{"name":"HAS_TRANSFER_FEE_GETTER","type":"bool","internalType":"bool"},{"name":"HAS_TAX_FUNCTION","type":"bool","internalType":"bool"},{"name":"POSSIBLE_REBASING","type":"bool","internalType":"bool"},{"name":"HAS_MINT_CAPABILITY","type":"bool","internalType":"bool"},{"name":"HAS_BURN_CAPABILITY","type":"bool","internalType":"bool"},{"name":"HAS_PERMIT","type":"bool","internalType":"bool"},{"name":"HAS_FLASH_MINT","type":"bool","internalType":"bool"}]}]},{"name":"operation","type":"uint8","internalType":"enum LiquidityOpType"}],"outputs":[{"name":"packedReport","type":"uint256","internalType":"uint256"}],"stateMutability":"pure"},{"type":"function","name":"packOnChain","inputs":[{"name":"onChainData","type":"tuple","internalType":"struct LiquidityV2GuardResult","components":[{"name":"ROUTER_NOT_TRUSTED","type":"bool","internalType":"bool"},{"name":"PAIR_NOT_EXISTS","type":"bool","internalType":"bool"},{"name":"ZERO_LIQUIDITY","type":"bool","internalType":"bool"},{"name":"LOW_LIQUIDITY","type":"bool","internalType":"bool"},{"name":"LOW_LP_SUPPLY","type":"bool","internalType":"bool"},{"name":"FIRST_DEPOSITOR_RISK","type":"bool","internalType":"bool"},{"name":"SEVERE_IMBALANCE","type":"bool","internalType":"bool"},{"name":"K_INVARIANT_BROKEN","type":"bool","internalType":"bool"},{"name":"POOL_TOO_NEW","type":"bool","internalType":"bool"},{"name":"AMOUNT_RATIO_DEVIATION","type":"bool","internalType":"bool"},{"name":"HIGH_LP_IMPACT","type":"bool","internalType":"bool"},{"name":"FLASHLOAN_RISK","type":"bool","internalType":"bool"},{"name":"ZERO_LP_OUT","type":"bool","internalType":"bool"},{"name":"ZERO_AMOUNTS_OUT","type":"bool","internalType":"bool"},{"name":"DUST_LP","type":"bool","internalType":"bool"},{"name":"tokenAResult","type":"tuple","internalType":"struct TokenGuardResult","components":[{"name":"NOT_A_CONTRACT","type":"bool","internalType":"bool"},{"name":"EMPTY_BYTECODE","type":"bool","internalType":"bool"},{"name":"DECIMALS_REVERT","type":"bool","internalType":"bool"},{"name":"WEIRD_DECIMALS","type":"bool","internalType":"bool"},{"name":"HIGH_DECIMALS","type":"bool","internalType":"bool"},{"name":"TOTAL_SUPPLY_REVERT","type":"bool","internalType":"bool"},{"name":"ZERO_TOTAL_SUPPLY","type":"bool","internalType":"bool"},{"name":"VERY_LOW_TOTAL_SUPPLY","type":"bool","internalType":"bool"},{"name":"SYMBOL_REVERT","type":"bool","internalType":"bool"},{"name":"NAME_REVERT","type":"bool","internalType":"bool"},{"name":"IS_EIP1967_PROXY","type":"bool","internalType":"bool"},{"name":"IS_EIP1822_PROXY","type":"bool","internalType":"bool"},{"name":"IS_MINIMAL_PROXY","type":"bool","internalType":"bool"},{"name":"HAS_OWNER","type":"bool","internalType":"bool"},{"name":"OWNERSHIP_RENOUNCED","type":"bool","internalType":"bool"},{"name":"OWNER_IS_EOA","type":"bool","internalType":"bool"},{"name":"IS_PAUSABLE","type":"bool","internalType":"bool"},{"name":"IS_CURRENTLY_PAUSED","type":"bool","internalType":"bool"},{"name":"HAS_BLACKLIST","type":"bool","internalType":"bool"},{"name":"HAS_BLOCKLIST","type":"bool","internalType":"bool"},{"name":"POSSIBLE_FEE_ON_TRANSFER","type":"bool","internalType":"bool"},{"name":"HAS_TRANSFER_FEE_GETTER","type":"bool","internalType":"bool"},{"name":"HAS_TAX_FUNCTION","type":"bool","internalType":"bool"},{"name":"POSSIBLE_REBASING","type":"bool","internalType":"bool"},{"name":"HAS_MINT_CAPABILITY","type":"bool","internalType":"bool"},{"name":"HAS_BURN_CAPABILITY","type":"bool","internalType":"bool"},{"name":"HAS_PERMIT","type":"bool","internalType":"bool"},{"name":"HAS_FLASH_MINT","type":"bool","internalType":"bool"}]},{"name":"tokenBResult","type":"tuple","internalType":"struct TokenGuardResult","components":[{"name":"NOT_A_CONTRACT","type":"bool","internalType":"bool"},{"name":"EMPTY_BYTECODE","type":"bool","internalType":"bool"},{"name":"DECIMALS_REVERT","type":"bool","internalType":"bool"},{"name":"WEIRD_DECIMALS","type":"bool","internalType":"bool"},{"name":"HIGH_DECIMALS","type":"bool","internalType":"bool"},{"name":"TOTAL_SUPPLY_REVERT","type":"bool","internalType":"bool"},{"name":"ZERO_TOTAL_SUPPLY","type":"bool","internalType":"bool"},{"name":"VERY_LOW_TOTAL_SUPPLY","type":"bool","internalType":"bool"},{"name":"SYMBOL_REVERT","type":"bool","internalType":"bool"},{"name":"NAME_REVERT","type":"bool","internalType":"bool"},{"name":"IS_EIP1967_PROXY","type":"bool","internalType":"bool"},{"name":"IS_EIP1822_PROXY","type":"bool","internalType":"bool"},{"name":"IS_MINIMAL_PROXY","type":"bool","internalType":"bool"},{"name":"HAS_OWNER","type":"bool","internalType":"bool"},{"name":"OWNERSHIP_RENOUNCED","type":"bool","internalType":"bool"},{"name":"OWNER_IS_EOA","type":"bool","internalType":"bool"},{"name":"IS_PAUSABLE","type":"bool","internalType":"bool"},{"name":"IS_CURRENTLY_PAUSED","type":"bool","internalType":"bool"},{"name":"HAS_BLACKLIST","type":"bool","internalType":"bool"},{"name":"HAS_BLOCKLIST","type":"bool","internalType":"bool"},{"name":"POSSIBLE_FEE_ON_TRANSFER","type":"bool","internalType":"bool"},{"name":"HAS_TRANSFER_FEE_GETTER","type":"bool","internalType":"bool"},{"name":"HAS_TAX_FUNCTION","type":"bool","internalType":"bool"},{"name":"POSSIBLE_REBASING","type":"bool","internalType":"bool"},{"name":"HAS_MINT_CAPABILITY","type":"bool","internalType":"bool"},{"name":"HAS_BURN_CAPABILITY","type":"bool","internalType":"bool"},{"name":"HAS_PERMIT","type":"bool","internalType":"bool"},{"name":"HAS_FLASH_MINT","type":"bool","internalType":"bool"}]}]}],"outputs":[{"name":"packedFlags","type":"uint32","internalType":"uint32"},{"name":"packedTokenFlags","type":"uint32","internalType":"uint32"},{"name":"criticalCount","type":"uint8","internalType":"uint8"},{"name":"warningCount","type":"uint8","internalType":"uint8"},{"name":"anyHardBlock","type":"bool","internalType":"bool"},{"name":"tokenCriticalCount","type":"uint8","internalType":"uint8"},{"name":"tokenWarningCount","type":"uint8","internalType":"uint8"}],"stateMutability":"pure"},{"type":"function","name":"previewReport","inputs":[{"name":"offChainData","type":"bytes","internalType":"bytes"},{"name":"onChainData","type":"tuple","internalType":"struct LiquidityV2GuardResult","components":[{"name":"ROUTER_NOT_TRUSTED","type":"bool","internalType":"bool"},{"name":"PAIR_NOT_EXISTS","type":"bool","internalType":"bool"},{"name":"ZERO_LIQUIDITY","type":"bool","internalType":"bool"},{"name":"LOW_LIQUIDITY","type":"bool","internalType":"bool"},{"name":"LOW_LP_SUPPLY","type":"bool","internalType":"bool"},{"name":"FIRST_DEPOSITOR_RISK","type":"bool","internalType":"bool"},{"name":"SEVERE_IMBALANCE","type":"bool","internalType":"bool"},{"name":"K_INVARIANT_BROKEN","type":"bool","internalType":"bool"},{"name":"POOL_TOO_NEW","type":"bool","internalType":"bool"},{"name":"AMOUNT_RATIO_DEVIATION","type":"bool","internalType":"bool"},{"name":"HIGH_LP_IMPACT","type":"bool","internalType":"bool"},{"name":"FLASHLOAN_RISK","type":"bool","internalType":"bool"},{"name":"ZERO_LP_OUT","type":"bool","internalType":"bool"},{"name":"ZERO_AMOUNTS_OUT","type":"bool","internalType":"bool"},{"name":"DUST_LP","type":"bool","internalType":"bool"},{"name":"tokenAResult","type":"tuple","internalType":"struct TokenGuardResult","components":[{"name":"NOT_A_CONTRACT","type":"bool","internalType":"bool"},{"name":"EMPTY_BYTECODE","type":"bool","internalType":"bool"},{"name":"DECIMALS_REVERT","type":"bool","internalType":"bool"},{"name":"WEIRD_DECIMALS","type":"bool","internalType":"bool"},{"name":"HIGH_DECIMALS","type":"bool","internalType":"bool"},{"name":"TOTAL_SUPPLY_REVERT","type":"bool","internalType":"bool"},{"name":"ZERO_TOTAL_SUPPLY","type":"bool","internalType":"bool"},{"name":"VERY_LOW_TOTAL_SUPPLY","type":"bool","internalType":"bool"},{"name":"SYMBOL_REVERT","type":"bool","internalType":"bool"},{"name":"NAME_REVERT","type":"bool","internalType":"bool"},{"name":"IS_EIP1967_PROXY","type":"bool","internalType":"bool"},{"name":"IS_EIP1822_PROXY","type":"bool","internalType":"bool"},{"name":"IS_MINIMAL_PROXY","type":"bool","internalType":"bool"},{"name":"HAS_OWNER","type":"bool","internalType":"bool"},{"name":"OWNERSHIP_RENOUNCED","type":"bool","internalType":"bool"},{"name":"OWNER_IS_EOA","type":"bool","internalType":"bool"},{"name":"IS_PAUSABLE","type":"bool","internalType":"bool"},{"name":"IS_CURRENTLY_PAUSED","type":"bool","internalType":"bool"},{"name":"HAS_BLACKLIST","type":"bool","internalType":"bool"},{"name":"HAS_BLOCKLIST","type":"bool","internalType":"bool"},{"name":"POSSIBLE_FEE_ON_TRANSFER","type":"bool","internalType":"bool"},{"name":"HAS_TRANSFER_FEE_GETTER","type":"bool","internalType":"bool"},{"name":"HAS_TAX_FUNCTION","type":"bool","internalType":"bool"},{"name":"POSSIBLE_REBASING","type":"bool","internalType":"bool"},{"name":"HAS_MINT_CAPABILITY","type":"bool","internalType":"bool"},{"name":"HAS_BURN_CAPABILITY","type":"bool","internalType":"bool"},{"name":"HAS_PERMIT","type":"bool","internalType":"bool"},{"name":"HAS_FLASH_MINT","type":"bool","internalType":"bool"}]},{"name":"tokenBResult","type":"tuple","internalType":"struct TokenGuardResult","components":[{"name":"NOT_A_CONTRACT","type":"bool","internalType":"bool"},{"name":"EMPTY_BYTECODE","type":"bool","internalType":"bool"},{"name":"DECIMALS_REVERT","type":"bool","internalType":"bool"},{"name":"WEIRD_DECIMALS","type":"bool","internalType":"bool"},{"name":"HIGH_DECIMALS","type":"bool","internalType":"bool"},{"name":"TOTAL_SUPPLY_REVERT","type":"bool","internalType":"bool"},{"name":"ZERO_TOTAL_SUPPLY","type":"bool","internalType":"bool"},{"name":"VERY_LOW_TOTAL_SUPPLY","type":"bool","internalType":"bool"},{"name":"SYMBOL_REVERT","type":"bool","internalType":"bool"},{"name":"NAME_REVERT","type":"bool","internalType":"bool"},{"name":"IS_EIP1967_PROXY","type":"bool","internalType":"bool"},{"name":"IS_EIP1822_PROXY","type":"bool","internalType":"bool"},{"name":"IS_MINIMAL_PROXY","type":"bool","internalType":"bool"},{"name":"HAS_OWNER","type":"bool","internalType":"bool"},{"name":"OWNERSHIP_RENOUNCED","type":"bool","internalType":"bool"},{"name":"OWNER_IS_EOA","type":"bool","internalType":"bool"},{"name":"IS_PAUSABLE","type":"bool","internalType":"bool"},{"name":"IS_CURRENTLY_PAUSED","type":"bool","internalType":"bool"},{"name":"HAS_BLACKLIST","type":"bool","internalType":"bool"},{"name":"HAS_BLOCKLIST","type":"bool","internalType":"bool"},{"name":"POSSIBLE_FEE_ON_TRANSFER","type":"bool","internalType":"bool"},{"name":"HAS_TRANSFER_FEE_GETTER","type":"bool","internalType":"bool"},{"name":"HAS_TAX_FUNCTION","type":"bool","internalType":"bool"},{"name":"POSSIBLE_REBASING","type":"bool","internalType":"bool"},{"name":"HAS_MINT_CAPABILITY","type":"bool","internalType":"bool"},{"name":"HAS_BURN_CAPABILITY","type":"bool","internalType":"bool"},{"name":"HAS_PERMIT","type":"bool","internalType":"bool"},{"name":"HAS_FLASH_MINT","type":"bool","internalType":"bool"}]}]},{"name":"operation","type":"uint8","internalType":"enum LiquidityOpType"}],"outputs":[{"name":"report","type":"tuple","internalType":"struct LiquidityV2DecodedRiskReport","components":[{"name":"core","type":"tuple","internalType":"struct PolicyCoreView","components":[{"name":"kind","type":"uint8","internalType":"enum PolicyKind"},{"name":"operation","type":"uint8","internalType":"uint8"},{"name":"version","type":"uint8","internalType":"uint8"},{"name":"finalCategory","type":"uint8","internalType":"enum PolicyRiskCategory"},{"name":"offChainCategory","type":"uint8","internalType":"enum PolicyRiskCategory"},{"name":"compositeScore","type":"uint8","internalType":"uint8"},{"name":"onChainScore","type":"uint8","internalType":"uint8"},{"name":"offChainScore","type":"uint8","internalType":"uint8"},{"name":"onChainCriticalCount","type":"uint8","internalType":"uint8"},{"name":"onChainWarningCount","type":"uint8","internalType":"uint8"},{"name":"offChainInfoCount","type":"uint8","internalType":"uint8"},{"name":"anyHardBlock","type":"bool","internalType":"bool"},{"name":"offChainValid","type":"bool","internalType":"bool"},{"name":"onChainFlagsPacked","type":"uint32","internalType":"uint32"},{"name":"offChainFlagsPacked","type":"uint32","internalType":"uint32"},{"name":"tokenFlagsPacked","type":"uint32","internalType":"uint32"},{"name":"priceImpactBps","type":"uint16","internalType":"uint16"},{"name":"outputDiscrepancyBps","type":"uint16","internalType":"uint16"},{"name":"ratioDeviationBps","type":"uint16","internalType":"uint16"},{"name":"tokenCriticalCount","type":"uint8","internalType":"uint8"},{"name":"tokenWarningCount","type":"uint8","internalType":"uint8"},{"name":"tokenRiskEvaluated","type":"bool","internalType":"bool"}]},{"name":"offChain","type":"tuple","internalType":"struct PolicyOffChainView","components":[{"name":"hasDangerousDelegateCall","type":"bool","internalType":"bool"},{"name":"hasSelfDestruct","type":"bool","internalType":"bool"},{"name":"hasApprovalDrain","type":"bool","internalType":"bool"},{"name":"hasOwnerSweep","type":"bool","internalType":"bool"},{"name":"hasReentrancy","type":"bool","internalType":"bool"},{"name":"hasUnexpectedCreate","type":"bool","internalType":"bool"},{"name":"hasUpgradeCall","type":"bool","internalType":"bool"},{"name":"isExitFrozen","type":"bool","internalType":"bool"},{"name":"isRemovalFrozen","type":"bool","internalType":"bool"},{"name":"isFirstDeposit","type":"bool","internalType":"bool"},{"name":"isFeeOnTransfer","type":"bool","internalType":"bool"},{"name":"anyOracleStale","type":"bool","internalType":"bool"},{"name":"anyContractUnverified","type":"bool","internalType":"bool"},{"name":"oracleDeviation","type":"bool","internalType":"bool"},{"name":"simulationReverted","type":"bool","internalType":"bool"}]},{"name":"tokenRisk","type":"tuple","internalType":"struct PolicyTokenFlagsView","components":[{"name":"evaluated","type":"bool","internalType":"bool"},{"name":"notAContract","type":"bool","internalType":"bool"},{"name":"emptyBytecode","type":"bool","internalType":"bool"},{"name":"decimalsRevert","type":"bool","internalType":"bool"},{"name":"weirdDecimals","type":"bool","internalType":"bool"},{"name":"highDecimals","type":"bool","internalType":"bool"},{"name":"totalSupplyRevert","type":"bool","internalType":"bool"},{"name":"zeroTotalSupply","type":"bool","internalType":"bool"},{"name":"veryLowTotalSupply","type":"bool","internalType":"bool"},{"name":"symbolRevert","type":"bool","internalType":"bool"},{"name":"nameRevert","type":"bool","internalType":"bool"},{"name":"isEip1967Proxy","type":"bool","internalType":"bool"},{"name":"isEip1822Proxy","type":"bool","internalType":"bool"},{"name":"isMinimalProxy","type":"bool","internalType":"bool"},{"name":"hasOwner","type":"bool","internalType":"bool"},{"name":"ownershipRenounced","type":"bool","internalType":"bool"},{"name":"ownerIsEoa","type":"bool","internalType":"bool"},{"name":"isPausable","type":"bool","internalType":"bool"},{"name":"isCurrentlyPaused","type":"bool","internalType":"bool"},{"name":"hasBlacklist","type":"bool","internalType":"bool"},{"name":"hasBlocklist","type":"bool","internalType":"bool"},{"name":"possibleFeeOnTransfer","type":"bool","internalType":"bool"},{"name":"hasTransferFeeGetter","type":"bool","internalType":"bool"},{"name":"hasTaxFunction","type":"bool","internalType":"bool"},{"name":"possibleRebasing","type":"bool","internalType":"bool"},{"name":"hasMintCapability","type":"bool","internalType":"bool"},{"name":"hasBurnCapability","type":"bool","internalType":"bool"},{"name":"hasPermit","type":"bool","internalType":"bool"},{"name":"hasFlashMint","type":"bool","internalType":"bool"}]},{"name":"enhancedView","type":"tuple","internalType":"struct EnhancedCoreView","components":[{"name":"economicSeverityTier","type":"uint8","internalType":"uint8"},{"name":"oracleAgeTier","type":"uint8","internalType":"uint8"},{"name":"excessPullTier","type":"uint8","internalType":"uint8"},{"name":"sharePriceDriftTier","type":"uint8","internalType":"uint8"},{"name":"compoundRiskCount","type":"uint8","internalType":"uint8"},{"name":"simulationRevertBlock","type":"bool","internalType":"bool"},{"name":"sweepSeverityTier","type":"uint8","internalType":"uint8"},{"name":"enhancedDataPresent","type":"bool","internalType":"bool"}]},{"name":"operation","type":"uint8","internalType":"enum LiquidityOpType"},{"name":"onChain","type":"tuple","internalType":"struct LiquidityV2OnChainView","components":[{"name":"routerNotTrusted","type":"bool","internalType":"bool"},{"name":"pairNotExists","type":"bool","internalType":"bool"},{"name":"zeroLiquidity","type":"bool","internalType":"bool"},{"name":"lowLiquidity","type":"bool","internalType":"bool"},{"name":"lowLpSupply","type":"bool","internalType":"bool"},{"name":"firstDepositorRisk","type":"bool","internalType":"bool"},{"name":"severeImbalance","type":"bool","internalType":"bool"},{"name":"kInvariantBroken","type":"bool","internalType":"bool"},{"name":"poolTooNew","type":"bool","internalType":"bool"},{"name":"amountRatioDeviation","type":"bool","internalType":"bool"},{"name":"highLpImpact","type":"bool","internalType":"bool"},{"name":"flashloanRisk","type":"bool","internalType":"bool"},{"name":"zeroLpOut","type":"bool","internalType":"bool"},{"name":"zeroAmountsOut","type":"bool","internalType":"bool"},{"name":"dustLp","type":"bool","internalType":"bool"}]}]}],"stateMutability":"pure"},{"type":"error","name":"InvalidPackedKind","inputs":[{"name":"expectedKind","type":"uint8","internalType":"uint8"},{"name":"actualKind","type":"uint8","internalType":"uint8"}]}],"bytecode":{"object":"0x6080604052348015600e575f5ffd5b50615c5a8061001c5f395ff3fe608060405234801561000f575f5ffd5b5060043610610055575f3560e01c80634b1d8663146100595780635bada1da1461008957806361a76900146100b9578063a1d66d3c146100e9578063b25933dd1461011a575b5f5ffd5b610073600480360381019061006e91906142a0565b610150565b604051610080919061432b565b60405180910390f35b6100a3600480360381019061009e9190614367565b61017b565b6040516100b09190614ce1565b60405180910390f35b6100d360048036038101906100ce9190614d25565b6101e3565b6040516100e09190614ce1565b60405180910390f35b61010360048036038101906100fe9190614d50565b6101fb565b604051610111929190615160565b60405180910390f35b610134600480360381019061012f9190615189565b610247565b60405161014797969594939291906151e2565b60405180910390f35b5f6101718585858561016c886101e001518961020001516102aa565b6102dc565b9050949350505050565b6101836136dc565b6101d96101d486868680360381019061019c9190615189565b866101cf896101e0018036038101906101b5919061524f565b8a610560018036038101906101ca919061524f565b6102aa565b6102dc565b610370565b9050949350505050565b6101eb6136dc565b6101f482610370565b9050919050565b610203613741565b61020b6137f5565b5f848490500315610240575f848481019061022691906159f9565b90506102318161056d565b925061023c816107f6565b9150505b9250929050565b5f5f5f5f5f5f5f5f61026c896102678b6101e001518c61020001516102aa565b610aa9565b9050805f01518160200151826040015183606001518460c0015185608001518660a00151975097509750975097509750975050919395979092949650565b6102b26138aa565b5f6102bc836110a1565b6102c5856110a1565b1790506102d3816001611401565b91505092915050565b5f6102e5613741565b6102ed6137f5565b5f888890501115610322575f888881019061030891906159f9565b90506103138161056d565b925061031e816107f6565b9150505b5f61032d8786610aa9565b90506103626002876003811115610347576103466143da565b5b836040015184606001518560c00151865f01518b8a8a611934565b935050505095945050505050565b6103786136dc565b5f5f5f61038485611c55565b925092509250610398835f015160026121ab565b82845f0181905250818460200181905250808460400181905250826020015160ff1660038111156103cc576103cb6143da565b5b846080019060038111156103e3576103e26143da565b5b908160038111156103f7576103f66143da565b5b81525050604051806101e00160405280610416856101a001515f61223d565b1515815260200161042d856101a00151600161223d565b15158152602001610444856101a00151600261223d565b1515815260200161045b856101a00151600361223d565b15158152602001610472856101a00151600461223d565b15158152602001610489856101a00151600561223d565b151581526020016104a0856101a00151600661223d565b151581526020016104b7856101a00151600761223d565b151581526020016104ce856101a00151600861223d565b151581526020016104e5856101a00151600961223d565b151581526020016104fc856101a00151600a61223d565b15158152602001610513856101a00151600b61223d565b1515815260200161052a856101a00151600c61223d565b15158152602001610541856101a00151600d61223d565b15158152602001610558856101a00151600e61223d565b15158152508460a00181905250505050919050565b610575613741565b5f8261014001511415815f019015159081151581525050610599826040015161225e565b816020019060ff16908160ff168152505081608001515f0151816040019015159081151581525050816080015160400151816060019015159081151581525050816080015160a00151816080019015159081151581525050816080015161012001518160a0019015159081151581525050816080015160e001518160c00190151590811515815250508160800151606001518160e00190151590811515815250505f816101000190151590811515815250505f816101200190151590811515815250505f8260a00151610280015115801561067c57505f8360a001516102c00151145b801561069057505f8360a001516102e00151145b80156106a157505f83610140015114155b90508260a001516102800151806106b55750805b826101400190151590811515815250508260a001516102000151826101600190151590811515815250505f826101800190151590811515815250508260a0015161034001518061070b57508260a0015161036001515b826101a00190151590811515815250508260c00151801561072d57508260e001515b801561073b57508261010001515b801561074957508261012001515b15826101c00190151590811515815250506101f48360a00151610260015111826101e00190151590811515815250508260a001515f0151826102000190151590811515815250505f82610220019061ffff16908161ffff16815250506107b68360a0015160c00151612277565b82610240019061ffff16908161ffff16815250506107dc8360a001516102600151612277565b82610260019061ffff16908161ffff168152505050919050565b6107fe6137f5565b8160a0015160c00151816101a00181815250508160a001516102600151816101c00181815250508160a001516103800151816102000181815250508160a001516103a00151816102200181815250508160a001516102c00151816102400181815250508160a001516102e00151816102600181815250508160a001515f0151816102800190151590811515815250508160a001516102800151816102c00190151590811515815250505f8260a0015161028001511580156108c757505f8360a001516102c00151145b80156108db57505f8360a001516102e00151145b80156108ec57505f83610140015114155b90508015610907576001826102c00190151590811515815250505b8260a001516101200151826101e00181815250505f826101e0015114801561094957505f8360a0015160e00151118061094857505f8360a001516101000151115b5b156109fc575f5f8460a00151610300015111610965575f610996565b670de0b6b3a76400008460a0015161030001518560a0015160e0015161098b9190615a6d565b6109959190615adb565b5b90505f5f8560a001516103200151116109af575f6109e1565b670de0b6b3a76400008560a0015161032001518660a0015161010001516109d69190615a6d565b6109e09190615adb565b5b905080826109ef9190615b0b565b846101e001818152505050505b82608001516101200151826102e0019015159081151581525050816102e001518015610a3057505f83608001516101400151115b15610aa3575f5f8460a00151610300015111610a55578360a001516103200151610a60565b8360a0015161030001515b90505f8111610a6f575f610a98565b670de0b6b3a76400008185608001516101400151610a8d9190615a6d565b610a979190615adb565b5b8360a0018181525050505b50919050565b610ab16138e4565b825f015115610b0157806060018051809190610acc90615b3e565b60ff1660ff16815250505f60ff16600163ffffffff16901b815f018181511791509063ffffffff16908163ffffffff16815250505b826020015115610b6457806040018051809190610b1d90615b3e565b60ff1660ff1681525050600160ff16600163ffffffff16901b815f018181511791509063ffffffff16908163ffffffff168152505060018160c00190151590811515815250505b826040015115610bc757806040018051809190610b8090615b3e565b60ff1660ff1681525050600260ff16600163ffffffff16901b815f018181511791509063ffffffff16908163ffffffff168152505060018160c00190151590811515815250505b826060015115610c1957806060018051809190610be390615b3e565b60ff1660ff1681525050600360ff16600163ffffffff16901b815f018181511791509063ffffffff16908163ffffffff16815250505b826080015115610c6b57806060018051809190610c3590615b3e565b60ff1660ff1681525050600460ff16600163ffffffff16901b815f018181511791509063ffffffff16908163ffffffff16815250505b8260a0015115610cce57806040018051809190610c8790615b3e565b60ff1660ff1681525050600560ff16600163ffffffff16901b815f018181511791509063ffffffff16908163ffffffff168152505060018160c00190151590811515815250505b8260c0015115610d2057806060018051809190610cea90615b3e565b60ff1660ff1681525050600660ff16600163ffffffff16901b815f018181511791509063ffffffff16908163ffffffff16815250505b8260e0015115610d8357806040018051809190610d3c90615b3e565b60ff1660ff1681525050600760ff16600163ffffffff16901b815f018181511791509063ffffffff16908163ffffffff168152505060018160c00190151590811515815250505b82610100015115610dd657806060018051809190610da090615b3e565b60ff1660ff1681525050600860ff16600163ffffffff16901b815f018181511791509063ffffffff16908163ffffffff16815250505b82610120015115610e2957806060018051809190610df390615b3e565b60ff1660ff1681525050600960ff16600163ffffffff16901b815f018181511791509063ffffffff16908163ffffffff16815250505b82610140015115610e7c57806060018051809190610e4690615b3e565b60ff1660ff1681525050600a60ff16600163ffffffff16901b815f018181511791509063ffffffff16908163ffffffff16815250505b82610160015115610ecf57806060018051809190610e9990615b3e565b60ff1660ff1681525050600b60ff16600163ffffffff16901b815f018181511791509063ffffffff16908163ffffffff16815250505b82610180015115610f3357806040018051809190610eec90615b3e565b60ff1660ff1681525050600c60ff16600163ffffffff16901b815f018181511791509063ffffffff16908163ffffffff168152505060018160c00190151590811515815250505b826101a0015115610f9757806040018051809190610f5090615b3e565b60ff1660ff1681525050600d60ff16600163ffffffff16901b815f018181511791509063ffffffff16908163ffffffff168152505060018160c00190151590811515815250505b826101c0015115610fea57806060018051809190610fb490615b3e565b60ff1660ff1681525050600e60ff16600163ffffffff16901b815f018181511791509063ffffffff16908163ffffffff16815250505b815f0151816020019063ffffffff16908163ffffffff16815250508160200151816080019060ff16908160ff168152505081604001518160a0019060ff16908160ff16815250508160200151816040018181516110479190615b66565b91509060ff16908160ff168152505081604001518160600181815161106c9190615b66565b91509060ff16908160ff16815250508060c001518061108c575081606001515b8160c001901515908115158152505092915050565b5f815f0151156110be575f60ff16600163ffffffff16901b811790505b8160200151156110dc57600160ff16600163ffffffff16901b811790505b8160400151156110fa57600260ff16600163ffffffff16901b811790505b81606001511561111857600360ff16600163ffffffff16901b811790505b81608001511561113657600460ff16600163ffffffff16901b811790505b8160a001511561115457600560ff16600163ffffffff16901b811790505b8160c001511561117257600660ff16600163ffffffff16901b811790505b8160e001511561119057600760ff16600163ffffffff16901b811790505b816101000151156111af57600860ff16600163ffffffff16901b811790505b816101200151156111ce57600960ff16600163ffffffff16901b811790505b816101400151156111ed57600a60ff16600163ffffffff16901b811790505b8161016001511561120c57600b60ff16600163ffffffff16901b811790505b8161018001511561122b57600c60ff16600163ffffffff16901b811790505b816101a001511561124a57600d60ff16600163ffffffff16901b811790505b816101c001511561126957600e60ff16600163ffffffff16901b811790505b816101e001511561128857600f60ff16600163ffffffff16901b811790505b816102000151156112a757601060ff16600163ffffffff16901b811790505b816102200151156112c657601160ff16600163ffffffff16901b811790505b816102400151156112e557601260ff16600163ffffffff16901b811790505b8161026001511561130457601360ff16600163ffffffff16901b811790505b8161028001511561132357601460ff16600163ffffffff16901b811790505b816102a001511561134257601560ff16600163ffffffff16901b811790505b816102c001511561136157601660ff16600163ffffffff16901b811790505b816102e001511561138057601760ff16600163ffffffff16901b811790505b8161030001511561139f57601860ff16600163ffffffff16901b811790505b816103200151156113be57601960ff16600163ffffffff16901b811790505b816103400151156113dd57601a60ff16600163ffffffff16901b811790505b816103600151156113fc57601b60ff16600163ffffffff16901b811790505b919050565b6114096138aa565b82815f019063ffffffff16908163ffffffff168152505081816080019015159081151581525050811561192e57611440835f61223d565b156114735780602001805180919061145790615b3e565b60ff1660ff168152505060018160600190151590811515815250505b61147e83600161223d565b156114b15780602001805180919061149590615b3e565b60ff1660ff168152505060018160600190151590811515815250505b6114bc83600461223d565b156114ef578060200180518091906114d390615b3e565b60ff1660ff168152505060018160600190151590811515815250505b6114fa83600561223d565b1561152d5780602001805180919061151190615b3e565b60ff1660ff168152505060018160600190151590811515815250505b61153883600661223d565b1561156b5780602001805180919061154f90615b3e565b60ff1660ff168152505060018160600190151590811515815250505b61157683601161223d565b156115a95780602001805180919061158d90615b3e565b60ff1660ff168152505060018160600190151590811515815250505b6115b483600261223d565b156115d6578060400180518091906115cb90615b3e565b60ff1660ff16815250505b6115e183600361223d565b15611603578060400180518091906115f890615b3e565b60ff1660ff16815250505b61160e83600761223d565b156116305780604001805180919061162590615b3e565b60ff1660ff16815250505b61163b83600861223d565b1561165d5780604001805180919061165290615b3e565b60ff1660ff16815250505b61166883600961223d565b1561168a5780604001805180919061167f90615b3e565b60ff1660ff16815250505b61169583600a61223d565b156116b7578060400180518091906116ac90615b3e565b60ff1660ff16815250505b6116c283600b61223d565b156116e4578060400180518091906116d990615b3e565b60ff1660ff16815250505b6116ef83600c61223d565b156117115780604001805180919061170690615b3e565b60ff1660ff16815250505b61171c83600d61223d565b1561173e5780604001805180919061173390615b3e565b60ff1660ff16815250505b61174983600f61223d565b1561176b5780604001805180919061176090615b3e565b60ff1660ff16815250505b61177683601061223d565b156117985780604001805180919061178d90615b3e565b60ff1660ff16815250505b6117a383601261223d565b156117c5578060400180518091906117ba90615b3e565b60ff1660ff16815250505b6117d083601361223d565b156117f2578060400180518091906117e790615b3e565b60ff1660ff16815250505b6117fd83601461223d565b1561181f5780604001805180919061181490615b3e565b60ff1660ff16815250505b61182a83601561223d565b1561184c5780604001805180919061184190615b3e565b60ff1660ff16815250505b61185783601661223d565b156118795780604001805180919061186e90615b3e565b60ff1660ff16815250505b61188483601761223d565b156118a65780604001805180919061189b90615b3e565b60ff1660ff16815250505b6118b183601861223d565b156118d3578060400180518091906118c890615b3e565b60ff1660ff16815250505b6118de83601961223d565b15611900578060400180518091906118f590615b3e565b60ff1660ff16815250505b61190b83601b61223d565b1561192d5780604001805180919061192290615b3e565b60ff1660ff16815250505b5b92915050565b5f5f611944898989888888612292565b90508563ffffffff169150602060ff168160c0015163ffffffff16901b82179150604060ff16816040015160ff16901b82179150604860ff16816060015160ff16901b82179150605060ff16816080015160ff16901b82179150605860ff16815f015160038111156119b9576119b86143da565b5b60ff16901b82179150605a60ff16816020015160038111156119de576119dd6143da565b5b60ff16901b82179150605e60ff166119f58a612857565b60ff16901b82179150606460ff16611a0c89612857565b60ff16901b82179150606a60ff16611a278260a00151612857565b60ff16901b82179150607060ff16611a4785610220015161ffff16612277565b61ffff16901b82179150608060ff16611a6885610240015161ffff16612277565b61ffff16901b82179150609060ff16611a8985610260015161ffff16612277565b61ffff16901b8217915060a060ff168a60ff16901b8217915060a460ff168b6002811115611aba57611ab96143da565b5b60ff16901b8217915060a660ff16600160ff16901b8217915060ae60ff16855f015163ffffffff16901b8217915060ce60ff16611afa8660200151612857565b60ff16901b8217915060d460ff16611b158660400151612857565b60ff16901b821791508680611b2b575084606001515b80611b3857508061018001515b15611b4b57605c60ff166001901b821791505b835f015115611b6257605d60ff166001901b821791505b846080015115611b7a5760da60ff166001901b821791505b60db60ff16611b8c8260e00151612873565b60ff16901b8217915060de60ff16611ba8826101000151612873565b60ff16901b8217915060e160ff16611bc4826101200151612873565b60ff16901b8217915060e460ff16611be0826101400151612873565b60ff16901b8217915060e760ff16611bfc826101600151612873565b60ff16901b8217915060eb60ff16611c18826101a00151612873565b60ff16901b8217915080610180015115611c3a5760ea60ff166001901b821791505b60ee60ff166001901b82179150509998505050505050505050565b611c5d613934565b611c65613a3d565b611c6d613ac2565b611c7a8460a4600261288f565b6002811115611c8c57611c8b6143da565b5b835f01906002811115611ca257611ca16143da565b5b90816002811115611cb657611cb56143da565b5b81525050611cc78460a0600461288f565b836020019060ff16908160ff1681525050611ce58460a6600861288f565b836040019060ff16908160ff1681525050611d03846058600261288f565b6003811115611d1557611d146143da565b5b83606001906003811115611d2c57611d2b6143da565b5b90816003811115611d4057611d3f6143da565b5b81525050611d5184605a600261288f565b6003811115611d6357611d626143da565b5b83608001906003811115611d7a57611d796143da565b5b90816003811115611d8e57611d8d6143da565b5b81525050611d9f846040600861288f565b8360a0019060ff16908160ff1681525050611dbd846048600861288f565b8360c0019060ff16908160ff1681525050611ddb846050600861288f565b8360e0019060ff16908160ff1681525050611df984605e600661288f565b83610100019060ff16908160ff1681525050611e18846064600661288f565b83610120019060ff16908160ff1681525050611e3784606a600661288f565b83610140019060ff16908160ff16815250506001611e5885605c600161288f565b14836101600190151590811515815250506001611e7885605d600161288f565b1483610180019015159081151581525050611e95845f602061288f565b836101a0019063ffffffff16908163ffffffff1681525050611eb98460208061288f565b836101c0019063ffffffff16908163ffffffff1681525050611ede8460ae602061288f565b836101e0019063ffffffff16908163ffffffff1681525050611f03846070601061288f565b83610200019061ffff16908161ffff1681525050611f24846080601061288f565b83610220019061ffff16908161ffff1681525050611f45846090601061288f565b83610240019061ffff16908161ffff1681525050611f668460ce600661288f565b83610260019060ff16908160ff1681525050611f858460d4600661288f565b83610280019060ff16908160ff16815250506001611fa68560da600161288f565b14836102a0019015159081151581525050611fc7836101c00151600161223d565b825f019015159081151581525050611fe5836101c00151600261223d565b826020019015159081151581525050612004836101c00151600361223d565b826040019015159081151581525050612023836101c00151600461223d565b826060019015159081151581525050612042836101c00151600561223d565b826080019015159081151581525050612061836101c00151600661223d565b8260a0019015159081151581525050612080836101c00151600761223d565b8260c001901515908115158152505061209f836101c00151600861223d565b8260e00190151590811515815250506120be836101c00151600961223d565b826101000190151590811515815250506120de836101c00151600a61223d565b826101200190151590811515815250506120fe836101c00151600f61223d565b8261014001901515908115158152505061211e836101c00151601061223d565b8261016001901515908115158152505061213e836101c00151601161223d565b8261018001901515908115158152505061215e836101c00151601261223d565b826101a001901515908115158152505061217e836101c00151600e61223d565b826101c00190151590811515815250506121a2836101e00151846102a001516128b5565b90509193909250565b8060028111156121be576121bd6143da565b5b8260028111156121d1576121d06143da565b5b14612239578060028111156121e9576121e86143da565b5b8260028111156121fc576121fb6143da565b5b6040517fa3c521a9000000000000000000000000000000000000000000000000000000008152600401612230929190615b9a565b60405180910390fd5b5050565b5f6001808360ff168563ffffffff16901c1663ffffffff1614905092915050565b5f6064821161226d5781612270565b60645b9050919050565b5f61ffff8211612287578161228b565b61ffff5b9050919050565b61229a613bb7565b5f6122a58484612bbe565b90505f6122ba6122b5835f612f7a565b612f94565b90505f855f0151801561231757508560400151806122d9575085606001515b806122e5575085608001515b806122f157508560a001515b806122fd57508560c001515b8061230957508560e001515b8061231657508561010001515b5b90505f865f0151801561233957508661012001518061233857508661014001515b5b90505f600860ff16896040015160ff166123539190615a6d565b601960ff168a6020015160ff1661236a9190615a6d565b600860ff168d60ff1661237d9190615a6d565b601960ff168f60ff166123909190615a6d565b61239a9190615b0b565b6123a49190615b0b565b6123ae9190615b0b565b90506123b981612fd9565b90505f819050885f015115612401576123fe6064601e60ff168b6020015160ff166123e49190615a6d565b6123ee9190615adb565b826123f99190615b0b565b612fd9565b90505b831561241557612412816019612ff2565b90505b821561242957612426816028612ff2565b90505b885f0151801561243b57508861016001515b1561244e5761244b816014612ff2565b90505b5f8b8061245c57508a606001515b905080156124725761246f826014612ff2565b91505b895f015115612673576124918261248c8b60c00151613012565b612ff2565b91506124a8826124a38b5f0151613012565b612ff2565b91506124c0826124bb8b60200151613012565b612ff2565b91506124cf8960200151613083565b88610140019060ff16908160ff16815250506124f8826124f38b6101a00151613012565b612ff2565b91506125118261250c8b6101c00151613012565b612ff2565b915061252089604001516130e8565b88610120019060ff16908160ff1681525050612548826125438b6040015161312a565b612ff2565b91506107d08960400151111561255d57600190505b6125708960a001518a6102e0015161317b565b886101a0019060ff16908160ff168152505061259e826125998b60a001518c6102e001516131d5565b612ff2565b9150886102e0015180156125c0575069021e19e0c9bab24000008960a0015110155b156125ca57600190505b5f6125d48a613233565b90506125df81613298565b89610100019060ff16908160ff1681525050612603836125fe836132dc565b612ff2565b92506201518081111561261557600191505b8961032001511561263957612636836126318c60e00151613320565b612ff2565b92505b612656836126518c61010001518d610320015161335f565b612ff2565b92508a6101c00151156126715761266e836005612ff2565b92505b505b5f6126808b8d8c8561339a565b90508089610160019060ff16908160ff16815250505f8160ff1611156126c9576126c6836126c1600860ff168460ff166126ba9190615a6d565b602861357c565b612ff2565b92505b5f8b5f015180156126dc57508a61028001515b9050808a61018001901515908115158152505080156126fa57600192505b6127078b8d5f0151613594565b8a60e0019060ff16908160ff16815250505f83806127225750875b8061272a5750865b806127325750815b905061274661274086613669565b82613682565b8b5f0190600381111561275c5761275b6143da565b5b908160038111156127705761276f6143da565b5b815250508c5f0151612782575f612791565b6127908d602001515f613682565b5b8b6020019060038111156127a8576127a76143da565b5b908160038111156127bc576127bb6143da565b5b815250506127c985613669565b8b6040019060ff16908160ff16815250506127e386613669565b8b6060019060ff16908160ff16815250508c5f0151612802575f612808565b8c602001515b8b6080019060ff16908160ff1681525050888b60a0019060ff16908160ff1681525050898b60c0019063ffffffff16908163ffffffff1681525050505050505050505050509695505050505050565b5f603f8260ff1611612869578161286c565b603f5b9050919050565b5f60078260ff16116128855781612888565b60075b9050919050565b5f60018260ff166001901b6128a49190615bc1565b8360ff1685901c1690509392505050565b6128bd613ac2565b81815f0190151590811515815250506128d6835f61223d565b8160200190151590811515815250506128f083600161223d565b81604001901515908115158152505061290a83600261223d565b81606001901515908115158152505061292483600361223d565b81608001901515908115158152505061293e83600461223d565b8160a001901515908115158152505061295883600561223d565b8160c001901515908115158152505061297283600661223d565b8160e001901515908115158152505061298c83600761223d565b816101000190151590811515815250506129a783600861223d565b816101200190151590811515815250506129c283600961223d565b816101400190151590811515815250506129dd83600a61223d565b816101600190151590811515815250506129f883600b61223d565b81610180019015159081151581525050612a1383600c61223d565b816101a0019015159081151581525050612a2e83600d61223d565b816101c0019015159081151581525050612a4983600e61223d565b816101e0019015159081151581525050612a6483600f61223d565b81610200019015159081151581525050612a7f83601061223d565b81610220019015159081151581525050612a9a83601161223d565b81610240019015159081151581525050612ab583601261223d565b81610260019015159081151581525050612ad083601361223d565b81610280019015159081151581525050612aeb83601461223d565b816102a0019015159081151581525050612b0683601561223d565b816102c0019015159081151581525050612b2183601661223d565b816102e0019015159081151581525050612b3c83601761223d565b81610300019015159081151581525050612b5783601861223d565b81610320019015159081151581525050612b7283601961223d565b81610340019015159081151581525050612b8d83601a61223d565b81610360019015159081151581525050612ba883601b61223d565b8161038001901515908115158152505092915050565b5f825f015115612bdb575f60ff16600163ffffffff16901b811790505b826040015115612bf957600160ff16600163ffffffff16901b811790505b826060015115612c1757600260ff16600163ffffffff16901b811790505b826080015115612c3557600360ff16600163ffffffff16901b811790505b8260a0015115612c5357600460ff16600163ffffffff16901b811790505b8260c0015115612c7157600560ff16600163ffffffff16901b811790505b8260e0015115612c8f57600660ff16600163ffffffff16901b811790505b82610100015115612cae57600760ff16600163ffffffff16901b811790505b82610120015115612ccd57600860ff16600163ffffffff16901b811790505b82610140015115612cec57600960ff16600163ffffffff16901b811790505b82610160015115612d0b57600a60ff16600163ffffffff16901b811790505b6101f483610220015161ffff161115612d3257600b60ff16600163ffffffff16901b811790505b60c883610240015161ffff161115612d5857600c60ff16600163ffffffff16901b811790505b6101f483610260015161ffff161115612d7f57600d60ff16600163ffffffff16901b811790505b81610280015115612d9e57600e60ff16600163ffffffff16901b811790505b82610180015115612dbd57600f60ff16600163ffffffff16901b811790505b826101a0015115612ddc57601060ff16600163ffffffff16901b811790505b826101c0015115612dfb57601160ff16600163ffffffff16901b811790505b826101e0015115612e1a57601260ff16600163ffffffff16901b811790505b606482604001511115612e3b57601360ff16600163ffffffff16901b811790505b62015180612e4883613233565b1115612e6257601460ff16600163ffffffff16901b811790505b816102e001518015612e82575069021e19e0c9bab24000008260a0015110155b15612e9b57601560ff16600163ffffffff16901b811790505b5f826101000151148015612eb157508161032001515b15612eca57601660ff16600163ffffffff16901b811790505b825f01518015612edc57508161028001515b15612ef557601760ff16600163ffffffff16901b811790505b81610320015115612f1457601860ff16600163ffffffff16901b811790505b6103e882602001511115612f3657601960ff16600163ffffffff16901b811790505b82610140015180612f5b57505f826102400151148015612f5a57505f826102600151115b5b15612f7457601a60ff16600163ffffffff16901b811790505b92915050565b5f8160ff16600163ffffffff16901b198316905092915050565b5f5b5f8263ffffffff1614612fc757600180831663ffffffff1603612fc2578080612fbe90615b3e565b9150505b612f96565b60018263ffffffff16901c9150919050565b5f60648211612fe85781612feb565b60645b9050919050565b5f61300a8260ff16846130059190615b0b565b612fd9565b905092915050565b5f5f8203613022575f905061307e565b60c882101561304057600260056130399190615bf4565b905061307e565b6101f4821015613053576005905061307e565b6103e882101561306657600c905061307e565b610bb8821015613079576016905061307e565b602390505b919050565b5f5f8203613093575f90506130e3565b60c88210156130a557600190506130e3565b6101f48210156130b857600290506130e3565b6103e88210156130cb57600390506130e3565b610bb88210156130de57600490506130e3565b600590505b919050565b5f60648210156130fa575f9050613125565b6101f482101561310d5760019050613125565b6107d08210156131205760029050613125565b600390505b919050565b5f5f820361313a575f9050613176565b606482101561314b575f9050613176565b6101f482101561315e5760089050613176565b6107d08210156131715760149050613176565b602890505b919050565b5f81158061318857505f83145b15613195575f90506131cf565b68056bc75e2d631000008310156131af57600190506131cf565b69021e19e0c9bab24000008310156131ca57600290506131cf565b600390505b92915050565b5f816131e3575f905061322d565b5f83036131f357600a905061322d565b68056bc75e2d6310000083101561320d57600a905061322d565b69021e19e0c9bab2400000831015613228576019905061322d565b602890505b92915050565b5f816060015190508082610120015111156132515781610120015190505b8082610140015111156132675781610140015190505b80826102000151111561327d5781610200015190505b8082610220015111156132935781610220015190505b919050565b5f610e108210156132ab575f90506132d7565b6138408210156132be57600190506132d7565b620151808210156132d257600290506132d7565b600390505b919050565b5f610e108210156132ef575f905061331b565b613840821015613302576005905061331b565b6201518082101561331657600c905061331b565b601990505b919050565b5f5f8203613330575f905061335a565b6064821015613342576005905061335a565b6101f482101561335557600f905061335a565b601e90505b919050565b5f811561336e575f9050613394565b5f830361337e5760149050613394565b606483101561339057600a9050613394565b5f90505b92915050565b5f845f01516133ab575f9050613574565b846040015180156133bf5750846101000151155b156133d35780806133cf90615b3e565b9150505b846080015180156133e557508460c001515b156133f95780806133f590615b3e565b9150505b826102e001518015613418575068056bc75e2d631000008360a0015110155b1561342c57808061342890615b3e565b9150505b826102800151801561344d57508461012001518061344c57508461014001515b5b1561346157808061345d90615b3e565b9150505b61346f845f0151601161223d565b80156134785750815b1561348c57808061348890615b3e565b9150505b82610320015180156134a857506134a7845f0151601761223d565b5b156134bc5780806134b890615b3e565b9150505b846101a0015180156134d05750846101e001515b156134e45780806134e090615b3e565b9150505b84610100015180156134f757508460a001515b1561350b57808061350790615b3e565b9150505b6101f4836040015111801561352257508461012001515b1561353657808061353290615b3e565b9150505b6103e8836020015111801561354e5750826102800151155b1561356257808061355e90615b3e565b9150505b60078160ff16111561357357600790505b5b949350505050565b5f81831061358a578161358c565b825b905092915050565b5f816135a2575f9050613663565b5f835f0151905080846020015111156135bd57836020015190505b808460c0015111156135d1578360c0015190505b80846101a0015111156135e757836101a0015190505b80846101c0015111156135fd57836101c0015190505b5f61360782613083565b9050846102800151156136375760068160ff1610613626576007613634565b6001816136339190615b66565b5b90505b6107d08560400151111561364a57600790505b60078160ff161161365b578061365e565b60075b925050505b92915050565b5f60ff8211613678578161367b565b60ff5b9050919050565b5f81806136965750604660ff168360ff1610155b156136a457600390506136d6565b602860ff168360ff16106136bb57600290506136d6565b601460ff168360ff16106136d257600190506136d6565b5f90505b92915050565b6040518060c001604052806136ef613934565b81526020016136fc613a3d565b8152602001613709613ac2565b8152602001613716613c62565b81526020015f600381111561372e5761372d6143da565b5b815260200161373b613cb5565b81525090565b6040518061028001604052805f151581526020015f60ff1681526020015f151581526020015f151581526020015f151581526020015f151581526020015f151581526020015f151581526020015f151581526020015f151581526020015f151581526020015f151581526020015f151581526020015f151581526020015f151581526020015f151581526020015f151581526020015f61ffff1681526020015f61ffff1681526020015f61ffff1681525090565b6040518061034001604052805f81526020015f81526020015f81526020015f81526020015f81526020015f81526020015f81526020015f81526020015f81526020015f81526020015f81526020015f81526020015f81526020015f81526020015f81526020015f81526020015f81526020015f81526020015f81526020015f81526020015f151581526020015f151581526020015f151581526020015f151581526020015f151581526020015f151581525090565b6040518060a001604052805f63ffffffff1681526020015f60ff1681526020015f60ff1681526020015f151581526020015f151581525090565b6040518060e001604052805f63ffffffff1681526020015f63ffffffff1681526020015f60ff1681526020015f60ff1681526020015f60ff1681526020015f60ff1681526020015f151581525090565b604051806102c001604052805f6002811115613953576139526143da565b5b81526020015f60ff1681526020015f60ff1681526020015f600381111561397d5761397c6143da565b5b81526020015f6003811115613995576139946143da565b5b81526020015f60ff1681526020015f60ff1681526020015f60ff1681526020015f60ff1681526020015f60ff1681526020015f60ff1681526020015f151581526020015f151581526020015f63ffffffff1681526020015f63ffffffff1681526020015f63ffffffff1681526020015f61ffff1681526020015f61ffff1681526020015f61ffff1681526020015f60ff1681526020015f60ff1681526020015f151581525090565b604051806101e001604052805f151581526020015f151581526020015f151581526020015f151581526020015f151581526020015f151581526020015f151581526020015f151581526020015f151581526020015f151581526020015f151581526020015f151581526020015f151581526020015f151581526020015f151581525090565b604051806103a001604052805f151581526020015f151581526020015f151581526020015f151581526020015f151581526020015f151581526020015f151581526020015f151581526020015f151581526020015f151581526020015f151581526020015f151581526020015f151581526020015f151581526020015f151581526020015f151581526020015f151581526020015f151581526020015f151581526020015f151581526020015f151581526020015f151581526020015f151581526020015f151581526020015f151581526020015f151581526020015f151581526020015f151581526020015f151581525090565b604051806101c001604052805f6003811115613bd657613bd56143da565b5b81526020015f6003811115613bee57613bed6143da565b5b81526020015f60ff1681526020015f60ff1681526020015f60ff1681526020015f60ff1681526020015f63ffffffff1681526020015f60ff1681526020015f60ff1681526020015f60ff1681526020015f60ff1681526020015f60ff1681526020015f151581526020015f60ff1681525090565b6040518061010001604052805f60ff1681526020015f60ff1681526020015f60ff1681526020015f60ff1681526020015f60ff1681526020015f151581526020015f60ff1681526020015f151581525090565b604051806101e001604052805f151581526020015f151581526020015f151581526020015f151581526020015f151581526020015f151581526020015f151581526020015f151581526020015f151581526020015f151581526020015f151581526020015f151581526020015f151581526020015f151581526020015f151581525090565b5f604051905090565b5f5ffd5b5f5ffd5b5f5ffd5b5f5ffd5b5f5ffd5b5f5f83601f840112613d6c57613d6b613d4b565b5b8235905067ffffffffffffffff811115613d8957613d88613d4f565b5b602083019150836001820283011115613da557613da4613d53565b5b9250929050565b5f5ffd5b5f601f19601f8301169050919050565b7f4e487b71000000000000000000000000000000000000000000000000000000005f52604160045260245ffd5b613df682613db0565b810181811067ffffffffffffffff82111715613e1557613e14613dc0565b5b80604052505050565b5f613e27613d3a565b9050613e338282613ded565b919050565b5f5ffd5b5f8115159050919050565b613e5081613e3c565b8114613e5a575f5ffd5b50565b5f81359050613e6b81613e47565b92915050565b5f6103808284031215613e8757613e86613dac565b5b613e92610380613e1e565b90505f613ea184828501613e5d565b5f830152506020613eb484828501613e5d565b6020830152506040613ec884828501613e5d565b6040830152506060613edc84828501613e5d565b6060830152506080613ef084828501613e5d565b60808301525060a0613f0484828501613e5d565b60a08301525060c0613f1884828501613e5d565b60c08301525060e0613f2c84828501613e5d565b60e083015250610100613f4184828501613e5d565b61010083015250610120613f5784828501613e5d565b61012083015250610140613f6d84828501613e5d565b61014083015250610160613f8384828501613e5d565b61016083015250610180613f9984828501613e5d565b610180830152506101a0613faf84828501613e5d565b6101a0830152506101c0613fc584828501613e5d565b6101c0830152506101e0613fdb84828501613e5d565b6101e083015250610200613ff184828501613e5d565b6102008301525061022061400784828501613e5d565b6102208301525061024061401d84828501613e5d565b6102408301525061026061403384828501613e5d565b6102608301525061028061404984828501613e5d565b610280830152506102a061405f84828501613e5d565b6102a0830152506102c061407584828501613e5d565b6102c0830152506102e061408b84828501613e5d565b6102e0830152506103006140a184828501613e5d565b610300830152506103206140b784828501613e5d565b610320830152506103406140cd84828501613e5d565b610340830152506103606140e384828501613e5d565b6103608301525092915050565b5f6108e0828403121561410657614105613dac565b5b614111610220613e1e565b90505f61412084828501613e5d565b5f83015250602061413384828501613e5d565b602083015250604061414784828501613e5d565b604083015250606061415b84828501613e5d565b606083015250608061416f84828501613e5d565b60808301525060a061418384828501613e5d565b60a08301525060c061419784828501613e5d565b60c08301525060e06141ab84828501613e5d565b60e0830152506101006141c084828501613e5d565b610100830152506101206141d684828501613e5d565b610120830152506101406141ec84828501613e5d565b6101408301525061016061420284828501613e5d565b6101608301525061018061421884828501613e5d565b610180830152506101a061422e84828501613e5d565b6101a0830152506101c061424484828501613e5d565b6101c0830152506101e061425a84828501613e71565b6101e08301525061056061427084828501613e71565b6102008301525092915050565b60048110614289575f5ffd5b50565b5f8135905061429a8161427d565b92915050565b5f5f5f5f61092085870312156142b9576142b8613d43565b5b5f85013567ffffffffffffffff8111156142d6576142d5613d47565b5b6142e287828801613d57565b945094505060206142f5878288016140f0565b9250506109006143078782880161428c565b91505092959194509250565b5f819050919050565b61432581614313565b82525050565b5f60208201905061433e5f83018461431c565b92915050565b5f5ffd5b5f6108e0828403121561435e5761435d614344565b5b81905092915050565b5f5f5f5f61092085870312156143805761437f613d43565b5b5f85013567ffffffffffffffff81111561439d5761439c613d47565b5b6143a987828801613d57565b945094505060206143bc87828801614348565b9250506109006143ce8782880161428c565b91505092959194509250565b7f4e487b71000000000000000000000000000000000000000000000000000000005f52602160045260245ffd5b60038110614418576144176143da565b5b50565b5f81905061442882614407565b919050565b5f6144378261441b565b9050919050565b6144478161442d565b82525050565b5f60ff82169050919050565b6144628161444d565b82525050565b60048110614479576144786143da565b5b50565b5f81905061448982614468565b919050565b5f6144988261447c565b9050919050565b6144a88161448e565b82525050565b6144b781613e3c565b82525050565b5f63ffffffff82169050919050565b6144d5816144bd565b82525050565b5f61ffff82169050919050565b6144f1816144db565b82525050565b6102c082015f82015161450c5f85018261443e565b50602082015161451f6020850182614459565b5060408201516145326040850182614459565b506060820151614545606085018261449f565b506080820151614558608085018261449f565b5060a082015161456b60a0850182614459565b5060c082015161457e60c0850182614459565b5060e082015161459160e0850182614459565b506101008201516145a6610100850182614459565b506101208201516145bb610120850182614459565b506101408201516145d0610140850182614459565b506101608201516145e56101608501826144ae565b506101808201516145fa6101808501826144ae565b506101a082015161460f6101a08501826144cc565b506101c08201516146246101c08501826144cc565b506101e08201516146396101e08501826144cc565b5061020082015161464e6102008501826144e8565b506102208201516146636102208501826144e8565b506102408201516146786102408501826144e8565b5061026082015161468d610260850182614459565b506102808201516146a2610280850182614459565b506102a08201516146b76102a08501826144ae565b50505050565b6101e082015f8201516146d25f8501826144ae565b5060208201516146e560208501826144ae565b5060408201516146f860408501826144ae565b50606082015161470b60608501826144ae565b50608082015161471e60808501826144ae565b5060a082015161473160a08501826144ae565b5060c082015161474460c08501826144ae565b5060e082015161475760e08501826144ae565b5061010082015161476c6101008501826144ae565b506101208201516147816101208501826144ae565b506101408201516147966101408501826144ae565b506101608201516147ab6101608501826144ae565b506101808201516147c06101808501826144ae565b506101a08201516147d56101a08501826144ae565b506101c08201516147ea6101c08501826144ae565b50505050565b6103a082015f8201516148055f8501826144ae565b50602082015161481860208501826144ae565b50604082015161482b60408501826144ae565b50606082015161483e60608501826144ae565b50608082015161485160808501826144ae565b5060a082015161486460a08501826144ae565b5060c082015161487760c08501826144ae565b5060e082015161488a60e08501826144ae565b5061010082015161489f6101008501826144ae565b506101208201516148b46101208501826144ae565b506101408201516148c96101408501826144ae565b506101608201516148de6101608501826144ae565b506101808201516148f36101808501826144ae565b506101a08201516149086101a08501826144ae565b506101c082015161491d6101c08501826144ae565b506101e08201516149326101e08501826144ae565b506102008201516149476102008501826144ae565b5061022082015161495c6102208501826144ae565b506102408201516149716102408501826144ae565b506102608201516149866102608501826144ae565b5061028082015161499b6102808501826144ae565b506102a08201516149b06102a08501826144ae565b506102c08201516149c56102c08501826144ae565b506102e08201516149da6102e08501826144ae565b506103008201516149ef6103008501826144ae565b50610320820151614a046103208501826144ae565b50610340820151614a196103408501826144ae565b50610360820151614a2e6103608501826144ae565b50610380820151614a436103808501826144ae565b50505050565b61010082015f820151614a5e5f850182614459565b506020820151614a716020850182614459565b506040820151614a846040850182614459565b506060820151614a976060850182614459565b506080820151614aaa6080850182614459565b5060a0820151614abd60a08501826144ae565b5060c0820151614ad060c0850182614459565b5060e0820151614ae360e08501826144ae565b50505050565b60048110614afa57614af96143da565b5b50565b5f819050614b0a82614ae9565b919050565b5f614b1982614afd565b9050919050565b614b2981614b0f565b82525050565b6101e082015f820151614b445f8501826144ae565b506020820151614b5760208501826144ae565b506040820151614b6a60408501826144ae565b506060820151614b7d60608501826144ae565b506080820151614b9060808501826144ae565b5060a0820151614ba360a08501826144ae565b5060c0820151614bb660c08501826144ae565b5060e0820151614bc960e08501826144ae565b50610100820151614bde6101008501826144ae565b50610120820151614bf36101208501826144ae565b50610140820151614c086101408501826144ae565b50610160820151614c1d6101608501826144ae565b50610180820151614c326101808501826144ae565b506101a0820151614c476101a08501826144ae565b506101c0820151614c5c6101c08501826144ae565b50505050565b610b4082015f820151614c775f8501826144f7565b506020820151614c8b6102c08501826146bd565b506040820151614c9f6104a08501826147f0565b506060820151614cb3610840850182614a49565b506080820151614cc7610940850182614b20565b5060a0820151614cdb610960850182614b2f565b50505050565b5f610b4082019050614cf55f830184614c62565b92915050565b614d0481614313565b8114614d0e575f5ffd5b50565b5f81359050614d1f81614cfb565b92915050565b5f60208284031215614d3a57614d39613d43565b5b5f614d4784828501614d11565b91505092915050565b5f5f60208385031215614d6657614d65613d43565b5b5f83013567ffffffffffffffff811115614d8357614d82613d47565b5b614d8f85828601613d57565b92509250509250929050565b61028082015f820151614db05f8501826144ae565b506020820151614dc36020850182614459565b506040820151614dd660408501826144ae565b506060820151614de960608501826144ae565b506080820151614dfc60808501826144ae565b5060a0820151614e0f60a08501826144ae565b5060c0820151614e2260c08501826144ae565b5060e0820151614e3560e08501826144ae565b50610100820151614e4a6101008501826144ae565b50610120820151614e5f6101208501826144ae565b50610140820151614e746101408501826144ae565b50610160820151614e896101608501826144ae565b50610180820151614e9e6101808501826144ae565b506101a0820151614eb36101a08501826144ae565b506101c0820151614ec86101c08501826144ae565b506101e0820151614edd6101e08501826144ae565b50610200820151614ef26102008501826144ae565b50610220820151614f076102208501826144e8565b50610240820151614f1c6102408501826144e8565b50610260820151614f316102608501826144e8565b50505050565b614f4081614313565b82525050565b61034082015f820151614f5b5f850182614f37565b506020820151614f6e6020850182614f37565b506040820151614f816040850182614f37565b506060820151614f946060850182614f37565b506080820151614fa76080850182614f37565b5060a0820151614fba60a0850182614f37565b5060c0820151614fcd60c0850182614f37565b5060e0820151614fe060e0850182614f37565b50610100820151614ff5610100850182614f37565b5061012082015161500a610120850182614f37565b5061014082015161501f610140850182614f37565b50610160820151615034610160850182614f37565b50610180820151615049610180850182614f37565b506101a082015161505e6101a0850182614f37565b506101c08201516150736101c0850182614f37565b506101e08201516150886101e0850182614f37565b5061020082015161509d610200850182614f37565b506102208201516150b2610220850182614f37565b506102408201516150c7610240850182614f37565b506102608201516150dc610260850182614f37565b506102808201516150f16102808501826144ae565b506102a08201516151066102a08501826144ae565b506102c082015161511b6102c08501826144ae565b506102e08201516151306102e08501826144ae565b506103008201516151456103008501826144ae565b5061032082015161515a6103208501826144ae565b50505050565b5f6105c0820190506151745f830185614d9b565b615182610280830184614f46565b9392505050565b5f6108e0828403121561519f5761519e613d43565b5b5f6151ac848285016140f0565b91505092915050565b6151be816144bd565b82525050565b6151cd8161444d565b82525050565b6151dc81613e3c565b82525050565b5f60e0820190506151f55f83018a6151b5565b61520260208301896151b5565b61520f60408301886151c4565b61521c60608301876151c4565b61522960808301866151d3565b61523660a08301856151c4565b61524360c08301846151c4565b98975050505050505050565b5f610380828403121561526557615264613d43565b5b5f61527284828501613e71565b91505092915050565b60038110615287575f5ffd5b50565b5f813590506152988161527b565b92915050565b5f73ffffffffffffffffffffffffffffffffffffffff82169050919050565b5f6152c78261529e565b9050919050565b6152d7816152bd565b81146152e1575f5ffd5b50565b5f813590506152f2816152ce565b92915050565b5f67ffffffffffffffff82111561531257615311613dc0565b5b602082029050602081019050919050565b5f615335615330846152f8565b613e1e565b9050808382526020820190506020840283018581111561535857615357613d53565b5b835b81811015615381578061536d88826152e4565b84526020840193505060208101905061535a565b5050509392505050565b5f82601f83011261539f5761539e613d4b565b5b81356153af848260208601615323565b91505092915050565b5f61018082840312156153ce576153cd613dac565b5b6153d9610180613e1e565b90505f6153e884828501613e5d565b5f8301525060206153fb848285016152e4565b602083015250604061540f84828501613e5d565b604083015250606061542384828501613e5d565b606083015250608082013567ffffffffffffffff81111561544757615446613e38565b5b6154538482850161538b565b60808301525060a061546784828501613e5d565b60a08301525060c061547b848285016152e4565b60c08301525060e061548f84828501613e5d565b60e0830152506101006154a4848285016152e4565b610100830152506101206154ba84828501613e5d565b610120830152506101406154d084828501614d11565b610140830152506101606154e6848285016152e4565b6101608301525092915050565b5f5ffd5b5f67ffffffffffffffff82111561551157615510613dc0565b5b61551a82613db0565b9050602081019050919050565b828183375f83830152505050565b5f615547615542846154f7565b613e1e565b905082815260208101848484011115615563576155626154f3565b5b61556e848285615527565b509392505050565b5f82601f83011261558a57615589613d4b565b5b813561559a848260208601615535565b91505092915050565b5f6103c082840312156155b9576155b8613dac565b5b6155c46103c0613e1e565b90505f6155d384828501613e5d565b5f83015250602082013567ffffffffffffffff8111156155f6576155f5613e38565b5b61560284828501615576565b602083015250604061561684828501614d11565b604083015250606061562a84828501614d11565b606083015250608061563e84828501614d11565b60808301525060a061565284828501614d11565b60a08301525060c061566684828501614d11565b60c08301525060e061567a84828501614d11565b60e08301525061010061568f84828501614d11565b610100830152506101206156a584828501614d11565b610120830152506101406156bb84828501614d11565b610140830152506101606156d184828501614d11565b610160830152506101806156e7848285016152e4565b610180830152506101a06156fd84828501614d11565b6101a0830152506101c061571384828501614d11565b6101c0830152506101e061572984828501614d11565b6101e08301525061020061573f84828501613e5d565b6102008301525061022061575584828501614d11565b6102208301525061024061576b84828501614d11565b6102408301525061026061578184828501614d11565b6102608301525061028061579784828501613e5d565b610280830152506102a082013567ffffffffffffffff8111156157bd576157bc613e38565b5b6157c984828501615576565b6102a0830152506102c06157df84828501614d11565b6102c0830152506102e06157f584828501614d11565b6102e08301525061030061580b84828501614d11565b6103008301525061032061582184828501614d11565b6103208301525061034061583784828501613e5d565b6103408301525061036061584d84828501613e5d565b6103608301525061038061586384828501614d11565b610380830152506103a061587984828501614d11565b6103a08301525092915050565b5f610180828403121561589c5761589b613dac565b5b6158a7610180613e1e565b90505f6158b684828501613e5d565b5f8301525060206158c98482850161528a565b60208301525060406158dd84828501614d11565b60408301525060606158f18482850161428c565b606083015250608082013567ffffffffffffffff81111561591557615914613e38565b5b615921848285016153b8565b60808301525060a082013567ffffffffffffffff81111561594557615944613e38565b5b615951848285016155a3565b60a08301525060c061596584828501613e5d565b60c08301525060e061597984828501613e5d565b60e08301525061010061598e84828501613e5d565b610100830152506101206159a484828501613e5d565b610120830152506101406159ba84828501614d11565b6101408301525061016082013567ffffffffffffffff8111156159e0576159df613e38565b5b6159ec84828501615576565b6101608301525092915050565b5f60208284031215615a0e57615a0d613d43565b5b5f82013567ffffffffffffffff811115615a2b57615a2a613d47565b5b615a3784828501615886565b91505092915050565b7f4e487b71000000000000000000000000000000000000000000000000000000005f52601160045260245ffd5b5f615a7782614313565b9150615a8283614313565b9250828202615a9081614313565b91508282048414831517615aa757615aa6615a40565b5b5092915050565b7f4e487b71000000000000000000000000000000000000000000000000000000005f52601260045260245ffd5b5f615ae582614313565b9150615af083614313565b925082615b0057615aff615aae565b5b828204905092915050565b5f615b1582614313565b9150615b2083614313565b9250828201905080821115615b3857615b37615a40565b5b92915050565b5f615b488261444d565b915060ff8203615b5b57615b5a615a40565b5b600182019050919050565b5f615b708261444d565b9150615b7b8361444d565b9250828201905060ff811115615b9457615b93615a40565b5b92915050565b5f604082019050615bad5f8301856151c4565b615bba60208301846151c4565b9392505050565b5f615bcb82614313565b9150615bd683614313565b9250828203905081811115615bee57615bed615a40565b5b92915050565b5f615bfe8261444d565b9150615c098361444d565b925082615c1957615c18615aae565b5b82820490509291505056fea26469706673582212209eb32d28e875ecb930ef62d04e07dee8d0f65a25859e975d6f1d9897d21f6cce64736f6c634300081e0033","linkReferences":{}},"methodIdentifiers":{"decode(uint256)":"61a76900","decodeOffChain(bytes)":"a1d66d3c","evaluate(bytes,(bool,bool,bool,bool,bool,bool,bool,bool,bool,bool,bool,bool,bool,bool,bool,(bool,bool,bool,bool,bool,bool,bool,bool,bool,bool,bool,bool,bool,bool,bool,bool,bool,bool,bool,bool,bool,bool,bool,bool,bool,bool,bool,bool),(bool,bool,bool,bool,bool,bool,bool,bool,bool,bool,bool,bool,bool,bool,bool,bool,bool,bool,bool,bool,bool,bool,bool,bool,bool,bool,bool,bool)),uint8)":"4b1d8663","packOnChain((bool,bool,bool,bool,bool,bool,bool,bool,bool,bool,bool,bool,bool,bool,bool,(bool,bool,bool,bool,bool,bool,bool,bool,bool,bool,bool,bool,bool,bool,bool,bool,bool,bool,bool,bool,bool,bool,bool,bool,bool,bool,bool,bool),(bool,bool,bool,bool,bool,bool,bool,bool,bool,bool,bool,bool,bool,bool,bool,bool,bool,bool,bool,bool,bool,bool,bool,bool,bool,bool,bool,bool)))":"b25933dd","previewReport(bytes,(bool,bool,bool,bool,bool,bool,bool,bool,bool,bool,bool,bool,bool,bool,bool,(bool,bool,bool,bool,bool,bool,bool,bool,bool,bool,bool,bool,bool,bool,bool,bool,bool,bool,bool,bool,bool,bool,bool,bool,bool,bool,bool,bool),(bool,bool,bool,bool,bool,bool,bool,bool,bool,bool,bool,bool,bool,bool,bool,bool,bool,bool,bool,bool,bool,bool,bool,bool,bool,bool,bool,bool)),uint8)":"5bada1da"},"id":11}