{"abi":[{"type":"function","name":"decode","inputs":[{"name":"packedReport","type":"uint256","internalType":"uint256"}],"outputs":[{"name":"report","type":"tuple","internalType":"struct SwapV2DecodedRiskReport","components":[{"name":"core","type":"tuple","internalType":"struct PolicyCoreView","components":[{"name":"kind","type":"uint8","internalType":"enum PolicyKind"},{"name":"operation","type":"uint8","internalType":"uint8"},{"name":"version","type":"uint8","internalType":"uint8"},{"name":"finalCategory","type":"uint8","internalType":"enum PolicyRiskCategory"},{"name":"offChainCategory","type":"uint8","internalType":"enum PolicyRiskCategory"},{"name":"compositeScore","type":"uint8","internalType":"uint8"},{"name":"onChainScore","type":"uint8","internalType":"uint8"},{"name":"offChainScore","type":"uint8","internalType":"uint8"},{"name":"onChainCriticalCount","type":"uint8","internalType":"uint8"},{"name":"onChainWarningCount","type":"uint8","internalType":"uint8"},{"name":"offChainInfoCount","type":"uint8","internalType":"uint8"},{"name":"anyHardBlock","type":"bool","internalType":"bool"},{"name":"offChainValid","type":"bool","internalType":"bool"},{"name":"onChainFlagsPacked","type":"uint32","internalType":"uint32"},{"name":"offChainFlagsPacked","type":"uint32","internalType":"uint32"},{"name":"tokenFlagsPacked","type":"uint32","internalType":"uint32"},{"name":"priceImpactBps","type":"uint16","internalType":"uint16"},{"name":"outputDiscrepancyBps","type":"uint16","internalType":"uint16"},{"name":"ratioDeviationBps","type":"uint16","internalType":"uint16"},{"name":"tokenCriticalCount","type":"uint8","internalType":"uint8"},{"name":"tokenWarningCount","type":"uint8","internalType":"uint8"},{"name":"tokenRiskEvaluated","type":"bool","internalType":"bool"}]},{"name":"offChain","type":"tuple","internalType":"struct PolicyOffChainView","components":[{"name":"hasDangerousDelegateCall","type":"bool","internalType":"bool"},{"name":"hasSelfDestruct","type":"bool","internalType":"bool"},{"name":"hasApprovalDrain","type":"bool","internalType":"bool"},{"name":"hasOwnerSweep","type":"bool","internalType":"bool"},{"name":"hasReentrancy","type":"bool","internalType":"bool"},{"name":"hasUnexpectedCreate","type":"bool","internalType":"bool"},{"name":"hasUpgradeCall","type":"bool","internalType":"bool"},{"name":"isExitFrozen","type":"bool","internalType":"bool"},{"name":"isRemovalFrozen","type":"bool","internalType":"bool"},{"name":"isFirstDeposit","type":"bool","internalType":"bool"},{"name":"isFeeOnTransfer","type":"bool","internalType":"bool"},{"name":"anyOracleStale","type":"bool","internalType":"bool"},{"name":"anyContractUnverified","type":"bool","internalType":"bool"},{"name":"oracleDeviation","type":"bool","internalType":"bool"},{"name":"simulationReverted","type":"bool","internalType":"bool"}]},{"name":"tokenRisk","type":"tuple","internalType":"struct PolicyTokenFlagsView","components":[{"name":"evaluated","type":"bool","internalType":"bool"},{"name":"notAContract","type":"bool","internalType":"bool"},{"name":"emptyBytecode","type":"bool","internalType":"bool"},{"name":"decimalsRevert","type":"bool","internalType":"bool"},{"name":"weirdDecimals","type":"bool","internalType":"bool"},{"name":"highDecimals","type":"bool","internalType":"bool"},{"name":"totalSupplyRevert","type":"bool","internalType":"bool"},{"name":"zeroTotalSupply","type":"bool","internalType":"bool"},{"name":"veryLowTotalSupply","type":"bool","internalType":"bool"},{"name":"symbolRevert","type":"bool","internalType":"bool"},{"name":"nameRevert","type":"bool","internalType":"bool"},{"name":"isEip1967Proxy","type":"bool","internalType":"bool"},{"name":"isEip1822Proxy","type":"bool","internalType":"bool"},{"name":"isMinimalProxy","type":"bool","internalType":"bool"},{"name":"hasOwner","type":"bool","internalType":"bool"},{"name":"ownershipRenounced","type":"bool","internalType":"bool"},{"name":"ownerIsEoa","type":"bool","internalType":"bool"},{"name":"isPausable","type":"bool","internalType":"bool"},{"name":"isCurrentlyPaused","type":"bool","internalType":"bool"},{"name":"hasBlacklist","type":"bool","internalType":"bool"},{"name":"hasBlocklist","type":"bool","internalType":"bool"},{"name":"possibleFeeOnTransfer","type":"bool","internalType":"bool"},{"name":"hasTransferFeeGetter","type":"bool","internalType":"bool"},{"name":"hasTaxFunction","type":"bool","internalType":"bool"},{"name":"possibleRebasing","type":"bool","internalType":"bool"},{"name":"hasMintCapability","type":"bool","internalType":"bool"},{"name":"hasBurnCapability","type":"bool","internalType":"bool"},{"name":"hasPermit","type":"bool","internalType":"bool"},{"name":"hasFlashMint","type":"bool","internalType":"bool"}]},{"name":"enhancedView","type":"tuple","internalType":"struct EnhancedCoreView","components":[{"name":"economicSeverityTier","type":"uint8","internalType":"uint8"},{"name":"oracleAgeTier","type":"uint8","internalType":"uint8"},{"name":"excessPullTier","type":"uint8","internalType":"uint8"},{"name":"sharePriceDriftTier","type":"uint8","internalType":"uint8"},{"name":"compoundRiskCount","type":"uint8","internalType":"uint8"},{"name":"simulationRevertBlock","type":"bool","internalType":"bool"},{"name":"sweepSeverityTier","type":"uint8","internalType":"uint8"},{"name":"enhancedDataPresent","type":"bool","internalType":"bool"}]},{"name":"operation","type":"uint8","internalType":"enum SwapOpType"},{"name":"onChain","type":"tuple","internalType":"struct SwapV2OnChainView","components":[{"name":"routerNotTrusted","type":"bool","internalType":"bool"},{"name":"factoryNotTrusted","type":"bool","internalType":"bool"},{"name":"deepMultihop","type":"bool","internalType":"bool"},{"name":"duplicateTokenInPath","type":"bool","internalType":"bool"},{"name":"poolNotExists","type":"bool","internalType":"bool"},{"name":"factoryMismatch","type":"bool","internalType":"bool"},{"name":"zeroLiquidity","type":"bool","internalType":"bool"},{"name":"lowLiquidity","type":"bool","internalType":"bool"},{"name":"lowLpSupply","type":"bool","internalType":"bool"},{"name":"poolTooNew","type":"bool","internalType":"bool"},{"name":"severeImbalance","type":"bool","internalType":"bool"},{"name":"kInvariantBroken","type":"bool","internalType":"bool"},{"name":"highSwapImpact","type":"bool","internalType":"bool"},{"name":"flashloanRisk","type":"bool","internalType":"bool"},{"name":"priceManipulated","type":"bool","internalType":"bool"}]}]}],"stateMutability":"pure"},{"type":"function","name":"decodeOffChain","inputs":[{"name":"offChainData","type":"bytes","internalType":"bytes"}],"outputs":[{"name":"normalized","type":"tuple","internalType":"struct PolicyNormalizedOffChainResult","components":[{"name":"valid","type":"bool","internalType":"bool"},{"name":"riskScore","type":"uint8","internalType":"uint8"},{"name":"hasDangerousDelegateCall","type":"bool","internalType":"bool"},{"name":"hasSelfDestruct","type":"bool","internalType":"bool"},{"name":"hasApprovalDrain","type":"bool","internalType":"bool"},{"name":"hasOwnerSweep","type":"bool","internalType":"bool"},{"name":"hasReentrancy","type":"bool","internalType":"bool"},{"name":"hasUnexpectedCreate","type":"bool","internalType":"bool"},{"name":"hasUpgradeCall","type":"bool","internalType":"bool"},{"name":"isExitFrozen","type":"bool","internalType":"bool"},{"name":"isRemovalFrozen","type":"bool","internalType":"bool"},{"name":"isFirstDeposit","type":"bool","internalType":"bool"},{"name":"isFeeOnTransfer","type":"bool","internalType":"bool"},{"name":"anyOracleStale","type":"bool","internalType":"bool"},{"name":"anyContractUnverified","type":"bool","internalType":"bool"},{"name":"oracleDeviation","type":"bool","internalType":"bool"},{"name":"simulationReverted","type":"bool","internalType":"bool"},{"name":"priceImpactBps","type":"uint16","internalType":"uint16"},{"name":"outputDiscrepancyBps","type":"uint16","internalType":"uint16"},{"name":"ratioDeviationBps","type":"uint16","internalType":"uint16"}]},{"name":"economicData","type":"tuple","internalType":"struct ExtendedEconomicData","components":[{"name":"outputDiscrepancyBps","type":"uint256","internalType":"uint256"},{"name":"sharePriceDriftBps","type":"uint256","internalType":"uint256"},{"name":"excessPullBps","type":"uint256","internalType":"uint256"},{"name":"assetOracleAge","type":"uint256","internalType":"uint256"},{"name":"exitSimulatedOut","type":"uint256","internalType":"uint256"},{"name":"sweepAmountUSD","type":"uint256","internalType":"uint256"},{"name":"priceImpactBps","type":"uint256","internalType":"uint256"},{"name":"measuredFeePercent","type":"uint256","internalType":"uint256"},{"name":"inputHeadroomBps","type":"uint256","internalType":"uint256"},{"name":"tokenInOracleAge","type":"uint256","internalType":"uint256"},{"name":"tokenOutOracleAge","type":"uint256","internalType":"uint256"},{"name":"oracleFairAmountOut","type":"uint256","internalType":"uint256"},{"name":"actualAmountOut","type":"uint256","internalType":"uint256"},{"name":"lpMintDiscrepancyBps","type":"uint256","internalType":"uint256"},{"name":"ratioDeviationBps","type":"uint256","internalType":"uint256"},{"name":"excessValueLostUSD","type":"uint256","internalType":"uint256"},{"name":"tokenAOracleAge","type":"uint256","internalType":"uint256"},{"name":"tokenBOracleAge","type":"uint256","internalType":"uint256"},{"name":"removalSimAmountA","type":"uint256","internalType":"uint256"},{"name":"removalSimAmountB","type":"uint256","internalType":"uint256"},{"name":"simulationReverted","type":"bool","internalType":"bool"},{"name":"isExitFrozen","type":"bool","internalType":"bool"},{"name":"isRemovalFrozen","type":"bool","internalType":"bool"},{"name":"sweepDetected","type":"bool","internalType":"bool"},{"name":"upgradeCallDetected","type":"bool","internalType":"bool"},{"name":"feeOnTransferConfirmed","type":"bool","internalType":"bool"}]}],"stateMutability":"pure"},{"type":"function","name":"evaluate","inputs":[{"name":"offChainData","type":"bytes","internalType":"bytes"},{"name":"onChainData","type":"tuple","internalType":"struct SwapV2GuardResult","components":[{"name":"ROUTER_NOT_TRUSTED","type":"bool","internalType":"bool"},{"name":"FACTORY_NOT_TRUSTED","type":"bool","internalType":"bool"},{"name":"DEEP_MULTIHOP","type":"bool","internalType":"bool"},{"name":"DUPLICATE_TOKEN_IN_PATH","type":"bool","internalType":"bool"},{"name":"POOL_NOT_EXISTS","type":"bool","internalType":"bool"},{"name":"FACTORY_MISMATCH","type":"bool","internalType":"bool"},{"name":"ZERO_LIQUIDITY","type":"bool","internalType":"bool"},{"name":"LOW_LIQUIDITY","type":"bool","internalType":"bool"},{"name":"LOW_LP_SUPPLY","type":"bool","internalType":"bool"},{"name":"POOL_TOO_NEW","type":"bool","internalType":"bool"},{"name":"SEVERE_IMBALANCE","type":"bool","internalType":"bool"},{"name":"K_INVARIANT_BROKEN","type":"bool","internalType":"bool"},{"name":"HIGH_SWAP_IMPACT","type":"bool","internalType":"bool"},{"name":"FLASHLOAN_RISK","type":"bool","internalType":"bool"},{"name":"PRICE_MANIPULATED","type":"bool","internalType":"bool"},{"name":"tokenResult","type":"tuple[]","internalType":"struct TokenGuardResult[]","components":[{"name":"NOT_A_CONTRACT","type":"bool","internalType":"bool"},{"name":"EMPTY_BYTECODE","type":"bool","internalType":"bool"},{"name":"DECIMALS_REVERT","type":"bool","internalType":"bool"},{"name":"WEIRD_DECIMALS","type":"bool","internalType":"bool"},{"name":"HIGH_DECIMALS","type":"bool","internalType":"bool"},{"name":"TOTAL_SUPPLY_REVERT","type":"bool","internalType":"bool"},{"name":"ZERO_TOTAL_SUPPLY","type":"bool","internalType":"bool"},{"name":"VERY_LOW_TOTAL_SUPPLY","type":"bool","internalType":"bool"},{"name":"SYMBOL_REVERT","type":"bool","internalType":"bool"},{"name":"NAME_REVERT","type":"bool","internalType":"bool"},{"name":"IS_EIP1967_PROXY","type":"bool","internalType":"bool"},{"name":"IS_EIP1822_PROXY","type":"bool","internalType":"bool"},{"name":"IS_MINIMAL_PROXY","type":"bool","internalType":"bool"},{"name":"HAS_OWNER","type":"bool","internalType":"bool"},{"name":"OWNERSHIP_RENOUNCED","type":"bool","internalType":"bool"},{"name":"OWNER_IS_EOA","type":"bool","internalType":"bool"},{"name":"IS_PAUSABLE","type":"bool","internalType":"bool"},{"name":"IS_CURRENTLY_PAUSED","type":"bool","internalType":"bool"},{"name":"HAS_BLACKLIST","type":"bool","internalType":"bool"},{"name":"HAS_BLOCKLIST","type":"bool","internalType":"bool"},{"name":"POSSIBLE_FEE_ON_TRANSFER","type":"bool","internalType":"bool"},{"name":"HAS_TRANSFER_FEE_GETTER","type":"bool","internalType":"bool"},{"name":"HAS_TAX_FUNCTION","type":"bool","internalType":"bool"},{"name":"POSSIBLE_REBASING","type":"bool","internalType":"bool"},{"name":"HAS_MINT_CAPABILITY","type":"bool","internalType":"bool"},{"name":"HAS_BURN_CAPABILITY","type":"bool","internalType":"bool"},{"name":"HAS_PERMIT","type":"bool","internalType":"bool"},{"name":"HAS_FLASH_MINT","type":"bool","internalType":"bool"}]}]},{"name":"operation","type":"uint8","internalType":"enum SwapOpType"}],"outputs":[{"name":"packedReport","type":"uint256","internalType":"uint256"}],"stateMutability":"pure"},{"type":"function","name":"packOnChain","inputs":[{"name":"onChainData","type":"tuple","internalType":"struct SwapV2GuardResult","components":[{"name":"ROUTER_NOT_TRUSTED","type":"bool","internalType":"bool"},{"name":"FACTORY_NOT_TRUSTED","type":"bool","internalType":"bool"},{"name":"DEEP_MULTIHOP","type":"bool","internalType":"bool"},{"name":"DUPLICATE_TOKEN_IN_PATH","type":"bool","internalType":"bool"},{"name":"POOL_NOT_EXISTS","type":"bool","internalType":"bool"},{"name":"FACTORY_MISMATCH","type":"bool","internalType":"bool"},{"name":"ZERO_LIQUIDITY","type":"bool","internalType":"bool"},{"name":"LOW_LIQUIDITY","type":"bool","internalType":"bool"},{"name":"LOW_LP_SUPPLY","type":"bool","internalType":"bool"},{"name":"POOL_TOO_NEW","type":"bool","internalType":"bool"},{"name":"SEVERE_IMBALANCE","type":"bool","internalType":"bool"},{"name":"K_INVARIANT_BROKEN","type":"bool","internalType":"bool"},{"name":"HIGH_SWAP_IMPACT","type":"bool","internalType":"bool"},{"name":"FLASHLOAN_RISK","type":"bool","internalType":"bool"},{"name":"PRICE_MANIPULATED","type":"bool","internalType":"bool"},{"name":"tokenResult","type":"tuple[]","internalType":"struct TokenGuardResult[]","components":[{"name":"NOT_A_CONTRACT","type":"bool","internalType":"bool"},{"name":"EMPTY_BYTECODE","type":"bool","internalType":"bool"},{"name":"DECIMALS_REVERT","type":"bool","internalType":"bool"},{"name":"WEIRD_DECIMALS","type":"bool","internalType":"bool"},{"name":"HIGH_DECIMALS","type":"bool","internalType":"bool"},{"name":"TOTAL_SUPPLY_REVERT","type":"bool","internalType":"bool"},{"name":"ZERO_TOTAL_SUPPLY","type":"bool","internalType":"bool"},{"name":"VERY_LOW_TOTAL_SUPPLY","type":"bool","internalType":"bool"},{"name":"SYMBOL_REVERT","type":"bool","internalType":"bool"},{"name":"NAME_REVERT","type":"bool","internalType":"bool"},{"name":"IS_EIP1967_PROXY","type":"bool","internalType":"bool"},{"name":"IS_EIP1822_PROXY","type":"bool","internalType":"bool"},{"name":"IS_MINIMAL_PROXY","type":"bool","internalType":"bool"},{"name":"HAS_OWNER","type":"bool","internalType":"bool"},{"name":"OWNERSHIP_RENOUNCED","type":"bool","internalType":"bool"},{"name":"OWNER_IS_EOA","type":"bool","internalType":"bool"},{"name":"IS_PAUSABLE","type":"bool","internalType":"bool"},{"name":"IS_CURRENTLY_PAUSED","type":"bool","internalType":"bool"},{"name":"HAS_BLACKLIST","type":"bool","internalType":"bool"},{"name":"HAS_BLOCKLIST","type":"bool","internalType":"bool"},{"name":"POSSIBLE_FEE_ON_TRANSFER","type":"bool","internalType":"bool"},{"name":"HAS_TRANSFER_FEE_GETTER","type":"bool","internalType":"bool"},{"name":"HAS_TAX_FUNCTION","type":"bool","internalType":"bool"},{"name":"POSSIBLE_REBASING","type":"bool","internalType":"bool"},{"name":"HAS_MINT_CAPABILITY","type":"bool","internalType":"bool"},{"name":"HAS_BURN_CAPABILITY","type":"bool","internalType":"bool"},{"name":"HAS_PERMIT","type":"bool","internalType":"bool"},{"name":"HAS_FLASH_MINT","type":"bool","internalType":"bool"}]}]}],"outputs":[{"name":"packedFlags","type":"uint32","internalType":"uint32"},{"name":"packedTokenFlags","type":"uint32","internalType":"uint32"},{"name":"criticalCount","type":"uint8","internalType":"uint8"},{"name":"warningCount","type":"uint8","internalType":"uint8"},{"name":"anyHardBlock","type":"bool","internalType":"bool"},{"name":"tokenCriticalCount","type":"uint8","internalType":"uint8"},{"name":"tokenWarningCount","type":"uint8","internalType":"uint8"}],"stateMutability":"pure"},{"type":"function","name":"previewReport","inputs":[{"name":"offChainData","type":"bytes","internalType":"bytes"},{"name":"onChainData","type":"tuple","internalType":"struct SwapV2GuardResult","components":[{"name":"ROUTER_NOT_TRUSTED","type":"bool","internalType":"bool"},{"name":"FACTORY_NOT_TRUSTED","type":"bool","internalType":"bool"},{"name":"DEEP_MULTIHOP","type":"bool","internalType":"bool"},{"name":"DUPLICATE_TOKEN_IN_PATH","type":"bool","internalType":"bool"},{"name":"POOL_NOT_EXISTS","type":"bool","internalType":"bool"},{"name":"FACTORY_MISMATCH","type":"bool","internalType":"bool"},{"name":"ZERO_LIQUIDITY","type":"bool","internalType":"bool"},{"name":"LOW_LIQUIDITY","type":"bool","internalType":"bool"},{"name":"LOW_LP_SUPPLY","type":"bool","internalType":"bool"},{"name":"POOL_TOO_NEW","type":"bool","internalType":"bool"},{"name":"SEVERE_IMBALANCE","type":"bool","internalType":"bool"},{"name":"K_INVARIANT_BROKEN","type":"bool","internalType":"bool"},{"name":"HIGH_SWAP_IMPACT","type":"bool","internalType":"bool"},{"name":"FLASHLOAN_RISK","type":"bool","internalType":"bool"},{"name":"PRICE_MANIPULATED","type":"bool","internalType":"bool"},{"name":"tokenResult","type":"tuple[]","internalType":"struct TokenGuardResult[]","components":[{"name":"NOT_A_CONTRACT","type":"bool","internalType":"bool"},{"name":"EMPTY_BYTECODE","type":"bool","internalType":"bool"},{"name":"DECIMALS_REVERT","type":"bool","internalType":"bool"},{"name":"WEIRD_DECIMALS","type":"bool","internalType":"bool"},{"name":"HIGH_DECIMALS","type":"bool","internalType":"bool"},{"name":"TOTAL_SUPPLY_REVERT","type":"bool","internalType":"bool"},{"name":"ZERO_TOTAL_SUPPLY","type":"bool","internalType":"bool"},{"name":"VERY_LOW_TOTAL_SUPPLY","type":"bool","internalType":"bool"},{"name":"SYMBOL_REVERT","type":"bool","internalType":"bool"},{"name":"NAME_REVERT","type":"bool","internalType":"bool"},{"name":"IS_EIP1967_PROXY","type":"bool","internalType":"bool"},{"name":"IS_EIP1822_PROXY","type":"bool","internalType":"bool"},{"name":"IS_MINIMAL_PROXY","type":"bool","internalType":"bool"},{"name":"HAS_OWNER","type":"bool","internalType":"bool"},{"name":"OWNERSHIP_RENOUNCED","type":"bool","internalType":"bool"},{"name":"OWNER_IS_EOA","type":"bool","internalType":"bool"},{"name":"IS_PAUSABLE","type":"bool","internalType":"bool"},{"name":"IS_CURRENTLY_PAUSED","type":"bool","internalType":"bool"},{"name":"HAS_BLACKLIST","type":"bool","internalType":"bool"},{"name":"HAS_BLOCKLIST","type":"bool","internalType":"bool"},{"name":"POSSIBLE_FEE_ON_TRANSFER","type":"bool","internalType":"bool"},{"name":"HAS_TRANSFER_FEE_GETTER","type":"bool","internalType":"bool"},{"name":"HAS_TAX_FUNCTION","type":"bool","internalType":"bool"},{"name":"POSSIBLE_REBASING","type":"bool","internalType":"bool"},{"name":"HAS_MINT_CAPABILITY","type":"bool","internalType":"bool"},{"name":"HAS_BURN_CAPABILITY","type":"bool","internalType":"bool"},{"name":"HAS_PERMIT","type":"bool","internalType":"bool"},{"name":"HAS_FLASH_MINT","type":"bool","internalType":"bool"}]}]},{"name":"operation","type":"uint8","internalType":"enum SwapOpType"}],"outputs":[{"name":"report","type":"tuple","internalType":"struct SwapV2DecodedRiskReport","components":[{"name":"core","type":"tuple","internalType":"struct PolicyCoreView","components":[{"name":"kind","type":"uint8","internalType":"enum PolicyKind"},{"name":"operation","type":"uint8","internalType":"uint8"},{"name":"version","type":"uint8","internalType":"uint8"},{"name":"finalCategory","type":"uint8","internalType":"enum PolicyRiskCategory"},{"name":"offChainCategory","type":"uint8","internalType":"enum PolicyRiskCategory"},{"name":"compositeScore","type":"uint8","internalType":"uint8"},{"name":"onChainScore","type":"uint8","internalType":"uint8"},{"name":"offChainScore","type":"uint8","internalType":"uint8"},{"name":"onChainCriticalCount","type":"uint8","internalType":"uint8"},{"name":"onChainWarningCount","type":"uint8","internalType":"uint8"},{"name":"offChainInfoCount","type":"uint8","internalType":"uint8"},{"name":"anyHardBlock","type":"bool","internalType":"bool"},{"name":"offChainValid","type":"bool","internalType":"bool"},{"name":"onChainFlagsPacked","type":"uint32","internalType":"uint32"},{"name":"offChainFlagsPacked","type":"uint32","internalType":"uint32"},{"name":"tokenFlagsPacked","type":"uint32","internalType":"uint32"},{"name":"priceImpactBps","type":"uint16","internalType":"uint16"},{"name":"outputDiscrepancyBps","type":"uint16","internalType":"uint16"},{"name":"ratioDeviationBps","type":"uint16","internalType":"uint16"},{"name":"tokenCriticalCount","type":"uint8","internalType":"uint8"},{"name":"tokenWarningCount","type":"uint8","internalType":"uint8"},{"name":"tokenRiskEvaluated","type":"bool","internalType":"bool"}]},{"name":"offChain","type":"tuple","internalType":"struct PolicyOffChainView","components":[{"name":"hasDangerousDelegateCall","type":"bool","internalType":"bool"},{"name":"hasSelfDestruct","type":"bool","internalType":"bool"},{"name":"hasApprovalDrain","type":"bool","internalType":"bool"},{"name":"hasOwnerSweep","type":"bool","internalType":"bool"},{"name":"hasReentrancy","type":"bool","internalType":"bool"},{"name":"hasUnexpectedCreate","type":"bool","internalType":"bool"},{"name":"hasUpgradeCall","type":"bool","internalType":"bool"},{"name":"isExitFrozen","type":"bool","internalType":"bool"},{"name":"isRemovalFrozen","type":"bool","internalType":"bool"},{"name":"isFirstDeposit","type":"bool","internalType":"bool"},{"name":"isFeeOnTransfer","type":"bool","internalType":"bool"},{"name":"anyOracleStale","type":"bool","internalType":"bool"},{"name":"anyContractUnverified","type":"bool","internalType":"bool"},{"name":"oracleDeviation","type":"bool","internalType":"bool"},{"name":"simulationReverted","type":"bool","internalType":"bool"}]},{"name":"tokenRisk","type":"tuple","internalType":"struct PolicyTokenFlagsView","components":[{"name":"evaluated","type":"bool","internalType":"bool"},{"name":"notAContract","type":"bool","internalType":"bool"},{"name":"emptyBytecode","type":"bool","internalType":"bool"},{"name":"decimalsRevert","type":"bool","internalType":"bool"},{"name":"weirdDecimals","type":"bool","internalType":"bool"},{"name":"highDecimals","type":"bool","internalType":"bool"},{"name":"totalSupplyRevert","type":"bool","internalType":"bool"},{"name":"zeroTotalSupply","type":"bool","internalType":"bool"},{"name":"veryLowTotalSupply","type":"bool","internalType":"bool"},{"name":"symbolRevert","type":"bool","internalType":"bool"},{"name":"nameRevert","type":"bool","internalType":"bool"},{"name":"isEip1967Proxy","type":"bool","internalType":"bool"},{"name":"isEip1822Proxy","type":"bool","internalType":"bool"},{"name":"isMinimalProxy","type":"bool","internalType":"bool"},{"name":"hasOwner","type":"bool","internalType":"bool"},{"name":"ownershipRenounced","type":"bool","internalType":"bool"},{"name":"ownerIsEoa","type":"bool","internalType":"bool"},{"name":"isPausable","type":"bool","internalType":"bool"},{"name":"isCurrentlyPaused","type":"bool","internalType":"bool"},{"name":"hasBlacklist","type":"bool","internalType":"bool"},{"name":"hasBlocklist","type":"bool","internalType":"bool"},{"name":"possibleFeeOnTransfer","type":"bool","internalType":"bool"},{"name":"hasTransferFeeGetter","type":"bool","internalType":"bool"},{"name":"hasTaxFunction","type":"bool","internalType":"bool"},{"name":"possibleRebasing","type":"bool","internalType":"bool"},{"name":"hasMintCapability","type":"bool","internalType":"bool"},{"name":"hasBurnCapability","type":"bool","internalType":"bool"},{"name":"hasPermit","type":"bool","internalType":"bool"},{"name":"hasFlashMint","type":"bool","internalType":"bool"}]},{"name":"enhancedView","type":"tuple","internalType":"struct EnhancedCoreView","components":[{"name":"economicSeverityTier","type":"uint8","internalType":"uint8"},{"name":"oracleAgeTier","type":"uint8","internalType":"uint8"},{"name":"excessPullTier","type":"uint8","internalType":"uint8"},{"name":"sharePriceDriftTier","type":"uint8","internalType":"uint8"},{"name":"compoundRiskCount","type":"uint8","internalType":"uint8"},{"name":"simulationRevertBlock","type":"bool","internalType":"bool"},{"name":"sweepSeverityTier","type":"uint8","internalType":"uint8"},{"name":"enhancedDataPresent","type":"bool","internalType":"bool"}]},{"name":"operation","type":"uint8","internalType":"enum SwapOpType"},{"name":"onChain","type":"tuple","internalType":"struct SwapV2OnChainView","components":[{"name":"routerNotTrusted","type":"bool","internalType":"bool"},{"name":"factoryNotTrusted","type":"bool","internalType":"bool"},{"name":"deepMultihop","type":"bool","internalType":"bool"},{"name":"duplicateTokenInPath","type":"bool","internalType":"bool"},{"name":"poolNotExists","type":"bool","internalType":"bool"},{"name":"factoryMismatch","type":"bool","internalType":"bool"},{"name":"zeroLiquidity","type":"bool","internalType":"bool"},{"name":"lowLiquidity","type":"bool","internalType":"bool"},{"name":"lowLpSupply","type":"bool","internalType":"bool"},{"name":"poolTooNew","type":"bool","internalType":"bool"},{"name":"severeImbalance","type":"bool","internalType":"bool"},{"name":"kInvariantBroken","type":"bool","internalType":"bool"},{"name":"highSwapImpact","type":"bool","internalType":"bool"},{"name":"flashloanRisk","type":"bool","internalType":"bool"},{"name":"priceManipulated","type":"bool","internalType":"bool"}]}]}],"stateMutability":"pure"},{"type":"error","name":"InvalidPackedKind","inputs":[{"name":"expectedKind","type":"uint8","internalType":"uint8"},{"name":"actualKind","type":"uint8","internalType":"uint8"}]}],"bytecode":{"object":"0x6080604052348015600e575f5ffd5b506159a18061001c5f395ff3fe608060405234801561000f575f5ffd5b5060043610610055575f3560e01c8063433f7d5e1461005957806361a769001461008957806364ef2867146100b9578063a1d66d3c146100e9578063e271f5231461011a575b5f5ffd5b610073600480360381019061006e9190613dcf565b610150565b604051610080919061476e565b60405180910390f35b6100a3600480360381019061009e91906147bb565b6101e4565b6040516100b0919061476e565b60405180910390f35b6100d360048036038101906100ce9190613dcf565b6101fc565b6040516100e091906147f5565b60405180910390f35b61010360048036038101906100fe919061480e565b610281565b604051610111929190614c1e565b60405180910390f35b610134600480360381019061012f9190614c47565b6102cd565b6040516101479796959493929190614cbb565b60405180910390f35b6101586136b9565b6101da6101d5868686866101d089806101e001906101769190614d34565b808060200260200160405190810160405280939291908181526020015f905b828210156101c657848483905061038002018036038101906101b791906150d0565b81526020019060010190610195565b505050505061038a565b6103ee565b610482565b9050949350505050565b6101ec6136b9565b6101f582610482565b9050919050565b5f6102778585858561027288806101e001906102189190614d34565b808060200260200160405190810160405280939291908181526020015f905b82821015610268578484839050610380020180360381019061025991906150d0565b81526020019060010190610237565b505050505061038a565b6103ee565b9050949350505050565b61028961371e565b6102916137d2565b5f8484905003156102c6575f84848101906102ac91906156e8565b90506102b78161067f565b92506102c281610883565b9150505b9250929050565b5f5f5f5f5f5f5f5f61034c896103478b806101e001906102ed9190614d34565b808060200260200160405190810160405280939291908181526020015f905b8282101561033d578484839050610380020180360381019061032e91906150d0565b8152602001906001019061030c565b505050505061038a565b6109c5565b9050805f01518160200151826040015183606001518460c0015185608001518660a00151975097509750975097509750975050919395979092949650565b610392613887565b5f5f835190505f5f90505b818110156103d7576103c88582815181106103bb576103ba61572f565b5b602002602001015161107e565b8317925080600101905061039d565b506103e5825f8314156113de565b92505050919050565b5f6103f761371e565b6103ff6137d2565b5f888890501115610434575f888881019061041a91906156e8565b90506104258161067f565b925061043081610883565b9150505b5f61043f87866109c5565b9050610474600187600581111561045957610458613e5c565b5b836040015184606001518560c00151865f01518b8a8a611911565b935050505095945050505050565b61048a6136b9565b5f5f5f61049685611c32565b9250925092506104aa835f01516001612188565b82845f0181905250818460200181905250808460400181905250826020015160ff1660058111156104de576104dd613e5c565b5b846080019060058111156104f5576104f4613e5c565b5b9081600581111561050957610508613e5c565b5b81525050604051806101e00160405280610528856101a001515f61221a565b1515815260200161053f856101a00151600161221a565b15158152602001610556856101a00151600261221a565b1515815260200161056d856101a00151600361221a565b15158152602001610584856101a00151600461221a565b1515815260200161059b856101a00151600561221a565b151581526020016105b2856101a00151600661221a565b151581526020016105c9856101a00151600761221a565b151581526020016105e0856101a00151600861221a565b151581526020016105f7856101a00151600961221a565b1515815260200161060e856101a00151600a61221a565b15158152602001610625856101a00151600b61221a565b1515815260200161063c856101a00151600c61221a565b15158152602001610653856101a00151600d61221a565b1515815260200161066a856101a00151600e61221a565b15158152508460a00181905250505050919050565b61068761371e565b5f8261012001511415815f0190151590811515815250506106ab826040015161223b565b816020019060ff16908160ff168152505081608001515f0151816040019015159081151581525050816080015160400151816060019015159081151581525050816080015160a001518160800190151590811515815250505f8160a0019015159081151581525050816080015160e001518160c00190151590811515815250508160800151606001518160e00190151590811515815250505f816101000190151590811515815250505f816101200190151590811515815250505f816101400190151590811515815250505f816101600190151590811515815250508160a001516101200151816101800190151590811515815250508160a001516101a00151806107bc57508160a001516101c001515b816101a00190151590811515815250508160c0015180156107de57508160e001515b80156107ec57508161010001515b15816101c00190151590811515815250508160a001516101000151816101e00190151590811515815250508160a001515f0151816102000190151590811515815250506108408260a0015160e00151612254565b81610220019061ffff16908161ffff16815250505f81610240019061ffff16908161ffff16815250505f81610260019061ffff16908161ffff1681525050919050565b61088b6137d2565b8160a0015160e001518160c00181815250508160a0015161014001518160e00181815250508160a0015160800151816101000181815250508160a001516101e00151816101200181815250508160a001516102000151816101400181815250508160a0015160c00151816101600181815250508160a0015160600151816101800181815250508160a001515f0151816102800190151590811515815250508160a001516101200151816103200190151590811515815250505f81610160015111801561095b57505f816101800151115b156109c0575f81610160015190505f82610180015190505f81831161098b5782826109869190615789565b610998565b81836109979190615789565b5b905082612710826109a991906157bc565b6109b3919061582a565b8460c00181815250505050505b919050565b6109cd6138c1565b825f0160208101906109df919061585a565b15610a2b578060600180518091906109f690615885565b60ff1660ff16815250505f60ff16600163ffffffff16901b815f018181511791509063ffffffff16908163ffffffff16815250505b826020016020810190610a3e919061585a565b15610a8b57806060018051809190610a5590615885565b60ff1660ff1681525050600160ff16600163ffffffff16901b815f018181511791509063ffffffff16908163ffffffff16815250505b826040016020810190610a9e919061585a565b15610aeb57806060018051809190610ab590615885565b60ff1660ff1681525050600260ff16600163ffffffff16901b815f018181511791509063ffffffff16908163ffffffff16815250505b826060016020810190610afe919061585a565b15610b5c57806040018051809190610b1590615885565b60ff1660ff1681525050600360ff16600163ffffffff16901b815f018181511791509063ffffffff16908163ffffffff168152505060018160c00190151590811515815250505b826080016020810190610b6f919061585a565b15610bcd57806040018051809190610b8690615885565b60ff1660ff1681525050600460ff16600163ffffffff16901b815f018181511791509063ffffffff16908163ffffffff168152505060018160c00190151590811515815250505b8260a0016020810190610be0919061585a565b15610c2d57806060018051809190610bf790615885565b60ff1660ff1681525050600560ff16600163ffffffff16901b815f018181511791509063ffffffff16908163ffffffff16815250505b8260c0016020810190610c40919061585a565b15610c9e57806040018051809190610c5790615885565b60ff1660ff1681525050600660ff16600163ffffffff16901b815f018181511791509063ffffffff16908163ffffffff168152505060018160c00190151590811515815250505b8260e0016020810190610cb1919061585a565b15610cfe57806060018051809190610cc890615885565b60ff1660ff1681525050600760ff16600163ffffffff16901b815f018181511791509063ffffffff16908163ffffffff16815250505b82610100016020810190610d12919061585a565b15610d5f57806060018051809190610d2990615885565b60ff1660ff1681525050600860ff16600163ffffffff16901b815f018181511791509063ffffffff16908163ffffffff16815250505b82610120016020810190610d73919061585a565b15610dc057806060018051809190610d8a90615885565b60ff1660ff1681525050600960ff16600163ffffffff16901b815f018181511791509063ffffffff16908163ffffffff16815250505b82610140016020810190610dd4919061585a565b15610e2157806060018051809190610deb90615885565b60ff1660ff1681525050600a60ff16600163ffffffff16901b815f018181511791509063ffffffff16908163ffffffff16815250505b82610160016020810190610e35919061585a565b15610e9357806040018051809190610e4c90615885565b60ff1660ff1681525050600b60ff16600163ffffffff16901b815f018181511791509063ffffffff16908163ffffffff168152505060018160c00190151590811515815250505b82610180016020810190610ea7919061585a565b15610ef457806060018051809190610ebe90615885565b60ff1660ff1681525050600c60ff16600163ffffffff16901b815f018181511791509063ffffffff16908163ffffffff16815250505b826101a0016020810190610f08919061585a565b15610f5557806060018051809190610f1f90615885565b60ff1660ff1681525050600d60ff16600163ffffffff16901b815f018181511791509063ffffffff16908163ffffffff16815250505b826101c0016020810190610f69919061585a565b15610fc757806040018051809190610f8090615885565b60ff1660ff1681525050600e60ff16600163ffffffff16901b815f018181511791509063ffffffff16908163ffffffff168152505060018160c00190151590811515815250505b815f0151816020019063ffffffff16908163ffffffff16815250508160200151816080019060ff16908160ff168152505081604001518160a0019060ff16908160ff168152505081602001518160400181815161102491906158ad565b91509060ff16908160ff168152505081604001518160600181815161104991906158ad565b91509060ff16908160ff16815250508060c0015180611069575081606001515b8160c001901515908115158152505092915050565b5f815f01511561109b575f60ff16600163ffffffff16901b811790505b8160200151156110b957600160ff16600163ffffffff16901b811790505b8160400151156110d757600260ff16600163ffffffff16901b811790505b8160600151156110f557600360ff16600163ffffffff16901b811790505b81608001511561111357600460ff16600163ffffffff16901b811790505b8160a001511561113157600560ff16600163ffffffff16901b811790505b8160c001511561114f57600660ff16600163ffffffff16901b811790505b8160e001511561116d57600760ff16600163ffffffff16901b811790505b8161010001511561118c57600860ff16600163ffffffff16901b811790505b816101200151156111ab57600960ff16600163ffffffff16901b811790505b816101400151156111ca57600a60ff16600163ffffffff16901b811790505b816101600151156111e957600b60ff16600163ffffffff16901b811790505b8161018001511561120857600c60ff16600163ffffffff16901b811790505b816101a001511561122757600d60ff16600163ffffffff16901b811790505b816101c001511561124657600e60ff16600163ffffffff16901b811790505b816101e001511561126557600f60ff16600163ffffffff16901b811790505b8161020001511561128457601060ff16600163ffffffff16901b811790505b816102200151156112a357601160ff16600163ffffffff16901b811790505b816102400151156112c257601260ff16600163ffffffff16901b811790505b816102600151156112e157601360ff16600163ffffffff16901b811790505b8161028001511561130057601460ff16600163ffffffff16901b811790505b816102a001511561131f57601560ff16600163ffffffff16901b811790505b816102c001511561133e57601660ff16600163ffffffff16901b811790505b816102e001511561135d57601760ff16600163ffffffff16901b811790505b8161030001511561137c57601860ff16600163ffffffff16901b811790505b8161032001511561139b57601960ff16600163ffffffff16901b811790505b816103400151156113ba57601a60ff16600163ffffffff16901b811790505b816103600151156113d957601b60ff16600163ffffffff16901b811790505b919050565b6113e6613887565b82815f019063ffffffff16908163ffffffff168152505081816080019015159081151581525050811561190b5761141d835f61221a565b156114505780602001805180919061143490615885565b60ff1660ff168152505060018160600190151590811515815250505b61145b83600161221a565b1561148e5780602001805180919061147290615885565b60ff1660ff168152505060018160600190151590811515815250505b61149983600461221a565b156114cc578060200180518091906114b090615885565b60ff1660ff168152505060018160600190151590811515815250505b6114d783600561221a565b1561150a578060200180518091906114ee90615885565b60ff1660ff168152505060018160600190151590811515815250505b61151583600661221a565b156115485780602001805180919061152c90615885565b60ff1660ff168152505060018160600190151590811515815250505b61155383601161221a565b156115865780602001805180919061156a90615885565b60ff1660ff168152505060018160600190151590811515815250505b61159183600261221a565b156115b3578060400180518091906115a890615885565b60ff1660ff16815250505b6115be83600361221a565b156115e0578060400180518091906115d590615885565b60ff1660ff16815250505b6115eb83600761221a565b1561160d5780604001805180919061160290615885565b60ff1660ff16815250505b61161883600861221a565b1561163a5780604001805180919061162f90615885565b60ff1660ff16815250505b61164583600961221a565b156116675780604001805180919061165c90615885565b60ff1660ff16815250505b61167283600a61221a565b156116945780604001805180919061168990615885565b60ff1660ff16815250505b61169f83600b61221a565b156116c1578060400180518091906116b690615885565b60ff1660ff16815250505b6116cc83600c61221a565b156116ee578060400180518091906116e390615885565b60ff1660ff16815250505b6116f983600d61221a565b1561171b5780604001805180919061171090615885565b60ff1660ff16815250505b61172683600f61221a565b156117485780604001805180919061173d90615885565b60ff1660ff16815250505b61175383601061221a565b156117755780604001805180919061176a90615885565b60ff1660ff16815250505b61178083601261221a565b156117a25780604001805180919061179790615885565b60ff1660ff16815250505b6117ad83601361221a565b156117cf578060400180518091906117c490615885565b60ff1660ff16815250505b6117da83601461221a565b156117fc578060400180518091906117f190615885565b60ff1660ff16815250505b61180783601561221a565b156118295780604001805180919061181e90615885565b60ff1660ff16815250505b61183483601661221a565b156118565780604001805180919061184b90615885565b60ff1660ff16815250505b61186183601761221a565b156118835780604001805180919061187890615885565b60ff1660ff16815250505b61188e83601861221a565b156118b0578060400180518091906118a590615885565b60ff1660ff16815250505b6118bb83601961221a565b156118dd578060400180518091906118d290615885565b60ff1660ff16815250505b6118e883601b61221a565b1561190a578060400180518091906118ff90615885565b60ff1660ff16815250505b5b92915050565b5f5f61192189898988888861226f565b90508563ffffffff169150602060ff168160c0015163ffffffff16901b82179150604060ff16816040015160ff16901b82179150604860ff16816060015160ff16901b82179150605060ff16816080015160ff16901b82179150605860ff16815f0151600381111561199657611995613e5c565b5b60ff16901b82179150605a60ff16816020015160038111156119bb576119ba613e5c565b5b60ff16901b82179150605e60ff166119d28a612834565b60ff16901b82179150606460ff166119e989612834565b60ff16901b82179150606a60ff16611a048260a00151612834565b60ff16901b82179150607060ff16611a2485610220015161ffff16612254565b61ffff16901b82179150608060ff16611a4585610240015161ffff16612254565b61ffff16901b82179150609060ff16611a6685610260015161ffff16612254565b61ffff16901b8217915060a060ff168a60ff16901b8217915060a460ff168b6002811115611a9757611a96613e5c565b5b60ff16901b8217915060a660ff16600160ff16901b8217915060ae60ff16855f015163ffffffff16901b8217915060ce60ff16611ad78660200151612834565b60ff16901b8217915060d460ff16611af28660400151612834565b60ff16901b821791508680611b08575084606001515b80611b1557508061018001515b15611b2857605c60ff166001901b821791505b835f015115611b3f57605d60ff166001901b821791505b846080015115611b575760da60ff166001901b821791505b60db60ff16611b698260e00151612850565b60ff16901b8217915060de60ff16611b85826101000151612850565b60ff16901b8217915060e160ff16611ba1826101200151612850565b60ff16901b8217915060e460ff16611bbd826101400151612850565b60ff16901b8217915060e760ff16611bd9826101600151612850565b60ff16901b8217915060eb60ff16611bf5826101a00151612850565b60ff16901b8217915080610180015115611c175760ea60ff166001901b821791505b60ee60ff166001901b82179150509998505050505050505050565b611c3a613911565b611c42613a1a565b611c4a613a9f565b611c578460a4600261286c565b6002811115611c6957611c68613e5c565b5b835f01906002811115611c7f57611c7e613e5c565b5b90816002811115611c9357611c92613e5c565b5b81525050611ca48460a0600461286c565b836020019060ff16908160ff1681525050611cc28460a6600861286c565b836040019060ff16908160ff1681525050611ce0846058600261286c565b6003811115611cf257611cf1613e5c565b5b83606001906003811115611d0957611d08613e5c565b5b90816003811115611d1d57611d1c613e5c565b5b81525050611d2e84605a600261286c565b6003811115611d4057611d3f613e5c565b5b83608001906003811115611d5757611d56613e5c565b5b90816003811115611d6b57611d6a613e5c565b5b81525050611d7c846040600861286c565b8360a0019060ff16908160ff1681525050611d9a846048600861286c565b8360c0019060ff16908160ff1681525050611db8846050600861286c565b8360e0019060ff16908160ff1681525050611dd684605e600661286c565b83610100019060ff16908160ff1681525050611df5846064600661286c565b83610120019060ff16908160ff1681525050611e1484606a600661286c565b83610140019060ff16908160ff16815250506001611e3585605c600161286c565b14836101600190151590811515815250506001611e5585605d600161286c565b1483610180019015159081151581525050611e72845f602061286c565b836101a0019063ffffffff16908163ffffffff1681525050611e968460208061286c565b836101c0019063ffffffff16908163ffffffff1681525050611ebb8460ae602061286c565b836101e0019063ffffffff16908163ffffffff1681525050611ee0846070601061286c565b83610200019061ffff16908161ffff1681525050611f01846080601061286c565b83610220019061ffff16908161ffff1681525050611f22846090601061286c565b83610240019061ffff16908161ffff1681525050611f438460ce600661286c565b83610260019060ff16908160ff1681525050611f628460d4600661286c565b83610280019060ff16908160ff16815250506001611f838560da600161286c565b14836102a0019015159081151581525050611fa4836101c00151600161221a565b825f019015159081151581525050611fc2836101c00151600261221a565b826020019015159081151581525050611fe1836101c00151600361221a565b826040019015159081151581525050612000836101c00151600461221a565b82606001901515908115158152505061201f836101c00151600561221a565b82608001901515908115158152505061203e836101c00151600661221a565b8260a001901515908115158152505061205d836101c00151600761221a565b8260c001901515908115158152505061207c836101c00151600861221a565b8260e001901515908115158152505061209b836101c00151600961221a565b826101000190151590811515815250506120bb836101c00151600a61221a565b826101200190151590811515815250506120db836101c00151600f61221a565b826101400190151590811515815250506120fb836101c00151601061221a565b8261016001901515908115158152505061211b836101c00151601161221a565b8261018001901515908115158152505061213b836101c00151601261221a565b826101a001901515908115158152505061215b836101c00151600e61221a565b826101c001901515908115158152505061217f836101e00151846102a00151612892565b90509193909250565b80600281111561219b5761219a613e5c565b5b8260028111156121ae576121ad613e5c565b5b14612216578060028111156121c6576121c5613e5c565b5b8260028111156121d9576121d8613e5c565b5b6040517fa3c521a900000000000000000000000000000000000000000000000000000000815260040161220d9291906158e1565b60405180910390fd5b5050565b5f6001808360ff168563ffffffff16901c1663ffffffff1614905092915050565b5f6064821161224a578161224d565b60645b9050919050565b5f61ffff82116122645781612268565b61ffff5b9050919050565b612277613b94565b5f6122828484612b9b565b90505f612297612292835f612f57565b612f71565b90505f855f015180156122f457508560400151806122b6575085606001515b806122c2575085608001515b806122ce57508560a001515b806122da57508560c001515b806122e657508560e001515b806122f357508561010001515b5b90505f865f0151801561231657508661012001518061231557508661014001515b5b90505f600860ff16896040015160ff1661233091906157bc565b601960ff168a6020015160ff1661234791906157bc565b600860ff168d60ff1661235a91906157bc565b601960ff168f60ff1661236d91906157bc565b6123779190615908565b6123819190615908565b61238b9190615908565b905061239681612fb6565b90505f819050885f0151156123de576123db6064601e60ff168b6020015160ff166123c191906157bc565b6123cb919061582a565b826123d69190615908565b612fb6565b90505b83156123f2576123ef816019612fcf565b90505b821561240657612403816028612fcf565b90505b885f0151801561241857508861016001515b1561242b57612428816014612fcf565b90505b5f8b8061243957508a606001515b9050801561244f5761244c826014612fcf565b91505b895f0151156126505761246e826124698b60c00151612fef565b612fcf565b9150612485826124808b5f0151612fef565b612fcf565b915061249d826124988b60200151612fef565b612fcf565b91506124ac8960200151613060565b88610140019060ff16908160ff16815250506124d5826124d08b6101a00151612fef565b612fcf565b91506124ee826124e98b6101c00151612fef565b612fcf565b91506124fd89604001516130c5565b88610120019060ff16908160ff1681525050612525826125208b60400151613107565b612fcf565b91506107d08960400151111561253a57600190505b61254d8960a001518a6102e00151613158565b886101a0019060ff16908160ff168152505061257b826125768b60a001518c6102e001516131b2565b612fcf565b9150886102e00151801561259d575069021e19e0c9bab24000008960a0015110155b156125a757600190505b5f6125b18a613210565b90506125bc81613275565b89610100019060ff16908160ff16815250506125e0836125db836132b9565b612fcf565b9250620151808111156125f257600191505b89610320015115612616576126138361260e8c60e001516132fd565b612fcf565b92505b6126338361262e8c61010001518d610320015161333c565b612fcf565b92508a6101c001511561264e5761264b836005612fcf565b92505b505b5f61265d8b8d8c85613377565b90508089610160019060ff16908160ff16815250505f8160ff1611156126a6576126a38361269e600860ff168460ff1661269791906157bc565b6028613559565b612fcf565b92505b5f8b5f015180156126b957508a61028001515b9050808a61018001901515908115158152505080156126d757600192505b6126e48b8d5f0151613571565b8a60e0019060ff16908160ff16815250505f83806126ff5750875b806127075750865b8061270f5750815b905061272361271d86613646565b8261365f565b8b5f0190600381111561273957612738613e5c565b5b9081600381111561274d5761274c613e5c565b5b815250508c5f015161275f575f61276e565b61276d8d602001515f61365f565b5b8b60200190600381111561278557612784613e5c565b5b9081600381111561279957612798613e5c565b5b815250506127a685613646565b8b6040019060ff16908160ff16815250506127c086613646565b8b6060019060ff16908160ff16815250508c5f01516127df575f6127e5565b8c602001515b8b6080019060ff16908160ff1681525050888b60a0019060ff16908160ff1681525050898b60c0019063ffffffff16908163ffffffff1681525050505050505050505050509695505050505050565b5f603f8260ff16116128465781612849565b603f5b9050919050565b5f60078260ff16116128625781612865565b60075b9050919050565b5f60018260ff166001901b6128819190615789565b8360ff1685901c1690509392505050565b61289a613a9f565b81815f0190151590811515815250506128b3835f61221a565b8160200190151590811515815250506128cd83600161221a565b8160400190151590811515815250506128e783600261221a565b81606001901515908115158152505061290183600361221a565b81608001901515908115158152505061291b83600461221a565b8160a001901515908115158152505061293583600561221a565b8160c001901515908115158152505061294f83600661221a565b8160e001901515908115158152505061296983600761221a565b8161010001901515908115158152505061298483600861221a565b8161012001901515908115158152505061299f83600961221a565b816101400190151590811515815250506129ba83600a61221a565b816101600190151590811515815250506129d583600b61221a565b816101800190151590811515815250506129f083600c61221a565b816101a0019015159081151581525050612a0b83600d61221a565b816101c0019015159081151581525050612a2683600e61221a565b816101e0019015159081151581525050612a4183600f61221a565b81610200019015159081151581525050612a5c83601061221a565b81610220019015159081151581525050612a7783601161221a565b81610240019015159081151581525050612a9283601261221a565b81610260019015159081151581525050612aad83601361221a565b81610280019015159081151581525050612ac883601461221a565b816102a0019015159081151581525050612ae383601561221a565b816102c0019015159081151581525050612afe83601661221a565b816102e0019015159081151581525050612b1983601761221a565b81610300019015159081151581525050612b3483601861221a565b81610320019015159081151581525050612b4f83601961221a565b81610340019015159081151581525050612b6a83601a61221a565b81610360019015159081151581525050612b8583601b61221a565b8161038001901515908115158152505092915050565b5f825f015115612bb8575f60ff16600163ffffffff16901b811790505b826040015115612bd657600160ff16600163ffffffff16901b811790505b826060015115612bf457600260ff16600163ffffffff16901b811790505b826080015115612c1257600360ff16600163ffffffff16901b811790505b8260a0015115612c3057600460ff16600163ffffffff16901b811790505b8260c0015115612c4e57600560ff16600163ffffffff16901b811790505b8260e0015115612c6c57600660ff16600163ffffffff16901b811790505b82610100015115612c8b57600760ff16600163ffffffff16901b811790505b82610120015115612caa57600860ff16600163ffffffff16901b811790505b82610140015115612cc957600960ff16600163ffffffff16901b811790505b82610160015115612ce857600a60ff16600163ffffffff16901b811790505b6101f483610220015161ffff161115612d0f57600b60ff16600163ffffffff16901b811790505b60c883610240015161ffff161115612d3557600c60ff16600163ffffffff16901b811790505b6101f483610260015161ffff161115612d5c57600d60ff16600163ffffffff16901b811790505b81610280015115612d7b57600e60ff16600163ffffffff16901b811790505b82610180015115612d9a57600f60ff16600163ffffffff16901b811790505b826101a0015115612db957601060ff16600163ffffffff16901b811790505b826101c0015115612dd857601160ff16600163ffffffff16901b811790505b826101e0015115612df757601260ff16600163ffffffff16901b811790505b606482604001511115612e1857601360ff16600163ffffffff16901b811790505b62015180612e2583613210565b1115612e3f57601460ff16600163ffffffff16901b811790505b816102e001518015612e5f575069021e19e0c9bab24000008260a0015110155b15612e7857601560ff16600163ffffffff16901b811790505b5f826101000151148015612e8e57508161032001515b15612ea757601660ff16600163ffffffff16901b811790505b825f01518015612eb957508161028001515b15612ed257601760ff16600163ffffffff16901b811790505b81610320015115612ef157601860ff16600163ffffffff16901b811790505b6103e882602001511115612f1357601960ff16600163ffffffff16901b811790505b82610140015180612f3857505f826102400151148015612f3757505f826102600151115b5b15612f5157601a60ff16600163ffffffff16901b811790505b92915050565b5f8160ff16600163ffffffff16901b198316905092915050565b5f5b5f8263ffffffff1614612fa457600180831663ffffffff1603612f9f578080612f9b90615885565b9150505b612f73565b60018263ffffffff16901c9150919050565b5f60648211612fc55781612fc8565b60645b9050919050565b5f612fe78260ff1684612fe29190615908565b612fb6565b905092915050565b5f5f8203612fff575f905061305b565b60c882101561301d5760026005613016919061593b565b905061305b565b6101f4821015613030576005905061305b565b6103e882101561304357600c905061305b565b610bb8821015613056576016905061305b565b602390505b919050565b5f5f8203613070575f90506130c0565b60c882101561308257600190506130c0565b6101f482101561309557600290506130c0565b6103e88210156130a857600390506130c0565b610bb88210156130bb57600490506130c0565b600590505b919050565b5f60648210156130d7575f9050613102565b6101f48210156130ea5760019050613102565b6107d08210156130fd5760029050613102565b600390505b919050565b5f5f8203613117575f9050613153565b6064821015613128575f9050613153565b6101f482101561313b5760089050613153565b6107d082101561314e5760149050613153565b602890505b919050565b5f81158061316557505f83145b15613172575f90506131ac565b68056bc75e2d6310000083101561318c57600190506131ac565b69021e19e0c9bab24000008310156131a757600290506131ac565b600390505b92915050565b5f816131c0575f905061320a565b5f83036131d057600a905061320a565b68056bc75e2d631000008310156131ea57600a905061320a565b69021e19e0c9bab2400000831015613205576019905061320a565b602890505b92915050565b5f8160600151905080826101200151111561322e5781610120015190505b8082610140015111156132445781610140015190505b80826102000151111561325a5781610200015190505b8082610220015111156132705781610220015190505b919050565b5f610e10821015613288575f90506132b4565b61384082101561329b57600190506132b4565b620151808210156132af57600290506132b4565b600390505b919050565b5f610e108210156132cc575f90506132f8565b6138408210156132df57600590506132f8565b620151808210156132f357600c90506132f8565b601990505b919050565b5f5f820361330d575f9050613337565b606482101561331f5760059050613337565b6101f482101561333257600f9050613337565b601e90505b919050565b5f811561334b575f9050613371565b5f830361335b5760149050613371565b606483101561336d57600a9050613371565b5f90505b92915050565b5f845f0151613388575f9050613551565b8460400151801561339c5750846101000151155b156133b05780806133ac90615885565b9150505b846080015180156133c257508460c001515b156133d65780806133d290615885565b9150505b826102e0015180156133f5575068056bc75e2d631000008360a0015110155b1561340957808061340590615885565b9150505b826102800151801561342a57508461012001518061342957508461014001515b5b1561343e57808061343a90615885565b9150505b61344c845f0151601161221a565b80156134555750815b1561346957808061346590615885565b9150505b82610320015180156134855750613484845f0151601761221a565b5b1561349957808061349590615885565b9150505b846101a0015180156134ad5750846101e001515b156134c15780806134bd90615885565b9150505b84610100015180156134d457508460a001515b156134e85780806134e490615885565b9150505b6101f483604001511180156134ff57508461012001515b1561351357808061350f90615885565b9150505b6103e8836020015111801561352b5750826102800151155b1561353f57808061353b90615885565b9150505b60078160ff16111561355057600790505b5b949350505050565b5f8183106135675781613569565b825b905092915050565b5f8161357f575f9050613640565b5f835f01519050808460200151111561359a57836020015190505b808460c0015111156135ae578360c0015190505b80846101a0015111156135c457836101a0015190505b80846101c0015111156135da57836101c0015190505b5f6135e482613060565b9050846102800151156136145760068160ff1610613603576007613611565b60018161361091906158ad565b5b90505b6107d08560400151111561362757600790505b60078160ff1611613638578061363b565b60075b925050505b92915050565b5f60ff82116136555781613658565b60ff5b9050919050565b5f81806136735750604660ff168360ff1610155b1561368157600390506136b3565b602860ff168360ff161061369857600290506136b3565b601460ff168360ff16106136af57600190506136b3565b5f90505b92915050565b6040518060c001604052806136cc613911565b81526020016136d9613a1a565b81526020016136e6613a9f565b81526020016136f3613c3f565b81526020015f600581111561370b5761370a613e5c565b5b8152602001613718613c92565b81525090565b6040518061028001604052805f151581526020015f60ff1681526020015f151581526020015f151581526020015f151581526020015f151581526020015f151581526020015f151581526020015f151581526020015f151581526020015f151581526020015f151581526020015f151581526020015f151581526020015f151581526020015f151581526020015f151581526020015f61ffff1681526020015f61ffff1681526020015f61ffff1681525090565b6040518061034001604052805f81526020015f81526020015f81526020015f81526020015f81526020015f81526020015f81526020015f81526020015f81526020015f81526020015f81526020015f81526020015f81526020015f81526020015f81526020015f81526020015f81526020015f81526020015f81526020015f81526020015f151581526020015f151581526020015f151581526020015f151581526020015f151581526020015f151581525090565b6040518060a001604052805f63ffffffff1681526020015f60ff1681526020015f60ff1681526020015f151581526020015f151581525090565b6040518060e001604052805f63ffffffff1681526020015f63ffffffff1681526020015f60ff1681526020015f60ff1681526020015f60ff1681526020015f60ff1681526020015f151581525090565b604051806102c001604052805f60028111156139305761392f613e5c565b5b81526020015f60ff1681526020015f60ff1681526020015f600381111561395a57613959613e5c565b5b81526020015f600381111561397257613971613e5c565b5b81526020015f60ff1681526020015f60ff1681526020015f60ff1681526020015f60ff1681526020015f60ff1681526020015f60ff1681526020015f151581526020015f151581526020015f63ffffffff1681526020015f63ffffffff1681526020015f63ffffffff1681526020015f61ffff1681526020015f61ffff1681526020015f61ffff1681526020015f60ff1681526020015f60ff1681526020015f151581525090565b604051806101e001604052805f151581526020015f151581526020015f151581526020015f151581526020015f151581526020015f151581526020015f151581526020015f151581526020015f151581526020015f151581526020015f151581526020015f151581526020015f151581526020015f151581526020015f151581525090565b604051806103a001604052805f151581526020015f151581526020015f151581526020015f151581526020015f151581526020015f151581526020015f151581526020015f151581526020015f151581526020015f151581526020015f151581526020015f151581526020015f151581526020015f151581526020015f151581526020015f151581526020015f151581526020015f151581526020015f151581526020015f151581526020015f151581526020015f151581526020015f151581526020015f151581526020015f151581526020015f151581526020015f151581526020015f151581526020015f151581525090565b604051806101c001604052805f6003811115613bb357613bb2613e5c565b5b81526020015f6003811115613bcb57613bca613e5c565b5b81526020015f60ff1681526020015f60ff1681526020015f60ff1681526020015f60ff1681526020015f63ffffffff1681526020015f60ff1681526020015f60ff1681526020015f60ff1681526020015f60ff1681526020015f60ff1681526020015f151581526020015f60ff1681525090565b6040518061010001604052805f60ff1681526020015f60ff1681526020015f60ff1681526020015f60ff1681526020015f60ff1681526020015f151581526020015f60ff1681526020015f151581525090565b604051806101e001604052805f151581526020015f151581526020015f151581526020015f151581526020015f151581526020015f151581526020015f151581526020015f151581526020015f151581526020015f151581526020015f151581526020015f151581526020015f151581526020015f151581526020015f151581525090565b5f604051905090565b5f5ffd5b5f5ffd5b5f5ffd5b5f5ffd5b5f5ffd5b5f5f83601f840112613d4957613d48613d28565b5b8235905067ffffffffffffffff811115613d6657613d65613d2c565b5b602083019150836001820283011115613d8257613d81613d30565b5b9250929050565b5f5ffd5b5f6102008284031215613da357613da2613d89565b5b81905092915050565b60068110613db8575f5ffd5b50565b5f81359050613dc981613dac565b92915050565b5f5f5f5f60608587031215613de757613de6613d20565b5b5f85013567ffffffffffffffff811115613e0457613e03613d24565b5b613e1087828801613d34565b9450945050602085013567ffffffffffffffff811115613e3357613e32613d24565b5b613e3f87828801613d8d565b9250506040613e5087828801613dbb565b91505092959194509250565b7f4e487b71000000000000000000000000000000000000000000000000000000005f52602160045260245ffd5b60038110613e9a57613e99613e5c565b5b50565b5f819050613eaa82613e89565b919050565b5f613eb982613e9d565b9050919050565b613ec981613eaf565b82525050565b5f60ff82169050919050565b613ee481613ecf565b82525050565b60048110613efb57613efa613e5c565b5b50565b5f819050613f0b82613eea565b919050565b5f613f1a82613efe565b9050919050565b613f2a81613f10565b82525050565b5f8115159050919050565b613f4481613f30565b82525050565b5f63ffffffff82169050919050565b613f6281613f4a565b82525050565b5f61ffff82169050919050565b613f7e81613f68565b82525050565b6102c082015f820151613f995f850182613ec0565b506020820151613fac6020850182613edb565b506040820151613fbf6040850182613edb565b506060820151613fd26060850182613f21565b506080820151613fe56080850182613f21565b5060a0820151613ff860a0850182613edb565b5060c082015161400b60c0850182613edb565b5060e082015161401e60e0850182613edb565b50610100820151614033610100850182613edb565b50610120820151614048610120850182613edb565b5061014082015161405d610140850182613edb565b50610160820151614072610160850182613f3b565b50610180820151614087610180850182613f3b565b506101a082015161409c6101a0850182613f59565b506101c08201516140b16101c0850182613f59565b506101e08201516140c66101e0850182613f59565b506102008201516140db610200850182613f75565b506102208201516140f0610220850182613f75565b50610240820151614105610240850182613f75565b5061026082015161411a610260850182613edb565b5061028082015161412f610280850182613edb565b506102a08201516141446102a0850182613f3b565b50505050565b6101e082015f82015161415f5f850182613f3b565b5060208201516141726020850182613f3b565b5060408201516141856040850182613f3b565b5060608201516141986060850182613f3b565b5060808201516141ab6080850182613f3b565b5060a08201516141be60a0850182613f3b565b5060c08201516141d160c0850182613f3b565b5060e08201516141e460e0850182613f3b565b506101008201516141f9610100850182613f3b565b5061012082015161420e610120850182613f3b565b50610140820151614223610140850182613f3b565b50610160820151614238610160850182613f3b565b5061018082015161424d610180850182613f3b565b506101a08201516142626101a0850182613f3b565b506101c08201516142776101c0850182613f3b565b50505050565b6103a082015f8201516142925f850182613f3b565b5060208201516142a56020850182613f3b565b5060408201516142b86040850182613f3b565b5060608201516142cb6060850182613f3b565b5060808201516142de6080850182613f3b565b5060a08201516142f160a0850182613f3b565b5060c082015161430460c0850182613f3b565b5060e082015161431760e0850182613f3b565b5061010082015161432c610100850182613f3b565b50610120820151614341610120850182613f3b565b50610140820151614356610140850182613f3b565b5061016082015161436b610160850182613f3b565b50610180820151614380610180850182613f3b565b506101a08201516143956101a0850182613f3b565b506101c08201516143aa6101c0850182613f3b565b506101e08201516143bf6101e0850182613f3b565b506102008201516143d4610200850182613f3b565b506102208201516143e9610220850182613f3b565b506102408201516143fe610240850182613f3b565b50610260820151614413610260850182613f3b565b50610280820151614428610280850182613f3b565b506102a082015161443d6102a0850182613f3b565b506102c08201516144526102c0850182613f3b565b506102e08201516144676102e0850182613f3b565b5061030082015161447c610300850182613f3b565b50610320820151614491610320850182613f3b565b506103408201516144a6610340850182613f3b565b506103608201516144bb610360850182613f3b565b506103808201516144d0610380850182613f3b565b50505050565b61010082015f8201516144eb5f850182613edb565b5060208201516144fe6020850182613edb565b5060408201516145116040850182613edb565b5060608201516145246060850182613edb565b5060808201516145376080850182613edb565b5060a082015161454a60a0850182613f3b565b5060c082015161455d60c0850182613edb565b5060e082015161457060e0850182613f3b565b50505050565b6006811061458757614586613e5c565b5b50565b5f81905061459782614576565b919050565b5f6145a68261458a565b9050919050565b6145b68161459c565b82525050565b6101e082015f8201516145d15f850182613f3b565b5060208201516145e46020850182613f3b565b5060408201516145f76040850182613f3b565b50606082015161460a6060850182613f3b565b50608082015161461d6080850182613f3b565b5060a082015161463060a0850182613f3b565b5060c082015161464360c0850182613f3b565b5060e082015161465660e0850182613f3b565b5061010082015161466b610100850182613f3b565b50610120820151614680610120850182613f3b565b50610140820151614695610140850182613f3b565b506101608201516146aa610160850182613f3b565b506101808201516146bf610180850182613f3b565b506101a08201516146d46101a0850182613f3b565b506101c08201516146e96101c0850182613f3b565b50505050565b610b4082015f8201516147045f850182613f84565b5060208201516147186102c085018261414a565b50604082015161472c6104a085018261427d565b5060608201516147406108408501826144d6565b5060808201516147546109408501826145ad565b5060a08201516147686109608501826145bc565b50505050565b5f610b40820190506147825f8301846146ef565b92915050565b5f819050919050565b61479a81614788565b81146147a4575f5ffd5b50565b5f813590506147b581614791565b92915050565b5f602082840312156147d0576147cf613d20565b5b5f6147dd848285016147a7565b91505092915050565b6147ef81614788565b82525050565b5f6020820190506148085f8301846147e6565b92915050565b5f5f6020838503121561482457614823613d20565b5b5f83013567ffffffffffffffff81111561484157614840613d24565b5b61484d85828601613d34565b92509250509250929050565b61028082015f82015161486e5f850182613f3b565b5060208201516148816020850182613edb565b5060408201516148946040850182613f3b565b5060608201516148a76060850182613f3b565b5060808201516148ba6080850182613f3b565b5060a08201516148cd60a0850182613f3b565b5060c08201516148e060c0850182613f3b565b5060e08201516148f360e0850182613f3b565b50610100820151614908610100850182613f3b565b5061012082015161491d610120850182613f3b565b50610140820151614932610140850182613f3b565b50610160820151614947610160850182613f3b565b5061018082015161495c610180850182613f3b565b506101a08201516149716101a0850182613f3b565b506101c08201516149866101c0850182613f3b565b506101e082015161499b6101e0850182613f3b565b506102008201516149b0610200850182613f3b565b506102208201516149c5610220850182613f75565b506102408201516149da610240850182613f75565b506102608201516149ef610260850182613f75565b50505050565b6149fe81614788565b82525050565b61034082015f820151614a195f8501826149f5565b506020820151614a2c60208501826149f5565b506040820151614a3f60408501826149f5565b506060820151614a5260608501826149f5565b506080820151614a6560808501826149f5565b5060a0820151614a7860a08501826149f5565b5060c0820151614a8b60c08501826149f5565b5060e0820151614a9e60e08501826149f5565b50610100820151614ab36101008501826149f5565b50610120820151614ac86101208501826149f5565b50610140820151614add6101408501826149f5565b50610160820151614af26101608501826149f5565b50610180820151614b076101808501826149f5565b506101a0820151614b1c6101a08501826149f5565b506101c0820151614b316101c08501826149f5565b506101e0820151614b466101e08501826149f5565b50610200820151614b5b6102008501826149f5565b50610220820151614b706102208501826149f5565b50610240820151614b856102408501826149f5565b50610260820151614b9a6102608501826149f5565b50610280820151614baf610280850182613f3b565b506102a0820151614bc46102a0850182613f3b565b506102c0820151614bd96102c0850182613f3b565b506102e0820151614bee6102e0850182613f3b565b50610300820151614c03610300850182613f3b565b50610320820151614c18610320850182613f3b565b50505050565b5f6105c082019050614c325f830185614859565b614c40610280830184614a04565b9392505050565b5f60208284031215614c5c57614c5b613d20565b5b5f82013567ffffffffffffffff811115614c7957614c78613d24565b5b614c8584828501613d8d565b91505092915050565b614c9781613f4a565b82525050565b614ca681613ecf565b82525050565b614cb581613f30565b82525050565b5f60e082019050614cce5f83018a614c8e565b614cdb6020830189614c8e565b614ce86040830188614c9d565b614cf56060830187614c9d565b614d026080830186614cac565b614d0f60a0830185614c9d565b614d1c60c0830184614c9d565b98975050505050505050565b5f5ffd5b5f5ffd5b5f5ffd5b5f5f83356001602003843603038112614d5057614d4f614d28565b5b80840192508235915067ffffffffffffffff821115614d7257614d71614d2c565b5b60208301925061038082023603831315614d8f57614d8e614d30565b5b509250929050565b5f5ffd5b5f601f19601f8301169050919050565b7f4e487b71000000000000000000000000000000000000000000000000000000005f52604160045260245ffd5b614de182614d9b565b810181811067ffffffffffffffff82111715614e0057614dff614dab565b5b80604052505050565b5f614e12613d17565b9050614e1e8282614dd8565b919050565b5f5ffd5b614e3081613f30565b8114614e3a575f5ffd5b50565b5f81359050614e4b81614e27565b92915050565b5f6103808284031215614e6757614e66614d97565b5b614e72610380614e09565b90505f614e8184828501614e3d565b5f830152506020614e9484828501614e3d565b6020830152506040614ea884828501614e3d565b6040830152506060614ebc84828501614e3d565b6060830152506080614ed084828501614e3d565b60808301525060a0614ee484828501614e3d565b60a08301525060c0614ef884828501614e3d565b60c08301525060e0614f0c84828501614e3d565b60e083015250610100614f2184828501614e3d565b61010083015250610120614f3784828501614e3d565b61012083015250610140614f4d84828501614e3d565b61014083015250610160614f6384828501614e3d565b61016083015250610180614f7984828501614e3d565b610180830152506101a0614f8f84828501614e3d565b6101a0830152506101c0614fa584828501614e3d565b6101c0830152506101e0614fbb84828501614e3d565b6101e083015250610200614fd184828501614e3d565b61020083015250610220614fe784828501614e3d565b61022083015250610240614ffd84828501614e3d565b6102408301525061026061501384828501614e3d565b6102608301525061028061502984828501614e3d565b610280830152506102a061503f84828501614e3d565b6102a0830152506102c061505584828501614e3d565b6102c0830152506102e061506b84828501614e3d565b6102e08301525061030061508184828501614e3d565b6103008301525061032061509784828501614e3d565b610320830152506103406150ad84828501614e3d565b610340830152506103606150c384828501614e3d565b6103608301525092915050565b5f61038082840312156150e6576150e5613d20565b5b5f6150f384828501614e51565b91505092915050565b60038110615108575f5ffd5b50565b5f81359050615119816150fc565b92915050565b5f73ffffffffffffffffffffffffffffffffffffffff82169050919050565b5f6151488261511f565b9050919050565b6151588161513e565b8114615162575f5ffd5b50565b5f813590506151738161514f565b92915050565b5f67ffffffffffffffff82111561519357615192614dab565b5b602082029050602081019050919050565b5f6151b66151b184615179565b614e09565b905080838252602082019050602084028301858111156151d9576151d8613d30565b5b835b8181101561520257806151ee8882615165565b8452602084019350506020810190506151db565b5050509392505050565b5f82601f8301126152205761521f613d28565b5b81356152308482602086016151a4565b91505092915050565b5f610120828403121561524f5761524e614d97565b5b61525a610120614e09565b90505f61526984828501614e3d565b5f83015250602061527c84828501615165565b602083015250604061529084828501614e3d565b60408301525060606152a484828501614e3d565b606083015250608082013567ffffffffffffffff8111156152c8576152c7614e23565b5b6152d48482850161520c565b60808301525060a06152e884828501614e3d565b60a08301525060c06152fc84828501615165565b60c08301525060e061531084828501614e3d565b60e08301525061010061532584828501615165565b6101008301525092915050565b5f5ffd5b5f67ffffffffffffffff8211156153505761534f614dab565b5b61535982614d9b565b9050602081019050919050565b828183375f83830152505050565b5f61538661538184615336565b614e09565b9050828152602081018484840111156153a2576153a1615332565b5b6153ad848285615366565b509392505050565b5f82601f8301126153c9576153c8613d28565b5b81356153d9848260208601615374565b91505092915050565b5f61022082840312156153f8576153f7614d97565b5b615403610220614e09565b90505f61541284828501614e3d565b5f83015250602082013567ffffffffffffffff81111561543557615434614e23565b5b615441848285016153b5565b6020830152506040615455848285016147a7565b6040830152506060615469848285016147a7565b606083015250608061547d848285016147a7565b60808301525060a0615491848285016147a7565b60a08301525060c06154a5848285016147a7565b60c08301525060e06154b9848285016147a7565b60e0830152506101006154ce84828501614e3d565b610100830152506101206154e484828501614e3d565b610120830152506101406154fa848285016147a7565b61014083015250610160615510848285016147a7565b61016083015250610180615526848285016147a7565b610180830152506101a061553c84828501614e3d565b6101a0830152506101c061555284828501614e3d565b6101c0830152506101e0615568848285016147a7565b6101e08301525061020061557e848285016147a7565b6102008301525092915050565b5f61016082840312156155a1576155a0614d97565b5b6155ac610160614e09565b90505f6155bb84828501614e3d565b5f8301525060206155ce8482850161510b565b60208301525060406155e2848285016147a7565b60408301525060606155f684828501613dbb565b606083015250608082013567ffffffffffffffff81111561561a57615619614e23565b5b61562684828501615239565b60808301525060a082013567ffffffffffffffff81111561564a57615649614e23565b5b615656848285016153e2565b60a08301525060c061566a84828501614e3d565b60c08301525060e061567e84828501614e3d565b60e08301525061010061569384828501614e3d565b610100830152506101206156a9848285016147a7565b6101208301525061014082013567ffffffffffffffff8111156156cf576156ce614e23565b5b6156db848285016153b5565b6101408301525092915050565b5f602082840312156156fd576156fc613d20565b5b5f82013567ffffffffffffffff81111561571a57615719613d24565b5b6157268482850161558b565b91505092915050565b7f4e487b71000000000000000000000000000000000000000000000000000000005f52603260045260245ffd5b7f4e487b71000000000000000000000000000000000000000000000000000000005f52601160045260245ffd5b5f61579382614788565b915061579e83614788565b92508282039050818111156157b6576157b561575c565b5b92915050565b5f6157c682614788565b91506157d183614788565b92508282026157df81614788565b915082820484148315176157f6576157f561575c565b5b5092915050565b7f4e487b71000000000000000000000000000000000000000000000000000000005f52601260045260245ffd5b5f61583482614788565b915061583f83614788565b92508261584f5761584e6157fd565b5b828204905092915050565b5f6020828403121561586f5761586e613d20565b5b5f61587c84828501614e3d565b91505092915050565b5f61588f82613ecf565b915060ff82036158a2576158a161575c565b5b600182019050919050565b5f6158b782613ecf565b91506158c283613ecf565b9250828201905060ff8111156158db576158da61575c565b5b92915050565b5f6040820190506158f45f830185614c9d565b6159016020830184614c9d565b9392505050565b5f61591282614788565b915061591d83614788565b92508282019050808211156159355761593461575c565b5b92915050565b5f61594582613ecf565b915061595083613ecf565b9250826159605761595f6157fd565b5b82820490509291505056fea26469706673582212201c48693809bb0f6661632a08695847dd868f977316c70c979bcc67a2aa26992764736f6c634300081e0033","linkReferences":{}},"methodIdentifiers":{"decode(uint256)":"61a76900","decodeOffChain(bytes)":"a1d66d3c","evaluate(bytes,(bool,bool,bool,bool,bool,bool,bool,bool,bool,bool,bool,bool,bool,bool,bool,(bool,bool,bool,bool,bool,bool,bool,bool,bool,bool,bool,bool,bool,bool,bool,bool,bool,bool,bool,bool,bool,bool,bool,bool,bool,bool,bool,bool)[]),uint8)":"64ef2867","packOnChain((bool,bool,bool,bool,bool,bool,bool,bool,bool,bool,bool,bool,bool,bool,bool,(bool,bool,bool,bool,bool,bool,bool,bool,bool,bool,bool,bool,bool,bool,bool,bool,bool,bool,bool,bool,bool,bool,bool,bool,bool,bool,bool,bool)[]))":"e271f523","previewReport(bytes,(bool,bool,bool,bool,bool,bool,bool,bool,bool,bool,bool,bool,bool,bool,bool,(bool,bool,bool,bool,bool,bool,bool,bool,bool,bool,bool,bool,bool,bool,bool,bool,bool,bool,bool,bool,bool,bool,bool,bool,bool,bool,bool,bool)[]),uint8)":"433f7d5e"},"id":13}