{"abi":[{"type":"function","name":"decode","inputs":[{"name":"packedReport","type":"uint256","internalType":"uint256"}],"outputs":[{"name":"report","type":"tuple","internalType":"struct ERC4626DecodedRiskReport","components":[{"name":"core","type":"tuple","internalType":"struct PolicyCoreView","components":[{"name":"kind","type":"uint8","internalType":"enum PolicyKind"},{"name":"operation","type":"uint8","internalType":"uint8"},{"name":"version","type":"uint8","internalType":"uint8"},{"name":"finalCategory","type":"uint8","internalType":"enum PolicyRiskCategory"},{"name":"offChainCategory","type":"uint8","internalType":"enum PolicyRiskCategory"},{"name":"compositeScore","type":"uint8","internalType":"uint8"},{"name":"onChainScore","type":"uint8","internalType":"uint8"},{"name":"offChainScore","type":"uint8","internalType":"uint8"},{"name":"onChainCriticalCount","type":"uint8","internalType":"uint8"},{"name":"onChainWarningCount","type":"uint8","internalType":"uint8"},{"name":"offChainInfoCount","type":"uint8","internalType":"uint8"},{"name":"anyHardBlock","type":"bool","internalType":"bool"},{"name":"offChainValid","type":"bool","internalType":"bool"},{"name":"onChainFlagsPacked","type":"uint32","internalType":"uint32"},{"name":"offChainFlagsPacked","type":"uint32","internalType":"uint32"},{"name":"tokenFlagsPacked","type":"uint32","internalType":"uint32"},{"name":"priceImpactBps","type":"uint16","internalType":"uint16"},{"name":"outputDiscrepancyBps","type":"uint16","internalType":"uint16"},{"name":"ratioDeviationBps","type":"uint16","internalType":"uint16"},{"name":"tokenCriticalCount","type":"uint8","internalType":"uint8"},{"name":"tokenWarningCount","type":"uint8","internalType":"uint8"},{"name":"tokenRiskEvaluated","type":"bool","internalType":"bool"}]},{"name":"offChain","type":"tuple","internalType":"struct PolicyOffChainView","components":[{"name":"hasDangerousDelegateCall","type":"bool","internalType":"bool"},{"name":"hasSelfDestruct","type":"bool","internalType":"bool"},{"name":"hasApprovalDrain","type":"bool","internalType":"bool"},{"name":"hasOwnerSweep","type":"bool","internalType":"bool"},{"name":"hasReentrancy","type":"bool","internalType":"bool"},{"name":"hasUnexpectedCreate","type":"bool","internalType":"bool"},{"name":"hasUpgradeCall","type":"bool","internalType":"bool"},{"name":"isExitFrozen","type":"bool","internalType":"bool"},{"name":"isRemovalFrozen","type":"bool","internalType":"bool"},{"name":"isFirstDeposit","type":"bool","internalType":"bool"},{"name":"isFeeOnTransfer","type":"bool","internalType":"bool"},{"name":"anyOracleStale","type":"bool","internalType":"bool"},{"name":"anyContractUnverified","type":"bool","internalType":"bool"},{"name":"oracleDeviation","type":"bool","internalType":"bool"},{"name":"simulationReverted","type":"bool","internalType":"bool"}]},{"name":"tokenRisk","type":"tuple","internalType":"struct PolicyTokenFlagsView","components":[{"name":"evaluated","type":"bool","internalType":"bool"},{"name":"notAContract","type":"bool","internalType":"bool"},{"name":"emptyBytecode","type":"bool","internalType":"bool"},{"name":"decimalsRevert","type":"bool","internalType":"bool"},{"name":"weirdDecimals","type":"bool","internalType":"bool"},{"name":"highDecimals","type":"bool","internalType":"bool"},{"name":"totalSupplyRevert","type":"bool","internalType":"bool"},{"name":"zeroTotalSupply","type":"bool","internalType":"bool"},{"name":"veryLowTotalSupply","type":"bool","internalType":"bool"},{"name":"symbolRevert","type":"bool","internalType":"bool"},{"name":"nameRevert","type":"bool","internalType":"bool"},{"name":"isEip1967Proxy","type":"bool","internalType":"bool"},{"name":"isEip1822Proxy","type":"bool","internalType":"bool"},{"name":"isMinimalProxy","type":"bool","internalType":"bool"},{"name":"hasOwner","type":"bool","internalType":"bool"},{"name":"ownershipRenounced","type":"bool","internalType":"bool"},{"name":"ownerIsEoa","type":"bool","internalType":"bool"},{"name":"isPausable","type":"bool","internalType":"bool"},{"name":"isCurrentlyPaused","type":"bool","internalType":"bool"},{"name":"hasBlacklist","type":"bool","internalType":"bool"},{"name":"hasBlocklist","type":"bool","internalType":"bool"},{"name":"possibleFeeOnTransfer","type":"bool","internalType":"bool"},{"name":"hasTransferFeeGetter","type":"bool","internalType":"bool"},{"name":"hasTaxFunction","type":"bool","internalType":"bool"},{"name":"possibleRebasing","type":"bool","internalType":"bool"},{"name":"hasMintCapability","type":"bool","internalType":"bool"},{"name":"hasBurnCapability","type":"bool","internalType":"bool"},{"name":"hasPermit","type":"bool","internalType":"bool"},{"name":"hasFlashMint","type":"bool","internalType":"bool"}]},{"name":"enhancedView","type":"tuple","internalType":"struct EnhancedCoreView","components":[{"name":"economicSeverityTier","type":"uint8","internalType":"uint8"},{"name":"oracleAgeTier","type":"uint8","internalType":"uint8"},{"name":"excessPullTier","type":"uint8","internalType":"uint8"},{"name":"sharePriceDriftTier","type":"uint8","internalType":"uint8"},{"name":"compoundRiskCount","type":"uint8","internalType":"uint8"},{"name":"simulationRevertBlock","type":"bool","internalType":"bool"},{"name":"sweepSeverityTier","type":"uint8","internalType":"uint8"},{"name":"enhancedDataPresent","type":"bool","internalType":"bool"}]},{"name":"operation","type":"uint8","internalType":"enum VaultOpType"},{"name":"onChain","type":"tuple","internalType":"struct ERC4626OnChainView","components":[{"name":"vaultNotWhitelisted","type":"bool","internalType":"bool"},{"name":"vaultZeroSupply","type":"bool","internalType":"bool"},{"name":"donationAttack","type":"bool","internalType":"bool"},{"name":"shareInflationRisk","type":"bool","internalType":"bool"},{"name":"vaultBalanceMismatch","type":"bool","internalType":"bool"},{"name":"exchangeRateAnomaly","type":"bool","internalType":"bool"},{"name":"previewRevert","type":"bool","internalType":"bool"},{"name":"zeroSharesOut","type":"bool","internalType":"bool"},{"name":"zeroAssetsOut","type":"bool","internalType":"bool"},{"name":"dustShares","type":"bool","internalType":"bool"},{"name":"dustAssets","type":"bool","internalType":"bool"},{"name":"exceedsMaxDeposit","type":"bool","internalType":"bool"},{"name":"exceedsMaxRedeem","type":"bool","internalType":"bool"},{"name":"previewConvertMismatch","type":"bool","internalType":"bool"}]}]}],"stateMutability":"pure"},{"type":"function","name":"decodeOffChain","inputs":[{"name":"offChainData","type":"bytes","internalType":"bytes"}],"outputs":[{"name":"normalized","type":"tuple","internalType":"struct PolicyNormalizedOffChainResult","components":[{"name":"valid","type":"bool","internalType":"bool"},{"name":"riskScore","type":"uint8","internalType":"uint8"},{"name":"hasDangerousDelegateCall","type":"bool","internalType":"bool"},{"name":"hasSelfDestruct","type":"bool","internalType":"bool"},{"name":"hasApprovalDrain","type":"bool","internalType":"bool"},{"name":"hasOwnerSweep","type":"bool","internalType":"bool"},{"name":"hasReentrancy","type":"bool","internalType":"bool"},{"name":"hasUnexpectedCreate","type":"bool","internalType":"bool"},{"name":"hasUpgradeCall","type":"bool","internalType":"bool"},{"name":"isExitFrozen","type":"bool","internalType":"bool"},{"name":"isRemovalFrozen","type":"bool","internalType":"bool"},{"name":"isFirstDeposit","type":"bool","internalType":"bool"},{"name":"isFeeOnTransfer","type":"bool","internalType":"bool"},{"name":"anyOracleStale","type":"bool","internalType":"bool"},{"name":"anyContractUnverified","type":"bool","internalType":"bool"},{"name":"oracleDeviation","type":"bool","internalType":"bool"},{"name":"simulationReverted","type":"bool","internalType":"bool"},{"name":"priceImpactBps","type":"uint16","internalType":"uint16"},{"name":"outputDiscrepancyBps","type":"uint16","internalType":"uint16"},{"name":"ratioDeviationBps","type":"uint16","internalType":"uint16"}]},{"name":"economicData","type":"tuple","internalType":"struct ExtendedEconomicData","components":[{"name":"outputDiscrepancyBps","type":"uint256","internalType":"uint256"},{"name":"sharePriceDriftBps","type":"uint256","internalType":"uint256"},{"name":"excessPullBps","type":"uint256","internalType":"uint256"},{"name":"assetOracleAge","type":"uint256","internalType":"uint256"},{"name":"exitSimulatedOut","type":"uint256","internalType":"uint256"},{"name":"sweepAmountUSD","type":"uint256","internalType":"uint256"},{"name":"priceImpactBps","type":"uint256","internalType":"uint256"},{"name":"measuredFeePercent","type":"uint256","internalType":"uint256"},{"name":"inputHeadroomBps","type":"uint256","internalType":"uint256"},{"name":"tokenInOracleAge","type":"uint256","internalType":"uint256"},{"name":"tokenOutOracleAge","type":"uint256","internalType":"uint256"},{"name":"oracleFairAmountOut","type":"uint256","internalType":"uint256"},{"name":"actualAmountOut","type":"uint256","internalType":"uint256"},{"name":"lpMintDiscrepancyBps","type":"uint256","internalType":"uint256"},{"name":"ratioDeviationBps","type":"uint256","internalType":"uint256"},{"name":"excessValueLostUSD","type":"uint256","internalType":"uint256"},{"name":"tokenAOracleAge","type":"uint256","internalType":"uint256"},{"name":"tokenBOracleAge","type":"uint256","internalType":"uint256"},{"name":"removalSimAmountA","type":"uint256","internalType":"uint256"},{"name":"removalSimAmountB","type":"uint256","internalType":"uint256"},{"name":"simulationReverted","type":"bool","internalType":"bool"},{"name":"isExitFrozen","type":"bool","internalType":"bool"},{"name":"isRemovalFrozen","type":"bool","internalType":"bool"},{"name":"sweepDetected","type":"bool","internalType":"bool"},{"name":"upgradeCallDetected","type":"bool","internalType":"bool"},{"name":"feeOnTransferConfirmed","type":"bool","internalType":"bool"}]}],"stateMutability":"pure"},{"type":"function","name":"evaluate","inputs":[{"name":"offChainData","type":"bytes","internalType":"bytes"},{"name":"onChainData","type":"tuple","internalType":"struct VaultGuardResult","components":[{"name":"VAULT_NOT_WHITELISTED","type":"bool","internalType":"bool"},{"name":"VAULT_ZERO_SUPPLY","type":"bool","internalType":"bool"},{"name":"DONATION_ATTACK","type":"bool","internalType":"bool"},{"name":"SHARE_INFLATION_RISK","type":"bool","internalType":"bool"},{"name":"VAULT_BALANCE_MISMATCH","type":"bool","internalType":"bool"},{"name":"EXCHANGE_RATE_ANOMALY","type":"bool","internalType":"bool"},{"name":"PREVIEW_REVERT","type":"bool","internalType":"bool"},{"name":"ZERO_SHARES_OUT","type":"bool","internalType":"bool"},{"name":"ZERO_ASSETS_OUT","type":"bool","internalType":"bool"},{"name":"DUST_SHARES","type":"bool","internalType":"bool"},{"name":"DUST_ASSETS","type":"bool","internalType":"bool"},{"name":"EXCEEDS_MAX_DEPOSIT","type":"bool","internalType":"bool"},{"name":"EXCEEDS_MAX_REDEEM","type":"bool","internalType":"bool"},{"name":"PREVIEW_CONVERT_MISMATCH","type":"bool","internalType":"bool"},{"name":"tokenResult","type":"tuple","internalType":"struct TokenGuardResult","components":[{"name":"NOT_A_CONTRACT","type":"bool","internalType":"bool"},{"name":"EMPTY_BYTECODE","type":"bool","internalType":"bool"},{"name":"DECIMALS_REVERT","type":"bool","internalType":"bool"},{"name":"WEIRD_DECIMALS","type":"bool","internalType":"bool"},{"name":"HIGH_DECIMALS","type":"bool","internalType":"bool"},{"name":"TOTAL_SUPPLY_REVERT","type":"bool","internalType":"bool"},{"name":"ZERO_TOTAL_SUPPLY","type":"bool","internalType":"bool"},{"name":"VERY_LOW_TOTAL_SUPPLY","type":"bool","internalType":"bool"},{"name":"SYMBOL_REVERT","type":"bool","internalType":"bool"},{"name":"NAME_REVERT","type":"bool","internalType":"bool"},{"name":"IS_EIP1967_PROXY","type":"bool","internalType":"bool"},{"name":"IS_EIP1822_PROXY","type":"bool","internalType":"bool"},{"name":"IS_MINIMAL_PROXY","type":"bool","internalType":"bool"},{"name":"HAS_OWNER","type":"bool","internalType":"bool"},{"name":"OWNERSHIP_RENOUNCED","type":"bool","internalType":"bool"},{"name":"OWNER_IS_EOA","type":"bool","internalType":"bool"},{"name":"IS_PAUSABLE","type":"bool","internalType":"bool"},{"name":"IS_CURRENTLY_PAUSED","type":"bool","internalType":"bool"},{"name":"HAS_BLACKLIST","type":"bool","internalType":"bool"},{"name":"HAS_BLOCKLIST","type":"bool","internalType":"bool"},{"name":"POSSIBLE_FEE_ON_TRANSFER","type":"bool","internalType":"bool"},{"name":"HAS_TRANSFER_FEE_GETTER","type":"bool","internalType":"bool"},{"name":"HAS_TAX_FUNCTION","type":"bool","internalType":"bool"},{"name":"POSSIBLE_REBASING","type":"bool","internalType":"bool"},{"name":"HAS_MINT_CAPABILITY","type":"bool","internalType":"bool"},{"name":"HAS_BURN_CAPABILITY","type":"bool","internalType":"bool"},{"name":"HAS_PERMIT","type":"bool","internalType":"bool"},{"name":"HAS_FLASH_MINT","type":"bool","internalType":"bool"}]}]},{"name":"operation","type":"uint8","internalType":"enum VaultOpType"}],"outputs":[{"name":"packedReport","type":"uint256","internalType":"uint256"}],"stateMutability":"pure"},{"type":"function","name":"packOnChain","inputs":[{"name":"onChainData","type":"tuple","internalType":"struct VaultGuardResult","components":[{"name":"VAULT_NOT_WHITELISTED","type":"bool","internalType":"bool"},{"name":"VAULT_ZERO_SUPPLY","type":"bool","internalType":"bool"},{"name":"DONATION_ATTACK","type":"bool","internalType":"bool"},{"name":"SHARE_INFLATION_RISK","type":"bool","internalType":"bool"},{"name":"VAULT_BALANCE_MISMATCH","type":"bool","internalType":"bool"},{"name":"EXCHANGE_RATE_ANOMALY","type":"bool","internalType":"bool"},{"name":"PREVIEW_REVERT","type":"bool","internalType":"bool"},{"name":"ZERO_SHARES_OUT","type":"bool","internalType":"bool"},{"name":"ZERO_ASSETS_OUT","type":"bool","internalType":"bool"},{"name":"DUST_SHARES","type":"bool","internalType":"bool"},{"name":"DUST_ASSETS","type":"bool","internalType":"bool"},{"name":"EXCEEDS_MAX_DEPOSIT","type":"bool","internalType":"bool"},{"name":"EXCEEDS_MAX_REDEEM","type":"bool","internalType":"bool"},{"name":"PREVIEW_CONVERT_MISMATCH","type":"bool","internalType":"bool"},{"name":"tokenResult","type":"tuple","internalType":"struct TokenGuardResult","components":[{"name":"NOT_A_CONTRACT","type":"bool","internalType":"bool"},{"name":"EMPTY_BYTECODE","type":"bool","internalType":"bool"},{"name":"DECIMALS_REVERT","type":"bool","internalType":"bool"},{"name":"WEIRD_DECIMALS","type":"bool","internalType":"bool"},{"name":"HIGH_DECIMALS","type":"bool","internalType":"bool"},{"name":"TOTAL_SUPPLY_REVERT","type":"bool","internalType":"bool"},{"name":"ZERO_TOTAL_SUPPLY","type":"bool","internalType":"bool"},{"name":"VERY_LOW_TOTAL_SUPPLY","type":"bool","internalType":"bool"},{"name":"SYMBOL_REVERT","type":"bool","internalType":"bool"},{"name":"NAME_REVERT","type":"bool","internalType":"bool"},{"name":"IS_EIP1967_PROXY","type":"bool","internalType":"bool"},{"name":"IS_EIP1822_PROXY","type":"bool","internalType":"bool"},{"name":"IS_MINIMAL_PROXY","type":"bool","internalType":"bool"},{"name":"HAS_OWNER","type":"bool","internalType":"bool"},{"name":"OWNERSHIP_RENOUNCED","type":"bool","internalType":"bool"},{"name":"OWNER_IS_EOA","type":"bool","internalType":"bool"},{"name":"IS_PAUSABLE","type":"bool","internalType":"bool"},{"name":"IS_CURRENTLY_PAUSED","type":"bool","internalType":"bool"},{"name":"HAS_BLACKLIST","type":"bool","internalType":"bool"},{"name":"HAS_BLOCKLIST","type":"bool","internalType":"bool"},{"name":"POSSIBLE_FEE_ON_TRANSFER","type":"bool","internalType":"bool"},{"name":"HAS_TRANSFER_FEE_GETTER","type":"bool","internalType":"bool"},{"name":"HAS_TAX_FUNCTION","type":"bool","internalType":"bool"},{"name":"POSSIBLE_REBASING","type":"bool","internalType":"bool"},{"name":"HAS_MINT_CAPABILITY","type":"bool","internalType":"bool"},{"name":"HAS_BURN_CAPABILITY","type":"bool","internalType":"bool"},{"name":"HAS_PERMIT","type":"bool","internalType":"bool"},{"name":"HAS_FLASH_MINT","type":"bool","internalType":"bool"}]}]},{"name":"operation","type":"uint8","internalType":"enum VaultOpType"}],"outputs":[{"name":"packedFlags","type":"uint32","internalType":"uint32"},{"name":"packedTokenFlags","type":"uint32","internalType":"uint32"},{"name":"criticalCount","type":"uint8","internalType":"uint8"},{"name":"warningCount","type":"uint8","internalType":"uint8"},{"name":"anyHardBlock","type":"bool","internalType":"bool"},{"name":"tokenCriticalCount","type":"uint8","internalType":"uint8"},{"name":"tokenWarningCount","type":"uint8","internalType":"uint8"}],"stateMutability":"pure"},{"type":"function","name":"previewReport","inputs":[{"name":"offChainData","type":"bytes","internalType":"bytes"},{"name":"onChainData","type":"tuple","internalType":"struct VaultGuardResult","components":[{"name":"VAULT_NOT_WHITELISTED","type":"bool","internalType":"bool"},{"name":"VAULT_ZERO_SUPPLY","type":"bool","internalType":"bool"},{"name":"DONATION_ATTACK","type":"bool","internalType":"bool"},{"name":"SHARE_INFLATION_RISK","type":"bool","internalType":"bool"},{"name":"VAULT_BALANCE_MISMATCH","type":"bool","internalType":"bool"},{"name":"EXCHANGE_RATE_ANOMALY","type":"bool","internalType":"bool"},{"name":"PREVIEW_REVERT","type":"bool","internalType":"bool"},{"name":"ZERO_SHARES_OUT","type":"bool","internalType":"bool"},{"name":"ZERO_ASSETS_OUT","type":"bool","internalType":"bool"},{"name":"DUST_SHARES","type":"bool","internalType":"bool"},{"name":"DUST_ASSETS","type":"bool","internalType":"bool"},{"name":"EXCEEDS_MAX_DEPOSIT","type":"bool","internalType":"bool"},{"name":"EXCEEDS_MAX_REDEEM","type":"bool","internalType":"bool"},{"name":"PREVIEW_CONVERT_MISMATCH","type":"bool","internalType":"bool"},{"name":"tokenResult","type":"tuple","internalType":"struct TokenGuardResult","components":[{"name":"NOT_A_CONTRACT","type":"bool","internalType":"bool"},{"name":"EMPTY_BYTECODE","type":"bool","internalType":"bool"},{"name":"DECIMALS_REVERT","type":"bool","internalType":"bool"},{"name":"WEIRD_DECIMALS","type":"bool","internalType":"bool"},{"name":"HIGH_DECIMALS","type":"bool","internalType":"bool"},{"name":"TOTAL_SUPPLY_REVERT","type":"bool","internalType":"bool"},{"name":"ZERO_TOTAL_SUPPLY","type":"bool","internalType":"bool"},{"name":"VERY_LOW_TOTAL_SUPPLY","type":"bool","internalType":"bool"},{"name":"SYMBOL_REVERT","type":"bool","internalType":"bool"},{"name":"NAME_REVERT","type":"bool","internalType":"bool"},{"name":"IS_EIP1967_PROXY","type":"bool","internalType":"bool"},{"name":"IS_EIP1822_PROXY","type":"bool","internalType":"bool"},{"name":"IS_MINIMAL_PROXY","type":"bool","internalType":"bool"},{"name":"HAS_OWNER","type":"bool","internalType":"bool"},{"name":"OWNERSHIP_RENOUNCED","type":"bool","internalType":"bool"},{"name":"OWNER_IS_EOA","type":"bool","internalType":"bool"},{"name":"IS_PAUSABLE","type":"bool","internalType":"bool"},{"name":"IS_CURRENTLY_PAUSED","type":"bool","internalType":"bool"},{"name":"HAS_BLACKLIST","type":"bool","internalType":"bool"},{"name":"HAS_BLOCKLIST","type":"bool","internalType":"bool"},{"name":"POSSIBLE_FEE_ON_TRANSFER","type":"bool","internalType":"bool"},{"name":"HAS_TRANSFER_FEE_GETTER","type":"bool","internalType":"bool"},{"name":"HAS_TAX_FUNCTION","type":"bool","internalType":"bool"},{"name":"POSSIBLE_REBASING","type":"bool","internalType":"bool"},{"name":"HAS_MINT_CAPABILITY","type":"bool","internalType":"bool"},{"name":"HAS_BURN_CAPABILITY","type":"bool","internalType":"bool"},{"name":"HAS_PERMIT","type":"bool","internalType":"bool"},{"name":"HAS_FLASH_MINT","type":"bool","internalType":"bool"}]}]},{"name":"operation","type":"uint8","internalType":"enum VaultOpType"}],"outputs":[{"name":"report","type":"tuple","internalType":"struct ERC4626DecodedRiskReport","components":[{"name":"core","type":"tuple","internalType":"struct PolicyCoreView","components":[{"name":"kind","type":"uint8","internalType":"enum PolicyKind"},{"name":"operation","type":"uint8","internalType":"uint8"},{"name":"version","type":"uint8","internalType":"uint8"},{"name":"finalCategory","type":"uint8","internalType":"enum PolicyRiskCategory"},{"name":"offChainCategory","type":"uint8","internalType":"enum PolicyRiskCategory"},{"name":"compositeScore","type":"uint8","internalType":"uint8"},{"name":"onChainScore","type":"uint8","internalType":"uint8"},{"name":"offChainScore","type":"uint8","internalType":"uint8"},{"name":"onChainCriticalCount","type":"uint8","internalType":"uint8"},{"name":"onChainWarningCount","type":"uint8","internalType":"uint8"},{"name":"offChainInfoCount","type":"uint8","internalType":"uint8"},{"name":"anyHardBlock","type":"bool","internalType":"bool"},{"name":"offChainValid","type":"bool","internalType":"bool"},{"name":"onChainFlagsPacked","type":"uint32","internalType":"uint32"},{"name":"offChainFlagsPacked","type":"uint32","internalType":"uint32"},{"name":"tokenFlagsPacked","type":"uint32","internalType":"uint32"},{"name":"priceImpactBps","type":"uint16","internalType":"uint16"},{"name":"outputDiscrepancyBps","type":"uint16","internalType":"uint16"},{"name":"ratioDeviationBps","type":"uint16","internalType":"uint16"},{"name":"tokenCriticalCount","type":"uint8","internalType":"uint8"},{"name":"tokenWarningCount","type":"uint8","internalType":"uint8"},{"name":"tokenRiskEvaluated","type":"bool","internalType":"bool"}]},{"name":"offChain","type":"tuple","internalType":"struct PolicyOffChainView","components":[{"name":"hasDangerousDelegateCall","type":"bool","internalType":"bool"},{"name":"hasSelfDestruct","type":"bool","internalType":"bool"},{"name":"hasApprovalDrain","type":"bool","internalType":"bool"},{"name":"hasOwnerSweep","type":"bool","internalType":"bool"},{"name":"hasReentrancy","type":"bool","internalType":"bool"},{"name":"hasUnexpectedCreate","type":"bool","internalType":"bool"},{"name":"hasUpgradeCall","type":"bool","internalType":"bool"},{"name":"isExitFrozen","type":"bool","internalType":"bool"},{"name":"isRemovalFrozen","type":"bool","internalType":"bool"},{"name":"isFirstDeposit","type":"bool","internalType":"bool"},{"name":"isFeeOnTransfer","type":"bool","internalType":"bool"},{"name":"anyOracleStale","type":"bool","internalType":"bool"},{"name":"anyContractUnverified","type":"bool","internalType":"bool"},{"name":"oracleDeviation","type":"bool","internalType":"bool"},{"name":"simulationReverted","type":"bool","internalType":"bool"}]},{"name":"tokenRisk","type":"tuple","internalType":"struct PolicyTokenFlagsView","components":[{"name":"evaluated","type":"bool","internalType":"bool"},{"name":"notAContract","type":"bool","internalType":"bool"},{"name":"emptyBytecode","type":"bool","internalType":"bool"},{"name":"decimalsRevert","type":"bool","internalType":"bool"},{"name":"weirdDecimals","type":"bool","internalType":"bool"},{"name":"highDecimals","type":"bool","internalType":"bool"},{"name":"totalSupplyRevert","type":"bool","internalType":"bool"},{"name":"zeroTotalSupply","type":"bool","internalType":"bool"},{"name":"veryLowTotalSupply","type":"bool","internalType":"bool"},{"name":"symbolRevert","type":"bool","internalType":"bool"},{"name":"nameRevert","type":"bool","internalType":"bool"},{"name":"isEip1967Proxy","type":"bool","internalType":"bool"},{"name":"isEip1822Proxy","type":"bool","internalType":"bool"},{"name":"isMinimalProxy","type":"bool","internalType":"bool"},{"name":"hasOwner","type":"bool","internalType":"bool"},{"name":"ownershipRenounced","type":"bool","internalType":"bool"},{"name":"ownerIsEoa","type":"bool","internalType":"bool"},{"name":"isPausable","type":"bool","internalType":"bool"},{"name":"isCurrentlyPaused","type":"bool","internalType":"bool"},{"name":"hasBlacklist","type":"bool","internalType":"bool"},{"name":"hasBlocklist","type":"bool","internalType":"bool"},{"name":"possibleFeeOnTransfer","type":"bool","internalType":"bool"},{"name":"hasTransferFeeGetter","type":"bool","internalType":"bool"},{"name":"hasTaxFunction","type":"bool","internalType":"bool"},{"name":"possibleRebasing","type":"bool","internalType":"bool"},{"name":"hasMintCapability","type":"bool","internalType":"bool"},{"name":"hasBurnCapability","type":"bool","internalType":"bool"},{"name":"hasPermit","type":"bool","internalType":"bool"},{"name":"hasFlashMint","type":"bool","internalType":"bool"}]},{"name":"enhancedView","type":"tuple","internalType":"struct EnhancedCoreView","components":[{"name":"economicSeverityTier","type":"uint8","internalType":"uint8"},{"name":"oracleAgeTier","type":"uint8","internalType":"uint8"},{"name":"excessPullTier","type":"uint8","internalType":"uint8"},{"name":"sharePriceDriftTier","type":"uint8","internalType":"uint8"},{"name":"compoundRiskCount","type":"uint8","internalType":"uint8"},{"name":"simulationRevertBlock","type":"bool","internalType":"bool"},{"name":"sweepSeverityTier","type":"uint8","internalType":"uint8"},{"name":"enhancedDataPresent","type":"bool","internalType":"bool"}]},{"name":"operation","type":"uint8","internalType":"enum VaultOpType"},{"name":"onChain","type":"tuple","internalType":"struct ERC4626OnChainView","components":[{"name":"vaultNotWhitelisted","type":"bool","internalType":"bool"},{"name":"vaultZeroSupply","type":"bool","internalType":"bool"},{"name":"donationAttack","type":"bool","internalType":"bool"},{"name":"shareInflationRisk","type":"bool","internalType":"bool"},{"name":"vaultBalanceMismatch","type":"bool","internalType":"bool"},{"name":"exchangeRateAnomaly","type":"bool","internalType":"bool"},{"name":"previewRevert","type":"bool","internalType":"bool"},{"name":"zeroSharesOut","type":"bool","internalType":"bool"},{"name":"zeroAssetsOut","type":"bool","internalType":"bool"},{"name":"dustShares","type":"bool","internalType":"bool"},{"name":"dustAssets","type":"bool","internalType":"bool"},{"name":"exceedsMaxDeposit","type":"bool","internalType":"bool"},{"name":"exceedsMaxRedeem","type":"bool","internalType":"bool"},{"name":"previewConvertMismatch","type":"bool","internalType":"bool"}]}]}],"stateMutability":"pure"},{"type":"error","name":"InvalidPackedKind","inputs":[{"name":"expectedKind","type":"uint8","internalType":"uint8"},{"name":"actualKind","type":"uint8","internalType":"uint8"}]}],"bytecode":{"object":"0x6080604052348015600e575f5ffd5b50615b148061001c5f395ff3fe608060405234801561000f575f5ffd5b5060043610610055575f3560e01c806361a7690014610059578063a1d66d3c14610089578063a4af20f0146100ba578063a6ee8588146100ea578063f2b767881461011a575b5f5ffd5b610073600480360381019061006e9190613d6d565b610150565b6040516100809190614695565b60405180910390f35b6100a3600480360381019061009e9190614710565b610168565b6040516100b1929190614b20565b60405180910390f35b6100d460048036038101906100cf9190614b8f565b6101b4565b6040516100e19190614695565b60405180910390f35b61010460048036038101906100ff919061509c565b610207565b604051610111919061511e565b60405180910390f35b610134600480360381019061012f9190615137565b61022c565b60405161014797969594939291906151a4565b60405180910390f35b6101586136d3565b6101618261028b565b9050919050565b610170613738565b6101786137ec565b5f8484905003156101ad575f8484810190610193919061585b565b905061019e81610481565b92506101a981610696565b9150505b9250929050565b6101bc6136d3565b6101fd6101f88686868036038101906101d591906158a2565b866101f3896101c0018036038101906101ee91906158ce565b610809565b61082b565b61028b565b9050949350505050565b5f6102228585858561021d886101c00151610809565b61082b565b9050949350505050565b5f5f5f5f5f5f5f5f61024c8a8a6102478d6101c00151610809565b6108bf565b9050805f01518160200151826040015183606001518460c0015185608001518660a0015197509750975097509750975097505092959891949750929550565b6102936136d3565b5f5f5f61029f85610f6e565b9250925092506102b2835f01515f6114c4565b82845f01819052508184602001819052508084604001819052506102d585611556565b8460600181905250826020015160ff1660038111156102f7576102f6613d98565b5b8460800190600381111561030e5761030d613d98565b5b9081600381111561032257610321613d98565b5b81525050604051806101c00160405280610341856101a001515f611654565b15158152602001610358856101a001516001611654565b1515815260200161036f856101a001516002611654565b15158152602001610386856101a001516003611654565b1515815260200161039d856101a001516004611654565b151581526020016103b4856101a001516005611654565b151581526020016103cb856101a001516006611654565b151581526020016103e2856101a001516007611654565b151581526020016103f9856101a001516008611654565b15158152602001610410856101a001516009611654565b15158152602001610427856101a00151600a611654565b1515815260200161043e856101a00151600b611654565b15158152602001610455856101a00151600c611654565b1515815260200161046c856101a00151600d611654565b15158152508460a00181905250505050919050565b610489613738565b5f8261010001511415815f0190151590811515815250506104ad8260400151611675565b816020019060ff16908160ff168152505081608001515f01518160400190151590811515815250508160800151604001518160600190151590811515815250508160800151606001518160e0019015159081151581525050816080015160a00151816080019015159081151581525050816080015160e001518160c0019015159081151581525050816080015161012001518160a001901515908115158152505081608001516101800151816101000190151590811515815250508160a001516101000151816101200190151590811515815250505f816101400190151590811515815250505f816101600190151590811515815250505f816101800190151590811515815250508160a001516101c00151816101a00190151590811515815250508160c0015180156105e157508160e001515b15816101c00190151590811515815250506101f48260a0015160e0015111816101e00190151590811515815250508160a001515f0151816102000190151590811515815250505f81610220019061ffff16908161ffff16815250506106686106638360a00151608001518460a0015160e001518560a00151610180015161168e565b6116ba565b81610240019061ffff16908161ffff16815250505f81610260019061ffff16908161ffff1681525050919050565b61069e6137ec565b8160a0015160800151815f0181815250508160a0015160e001518160200181815250508160a0015161018001518160400181815250508160a001516101e001518160600181815250508160a00151610140015181608001818152505081608001516101200151816102e00190151590811515815250505f8260800151610140015111801561073457505f8260a001516101a00151115b61073e575f610770565b670de0b6b3a76400008260a001516101a00151836080015161014001516107659190615927565b61076f9190615995565b5b8160a001818152505081608001516101800151816103000190151590811515815250508160a001515f0151816102800190151590811515815250508160a001516101000151816102a0019015159081151581525050806102a001511580156107db57505f8160800151145b80156107ec57505f82610100015114155b15610804576001816102a00190151590811515815250505b919050565b6108116138a1565b61082461081d836116d5565b6001611a35565b9050919050565b5f610834613738565b61083c6137ec565b5f888890501115610871575f8888810190610857919061585b565b905061086281610481565b925061086d81610696565b9150505b5f61087d8787876108bf565b90506108b15f87600381111561089657610895613d98565b5b836040015184606001518560c00151865f01518b8a8a611f68565b935050505095945050505050565b6108c76138db565b5f5f60038111156108db576108da613d98565b5b8460038111156108ee576108ed613d98565b5b148061091e57506001600381111561090957610908613d98565b5b84600381111561091c5761091b613d98565b5b145b9050845f0151156109705781606001805180919061093b906159c5565b60ff1660ff16815250505f60ff16600163ffffffff16901b825f018181511791509063ffffffff16908163ffffffff16815250505b8460200151156109c25781606001805180919061098c906159c5565b60ff1660ff1681525050600160ff16600163ffffffff16901b825f018181511791509063ffffffff16908163ffffffff16815250505b846040015115610a25578160400180518091906109de906159c5565b60ff1660ff1681525050600260ff16600163ffffffff16901b825f018181511791509063ffffffff16908163ffffffff168152505060018260c00190151590811515815250505b846060015115610a7757816060018051809190610a41906159c5565b60ff1660ff1681525050600360ff16600163ffffffff16901b825f018181511791509063ffffffff16908163ffffffff16815250505b846080015115610ada57816040018051809190610a93906159c5565b60ff1660ff1681525050600460ff16600163ffffffff16901b825f018181511791509063ffffffff16908163ffffffff168152505060018260c00190151590811515815250505b8460a0015115610b2c57816060018051809190610af6906159c5565b60ff1660ff1681525050600560ff16600163ffffffff16901b825f018181511791509063ffffffff16908163ffffffff16815250505b8460c0015115610b8f57816040018051809190610b48906159c5565b60ff1660ff1681525050600660ff16600163ffffffff16901b825f018181511791509063ffffffff16908163ffffffff168152505060018260c00190151590811515815250505b8460e0015115610c1a57600760ff16600163ffffffff16901b825f018181511791509063ffffffff16908163ffffffff16815250508015610bfc57816040018051809190610bdc906159c5565b60ff1660ff168152505060018260c0019015159081151581525050610c19565b816060018051809190610c0e906159c5565b60ff1660ff16815250505b5b84610100015115610ca557600860ff16600163ffffffff16901b825f018181511791509063ffffffff16908163ffffffff168152505080610c8757816040018051809190610c67906159c5565b60ff1660ff168152505060018260c0019015159081151581525050610ca4565b816060018051809190610c99906159c5565b60ff1660ff16815250505b5b84610120015115610cf857816060018051809190610cc2906159c5565b60ff1660ff1681525050600960ff16600163ffffffff16901b825f018181511791509063ffffffff16908163ffffffff16815250505b84610140015115610d4b57816060018051809190610d15906159c5565b60ff1660ff1681525050600a60ff16600163ffffffff16901b825f018181511791509063ffffffff16908163ffffffff16815250505b84610160015115610dd757600b60ff16600163ffffffff16901b825f018181511791509063ffffffff16908163ffffffff16815250508015610db957816040018051809190610d99906159c5565b60ff1660ff168152505060018260c0019015159081151581525050610dd6565b816060018051809190610dcb906159c5565b60ff1660ff16815250505b5b84610180015115610e6257600c60ff16600163ffffffff16901b825f018181511791509063ffffffff16908163ffffffff168152505080610e4457816040018051809190610e24906159c5565b60ff1660ff168152505060018260c0019015159081151581525050610e61565b816060018051809190610e56906159c5565b60ff1660ff16815250505b5b846101a0015115610eb557816060018051809190610e7f906159c5565b60ff1660ff1681525050600d60ff16600163ffffffff16901b825f018181511791509063ffffffff16908163ffffffff16815250505b825f0151826020019063ffffffff16908163ffffffff16815250508260200151826080019060ff16908160ff168152505082604001518260a0019060ff16908160ff1681525050826020015182604001818151610f1291906159ed565b91509060ff16908160ff1681525050826040015182606001818151610f3791906159ed565b91509060ff16908160ff16815250508160c0015180610f57575082606001515b8260c0019015159081151581525050509392505050565b610f7661392b565b610f7e613a34565b610f86613ab9565b610f938460a46002612289565b6002811115610fa557610fa4613d98565b5b835f01906002811115610fbb57610fba613d98565b5b90816002811115610fcf57610fce613d98565b5b81525050610fe08460a06004612289565b836020019060ff16908160ff1681525050610ffe8460a66008612289565b836040019060ff16908160ff168152505061101c8460586002612289565b600381111561102e5761102d613d98565b5b8360600190600381111561104557611044613d98565b5b9081600381111561105957611058613d98565b5b8152505061106a84605a6002612289565b600381111561107c5761107b613d98565b5b8360800190600381111561109357611092613d98565b5b908160038111156110a7576110a6613d98565b5b815250506110b88460406008612289565b8360a0019060ff16908160ff16815250506110d68460486008612289565b8360c0019060ff16908160ff16815250506110f48460506008612289565b8360e0019060ff16908160ff168152505061111284605e6006612289565b83610100019060ff16908160ff16815250506111318460646006612289565b83610120019060ff16908160ff168152505061115084606a6006612289565b83610140019060ff16908160ff1681525050600161117185605c6001612289565b1483610160019015159081151581525050600161119185605d6001612289565b14836101800190151590811515815250506111ae845f6020612289565b836101a0019063ffffffff16908163ffffffff16815250506111d284602080612289565b836101c0019063ffffffff16908163ffffffff16815250506111f78460ae6020612289565b836101e0019063ffffffff16908163ffffffff168152505061121c8460706010612289565b83610200019061ffff16908161ffff168152505061123d8460806010612289565b83610220019061ffff16908161ffff168152505061125e8460906010612289565b83610240019061ffff16908161ffff168152505061127f8460ce6006612289565b83610260019060ff16908160ff168152505061129e8460d46006612289565b83610280019060ff16908160ff168152505060016112bf8560da6001612289565b14836102a00190151590811515815250506112e0836101c001516001611654565b825f0190151590811515815250506112fe836101c001516002611654565b82602001901515908115158152505061131d836101c001516003611654565b82604001901515908115158152505061133c836101c001516004611654565b82606001901515908115158152505061135b836101c001516005611654565b82608001901515908115158152505061137a836101c001516006611654565b8260a0019015159081151581525050611399836101c001516007611654565b8260c00190151590811515815250506113b8836101c001516008611654565b8260e00190151590811515815250506113d7836101c001516009611654565b826101000190151590811515815250506113f7836101c00151600a611654565b82610120019015159081151581525050611417836101c00151600f611654565b82610140019015159081151581525050611437836101c001516010611654565b82610160019015159081151581525050611457836101c001516011611654565b82610180019015159081151581525050611477836101c001516012611654565b826101a0019015159081151581525050611497836101c00151600e611654565b826101c00190151590811515815250506114bb836101e00151846102a001516122af565b90509193909250565b8060028111156114d7576114d6613d98565b5b8260028111156114ea576114e9613d98565b5b146115525780600281111561150257611501613d98565b5b82600281111561151557611514613d98565b5b6040517fa3c521a9000000000000000000000000000000000000000000000000000000008152600401611549929190615a21565b60405180910390fd5b5050565b61155e613bae565b61156b8260db6003612289565b815f019060ff16908160ff16815250506115888260de6003612289565b816020019060ff16908160ff16815250506115a68260e16003612289565b816040019060ff16908160ff16815250506115c48260e46003612289565b816060019060ff16908160ff16815250506115e28260e76003612289565b816080019060ff16908160ff168152505060016116028360ea6001612289565b148160a001901515908115158152505061161f8260eb6003612289565b8160c0019060ff16908160ff1681525050600161163f8360ee6001612289565b148160e0019015159081151581525050919050565b5f6001808360ff168563ffffffff16901c1663ffffffff1614905092915050565b5f606482116116845781611687565b60645b9050919050565b5f5f83851161169d578361169f565b845b90508281116116ae57826116b0565b805b9150509392505050565b5f61ffff82116116ca57816116ce565b61ffff5b9050919050565b5f815f0151156116f2575f60ff16600163ffffffff16901b811790505b81602001511561171057600160ff16600163ffffffff16901b811790505b81604001511561172e57600260ff16600163ffffffff16901b811790505b81606001511561174c57600360ff16600163ffffffff16901b811790505b81608001511561176a57600460ff16600163ffffffff16901b811790505b8160a001511561178857600560ff16600163ffffffff16901b811790505b8160c00151156117a657600660ff16600163ffffffff16901b811790505b8160e00151156117c457600760ff16600163ffffffff16901b811790505b816101000151156117e357600860ff16600163ffffffff16901b811790505b8161012001511561180257600960ff16600163ffffffff16901b811790505b8161014001511561182157600a60ff16600163ffffffff16901b811790505b8161016001511561184057600b60ff16600163ffffffff16901b811790505b8161018001511561185f57600c60ff16600163ffffffff16901b811790505b816101a001511561187e57600d60ff16600163ffffffff16901b811790505b816101c001511561189d57600e60ff16600163ffffffff16901b811790505b816101e00151156118bc57600f60ff16600163ffffffff16901b811790505b816102000151156118db57601060ff16600163ffffffff16901b811790505b816102200151156118fa57601160ff16600163ffffffff16901b811790505b8161024001511561191957601260ff16600163ffffffff16901b811790505b8161026001511561193857601360ff16600163ffffffff16901b811790505b8161028001511561195757601460ff16600163ffffffff16901b811790505b816102a001511561197657601560ff16600163ffffffff16901b811790505b816102c001511561199557601660ff16600163ffffffff16901b811790505b816102e00151156119b457601760ff16600163ffffffff16901b811790505b816103000151156119d357601860ff16600163ffffffff16901b811790505b816103200151156119f257601960ff16600163ffffffff16901b811790505b81610340015115611a1157601a60ff16600163ffffffff16901b811790505b81610360015115611a3057601b60ff16600163ffffffff16901b811790505b919050565b611a3d6138a1565b82815f019063ffffffff16908163ffffffff1681525050818160800190151590811515815250508115611f6257611a74835f611654565b15611aa757806020018051809190611a8b906159c5565b60ff1660ff168152505060018160600190151590811515815250505b611ab2836001611654565b15611ae557806020018051809190611ac9906159c5565b60ff1660ff168152505060018160600190151590811515815250505b611af0836004611654565b15611b2357806020018051809190611b07906159c5565b60ff1660ff168152505060018160600190151590811515815250505b611b2e836005611654565b15611b6157806020018051809190611b45906159c5565b60ff1660ff168152505060018160600190151590811515815250505b611b6c836006611654565b15611b9f57806020018051809190611b83906159c5565b60ff1660ff168152505060018160600190151590811515815250505b611baa836011611654565b15611bdd57806020018051809190611bc1906159c5565b60ff1660ff168152505060018160600190151590811515815250505b611be8836002611654565b15611c0a57806040018051809190611bff906159c5565b60ff1660ff16815250505b611c15836003611654565b15611c3757806040018051809190611c2c906159c5565b60ff1660ff16815250505b611c42836007611654565b15611c6457806040018051809190611c59906159c5565b60ff1660ff16815250505b611c6f836008611654565b15611c9157806040018051809190611c86906159c5565b60ff1660ff16815250505b611c9c836009611654565b15611cbe57806040018051809190611cb3906159c5565b60ff1660ff16815250505b611cc983600a611654565b15611ceb57806040018051809190611ce0906159c5565b60ff1660ff16815250505b611cf683600b611654565b15611d1857806040018051809190611d0d906159c5565b60ff1660ff16815250505b611d2383600c611654565b15611d4557806040018051809190611d3a906159c5565b60ff1660ff16815250505b611d5083600d611654565b15611d7257806040018051809190611d67906159c5565b60ff1660ff16815250505b611d7d83600f611654565b15611d9f57806040018051809190611d94906159c5565b60ff1660ff16815250505b611daa836010611654565b15611dcc57806040018051809190611dc1906159c5565b60ff1660ff16815250505b611dd7836012611654565b15611df957806040018051809190611dee906159c5565b60ff1660ff16815250505b611e04836013611654565b15611e2657806040018051809190611e1b906159c5565b60ff1660ff16815250505b611e31836014611654565b15611e5357806040018051809190611e48906159c5565b60ff1660ff16815250505b611e5e836015611654565b15611e8057806040018051809190611e75906159c5565b60ff1660ff16815250505b611e8b836016611654565b15611ead57806040018051809190611ea2906159c5565b60ff1660ff16815250505b611eb8836017611654565b15611eda57806040018051809190611ecf906159c5565b60ff1660ff16815250505b611ee5836018611654565b15611f0757806040018051809190611efc906159c5565b60ff1660ff16815250505b611f12836019611654565b15611f3457806040018051809190611f29906159c5565b60ff1660ff16815250505b611f3f83601b611654565b15611f6157806040018051809190611f56906159c5565b60ff1660ff16815250505b5b92915050565b5f5f611f788989898888886125b8565b90508563ffffffff169150602060ff168160c0015163ffffffff16901b82179150604060ff16816040015160ff16901b82179150604860ff16816060015160ff16901b82179150605060ff16816080015160ff16901b82179150605860ff16815f01516003811115611fed57611fec613d98565b5b60ff16901b82179150605a60ff168160200151600381111561201257612011613d98565b5b60ff16901b82179150605e60ff166120298a612b7d565b60ff16901b82179150606460ff1661204089612b7d565b60ff16901b82179150606a60ff1661205b8260a00151612b7d565b60ff16901b82179150607060ff1661207b85610220015161ffff166116ba565b61ffff16901b82179150608060ff1661209c85610240015161ffff166116ba565b61ffff16901b82179150609060ff166120bd85610260015161ffff166116ba565b61ffff16901b8217915060a060ff168a60ff16901b8217915060a460ff168b60028111156120ee576120ed613d98565b5b60ff16901b8217915060a660ff16600160ff16901b8217915060ae60ff16855f015163ffffffff16901b8217915060ce60ff1661212e8660200151612b7d565b60ff16901b8217915060d460ff166121498660400151612b7d565b60ff16901b82179150868061215f575084606001515b8061216c57508061018001515b1561217f57605c60ff166001901b821791505b835f01511561219657605d60ff166001901b821791505b8460800151156121ae5760da60ff166001901b821791505b60db60ff166121c08260e00151612b99565b60ff16901b8217915060de60ff166121dc826101000151612b99565b60ff16901b8217915060e160ff166121f8826101200151612b99565b60ff16901b8217915060e460ff16612214826101400151612b99565b60ff16901b8217915060e760ff16612230826101600151612b99565b60ff16901b8217915060eb60ff1661224c826101a00151612b99565b60ff16901b821791508061018001511561226e5760ea60ff166001901b821791505b60ee60ff166001901b82179150509998505050505050505050565b5f60018260ff166001901b61229e9190615a48565b8360ff1685901c1690509392505050565b6122b7613ab9565b81815f0190151590811515815250506122d0835f611654565b8160200190151590811515815250506122ea836001611654565b816040019015159081151581525050612304836002611654565b81606001901515908115158152505061231e836003611654565b816080019015159081151581525050612338836004611654565b8160a0019015159081151581525050612352836005611654565b8160c001901515908115158152505061236c836006611654565b8160e0019015159081151581525050612386836007611654565b816101000190151590811515815250506123a1836008611654565b816101200190151590811515815250506123bc836009611654565b816101400190151590811515815250506123d783600a611654565b816101600190151590811515815250506123f283600b611654565b8161018001901515908115158152505061240d83600c611654565b816101a001901515908115158152505061242883600d611654565b816101c001901515908115158152505061244383600e611654565b816101e001901515908115158152505061245e83600f611654565b81610200019015159081151581525050612479836010611654565b81610220019015159081151581525050612494836011611654565b816102400190151590811515815250506124af836012611654565b816102600190151590811515815250506124ca836013611654565b816102800190151590811515815250506124e5836014611654565b816102a0019015159081151581525050612500836015611654565b816102c001901515908115158152505061251b836016611654565b816102e0019015159081151581525050612536836017611654565b81610300019015159081151581525050612551836018611654565b8161032001901515908115158152505061256c836019611654565b8161034001901515908115158152505061258783601a611654565b816103600190151590811515815250506125a283601b611654565b8161038001901515908115158152505092915050565b6125c0613c01565b5f6125cb8484612bb5565b90505f6125e06125db835f612f71565b612f8b565b90505f855f0151801561263d57508560400151806125ff575085606001515b8061260b575085608001515b8061261757508560a001515b8061262357508560c001515b8061262f57508560e001515b8061263c57508561010001515b5b90505f865f0151801561265f57508661012001518061265e57508661014001515b5b90505f600860ff16896040015160ff166126799190615927565b601960ff168a6020015160ff166126909190615927565b600860ff168d60ff166126a39190615927565b601960ff168f60ff166126b69190615927565b6126c09190615a7b565b6126ca9190615a7b565b6126d49190615a7b565b90506126df81612fd0565b90505f819050885f015115612727576127246064601e60ff168b6020015160ff1661270a9190615927565b6127149190615995565b8261271f9190615a7b565b612fd0565b90505b831561273b57612738816019612fe9565b90505b821561274f5761274c816028612fe9565b90505b885f0151801561276157508861016001515b1561277457612771816014612fe9565b90505b5f8b8061278257508a606001515b9050801561279857612795826014612fe9565b91505b895f015115612999576127b7826127b28b60c00151613009565b612fe9565b91506127ce826127c98b5f0151613009565b612fe9565b91506127e6826127e18b60200151613009565b612fe9565b91506127f5896020015161307a565b88610140019060ff16908160ff168152505061281e826128198b6101a00151613009565b612fe9565b9150612837826128328b6101c00151613009565b612fe9565b915061284689604001516130df565b88610120019060ff16908160ff168152505061286e826128698b60400151613121565b612fe9565b91506107d08960400151111561288357600190505b6128968960a001518a6102e00151613172565b886101a0019060ff16908160ff16815250506128c4826128bf8b60a001518c6102e001516131cc565b612fe9565b9150886102e0015180156128e6575069021e19e0c9bab24000008960a0015110155b156128f057600190505b5f6128fa8a61322a565b90506129058161328f565b89610100019060ff16908160ff168152505061292983612924836132d3565b612fe9565b92506201518081111561293b57600191505b8961032001511561295f5761295c836129578c60e00151613317565b612fe9565b92505b61297c836129778c61010001518d6103200151613356565b612fe9565b92508a6101c001511561299757612994836005612fe9565b92505b505b5f6129a68b8d8c85613391565b90508089610160019060ff16908160ff16815250505f8160ff1611156129ef576129ec836129e7600860ff168460ff166129e09190615927565b6028613573565b612fe9565b92505b5f8b5f01518015612a0257508a61028001515b9050808a6101800190151590811515815250508015612a2057600192505b612a2d8b8d5f015161358b565b8a60e0019060ff16908160ff16815250505f8380612a485750875b80612a505750865b80612a585750815b9050612a6c612a6686613660565b82613679565b8b5f01906003811115612a8257612a81613d98565b5b90816003811115612a9657612a95613d98565b5b815250508c5f0151612aa8575f612ab7565b612ab68d602001515f613679565b5b8b602001906003811115612ace57612acd613d98565b5b90816003811115612ae257612ae1613d98565b5b81525050612aef85613660565b8b6040019060ff16908160ff1681525050612b0986613660565b8b6060019060ff16908160ff16815250508c5f0151612b28575f612b2e565b8c602001515b8b6080019060ff16908160ff1681525050888b60a0019060ff16908160ff1681525050898b60c0019063ffffffff16908163ffffffff1681525050505050505050505050509695505050505050565b5f603f8260ff1611612b8f5781612b92565b603f5b9050919050565b5f60078260ff1611612bab5781612bae565b60075b9050919050565b5f825f015115612bd2575f60ff16600163ffffffff16901b811790505b826040015115612bf057600160ff16600163ffffffff16901b811790505b826060015115612c0e57600260ff16600163ffffffff16901b811790505b826080015115612c2c57600360ff16600163ffffffff16901b811790505b8260a0015115612c4a57600460ff16600163ffffffff16901b811790505b8260c0015115612c6857600560ff16600163ffffffff16901b811790505b8260e0015115612c8657600660ff16600163ffffffff16901b811790505b82610100015115612ca557600760ff16600163ffffffff16901b811790505b82610120015115612cc457600860ff16600163ffffffff16901b811790505b82610140015115612ce357600960ff16600163ffffffff16901b811790505b82610160015115612d0257600a60ff16600163ffffffff16901b811790505b6101f483610220015161ffff161115612d2957600b60ff16600163ffffffff16901b811790505b60c883610240015161ffff161115612d4f57600c60ff16600163ffffffff16901b811790505b6101f483610260015161ffff161115612d7657600d60ff16600163ffffffff16901b811790505b81610280015115612d9557600e60ff16600163ffffffff16901b811790505b82610180015115612db457600f60ff16600163ffffffff16901b811790505b826101a0015115612dd357601060ff16600163ffffffff16901b811790505b826101c0015115612df257601160ff16600163ffffffff16901b811790505b826101e0015115612e1157601260ff16600163ffffffff16901b811790505b606482604001511115612e3257601360ff16600163ffffffff16901b811790505b62015180612e3f8361322a565b1115612e5957601460ff16600163ffffffff16901b811790505b816102e001518015612e79575069021e19e0c9bab24000008260a0015110155b15612e9257601560ff16600163ffffffff16901b811790505b5f826101000151148015612ea857508161032001515b15612ec157601660ff16600163ffffffff16901b811790505b825f01518015612ed357508161028001515b15612eec57601760ff16600163ffffffff16901b811790505b81610320015115612f0b57601860ff16600163ffffffff16901b811790505b6103e882602001511115612f2d57601960ff16600163ffffffff16901b811790505b82610140015180612f5257505f826102400151148015612f5157505f826102600151115b5b15612f6b57601a60ff16600163ffffffff16901b811790505b92915050565b5f8160ff16600163ffffffff16901b198316905092915050565b5f5b5f8263ffffffff1614612fbe57600180831663ffffffff1603612fb9578080612fb5906159c5565b9150505b612f8d565b60018263ffffffff16901c9150919050565b5f60648211612fdf5781612fe2565b60645b9050919050565b5f6130018260ff1684612ffc9190615a7b565b612fd0565b905092915050565b5f5f8203613019575f9050613075565b60c882101561303757600260056130309190615aae565b9050613075565b6101f482101561304a5760059050613075565b6103e882101561305d57600c9050613075565b610bb88210156130705760169050613075565b602390505b919050565b5f5f820361308a575f90506130da565b60c882101561309c57600190506130da565b6101f48210156130af57600290506130da565b6103e88210156130c257600390506130da565b610bb88210156130d557600490506130da565b600590505b919050565b5f60648210156130f1575f905061311c565b6101f4821015613104576001905061311c565b6107d0821015613117576002905061311c565b600390505b919050565b5f5f8203613131575f905061316d565b6064821015613142575f905061316d565b6101f4821015613155576008905061316d565b6107d0821015613168576014905061316d565b602890505b919050565b5f81158061317f57505f83145b1561318c575f90506131c6565b68056bc75e2d631000008310156131a657600190506131c6565b69021e19e0c9bab24000008310156131c157600290506131c6565b600390505b92915050565b5f816131da575f9050613224565b5f83036131ea57600a9050613224565b68056bc75e2d6310000083101561320457600a9050613224565b69021e19e0c9bab240000083101561321f5760199050613224565b602890505b92915050565b5f816060015190508082610120015111156132485781610120015190505b80826101400151111561325e5781610140015190505b8082610200015111156132745781610200015190505b80826102200151111561328a5781610220015190505b919050565b5f610e108210156132a2575f90506132ce565b6138408210156132b557600190506132ce565b620151808210156132c957600290506132ce565b600390505b919050565b5f610e108210156132e6575f9050613312565b6138408210156132f95760059050613312565b6201518082101561330d57600c9050613312565b601990505b919050565b5f5f8203613327575f9050613351565b60648210156133395760059050613351565b6101f482101561334c57600f9050613351565b601e90505b919050565b5f8115613365575f905061338b565b5f8303613375576014905061338b565b606483101561338757600a905061338b565b5f90505b92915050565b5f845f01516133a2575f905061356b565b846040015180156133b65750846101000151155b156133ca5780806133c6906159c5565b9150505b846080015180156133dc57508460c001515b156133f05780806133ec906159c5565b9150505b826102e00151801561340f575068056bc75e2d631000008360a0015110155b1561342357808061341f906159c5565b9150505b826102800151801561344457508461012001518061344357508461014001515b5b15613458578080613454906159c5565b9150505b613466845f01516011611654565b801561346f5750815b1561348357808061347f906159c5565b9150505b826103200151801561349f575061349e845f01516017611654565b5b156134b35780806134af906159c5565b9150505b846101a0015180156134c75750846101e001515b156134db5780806134d7906159c5565b9150505b84610100015180156134ee57508460a001515b156135025780806134fe906159c5565b9150505b6101f4836040015111801561351957508461012001515b1561352d578080613529906159c5565b9150505b6103e883602001511180156135455750826102800151155b15613559578080613555906159c5565b9150505b60078160ff16111561356a57600790505b5b949350505050565b5f8183106135815781613583565b825b905092915050565b5f81613599575f905061365a565b5f835f0151905080846020015111156135b457836020015190505b808460c0015111156135c8578360c0015190505b80846101a0015111156135de57836101a0015190505b80846101c0015111156135f457836101c0015190505b5f6135fe8261307a565b90508461028001511561362e5760068160ff161061361d57600761362b565b60018161362a91906159ed565b5b90505b6107d08560400151111561364157600790505b60078160ff16116136525780613655565b60075b925050505b92915050565b5f60ff821161366f5781613672565b60ff5b9050919050565b5f818061368d5750604660ff168360ff1610155b1561369b57600390506136cd565b602860ff168360ff16106136b257600290506136cd565b601460ff168360ff16106136c957600190506136cd565b5f90505b92915050565b6040518060c001604052806136e661392b565b81526020016136f3613a34565b8152602001613700613ab9565b815260200161370d613bae565b81526020015f600381111561372557613724613d98565b5b8152602001613732613cac565b81525090565b6040518061028001604052805f151581526020015f60ff1681526020015f151581526020015f151581526020015f151581526020015f151581526020015f151581526020015f151581526020015f151581526020015f151581526020015f151581526020015f151581526020015f151581526020015f151581526020015f151581526020015f151581526020015f151581526020015f61ffff1681526020015f61ffff1681526020015f61ffff1681525090565b6040518061034001604052805f81526020015f81526020015f81526020015f81526020015f81526020015f81526020015f81526020015f81526020015f81526020015f81526020015f81526020015f81526020015f81526020015f81526020015f81526020015f81526020015f81526020015f81526020015f81526020015f81526020015f151581526020015f151581526020015f151581526020015f151581526020015f151581526020015f151581525090565b6040518060a001604052805f63ffffffff1681526020015f60ff1681526020015f60ff1681526020015f151581526020015f151581525090565b6040518060e001604052805f63ffffffff1681526020015f63ffffffff1681526020015f60ff1681526020015f60ff1681526020015f60ff1681526020015f60ff1681526020015f151581525090565b604051806102c001604052805f600281111561394a57613949613d98565b5b81526020015f60ff1681526020015f60ff1681526020015f600381111561397457613973613d98565b5b81526020015f600381111561398c5761398b613d98565b5b81526020015f60ff1681526020015f60ff1681526020015f60ff1681526020015f60ff1681526020015f60ff1681526020015f60ff1681526020015f151581526020015f151581526020015f63ffffffff1681526020015f63ffffffff1681526020015f63ffffffff1681526020015f61ffff1681526020015f61ffff1681526020015f61ffff1681526020015f60ff1681526020015f60ff1681526020015f151581525090565b604051806101e001604052805f151581526020015f151581526020015f151581526020015f151581526020015f151581526020015f151581526020015f151581526020015f151581526020015f151581526020015f151581526020015f151581526020015f151581526020015f151581526020015f151581526020015f151581525090565b604051806103a001604052805f151581526020015f151581526020015f151581526020015f151581526020015f151581526020015f151581526020015f151581526020015f151581526020015f151581526020015f151581526020015f151581526020015f151581526020015f151581526020015f151581526020015f151581526020015f151581526020015f151581526020015f151581526020015f151581526020015f151581526020015f151581526020015f151581526020015f151581526020015f151581526020015f151581526020015f151581526020015f151581526020015f151581526020015f151581525090565b6040518061010001604052805f60ff1681526020015f60ff1681526020015f60ff1681526020015f60ff1681526020015f60ff1681526020015f151581526020015f60ff1681526020015f151581525090565b604051806101c001604052805f6003811115613c2057613c1f613d98565b5b81526020015f6003811115613c3857613c37613d98565b5b81526020015f60ff1681526020015f60ff1681526020015f60ff1681526020015f60ff1681526020015f63ffffffff1681526020015f60ff1681526020015f60ff1681526020015f60ff1681526020015f60ff1681526020015f60ff1681526020015f151581526020015f60ff1681525090565b604051806101c001604052805f151581526020015f151581526020015f151581526020015f151581526020015f151581526020015f151581526020015f151581526020015f151581526020015f151581526020015f151581526020015f151581526020015f151581526020015f151581526020015f151581525090565b5f604051905090565b5f5ffd5b5f5ffd5b5f819050919050565b613d4c81613d3a565b8114613d56575f5ffd5b50565b5f81359050613d6781613d43565b92915050565b5f60208284031215613d8257613d81613d32565b5b5f613d8f84828501613d59565b91505092915050565b7f4e487b71000000000000000000000000000000000000000000000000000000005f52602160045260245ffd5b60038110613dd657613dd5613d98565b5b50565b5f819050613de682613dc5565b919050565b5f613df582613dd9565b9050919050565b613e0581613deb565b82525050565b5f60ff82169050919050565b613e2081613e0b565b82525050565b60048110613e3757613e36613d98565b5b50565b5f819050613e4782613e26565b919050565b5f613e5682613e3a565b9050919050565b613e6681613e4c565b82525050565b5f8115159050919050565b613e8081613e6c565b82525050565b5f63ffffffff82169050919050565b613e9e81613e86565b82525050565b5f61ffff82169050919050565b613eba81613ea4565b82525050565b6102c082015f820151613ed55f850182613dfc565b506020820151613ee86020850182613e17565b506040820151613efb6040850182613e17565b506060820151613f0e6060850182613e5d565b506080820151613f216080850182613e5d565b5060a0820151613f3460a0850182613e17565b5060c0820151613f4760c0850182613e17565b5060e0820151613f5a60e0850182613e17565b50610100820151613f6f610100850182613e17565b50610120820151613f84610120850182613e17565b50610140820151613f99610140850182613e17565b50610160820151613fae610160850182613e77565b50610180820151613fc3610180850182613e77565b506101a0820151613fd86101a0850182613e95565b506101c0820151613fed6101c0850182613e95565b506101e08201516140026101e0850182613e95565b50610200820151614017610200850182613eb1565b5061022082015161402c610220850182613eb1565b50610240820151614041610240850182613eb1565b50610260820151614056610260850182613e17565b5061028082015161406b610280850182613e17565b506102a08201516140806102a0850182613e77565b50505050565b6101e082015f82015161409b5f850182613e77565b5060208201516140ae6020850182613e77565b5060408201516140c16040850182613e77565b5060608201516140d46060850182613e77565b5060808201516140e76080850182613e77565b5060a08201516140fa60a0850182613e77565b5060c082015161410d60c0850182613e77565b5060e082015161412060e0850182613e77565b50610100820151614135610100850182613e77565b5061012082015161414a610120850182613e77565b5061014082015161415f610140850182613e77565b50610160820151614174610160850182613e77565b50610180820151614189610180850182613e77565b506101a082015161419e6101a0850182613e77565b506101c08201516141b36101c0850182613e77565b50505050565b6103a082015f8201516141ce5f850182613e77565b5060208201516141e16020850182613e77565b5060408201516141f46040850182613e77565b5060608201516142076060850182613e77565b50608082015161421a6080850182613e77565b5060a082015161422d60a0850182613e77565b5060c082015161424060c0850182613e77565b5060e082015161425360e0850182613e77565b50610100820151614268610100850182613e77565b5061012082015161427d610120850182613e77565b50610140820151614292610140850182613e77565b506101608201516142a7610160850182613e77565b506101808201516142bc610180850182613e77565b506101a08201516142d16101a0850182613e77565b506101c08201516142e66101c0850182613e77565b506101e08201516142fb6101e0850182613e77565b50610200820151614310610200850182613e77565b50610220820151614325610220850182613e77565b5061024082015161433a610240850182613e77565b5061026082015161434f610260850182613e77565b50610280820151614364610280850182613e77565b506102a08201516143796102a0850182613e77565b506102c082015161438e6102c0850182613e77565b506102e08201516143a36102e0850182613e77565b506103008201516143b8610300850182613e77565b506103208201516143cd610320850182613e77565b506103408201516143e2610340850182613e77565b506103608201516143f7610360850182613e77565b5061038082015161440c610380850182613e77565b50505050565b61010082015f8201516144275f850182613e17565b50602082015161443a6020850182613e17565b50604082015161444d6040850182613e17565b5060608201516144606060850182613e17565b5060808201516144736080850182613e17565b5060a082015161448660a0850182613e77565b5060c082015161449960c0850182613e17565b5060e08201516144ac60e0850182613e77565b50505050565b600481106144c3576144c2613d98565b5b50565b5f8190506144d3826144b2565b919050565b5f6144e2826144c6565b9050919050565b6144f2816144d8565b82525050565b6101c082015f82015161450d5f850182613e77565b5060208201516145206020850182613e77565b5060408201516145336040850182613e77565b5060608201516145466060850182613e77565b5060808201516145596080850182613e77565b5060a082015161456c60a0850182613e77565b5060c082015161457f60c0850182613e77565b5060e082015161459260e0850182613e77565b506101008201516145a7610100850182613e77565b506101208201516145bc610120850182613e77565b506101408201516145d1610140850182613e77565b506101608201516145e6610160850182613e77565b506101808201516145fb610180850182613e77565b506101a08201516146106101a0850182613e77565b50505050565b610b2082015f82015161462b5f850182613ec0565b50602082015161463f6102c0850182614086565b5060408201516146536104a08501826141b9565b506060820151614667610840850182614412565b50608082015161467b6109408501826144e9565b5060a082015161468f6109608501826144f8565b50505050565b5f610b20820190506146a95f830184614616565b92915050565b5f5ffd5b5f5ffd5b5f5ffd5b5f5f83601f8401126146d0576146cf6146af565b5b8235905067ffffffffffffffff8111156146ed576146ec6146b3565b5b602083019150836001820283011115614709576147086146b7565b5b9250929050565b5f5f6020838503121561472657614725613d32565b5b5f83013567ffffffffffffffff81111561474357614742613d36565b5b61474f858286016146bb565b92509250509250929050565b61028082015f8201516147705f850182613e77565b5060208201516147836020850182613e17565b5060408201516147966040850182613e77565b5060608201516147a96060850182613e77565b5060808201516147bc6080850182613e77565b5060a08201516147cf60a0850182613e77565b5060c08201516147e260c0850182613e77565b5060e08201516147f560e0850182613e77565b5061010082015161480a610100850182613e77565b5061012082015161481f610120850182613e77565b50610140820151614834610140850182613e77565b50610160820151614849610160850182613e77565b5061018082015161485e610180850182613e77565b506101a08201516148736101a0850182613e77565b506101c08201516148886101c0850182613e77565b506101e082015161489d6101e0850182613e77565b506102008201516148b2610200850182613e77565b506102208201516148c7610220850182613eb1565b506102408201516148dc610240850182613eb1565b506102608201516148f1610260850182613eb1565b50505050565b61490081613d3a565b82525050565b61034082015f82015161491b5f8501826148f7565b50602082015161492e60208501826148f7565b50604082015161494160408501826148f7565b50606082015161495460608501826148f7565b50608082015161496760808501826148f7565b5060a082015161497a60a08501826148f7565b5060c082015161498d60c08501826148f7565b5060e08201516149a060e08501826148f7565b506101008201516149b56101008501826148f7565b506101208201516149ca6101208501826148f7565b506101408201516149df6101408501826148f7565b506101608201516149f46101608501826148f7565b50610180820151614a096101808501826148f7565b506101a0820151614a1e6101a08501826148f7565b506101c0820151614a336101c08501826148f7565b506101e0820151614a486101e08501826148f7565b50610200820151614a5d6102008501826148f7565b50610220820151614a726102208501826148f7565b50610240820151614a876102408501826148f7565b50610260820151614a9c6102608501826148f7565b50610280820151614ab1610280850182613e77565b506102a0820151614ac66102a0850182613e77565b506102c0820151614adb6102c0850182613e77565b506102e0820151614af06102e0850182613e77565b50610300820151614b05610300850182613e77565b50610320820151614b1a610320850182613e77565b50505050565b5f6105c082019050614b345f83018561475b565b614b42610280830184614906565b9392505050565b5f5ffd5b5f6105408284031215614b6357614b62614b49565b5b81905092915050565b60048110614b78575f5ffd5b50565b5f81359050614b8981614b6c565b92915050565b5f5f5f5f6105808587031215614ba857614ba7613d32565b5b5f85013567ffffffffffffffff811115614bc557614bc4613d36565b5b614bd1878288016146bb565b94509450506020614be487828801614b4d565b925050610560614bf687828801614b7b565b91505092959194509250565b5f5ffd5b5f601f19601f8301169050919050565b7f4e487b71000000000000000000000000000000000000000000000000000000005f52604160045260245ffd5b614c4c82614c06565b810181811067ffffffffffffffff82111715614c6b57614c6a614c16565b5b80604052505050565b5f614c7d613d29565b9050614c898282614c43565b919050565b5f5ffd5b614c9b81613e6c565b8114614ca5575f5ffd5b50565b5f81359050614cb681614c92565b92915050565b5f6103808284031215614cd257614cd1614c02565b5b614cdd610380614c74565b90505f614cec84828501614ca8565b5f830152506020614cff84828501614ca8565b6020830152506040614d1384828501614ca8565b6040830152506060614d2784828501614ca8565b6060830152506080614d3b84828501614ca8565b60808301525060a0614d4f84828501614ca8565b60a08301525060c0614d6384828501614ca8565b60c08301525060e0614d7784828501614ca8565b60e083015250610100614d8c84828501614ca8565b61010083015250610120614da284828501614ca8565b61012083015250610140614db884828501614ca8565b61014083015250610160614dce84828501614ca8565b61016083015250610180614de484828501614ca8565b610180830152506101a0614dfa84828501614ca8565b6101a0830152506101c0614e1084828501614ca8565b6101c0830152506101e0614e2684828501614ca8565b6101e083015250610200614e3c84828501614ca8565b61020083015250610220614e5284828501614ca8565b61022083015250610240614e6884828501614ca8565b61024083015250610260614e7e84828501614ca8565b61026083015250610280614e9484828501614ca8565b610280830152506102a0614eaa84828501614ca8565b6102a0830152506102c0614ec084828501614ca8565b6102c0830152506102e0614ed684828501614ca8565b6102e083015250610300614eec84828501614ca8565b61030083015250610320614f0284828501614ca8565b61032083015250610340614f1884828501614ca8565b61034083015250610360614f2e84828501614ca8565b6103608301525092915050565b5f6105408284031215614f5157614f50614c02565b5b614f5c6101e0614c74565b90505f614f6b84828501614ca8565b5f830152506020614f7e84828501614ca8565b6020830152506040614f9284828501614ca8565b6040830152506060614fa684828501614ca8565b6060830152506080614fba84828501614ca8565b60808301525060a0614fce84828501614ca8565b60a08301525060c0614fe284828501614ca8565b60c08301525060e0614ff684828501614ca8565b60e08301525061010061500b84828501614ca8565b6101008301525061012061502184828501614ca8565b6101208301525061014061503784828501614ca8565b6101408301525061016061504d84828501614ca8565b6101608301525061018061506384828501614ca8565b610180830152506101a061507984828501614ca8565b6101a0830152506101c061508f84828501614cbc565b6101c08301525092915050565b5f5f5f5f61058085870312156150b5576150b4613d32565b5b5f85013567ffffffffffffffff8111156150d2576150d1613d36565b5b6150de878288016146bb565b945094505060206150f187828801614f3b565b92505061056061510387828801614b7b565b91505092959194509250565b61511881613d3a565b82525050565b5f6020820190506151315f83018461510f565b92915050565b5f5f610560838503121561514e5761514d613d32565b5b5f61515b85828601614f3b565b92505061054061516d85828601614b7b565b9150509250929050565b61518081613e86565b82525050565b61518f81613e0b565b82525050565b61519e81613e6c565b82525050565b5f60e0820190506151b75f83018a615177565b6151c46020830189615177565b6151d16040830188615186565b6151de6060830187615186565b6151eb6080830186615195565b6151f860a0830185615186565b61520560c0830184615186565b98975050505050505050565b6003811061521d575f5ffd5b50565b5f8135905061522e81615211565b92915050565b5f73ffffffffffffffffffffffffffffffffffffffff82169050919050565b5f61525d82615234565b9050919050565b61526d81615253565b8114615277575f5ffd5b50565b5f8135905061528881615264565b92915050565b5f67ffffffffffffffff8211156152a8576152a7614c16565b5b602082029050602081019050919050565b5f6152cb6152c68461528e565b614c74565b905080838252602082019050602084028301858111156152ee576152ed6146b7565b5b835b818110156153175780615303888261527a565b8452602084019350506020810190506152f0565b5050509392505050565b5f82601f830112615335576153346146af565b5b81356153458482602086016152b9565b91505092915050565b5f6101c0828403121561536457615363614c02565b5b61536f6101c0614c74565b90505f61537e84828501614ca8565b5f8301525060206153918482850161527a565b60208301525060406153a584828501614ca8565b60408301525060606153b984828501614ca8565b606083015250608082013567ffffffffffffffff8111156153dd576153dc614c8e565b5b6153e984828501615321565b60808301525060a06153fd84828501614ca8565b60a08301525060c06154118482850161527a565b60c08301525060e061542584828501614ca8565b60e08301525061010061543a8482850161527a565b6101008301525061012061545084828501614ca8565b6101208301525061014061546684828501613d59565b6101408301525061016061547c8482850161527a565b6101608301525061018061549284828501614ca8565b610180830152506101a06154a88482850161527a565b6101a08301525092915050565b5f5ffd5b5f67ffffffffffffffff8211156154d3576154d2614c16565b5b6154dc82614c06565b9050602081019050919050565b828183375f83830152505050565b5f615509615504846154b9565b614c74565b905082815260208101848484011115615525576155246154b5565b5b6155308482856154e9565b509392505050565b5f82601f83011261554c5761554b6146af565b5b813561555c8482602086016154f7565b91505092915050565b5f610200828403121561557b5761557a614c02565b5b615586610200614c74565b90505f61559584828501614ca8565b5f83015250602082013567ffffffffffffffff8111156155b8576155b7614c8e565b5b6155c484828501615538565b60208301525060406155d884828501613d59565b60408301525060606155ec84828501613d59565b606083015250608061560084828501613d59565b60808301525060a061561484828501613d59565b60a08301525060c061562884828501613d59565b60c08301525060e061563c84828501613d59565b60e08301525061010061565184828501614ca8565b6101008301525061012082013567ffffffffffffffff81111561567757615676614c8e565b5b61568384828501615538565b6101208301525061014061569984828501613d59565b610140830152506101606156af84828501613d59565b610160830152506101806156c584828501613d59565b610180830152506101a06156db84828501613d59565b6101a0830152506101c06156f184828501614ca8565b6101c0830152506101e061570784828501613d59565b6101e08301525092915050565b5f610140828403121561572a57615729614c02565b5b615735610140614c74565b90505f61574484828501614ca8565b5f83015250602061575784828501615220565b602083015250604061576b84828501613d59565b604083015250606061577f84828501614b7b565b606083015250608082013567ffffffffffffffff8111156157a3576157a2614c8e565b5b6157af8482850161534e565b60808301525060a082013567ffffffffffffffff8111156157d3576157d2614c8e565b5b6157df84828501615565565b60a08301525060c06157f384828501614ca8565b60c08301525060e061580784828501614ca8565b60e08301525061010061581c84828501613d59565b6101008301525061012082013567ffffffffffffffff81111561584257615841614c8e565b5b61584e84828501615538565b6101208301525092915050565b5f602082840312156158705761586f613d32565b5b5f82013567ffffffffffffffff81111561588d5761588c613d36565b5b61589984828501615714565b91505092915050565b5f61054082840312156158b8576158b7613d32565b5b5f6158c584828501614f3b565b91505092915050565b5f61038082840312156158e4576158e3613d32565b5b5f6158f184828501614cbc565b91505092915050565b7f4e487b71000000000000000000000000000000000000000000000000000000005f52601160045260245ffd5b5f61593182613d3a565b915061593c83613d3a565b925082820261594a81613d3a565b91508282048414831517615961576159606158fa565b5b5092915050565b7f4e487b71000000000000000000000000000000000000000000000000000000005f52601260045260245ffd5b5f61599f82613d3a565b91506159aa83613d3a565b9250826159ba576159b9615968565b5b828204905092915050565b5f6159cf82613e0b565b915060ff82036159e2576159e16158fa565b5b600182019050919050565b5f6159f782613e0b565b9150615a0283613e0b565b9250828201905060ff811115615a1b57615a1a6158fa565b5b92915050565b5f604082019050615a345f830185615186565b615a416020830184615186565b9392505050565b5f615a5282613d3a565b9150615a5d83613d3a565b9250828203905081811115615a7557615a746158fa565b5b92915050565b5f615a8582613d3a565b9150615a9083613d3a565b9250828201905080821115615aa857615aa76158fa565b5b92915050565b5f615ab882613e0b565b9150615ac383613e0b565b925082615ad357615ad2615968565b5b82820490509291505056fea2646970667358221220cf2d052ecb340a958ddec0d5c398879cea9023173015248bb2d179736e988f8f64736f6c634300081e0033","linkReferences":{}},"methodIdentifiers":{"decode(uint256)":"61a76900","decodeOffChain(bytes)":"a1d66d3c","evaluate(bytes,(bool,bool,bool,bool,bool,bool,bool,bool,bool,bool,bool,bool,bool,bool,(bool,bool,bool,bool,bool,bool,bool,bool,bool,bool,bool,bool,bool,bool,bool,bool,bool,bool,bool,bool,bool,bool,bool,bool,bool,bool,bool,bool)),uint8)":"a6ee8588","packOnChain((bool,bool,bool,bool,bool,bool,bool,bool,bool,bool,bool,bool,bool,bool,(bool,bool,bool,bool,bool,bool,bool,bool,bool,bool,bool,bool,bool,bool,bool,bool,bool,bool,bool,bool,bool,bool,bool,bool,bool,bool,bool,bool)),uint8)":"f2b76788","previewReport(bytes,(bool,bool,bool,bool,bool,bool,bool,bool,bool,bool,bool,bool,bool,bool,(bool,bool,bool,bool,bool,bool,bool,bool,bool,bool,bool,bool,bool,bool,bool,bool,bool,bool,bool,bool,bool,bool,bool,bool,bool,bool,bool,bool)),uint8)":"a4af20f0"},"id":2}