{"abi":[{"type":"constructor","inputs":[{"name":"swapGuard_","type":"address","internalType":"address"},{"name":"riskPolicy_","type":"address","internalType":"address"},{"name":"riskReportNFT_","type":"address","internalType":"address"}],"stateMutability":"nonpayable"},{"type":"receive","stateMutability":"payable"},{"type":"function","name":"decodePackedRisk","inputs":[{"name":"packedRiskReport","type":"uint256","internalType":"uint256"}],"outputs":[{"name":"report","type":"tuple","internalType":"struct SwapV2DecodedRiskReport","components":[{"name":"core","type":"tuple","internalType":"struct PolicyCoreView","components":[{"name":"kind","type":"uint8","internalType":"enum PolicyKind"},{"name":"operation","type":"uint8","internalType":"uint8"},{"name":"version","type":"uint8","internalType":"uint8"},{"name":"finalCategory","type":"uint8","internalType":"enum PolicyRiskCategory"},{"name":"offChainCategory","type":"uint8","internalType":"enum PolicyRiskCategory"},{"name":"compositeScore","type":"uint8","internalType":"uint8"},{"name":"onChainScore","type":"uint8","internalType":"uint8"},{"name":"offChainScore","type":"uint8","internalType":"uint8"},{"name":"onChainCriticalCount","type":"uint8","internalType":"uint8"},{"name":"onChainWarningCount","type":"uint8","internalType":"uint8"},{"name":"offChainInfoCount","type":"uint8","internalType":"uint8"},{"name":"anyHardBlock","type":"bool","internalType":"bool"},{"name":"offChainValid","type":"bool","internalType":"bool"},{"name":"onChainFlagsPacked","type":"uint32","internalType":"uint32"},{"name":"offChainFlagsPacked","type":"uint32","internalType":"uint32"},{"name":"tokenFlagsPacked","type":"uint32","internalType":"uint32"},{"name":"priceImpactBps","type":"uint16","internalType":"uint16"},{"name":"outputDiscrepancyBps","type":"uint16","internalType":"uint16"},{"name":"ratioDeviationBps","type":"uint16","internalType":"uint16"},{"name":"tokenCriticalCount","type":"uint8","internalType":"uint8"},{"name":"tokenWarningCount","type":"uint8","internalType":"uint8"},{"name":"tokenRiskEvaluated","type":"bool","internalType":"bool"}]},{"name":"offChain","type":"tuple","internalType":"struct PolicyOffChainView","components":[{"name":"hasDangerousDelegateCall","type":"bool","internalType":"bool"},{"name":"hasSelfDestruct","type":"bool","internalType":"bool"},{"name":"hasApprovalDrain","type":"bool","internalType":"bool"},{"name":"hasOwnerSweep","type":"bool","internalType":"bool"},{"name":"hasReentrancy","type":"bool","internalType":"bool"},{"name":"hasUnexpectedCreate","type":"bool","internalType":"bool"},{"name":"hasUpgradeCall","type":"bool","internalType":"bool"},{"name":"isExitFrozen","type":"bool","internalType":"bool"},{"name":"isRemovalFrozen","type":"bool","internalType":"bool"},{"name":"isFirstDeposit","type":"bool","internalType":"bool"},{"name":"isFeeOnTransfer","type":"bool","internalType":"bool"},{"name":"anyOracleStale","type":"bool","internalType":"bool"},{"name":"anyContractUnverified","type":"bool","internalType":"bool"},{"name":"oracleDeviation","type":"bool","internalType":"bool"},{"name":"simulationReverted","type":"bool","internalType":"bool"}]},{"name":"tokenRisk","type":"tuple","internalType":"struct PolicyTokenFlagsView","components":[{"name":"evaluated","type":"bool","internalType":"bool"},{"name":"notAContract","type":"bool","internalType":"bool"},{"name":"emptyBytecode","type":"bool","internalType":"bool"},{"name":"decimalsRevert","type":"bool","internalType":"bool"},{"name":"weirdDecimals","type":"bool","internalType":"bool"},{"name":"highDecimals","type":"bool","internalType":"bool"},{"name":"totalSupplyRevert","type":"bool","internalType":"bool"},{"name":"zeroTotalSupply","type":"bool","internalType":"bool"},{"name":"veryLowTotalSupply","type":"bool","internalType":"bool"},{"name":"symbolRevert","type":"bool","internalType":"bool"},{"name":"nameRevert","type":"bool","internalType":"bool"},{"name":"isEip1967Proxy","type":"bool","internalType":"bool"},{"name":"isEip1822Proxy","type":"bool","internalType":"bool"},{"name":"isMinimalProxy","type":"bool","internalType":"bool"},{"name":"hasOwner","type":"bool","internalType":"bool"},{"name":"ownershipRenounced","type":"bool","internalType":"bool"},{"name":"ownerIsEoa","type":"bool","internalType":"bool"},{"name":"isPausable","type":"bool","internalType":"bool"},{"name":"isCurrentlyPaused","type":"bool","internalType":"bool"},{"name":"hasBlacklist","type":"bool","internalType":"bool"},{"name":"hasBlocklist","type":"bool","internalType":"bool"},{"name":"possibleFeeOnTransfer","type":"bool","internalType":"bool"},{"name":"hasTransferFeeGetter","type":"bool","internalType":"bool"},{"name":"hasTaxFunction","type":"bool","internalType":"bool"},{"name":"possibleRebasing","type":"bool","internalType":"bool"},{"name":"hasMintCapability","type":"bool","internalType":"bool"},{"name":"hasBurnCapability","type":"bool","internalType":"bool"},{"name":"hasPermit","type":"bool","internalType":"bool"},{"name":"hasFlashMint","type":"bool","internalType":"bool"}]},{"name":"enhancedView","type":"tuple","internalType":"struct EnhancedCoreView","components":[{"name":"economicSeverityTier","type":"uint8","internalType":"uint8"},{"name":"oracleAgeTier","type":"uint8","internalType":"uint8"},{"name":"excessPullTier","type":"uint8","internalType":"uint8"},{"name":"sharePriceDriftTier","type":"uint8","internalType":"uint8"},{"name":"compoundRiskCount","type":"uint8","internalType":"uint8"},{"name":"simulationRevertBlock","type":"bool","internalType":"bool"},{"name":"sweepSeverityTier","type":"uint8","internalType":"uint8"},{"name":"enhancedDataPresent","type":"bool","internalType":"bool"}]},{"name":"operation","type":"uint8","internalType":"enum SwapOpType"},{"name":"onChain","type":"tuple","internalType":"struct SwapV2OnChainView","components":[{"name":"routerNotTrusted","type":"bool","internalType":"bool"},{"name":"factoryNotTrusted","type":"bool","internalType":"bool"},{"name":"deepMultihop","type":"bool","internalType":"bool"},{"name":"duplicateTokenInPath","type":"bool","internalType":"bool"},{"name":"poolNotExists","type":"bool","internalType":"bool"},{"name":"factoryMismatch","type":"bool","internalType":"bool"},{"name":"zeroLiquidity","type":"bool","internalType":"bool"},{"name":"lowLiquidity","type":"bool","internalType":"bool"},{"name":"lowLpSupply","type":"bool","internalType":"bool"},{"name":"poolTooNew","type":"bool","internalType":"bool"},{"name":"severeImbalance","type":"bool","internalType":"bool"},{"name":"kInvariantBroken","type":"bool","internalType":"bool"},{"name":"highSwapImpact","type":"bool","internalType":"bool"},{"name":"flashloanRisk","type":"bool","internalType":"bool"},{"name":"priceManipulated","type":"bool","internalType":"bool"}]}]}],"stateMutability":"view"},{"type":"function","name":"guardedSwapETHForExactTokens","inputs":[{"name":"ammRouter","type":"address","internalType":"address"},{"name":"amountOut","type":"uint256","internalType":"uint256"},{"name":"path","type":"address[]","internalType":"address[]"},{"name":"receiver","type":"address","internalType":"address"},{"name":"refundRecipient","type":"address","internalType":"address"},{"name":"deadline","type":"uint256","internalType":"uint256"},{"name":"offChainData","type":"bytes","internalType":"bytes"}],"outputs":[{"name":"amounts","type":"uint256[]","internalType":"uint256[]"},{"name":"packedRiskReport","type":"uint256","internalType":"uint256"}],"stateMutability":"payable"},{"type":"function","name":"guardedSwapExactETHForTokens","inputs":[{"name":"ammRouter","type":"address","internalType":"address"},{"name":"amountOutMin","type":"uint256","internalType":"uint256"},{"name":"path","type":"address[]","internalType":"address[]"},{"name":"receiver","type":"address","internalType":"address"},{"name":"deadline","type":"uint256","internalType":"uint256"},{"name":"offChainData","type":"bytes","internalType":"bytes"}],"outputs":[{"name":"amounts","type":"uint256[]","internalType":"uint256[]"},{"name":"packedRiskReport","type":"uint256","internalType":"uint256"}],"stateMutability":"payable"},{"type":"function","name":"guardedSwapExactTokensForETH","inputs":[{"name":"ammRouter","type":"address","internalType":"address"},{"name":"amountIn","type":"uint256","internalType":"uint256"},{"name":"amountOutMin","type":"uint256","internalType":"uint256"},{"name":"path","type":"address[]","internalType":"address[]"},{"name":"receiver","type":"address","internalType":"address"},{"name":"deadline","type":"uint256","internalType":"uint256"},{"name":"offChainData","type":"bytes","internalType":"bytes"}],"outputs":[{"name":"amounts","type":"uint256[]","internalType":"uint256[]"},{"name":"packedRiskReport","type":"uint256","internalType":"uint256"}],"stateMutability":"nonpayable"},{"type":"function","name":"guardedSwapExactTokensForTokens","inputs":[{"name":"ammRouter","type":"address","internalType":"address"},{"name":"amountIn","type":"uint256","internalType":"uint256"},{"name":"amountOutMin","type":"uint256","internalType":"uint256"},{"name":"path","type":"address[]","internalType":"address[]"},{"name":"receiver","type":"address","internalType":"address"},{"name":"deadline","type":"uint256","internalType":"uint256"},{"name":"offChainData","type":"bytes","internalType":"bytes"}],"outputs":[{"name":"amounts","type":"uint256[]","internalType":"uint256[]"},{"name":"packedRiskReport","type":"uint256","internalType":"uint256"}],"stateMutability":"nonpayable"},{"type":"function","name":"guardedSwapTokensForExactETH","inputs":[{"name":"ammRouter","type":"address","internalType":"address"},{"name":"amountOut","type":"uint256","internalType":"uint256"},{"name":"amountInMax","type":"uint256","internalType":"uint256"},{"name":"path","type":"address[]","internalType":"address[]"},{"name":"receiver","type":"address","internalType":"address"},{"name":"refundRecipient","type":"address","internalType":"address"},{"name":"deadline","type":"uint256","internalType":"uint256"},{"name":"offChainData","type":"bytes","internalType":"bytes"}],"outputs":[{"name":"amounts","type":"uint256[]","internalType":"uint256[]"},{"name":"packedRiskReport","type":"uint256","internalType":"uint256"}],"stateMutability":"nonpayable"},{"type":"function","name":"guardedSwapTokensForExactTokens","inputs":[{"name":"ammRouter","type":"address","internalType":"address"},{"name":"amountOut","type":"uint256","internalType":"uint256"},{"name":"amountInMax","type":"uint256","internalType":"uint256"},{"name":"path","type":"address[]","internalType":"address[]"},{"name":"receiver","type":"address","internalType":"address"},{"name":"refundRecipient","type":"address","internalType":"address"},{"name":"deadline","type":"uint256","internalType":"uint256"},{"name":"offChainData","type":"bytes","internalType":"bytes"}],"outputs":[{"name":"amounts","type":"uint256[]","internalType":"uint256[]"},{"name":"packedRiskReport","type":"uint256","internalType":"uint256"}],"stateMutability":"nonpayable"},{"type":"function","name":"owner","inputs":[],"outputs":[{"name":"","type":"address","internalType":"address"}],"stateMutability":"view"},{"type":"function","name":"previewGuardedSwapETHForExactTokens","inputs":[{"name":"ammRouter","type":"address","internalType":"address"},{"name":"path","type":"address[]","internalType":"address[]"},{"name":"amountInMax","type":"uint256","internalType":"uint256"},{"name":"offChainData","type":"bytes","internalType":"bytes"}],"outputs":[{"name":"result","type":"tuple","internalType":"struct SwapV2GuardResult","components":[{"name":"ROUTER_NOT_TRUSTED","type":"bool","internalType":"bool"},{"name":"FACTORY_NOT_TRUSTED","type":"bool","internalType":"bool"},{"name":"DEEP_MULTIHOP","type":"bool","internalType":"bool"},{"name":"DUPLICATE_TOKEN_IN_PATH","type":"bool","internalType":"bool"},{"name":"POOL_NOT_EXISTS","type":"bool","internalType":"bool"},{"name":"FACTORY_MISMATCH","type":"bool","internalType":"bool"},{"name":"ZERO_LIQUIDITY","type":"bool","internalType":"bool"},{"name":"LOW_LIQUIDITY","type":"bool","internalType":"bool"},{"name":"LOW_LP_SUPPLY","type":"bool","internalType":"bool"},{"name":"POOL_TOO_NEW","type":"bool","internalType":"bool"},{"name":"SEVERE_IMBALANCE","type":"bool","internalType":"bool"},{"name":"K_INVARIANT_BROKEN","type":"bool","internalType":"bool"},{"name":"HIGH_SWAP_IMPACT","type":"bool","internalType":"bool"},{"name":"FLASHLOAN_RISK","type":"bool","internalType":"bool"},{"name":"PRICE_MANIPULATED","type":"bool","internalType":"bool"},{"name":"tokenResult","type":"tuple[]","internalType":"struct TokenGuardResult[]","components":[{"name":"NOT_A_CONTRACT","type":"bool","internalType":"bool"},{"name":"EMPTY_BYTECODE","type":"bool","internalType":"bool"},{"name":"DECIMALS_REVERT","type":"bool","internalType":"bool"},{"name":"WEIRD_DECIMALS","type":"bool","internalType":"bool"},{"name":"HIGH_DECIMALS","type":"bool","internalType":"bool"},{"name":"TOTAL_SUPPLY_REVERT","type":"bool","internalType":"bool"},{"name":"ZERO_TOTAL_SUPPLY","type":"bool","internalType":"bool"},{"name":"VERY_LOW_TOTAL_SUPPLY","type":"bool","internalType":"bool"},{"name":"SYMBOL_REVERT","type":"bool","internalType":"bool"},{"name":"NAME_REVERT","type":"bool","internalType":"bool"},{"name":"IS_EIP1967_PROXY","type":"bool","internalType":"bool"},{"name":"IS_EIP1822_PROXY","type":"bool","internalType":"bool"},{"name":"IS_MINIMAL_PROXY","type":"bool","internalType":"bool"},{"name":"HAS_OWNER","type":"bool","internalType":"bool"},{"name":"OWNERSHIP_RENOUNCED","type":"bool","internalType":"bool"},{"name":"OWNER_IS_EOA","type":"bool","internalType":"bool"},{"name":"IS_PAUSABLE","type":"bool","internalType":"bool"},{"name":"IS_CURRENTLY_PAUSED","type":"bool","internalType":"bool"},{"name":"HAS_BLACKLIST","type":"bool","internalType":"bool"},{"name":"HAS_BLOCKLIST","type":"bool","internalType":"bool"},{"name":"POSSIBLE_FEE_ON_TRANSFER","type":"bool","internalType":"bool"},{"name":"HAS_TRANSFER_FEE_GETTER","type":"bool","internalType":"bool"},{"name":"HAS_TAX_FUNCTION","type":"bool","internalType":"bool"},{"name":"POSSIBLE_REBASING","type":"bool","internalType":"bool"},{"name":"HAS_MINT_CAPABILITY","type":"bool","internalType":"bool"},{"name":"HAS_BURN_CAPABILITY","type":"bool","internalType":"bool"},{"name":"HAS_PERMIT","type":"bool","internalType":"bool"},{"name":"HAS_FLASH_MINT","type":"bool","internalType":"bool"}]}]},{"name":"packedRiskReport","type":"uint256","internalType":"uint256"},{"name":"report","type":"tuple","internalType":"struct SwapV2DecodedRiskReport","components":[{"name":"core","type":"tuple","internalType":"struct PolicyCoreView","components":[{"name":"kind","type":"uint8","internalType":"enum PolicyKind"},{"name":"operation","type":"uint8","internalType":"uint8"},{"name":"version","type":"uint8","internalType":"uint8"},{"name":"finalCategory","type":"uint8","internalType":"enum PolicyRiskCategory"},{"name":"offChainCategory","type":"uint8","internalType":"enum PolicyRiskCategory"},{"name":"compositeScore","type":"uint8","internalType":"uint8"},{"name":"onChainScore","type":"uint8","internalType":"uint8"},{"name":"offChainScore","type":"uint8","internalType":"uint8"},{"name":"onChainCriticalCount","type":"uint8","internalType":"uint8"},{"name":"onChainWarningCount","type":"uint8","internalType":"uint8"},{"name":"offChainInfoCount","type":"uint8","internalType":"uint8"},{"name":"anyHardBlock","type":"bool","internalType":"bool"},{"name":"offChainValid","type":"bool","internalType":"bool"},{"name":"onChainFlagsPacked","type":"uint32","internalType":"uint32"},{"name":"offChainFlagsPacked","type":"uint32","internalType":"uint32"},{"name":"tokenFlagsPacked","type":"uint32","internalType":"uint32"},{"name":"priceImpactBps","type":"uint16","internalType":"uint16"},{"name":"outputDiscrepancyBps","type":"uint16","internalType":"uint16"},{"name":"ratioDeviationBps","type":"uint16","internalType":"uint16"},{"name":"tokenCriticalCount","type":"uint8","internalType":"uint8"},{"name":"tokenWarningCount","type":"uint8","internalType":"uint8"},{"name":"tokenRiskEvaluated","type":"bool","internalType":"bool"}]},{"name":"offChain","type":"tuple","internalType":"struct PolicyOffChainView","components":[{"name":"hasDangerousDelegateCall","type":"bool","internalType":"bool"},{"name":"hasSelfDestruct","type":"bool","internalType":"bool"},{"name":"hasApprovalDrain","type":"bool","internalType":"bool"},{"name":"hasOwnerSweep","type":"bool","internalType":"bool"},{"name":"hasReentrancy","type":"bool","internalType":"bool"},{"name":"hasUnexpectedCreate","type":"bool","internalType":"bool"},{"name":"hasUpgradeCall","type":"bool","internalType":"bool"},{"name":"isExitFrozen","type":"bool","internalType":"bool"},{"name":"isRemovalFrozen","type":"bool","internalType":"bool"},{"name":"isFirstDeposit","type":"bool","internalType":"bool"},{"name":"isFeeOnTransfer","type":"bool","internalType":"bool"},{"name":"anyOracleStale","type":"bool","internalType":"bool"},{"name":"anyContractUnverified","type":"bool","internalType":"bool"},{"name":"oracleDeviation","type":"bool","internalType":"bool"},{"name":"simulationReverted","type":"bool","internalType":"bool"}]},{"name":"tokenRisk","type":"tuple","internalType":"struct PolicyTokenFlagsView","components":[{"name":"evaluated","type":"bool","internalType":"bool"},{"name":"notAContract","type":"bool","internalType":"bool"},{"name":"emptyBytecode","type":"bool","internalType":"bool"},{"name":"decimalsRevert","type":"bool","internalType":"bool"},{"name":"weirdDecimals","type":"bool","internalType":"bool"},{"name":"highDecimals","type":"bool","internalType":"bool"},{"name":"totalSupplyRevert","type":"bool","internalType":"bool"},{"name":"zeroTotalSupply","type":"bool","internalType":"bool"},{"name":"veryLowTotalSupply","type":"bool","internalType":"bool"},{"name":"symbolRevert","type":"bool","internalType":"bool"},{"name":"nameRevert","type":"bool","internalType":"bool"},{"name":"isEip1967Proxy","type":"bool","internalType":"bool"},{"name":"isEip1822Proxy","type":"bool","internalType":"bool"},{"name":"isMinimalProxy","type":"bool","internalType":"bool"},{"name":"hasOwner","type":"bool","internalType":"bool"},{"name":"ownershipRenounced","type":"bool","internalType":"bool"},{"name":"ownerIsEoa","type":"bool","internalType":"bool"},{"name":"isPausable","type":"bool","internalType":"bool"},{"name":"isCurrentlyPaused","type":"bool","internalType":"bool"},{"name":"hasBlacklist","type":"bool","internalType":"bool"},{"name":"hasBlocklist","type":"bool","internalType":"bool"},{"name":"possibleFeeOnTransfer","type":"bool","internalType":"bool"},{"name":"hasTransferFeeGetter","type":"bool","internalType":"bool"},{"name":"hasTaxFunction","type":"bool","internalType":"bool"},{"name":"possibleRebasing","type":"bool","internalType":"bool"},{"name":"hasMintCapability","type":"bool","internalType":"bool"},{"name":"hasBurnCapability","type":"bool","internalType":"bool"},{"name":"hasPermit","type":"bool","internalType":"bool"},{"name":"hasFlashMint","type":"bool","internalType":"bool"}]},{"name":"enhancedView","type":"tuple","internalType":"struct EnhancedCoreView","components":[{"name":"economicSeverityTier","type":"uint8","internalType":"uint8"},{"name":"oracleAgeTier","type":"uint8","internalType":"uint8"},{"name":"excessPullTier","type":"uint8","internalType":"uint8"},{"name":"sharePriceDriftTier","type":"uint8","internalType":"uint8"},{"name":"compoundRiskCount","type":"uint8","internalType":"uint8"},{"name":"simulationRevertBlock","type":"bool","internalType":"bool"},{"name":"sweepSeverityTier","type":"uint8","internalType":"uint8"},{"name":"enhancedDataPresent","type":"bool","internalType":"bool"}]},{"name":"operation","type":"uint8","internalType":"enum SwapOpType"},{"name":"onChain","type":"tuple","internalType":"struct SwapV2OnChainView","components":[{"name":"routerNotTrusted","type":"bool","internalType":"bool"},{"name":"factoryNotTrusted","type":"bool","internalType":"bool"},{"name":"deepMultihop","type":"bool","internalType":"bool"},{"name":"duplicateTokenInPath","type":"bool","internalType":"bool"},{"name":"poolNotExists","type":"bool","internalType":"bool"},{"name":"factoryMismatch","type":"bool","internalType":"bool"},{"name":"zeroLiquidity","type":"bool","internalType":"bool"},{"name":"lowLiquidity","type":"bool","internalType":"bool"},{"name":"lowLpSupply","type":"bool","internalType":"bool"},{"name":"poolTooNew","type":"bool","internalType":"bool"},{"name":"severeImbalance","type":"bool","internalType":"bool"},{"name":"kInvariantBroken","type":"bool","internalType":"bool"},{"name":"highSwapImpact","type":"bool","internalType":"bool"},{"name":"flashloanRisk","type":"bool","internalType":"bool"},{"name":"priceManipulated","type":"bool","internalType":"bool"}]}]}],"stateMutability":"view"},{"type":"function","name":"previewGuardedSwapExactETHForTokens","inputs":[{"name":"ammRouter","type":"address","internalType":"address"},{"name":"path","type":"address[]","internalType":"address[]"},{"name":"amountIn","type":"uint256","internalType":"uint256"},{"name":"offChainData","type":"bytes","internalType":"bytes"}],"outputs":[{"name":"result","type":"tuple","internalType":"struct SwapV2GuardResult","components":[{"name":"ROUTER_NOT_TRUSTED","type":"bool","internalType":"bool"},{"name":"FACTORY_NOT_TRUSTED","type":"bool","internalType":"bool"},{"name":"DEEP_MULTIHOP","type":"bool","internalType":"bool"},{"name":"DUPLICATE_TOKEN_IN_PATH","type":"bool","internalType":"bool"},{"name":"POOL_NOT_EXISTS","type":"bool","internalType":"bool"},{"name":"FACTORY_MISMATCH","type":"bool","internalType":"bool"},{"name":"ZERO_LIQUIDITY","type":"bool","internalType":"bool"},{"name":"LOW_LIQUIDITY","type":"bool","internalType":"bool"},{"name":"LOW_LP_SUPPLY","type":"bool","internalType":"bool"},{"name":"POOL_TOO_NEW","type":"bool","internalType":"bool"},{"name":"SEVERE_IMBALANCE","type":"bool","internalType":"bool"},{"name":"K_INVARIANT_BROKEN","type":"bool","internalType":"bool"},{"name":"HIGH_SWAP_IMPACT","type":"bool","internalType":"bool"},{"name":"FLASHLOAN_RISK","type":"bool","internalType":"bool"},{"name":"PRICE_MANIPULATED","type":"bool","internalType":"bool"},{"name":"tokenResult","type":"tuple[]","internalType":"struct TokenGuardResult[]","components":[{"name":"NOT_A_CONTRACT","type":"bool","internalType":"bool"},{"name":"EMPTY_BYTECODE","type":"bool","internalType":"bool"},{"name":"DECIMALS_REVERT","type":"bool","internalType":"bool"},{"name":"WEIRD_DECIMALS","type":"bool","internalType":"bool"},{"name":"HIGH_DECIMALS","type":"bool","internalType":"bool"},{"name":"TOTAL_SUPPLY_REVERT","type":"bool","internalType":"bool"},{"name":"ZERO_TOTAL_SUPPLY","type":"bool","internalType":"bool"},{"name":"VERY_LOW_TOTAL_SUPPLY","type":"bool","internalType":"bool"},{"name":"SYMBOL_REVERT","type":"bool","internalType":"bool"},{"name":"NAME_REVERT","type":"bool","internalType":"bool"},{"name":"IS_EIP1967_PROXY","type":"bool","internalType":"bool"},{"name":"IS_EIP1822_PROXY","type":"bool","internalType":"bool"},{"name":"IS_MINIMAL_PROXY","type":"bool","internalType":"bool"},{"name":"HAS_OWNER","type":"bool","internalType":"bool"},{"name":"OWNERSHIP_RENOUNCED","type":"bool","internalType":"bool"},{"name":"OWNER_IS_EOA","type":"bool","internalType":"bool"},{"name":"IS_PAUSABLE","type":"bool","internalType":"bool"},{"name":"IS_CURRENTLY_PAUSED","type":"bool","internalType":"bool"},{"name":"HAS_BLACKLIST","type":"bool","internalType":"bool"},{"name":"HAS_BLOCKLIST","type":"bool","internalType":"bool"},{"name":"POSSIBLE_FEE_ON_TRANSFER","type":"bool","internalType":"bool"},{"name":"HAS_TRANSFER_FEE_GETTER","type":"bool","internalType":"bool"},{"name":"HAS_TAX_FUNCTION","type":"bool","internalType":"bool"},{"name":"POSSIBLE_REBASING","type":"bool","internalType":"bool"},{"name":"HAS_MINT_CAPABILITY","type":"bool","internalType":"bool"},{"name":"HAS_BURN_CAPABILITY","type":"bool","internalType":"bool"},{"name":"HAS_PERMIT","type":"bool","internalType":"bool"},{"name":"HAS_FLASH_MINT","type":"bool","internalType":"bool"}]}]},{"name":"packedRiskReport","type":"uint256","internalType":"uint256"},{"name":"report","type":"tuple","internalType":"struct SwapV2DecodedRiskReport","components":[{"name":"core","type":"tuple","internalType":"struct PolicyCoreView","components":[{"name":"kind","type":"uint8","internalType":"enum PolicyKind"},{"name":"operation","type":"uint8","internalType":"uint8"},{"name":"version","type":"uint8","internalType":"uint8"},{"name":"finalCategory","type":"uint8","internalType":"enum PolicyRiskCategory"},{"name":"offChainCategory","type":"uint8","internalType":"enum PolicyRiskCategory"},{"name":"compositeScore","type":"uint8","internalType":"uint8"},{"name":"onChainScore","type":"uint8","internalType":"uint8"},{"name":"offChainScore","type":"uint8","internalType":"uint8"},{"name":"onChainCriticalCount","type":"uint8","internalType":"uint8"},{"name":"onChainWarningCount","type":"uint8","internalType":"uint8"},{"name":"offChainInfoCount","type":"uint8","internalType":"uint8"},{"name":"anyHardBlock","type":"bool","internalType":"bool"},{"name":"offChainValid","type":"bool","internalType":"bool"},{"name":"onChainFlagsPacked","type":"uint32","internalType":"uint32"},{"name":"offChainFlagsPacked","type":"uint32","internalType":"uint32"},{"name":"tokenFlagsPacked","type":"uint32","internalType":"uint32"},{"name":"priceImpactBps","type":"uint16","internalType":"uint16"},{"name":"outputDiscrepancyBps","type":"uint16","internalType":"uint16"},{"name":"ratioDeviationBps","type":"uint16","internalType":"uint16"},{"name":"tokenCriticalCount","type":"uint8","internalType":"uint8"},{"name":"tokenWarningCount","type":"uint8","internalType":"uint8"},{"name":"tokenRiskEvaluated","type":"bool","internalType":"bool"}]},{"name":"offChain","type":"tuple","internalType":"struct PolicyOffChainView","components":[{"name":"hasDangerousDelegateCall","type":"bool","internalType":"bool"},{"name":"hasSelfDestruct","type":"bool","internalType":"bool"},{"name":"hasApprovalDrain","type":"bool","internalType":"bool"},{"name":"hasOwnerSweep","type":"bool","internalType":"bool"},{"name":"hasReentrancy","type":"bool","internalType":"bool"},{"name":"hasUnexpectedCreate","type":"bool","internalType":"bool"},{"name":"hasUpgradeCall","type":"bool","internalType":"bool"},{"name":"isExitFrozen","type":"bool","internalType":"bool"},{"name":"isRemovalFrozen","type":"bool","internalType":"bool"},{"name":"isFirstDeposit","type":"bool","internalType":"bool"},{"name":"isFeeOnTransfer","type":"bool","internalType":"bool"},{"name":"anyOracleStale","type":"bool","internalType":"bool"},{"name":"anyContractUnverified","type":"bool","internalType":"bool"},{"name":"oracleDeviation","type":"bool","internalType":"bool"},{"name":"simulationReverted","type":"bool","internalType":"bool"}]},{"name":"tokenRisk","type":"tuple","internalType":"struct PolicyTokenFlagsView","components":[{"name":"evaluated","type":"bool","internalType":"bool"},{"name":"notAContract","type":"bool","internalType":"bool"},{"name":"emptyBytecode","type":"bool","internalType":"bool"},{"name":"decimalsRevert","type":"bool","internalType":"bool"},{"name":"weirdDecimals","type":"bool","internalType":"bool"},{"name":"highDecimals","type":"bool","internalType":"bool"},{"name":"totalSupplyRevert","type":"bool","internalType":"bool"},{"name":"zeroTotalSupply","type":"bool","internalType":"bool"},{"name":"veryLowTotalSupply","type":"bool","internalType":"bool"},{"name":"symbolRevert","type":"bool","internalType":"bool"},{"name":"nameRevert","type":"bool","internalType":"bool"},{"name":"isEip1967Proxy","type":"bool","internalType":"bool"},{"name":"isEip1822Proxy","type":"bool","internalType":"bool"},{"name":"isMinimalProxy","type":"bool","internalType":"bool"},{"name":"hasOwner","type":"bool","internalType":"bool"},{"name":"ownershipRenounced","type":"bool","internalType":"bool"},{"name":"ownerIsEoa","type":"bool","internalType":"bool"},{"name":"isPausable","type":"bool","internalType":"bool"},{"name":"isCurrentlyPaused","type":"bool","internalType":"bool"},{"name":"hasBlacklist","type":"bool","internalType":"bool"},{"name":"hasBlocklist","type":"bool","internalType":"bool"},{"name":"possibleFeeOnTransfer","type":"bool","internalType":"bool"},{"name":"hasTransferFeeGetter","type":"bool","internalType":"bool"},{"name":"hasTaxFunction","type":"bool","internalType":"bool"},{"name":"possibleRebasing","type":"bool","internalType":"bool"},{"name":"hasMintCapability","type":"bool","internalType":"bool"},{"name":"hasBurnCapability","type":"bool","internalType":"bool"},{"name":"hasPermit","type":"bool","internalType":"bool"},{"name":"hasFlashMint","type":"bool","internalType":"bool"}]},{"name":"enhancedView","type":"tuple","internalType":"struct EnhancedCoreView","components":[{"name":"economicSeverityTier","type":"uint8","internalType":"uint8"},{"name":"oracleAgeTier","type":"uint8","internalType":"uint8"},{"name":"excessPullTier","type":"uint8","internalType":"uint8"},{"name":"sharePriceDriftTier","type":"uint8","internalType":"uint8"},{"name":"compoundRiskCount","type":"uint8","internalType":"uint8"},{"name":"simulationRevertBlock","type":"bool","internalType":"bool"},{"name":"sweepSeverityTier","type":"uint8","internalType":"uint8"},{"name":"enhancedDataPresent","type":"bool","internalType":"bool"}]},{"name":"operation","type":"uint8","internalType":"enum SwapOpType"},{"name":"onChain","type":"tuple","internalType":"struct SwapV2OnChainView","components":[{"name":"routerNotTrusted","type":"bool","internalType":"bool"},{"name":"factoryNotTrusted","type":"bool","internalType":"bool"},{"name":"deepMultihop","type":"bool","internalType":"bool"},{"name":"duplicateTokenInPath","type":"bool","internalType":"bool"},{"name":"poolNotExists","type":"bool","internalType":"bool"},{"name":"factoryMismatch","type":"bool","internalType":"bool"},{"name":"zeroLiquidity","type":"bool","internalType":"bool"},{"name":"lowLiquidity","type":"bool","internalType":"bool"},{"name":"lowLpSupply","type":"bool","internalType":"bool"},{"name":"poolTooNew","type":"bool","internalType":"bool"},{"name":"severeImbalance","type":"bool","internalType":"bool"},{"name":"kInvariantBroken","type":"bool","internalType":"bool"},{"name":"highSwapImpact","type":"bool","internalType":"bool"},{"name":"flashloanRisk","type":"bool","internalType":"bool"},{"name":"priceManipulated","type":"bool","internalType":"bool"}]}]}],"stateMutability":"view"},{"type":"function","name":"previewGuardedSwapExactTokensForETH","inputs":[{"name":"ammRouter","type":"address","internalType":"address"},{"name":"path","type":"address[]","internalType":"address[]"},{"name":"amountIn","type":"uint256","internalType":"uint256"},{"name":"offChainData","type":"bytes","internalType":"bytes"}],"outputs":[{"name":"result","type":"tuple","internalType":"struct SwapV2GuardResult","components":[{"name":"ROUTER_NOT_TRUSTED","type":"bool","internalType":"bool"},{"name":"FACTORY_NOT_TRUSTED","type":"bool","internalType":"bool"},{"name":"DEEP_MULTIHOP","type":"bool","internalType":"bool"},{"name":"DUPLICATE_TOKEN_IN_PATH","type":"bool","internalType":"bool"},{"name":"POOL_NOT_EXISTS","type":"bool","internalType":"bool"},{"name":"FACTORY_MISMATCH","type":"bool","internalType":"bool"},{"name":"ZERO_LIQUIDITY","type":"bool","internalType":"bool"},{"name":"LOW_LIQUIDITY","type":"bool","internalType":"bool"},{"name":"LOW_LP_SUPPLY","type":"bool","internalType":"bool"},{"name":"POOL_TOO_NEW","type":"bool","internalType":"bool"},{"name":"SEVERE_IMBALANCE","type":"bool","internalType":"bool"},{"name":"K_INVARIANT_BROKEN","type":"bool","internalType":"bool"},{"name":"HIGH_SWAP_IMPACT","type":"bool","internalType":"bool"},{"name":"FLASHLOAN_RISK","type":"bool","internalType":"bool"},{"name":"PRICE_MANIPULATED","type":"bool","internalType":"bool"},{"name":"tokenResult","type":"tuple[]","internalType":"struct TokenGuardResult[]","components":[{"name":"NOT_A_CONTRACT","type":"bool","internalType":"bool"},{"name":"EMPTY_BYTECODE","type":"bool","internalType":"bool"},{"name":"DECIMALS_REVERT","type":"bool","internalType":"bool"},{"name":"WEIRD_DECIMALS","type":"bool","internalType":"bool"},{"name":"HIGH_DECIMALS","type":"bool","internalType":"bool"},{"name":"TOTAL_SUPPLY_REVERT","type":"bool","internalType":"bool"},{"name":"ZERO_TOTAL_SUPPLY","type":"bool","internalType":"bool"},{"name":"VERY_LOW_TOTAL_SUPPLY","type":"bool","internalType":"bool"},{"name":"SYMBOL_REVERT","type":"bool","internalType":"bool"},{"name":"NAME_REVERT","type":"bool","internalType":"bool"},{"name":"IS_EIP1967_PROXY","type":"bool","internalType":"bool"},{"name":"IS_EIP1822_PROXY","type":"bool","internalType":"bool"},{"name":"IS_MINIMAL_PROXY","type":"bool","internalType":"bool"},{"name":"HAS_OWNER","type":"bool","internalType":"bool"},{"name":"OWNERSHIP_RENOUNCED","type":"bool","internalType":"bool"},{"name":"OWNER_IS_EOA","type":"bool","internalType":"bool"},{"name":"IS_PAUSABLE","type":"bool","internalType":"bool"},{"name":"IS_CURRENTLY_PAUSED","type":"bool","internalType":"bool"},{"name":"HAS_BLACKLIST","type":"bool","internalType":"bool"},{"name":"HAS_BLOCKLIST","type":"bool","internalType":"bool"},{"name":"POSSIBLE_FEE_ON_TRANSFER","type":"bool","internalType":"bool"},{"name":"HAS_TRANSFER_FEE_GETTER","type":"bool","internalType":"bool"},{"name":"HAS_TAX_FUNCTION","type":"bool","internalType":"bool"},{"name":"POSSIBLE_REBASING","type":"bool","internalType":"bool"},{"name":"HAS_MINT_CAPABILITY","type":"bool","internalType":"bool"},{"name":"HAS_BURN_CAPABILITY","type":"bool","internalType":"bool"},{"name":"HAS_PERMIT","type":"bool","internalType":"bool"},{"name":"HAS_FLASH_MINT","type":"bool","internalType":"bool"}]}]},{"name":"packedRiskReport","type":"uint256","internalType":"uint256"},{"name":"report","type":"tuple","internalType":"struct SwapV2DecodedRiskReport","components":[{"name":"core","type":"tuple","internalType":"struct PolicyCoreView","components":[{"name":"kind","type":"uint8","internalType":"enum PolicyKind"},{"name":"operation","type":"uint8","internalType":"uint8"},{"name":"version","type":"uint8","internalType":"uint8"},{"name":"finalCategory","type":"uint8","internalType":"enum PolicyRiskCategory"},{"name":"offChainCategory","type":"uint8","internalType":"enum PolicyRiskCategory"},{"name":"compositeScore","type":"uint8","internalType":"uint8"},{"name":"onChainScore","type":"uint8","internalType":"uint8"},{"name":"offChainScore","type":"uint8","internalType":"uint8"},{"name":"onChainCriticalCount","type":"uint8","internalType":"uint8"},{"name":"onChainWarningCount","type":"uint8","internalType":"uint8"},{"name":"offChainInfoCount","type":"uint8","internalType":"uint8"},{"name":"anyHardBlock","type":"bool","internalType":"bool"},{"name":"offChainValid","type":"bool","internalType":"bool"},{"name":"onChainFlagsPacked","type":"uint32","internalType":"uint32"},{"name":"offChainFlagsPacked","type":"uint32","internalType":"uint32"},{"name":"tokenFlagsPacked","type":"uint32","internalType":"uint32"},{"name":"priceImpactBps","type":"uint16","internalType":"uint16"},{"name":"outputDiscrepancyBps","type":"uint16","internalType":"uint16"},{"name":"ratioDeviationBps","type":"uint16","internalType":"uint16"},{"name":"tokenCriticalCount","type":"uint8","internalType":"uint8"},{"name":"tokenWarningCount","type":"uint8","internalType":"uint8"},{"name":"tokenRiskEvaluated","type":"bool","internalType":"bool"}]},{"name":"offChain","type":"tuple","internalType":"struct PolicyOffChainView","components":[{"name":"hasDangerousDelegateCall","type":"bool","internalType":"bool"},{"name":"hasSelfDestruct","type":"bool","internalType":"bool"},{"name":"hasApprovalDrain","type":"bool","internalType":"bool"},{"name":"hasOwnerSweep","type":"bool","internalType":"bool"},{"name":"hasReentrancy","type":"bool","internalType":"bool"},{"name":"hasUnexpectedCreate","type":"bool","internalType":"bool"},{"name":"hasUpgradeCall","type":"bool","internalType":"bool"},{"name":"isExitFrozen","type":"bool","internalType":"bool"},{"name":"isRemovalFrozen","type":"bool","internalType":"bool"},{"name":"isFirstDeposit","type":"bool","internalType":"bool"},{"name":"isFeeOnTransfer","type":"bool","internalType":"bool"},{"name":"anyOracleStale","type":"bool","internalType":"bool"},{"name":"anyContractUnverified","type":"bool","internalType":"bool"},{"name":"oracleDeviation","type":"bool","internalType":"bool"},{"name":"simulationReverted","type":"bool","internalType":"bool"}]},{"name":"tokenRisk","type":"tuple","internalType":"struct PolicyTokenFlagsView","components":[{"name":"evaluated","type":"bool","internalType":"bool"},{"name":"notAContract","type":"bool","internalType":"bool"},{"name":"emptyBytecode","type":"bool","internalType":"bool"},{"name":"decimalsRevert","type":"bool","internalType":"bool"},{"name":"weirdDecimals","type":"bool","internalType":"bool"},{"name":"highDecimals","type":"bool","internalType":"bool"},{"name":"totalSupplyRevert","type":"bool","internalType":"bool"},{"name":"zeroTotalSupply","type":"bool","internalType":"bool"},{"name":"veryLowTotalSupply","type":"bool","internalType":"bool"},{"name":"symbolRevert","type":"bool","internalType":"bool"},{"name":"nameRevert","type":"bool","internalType":"bool"},{"name":"isEip1967Proxy","type":"bool","internalType":"bool"},{"name":"isEip1822Proxy","type":"bool","internalType":"bool"},{"name":"isMinimalProxy","type":"bool","internalType":"bool"},{"name":"hasOwner","type":"bool","internalType":"bool"},{"name":"ownershipRenounced","type":"bool","internalType":"bool"},{"name":"ownerIsEoa","type":"bool","internalType":"bool"},{"name":"isPausable","type":"bool","internalType":"bool"},{"name":"isCurrentlyPaused","type":"bool","internalType":"bool"},{"name":"hasBlacklist","type":"bool","internalType":"bool"},{"name":"hasBlocklist","type":"bool","internalType":"bool"},{"name":"possibleFeeOnTransfer","type":"bool","internalType":"bool"},{"name":"hasTransferFeeGetter","type":"bool","internalType":"bool"},{"name":"hasTaxFunction","type":"bool","internalType":"bool"},{"name":"possibleRebasing","type":"bool","internalType":"bool"},{"name":"hasMintCapability","type":"bool","internalType":"bool"},{"name":"hasBurnCapability","type":"bool","internalType":"bool"},{"name":"hasPermit","type":"bool","internalType":"bool"},{"name":"hasFlashMint","type":"bool","internalType":"bool"}]},{"name":"enhancedView","type":"tuple","internalType":"struct EnhancedCoreView","components":[{"name":"economicSeverityTier","type":"uint8","internalType":"uint8"},{"name":"oracleAgeTier","type":"uint8","internalType":"uint8"},{"name":"excessPullTier","type":"uint8","internalType":"uint8"},{"name":"sharePriceDriftTier","type":"uint8","internalType":"uint8"},{"name":"compoundRiskCount","type":"uint8","internalType":"uint8"},{"name":"simulationRevertBlock","type":"bool","internalType":"bool"},{"name":"sweepSeverityTier","type":"uint8","internalType":"uint8"},{"name":"enhancedDataPresent","type":"bool","internalType":"bool"}]},{"name":"operation","type":"uint8","internalType":"enum SwapOpType"},{"name":"onChain","type":"tuple","internalType":"struct SwapV2OnChainView","components":[{"name":"routerNotTrusted","type":"bool","internalType":"bool"},{"name":"factoryNotTrusted","type":"bool","internalType":"bool"},{"name":"deepMultihop","type":"bool","internalType":"bool"},{"name":"duplicateTokenInPath","type":"bool","internalType":"bool"},{"name":"poolNotExists","type":"bool","internalType":"bool"},{"name":"factoryMismatch","type":"bool","internalType":"bool"},{"name":"zeroLiquidity","type":"bool","internalType":"bool"},{"name":"lowLiquidity","type":"bool","internalType":"bool"},{"name":"lowLpSupply","type":"bool","internalType":"bool"},{"name":"poolTooNew","type":"bool","internalType":"bool"},{"name":"severeImbalance","type":"bool","internalType":"bool"},{"name":"kInvariantBroken","type":"bool","internalType":"bool"},{"name":"highSwapImpact","type":"bool","internalType":"bool"},{"name":"flashloanRisk","type":"bool","internalType":"bool"},{"name":"priceManipulated","type":"bool","internalType":"bool"}]}]}],"stateMutability":"view"},{"type":"function","name":"previewGuardedSwapExactTokensForTokens","inputs":[{"name":"ammRouter","type":"address","internalType":"address"},{"name":"path","type":"address[]","internalType":"address[]"},{"name":"amountIn","type":"uint256","internalType":"uint256"},{"name":"offChainData","type":"bytes","internalType":"bytes"}],"outputs":[{"name":"result","type":"tuple","internalType":"struct SwapV2GuardResult","components":[{"name":"ROUTER_NOT_TRUSTED","type":"bool","internalType":"bool"},{"name":"FACTORY_NOT_TRUSTED","type":"bool","internalType":"bool"},{"name":"DEEP_MULTIHOP","type":"bool","internalType":"bool"},{"name":"DUPLICATE_TOKEN_IN_PATH","type":"bool","internalType":"bool"},{"name":"POOL_NOT_EXISTS","type":"bool","internalType":"bool"},{"name":"FACTORY_MISMATCH","type":"bool","internalType":"bool"},{"name":"ZERO_LIQUIDITY","type":"bool","internalType":"bool"},{"name":"LOW_LIQUIDITY","type":"bool","internalType":"bool"},{"name":"LOW_LP_SUPPLY","type":"bool","internalType":"bool"},{"name":"POOL_TOO_NEW","type":"bool","internalType":"bool"},{"name":"SEVERE_IMBALANCE","type":"bool","internalType":"bool"},{"name":"K_INVARIANT_BROKEN","type":"bool","internalType":"bool"},{"name":"HIGH_SWAP_IMPACT","type":"bool","internalType":"bool"},{"name":"FLASHLOAN_RISK","type":"bool","internalType":"bool"},{"name":"PRICE_MANIPULATED","type":"bool","internalType":"bool"},{"name":"tokenResult","type":"tuple[]","internalType":"struct TokenGuardResult[]","components":[{"name":"NOT_A_CONTRACT","type":"bool","internalType":"bool"},{"name":"EMPTY_BYTECODE","type":"bool","internalType":"bool"},{"name":"DECIMALS_REVERT","type":"bool","internalType":"bool"},{"name":"WEIRD_DECIMALS","type":"bool","internalType":"bool"},{"name":"HIGH_DECIMALS","type":"bool","internalType":"bool"},{"name":"TOTAL_SUPPLY_REVERT","type":"bool","internalType":"bool"},{"name":"ZERO_TOTAL_SUPPLY","type":"bool","internalType":"bool"},{"name":"VERY_LOW_TOTAL_SUPPLY","type":"bool","internalType":"bool"},{"name":"SYMBOL_REVERT","type":"bool","internalType":"bool"},{"name":"NAME_REVERT","type":"bool","internalType":"bool"},{"name":"IS_EIP1967_PROXY","type":"bool","internalType":"bool"},{"name":"IS_EIP1822_PROXY","type":"bool","internalType":"bool"},{"name":"IS_MINIMAL_PROXY","type":"bool","internalType":"bool"},{"name":"HAS_OWNER","type":"bool","internalType":"bool"},{"name":"OWNERSHIP_RENOUNCED","type":"bool","internalType":"bool"},{"name":"OWNER_IS_EOA","type":"bool","internalType":"bool"},{"name":"IS_PAUSABLE","type":"bool","internalType":"bool"},{"name":"IS_CURRENTLY_PAUSED","type":"bool","internalType":"bool"},{"name":"HAS_BLACKLIST","type":"bool","internalType":"bool"},{"name":"HAS_BLOCKLIST","type":"bool","internalType":"bool"},{"name":"POSSIBLE_FEE_ON_TRANSFER","type":"bool","internalType":"bool"},{"name":"HAS_TRANSFER_FEE_GETTER","type":"bool","internalType":"bool"},{"name":"HAS_TAX_FUNCTION","type":"bool","internalType":"bool"},{"name":"POSSIBLE_REBASING","type":"bool","internalType":"bool"},{"name":"HAS_MINT_CAPABILITY","type":"bool","internalType":"bool"},{"name":"HAS_BURN_CAPABILITY","type":"bool","internalType":"bool"},{"name":"HAS_PERMIT","type":"bool","internalType":"bool"},{"name":"HAS_FLASH_MINT","type":"bool","internalType":"bool"}]}]},{"name":"packedRiskReport","type":"uint256","internalType":"uint256"},{"name":"report","type":"tuple","internalType":"struct SwapV2DecodedRiskReport","components":[{"name":"core","type":"tuple","internalType":"struct PolicyCoreView","components":[{"name":"kind","type":"uint8","internalType":"enum PolicyKind"},{"name":"operation","type":"uint8","internalType":"uint8"},{"name":"version","type":"uint8","internalType":"uint8"},{"name":"finalCategory","type":"uint8","internalType":"enum PolicyRiskCategory"},{"name":"offChainCategory","type":"uint8","internalType":"enum PolicyRiskCategory"},{"name":"compositeScore","type":"uint8","internalType":"uint8"},{"name":"onChainScore","type":"uint8","internalType":"uint8"},{"name":"offChainScore","type":"uint8","internalType":"uint8"},{"name":"onChainCriticalCount","type":"uint8","internalType":"uint8"},{"name":"onChainWarningCount","type":"uint8","internalType":"uint8"},{"name":"offChainInfoCount","type":"uint8","internalType":"uint8"},{"name":"anyHardBlock","type":"bool","internalType":"bool"},{"name":"offChainValid","type":"bool","internalType":"bool"},{"name":"onChainFlagsPacked","type":"uint32","internalType":"uint32"},{"name":"offChainFlagsPacked","type":"uint32","internalType":"uint32"},{"name":"tokenFlagsPacked","type":"uint32","internalType":"uint32"},{"name":"priceImpactBps","type":"uint16","internalType":"uint16"},{"name":"outputDiscrepancyBps","type":"uint16","internalType":"uint16"},{"name":"ratioDeviationBps","type":"uint16","internalType":"uint16"},{"name":"tokenCriticalCount","type":"uint8","internalType":"uint8"},{"name":"tokenWarningCount","type":"uint8","internalType":"uint8"},{"name":"tokenRiskEvaluated","type":"bool","internalType":"bool"}]},{"name":"offChain","type":"tuple","internalType":"struct PolicyOffChainView","components":[{"name":"hasDangerousDelegateCall","type":"bool","internalType":"bool"},{"name":"hasSelfDestruct","type":"bool","internalType":"bool"},{"name":"hasApprovalDrain","type":"bool","internalType":"bool"},{"name":"hasOwnerSweep","type":"bool","internalType":"bool"},{"name":"hasReentrancy","type":"bool","internalType":"bool"},{"name":"hasUnexpectedCreate","type":"bool","internalType":"bool"},{"name":"hasUpgradeCall","type":"bool","internalType":"bool"},{"name":"isExitFrozen","type":"bool","internalType":"bool"},{"name":"isRemovalFrozen","type":"bool","internalType":"bool"},{"name":"isFirstDeposit","type":"bool","internalType":"bool"},{"name":"isFeeOnTransfer","type":"bool","internalType":"bool"},{"name":"anyOracleStale","type":"bool","internalType":"bool"},{"name":"anyContractUnverified","type":"bool","internalType":"bool"},{"name":"oracleDeviation","type":"bool","internalType":"bool"},{"name":"simulationReverted","type":"bool","internalType":"bool"}]},{"name":"tokenRisk","type":"tuple","internalType":"struct PolicyTokenFlagsView","components":[{"name":"evaluated","type":"bool","internalType":"bool"},{"name":"notAContract","type":"bool","internalType":"bool"},{"name":"emptyBytecode","type":"bool","internalType":"bool"},{"name":"decimalsRevert","type":"bool","internalType":"bool"},{"name":"weirdDecimals","type":"bool","internalType":"bool"},{"name":"highDecimals","type":"bool","internalType":"bool"},{"name":"totalSupplyRevert","type":"bool","internalType":"bool"},{"name":"zeroTotalSupply","type":"bool","internalType":"bool"},{"name":"veryLowTotalSupply","type":"bool","internalType":"bool"},{"name":"symbolRevert","type":"bool","internalType":"bool"},{"name":"nameRevert","type":"bool","internalType":"bool"},{"name":"isEip1967Proxy","type":"bool","internalType":"bool"},{"name":"isEip1822Proxy","type":"bool","internalType":"bool"},{"name":"isMinimalProxy","type":"bool","internalType":"bool"},{"name":"hasOwner","type":"bool","internalType":"bool"},{"name":"ownershipRenounced","type":"bool","internalType":"bool"},{"name":"ownerIsEoa","type":"bool","internalType":"bool"},{"name":"isPausable","type":"bool","internalType":"bool"},{"name":"isCurrentlyPaused","type":"bool","internalType":"bool"},{"name":"hasBlacklist","type":"bool","internalType":"bool"},{"name":"hasBlocklist","type":"bool","internalType":"bool"},{"name":"possibleFeeOnTransfer","type":"bool","internalType":"bool"},{"name":"hasTransferFeeGetter","type":"bool","internalType":"bool"},{"name":"hasTaxFunction","type":"bool","internalType":"bool"},{"name":"possibleRebasing","type":"bool","internalType":"bool"},{"name":"hasMintCapability","type":"bool","internalType":"bool"},{"name":"hasBurnCapability","type":"bool","internalType":"bool"},{"name":"hasPermit","type":"bool","internalType":"bool"},{"name":"hasFlashMint","type":"bool","internalType":"bool"}]},{"name":"enhancedView","type":"tuple","internalType":"struct EnhancedCoreView","components":[{"name":"economicSeverityTier","type":"uint8","internalType":"uint8"},{"name":"oracleAgeTier","type":"uint8","internalType":"uint8"},{"name":"excessPullTier","type":"uint8","internalType":"uint8"},{"name":"sharePriceDriftTier","type":"uint8","internalType":"uint8"},{"name":"compoundRiskCount","type":"uint8","internalType":"uint8"},{"name":"simulationRevertBlock","type":"bool","internalType":"bool"},{"name":"sweepSeverityTier","type":"uint8","internalType":"uint8"},{"name":"enhancedDataPresent","type":"bool","internalType":"bool"}]},{"name":"operation","type":"uint8","internalType":"enum SwapOpType"},{"name":"onChain","type":"tuple","internalType":"struct SwapV2OnChainView","components":[{"name":"routerNotTrusted","type":"bool","internalType":"bool"},{"name":"factoryNotTrusted","type":"bool","internalType":"bool"},{"name":"deepMultihop","type":"bool","internalType":"bool"},{"name":"duplicateTokenInPath","type":"bool","internalType":"bool"},{"name":"poolNotExists","type":"bool","internalType":"bool"},{"name":"factoryMismatch","type":"bool","internalType":"bool"},{"name":"zeroLiquidity","type":"bool","internalType":"bool"},{"name":"lowLiquidity","type":"bool","internalType":"bool"},{"name":"lowLpSupply","type":"bool","internalType":"bool"},{"name":"poolTooNew","type":"bool","internalType":"bool"},{"name":"severeImbalance","type":"bool","internalType":"bool"},{"name":"kInvariantBroken","type":"bool","internalType":"bool"},{"name":"highSwapImpact","type":"bool","internalType":"bool"},{"name":"flashloanRisk","type":"bool","internalType":"bool"},{"name":"priceManipulated","type":"bool","internalType":"bool"}]}]}],"stateMutability":"view"},{"type":"function","name":"previewGuardedSwapTokensForExactETH","inputs":[{"name":"ammRouter","type":"address","internalType":"address"},{"name":"path","type":"address[]","internalType":"address[]"},{"name":"amountInMax","type":"uint256","internalType":"uint256"},{"name":"offChainData","type":"bytes","internalType":"bytes"}],"outputs":[{"name":"result","type":"tuple","internalType":"struct SwapV2GuardResult","components":[{"name":"ROUTER_NOT_TRUSTED","type":"bool","internalType":"bool"},{"name":"FACTORY_NOT_TRUSTED","type":"bool","internalType":"bool"},{"name":"DEEP_MULTIHOP","type":"bool","internalType":"bool"},{"name":"DUPLICATE_TOKEN_IN_PATH","type":"bool","internalType":"bool"},{"name":"POOL_NOT_EXISTS","type":"bool","internalType":"bool"},{"name":"FACTORY_MISMATCH","type":"bool","internalType":"bool"},{"name":"ZERO_LIQUIDITY","type":"bool","internalType":"bool"},{"name":"LOW_LIQUIDITY","type":"bool","internalType":"bool"},{"name":"LOW_LP_SUPPLY","type":"bool","internalType":"bool"},{"name":"POOL_TOO_NEW","type":"bool","internalType":"bool"},{"name":"SEVERE_IMBALANCE","type":"bool","internalType":"bool"},{"name":"K_INVARIANT_BROKEN","type":"bool","internalType":"bool"},{"name":"HIGH_SWAP_IMPACT","type":"bool","internalType":"bool"},{"name":"FLASHLOAN_RISK","type":"bool","internalType":"bool"},{"name":"PRICE_MANIPULATED","type":"bool","internalType":"bool"},{"name":"tokenResult","type":"tuple[]","internalType":"struct TokenGuardResult[]","components":[{"name":"NOT_A_CONTRACT","type":"bool","internalType":"bool"},{"name":"EMPTY_BYTECODE","type":"bool","internalType":"bool"},{"name":"DECIMALS_REVERT","type":"bool","internalType":"bool"},{"name":"WEIRD_DECIMALS","type":"bool","internalType":"bool"},{"name":"HIGH_DECIMALS","type":"bool","internalType":"bool"},{"name":"TOTAL_SUPPLY_REVERT","type":"bool","internalType":"bool"},{"name":"ZERO_TOTAL_SUPPLY","type":"bool","internalType":"bool"},{"name":"VERY_LOW_TOTAL_SUPPLY","type":"bool","internalType":"bool"},{"name":"SYMBOL_REVERT","type":"bool","internalType":"bool"},{"name":"NAME_REVERT","type":"bool","internalType":"bool"},{"name":"IS_EIP1967_PROXY","type":"bool","internalType":"bool"},{"name":"IS_EIP1822_PROXY","type":"bool","internalType":"bool"},{"name":"IS_MINIMAL_PROXY","type":"bool","internalType":"bool"},{"name":"HAS_OWNER","type":"bool","internalType":"bool"},{"name":"OWNERSHIP_RENOUNCED","type":"bool","internalType":"bool"},{"name":"OWNER_IS_EOA","type":"bool","internalType":"bool"},{"name":"IS_PAUSABLE","type":"bool","internalType":"bool"},{"name":"IS_CURRENTLY_PAUSED","type":"bool","internalType":"bool"},{"name":"HAS_BLACKLIST","type":"bool","internalType":"bool"},{"name":"HAS_BLOCKLIST","type":"bool","internalType":"bool"},{"name":"POSSIBLE_FEE_ON_TRANSFER","type":"bool","internalType":"bool"},{"name":"HAS_TRANSFER_FEE_GETTER","type":"bool","internalType":"bool"},{"name":"HAS_TAX_FUNCTION","type":"bool","internalType":"bool"},{"name":"POSSIBLE_REBASING","type":"bool","internalType":"bool"},{"name":"HAS_MINT_CAPABILITY","type":"bool","internalType":"bool"},{"name":"HAS_BURN_CAPABILITY","type":"bool","internalType":"bool"},{"name":"HAS_PERMIT","type":"bool","internalType":"bool"},{"name":"HAS_FLASH_MINT","type":"bool","internalType":"bool"}]}]},{"name":"packedRiskReport","type":"uint256","internalType":"uint256"},{"name":"report","type":"tuple","internalType":"struct SwapV2DecodedRiskReport","components":[{"name":"core","type":"tuple","internalType":"struct PolicyCoreView","components":[{"name":"kind","type":"uint8","internalType":"enum PolicyKind"},{"name":"operation","type":"uint8","internalType":"uint8"},{"name":"version","type":"uint8","internalType":"uint8"},{"name":"finalCategory","type":"uint8","internalType":"enum PolicyRiskCategory"},{"name":"offChainCategory","type":"uint8","internalType":"enum PolicyRiskCategory"},{"name":"compositeScore","type":"uint8","internalType":"uint8"},{"name":"onChainScore","type":"uint8","internalType":"uint8"},{"name":"offChainScore","type":"uint8","internalType":"uint8"},{"name":"onChainCriticalCount","type":"uint8","internalType":"uint8"},{"name":"onChainWarningCount","type":"uint8","internalType":"uint8"},{"name":"offChainInfoCount","type":"uint8","internalType":"uint8"},{"name":"anyHardBlock","type":"bool","internalType":"bool"},{"name":"offChainValid","type":"bool","internalType":"bool"},{"name":"onChainFlagsPacked","type":"uint32","internalType":"uint32"},{"name":"offChainFlagsPacked","type":"uint32","internalType":"uint32"},{"name":"tokenFlagsPacked","type":"uint32","internalType":"uint32"},{"name":"priceImpactBps","type":"uint16","internalType":"uint16"},{"name":"outputDiscrepancyBps","type":"uint16","internalType":"uint16"},{"name":"ratioDeviationBps","type":"uint16","internalType":"uint16"},{"name":"tokenCriticalCount","type":"uint8","internalType":"uint8"},{"name":"tokenWarningCount","type":"uint8","internalType":"uint8"},{"name":"tokenRiskEvaluated","type":"bool","internalType":"bool"}]},{"name":"offChain","type":"tuple","internalType":"struct PolicyOffChainView","components":[{"name":"hasDangerousDelegateCall","type":"bool","internalType":"bool"},{"name":"hasSelfDestruct","type":"bool","internalType":"bool"},{"name":"hasApprovalDrain","type":"bool","internalType":"bool"},{"name":"hasOwnerSweep","type":"bool","internalType":"bool"},{"name":"hasReentrancy","type":"bool","internalType":"bool"},{"name":"hasUnexpectedCreate","type":"bool","internalType":"bool"},{"name":"hasUpgradeCall","type":"bool","internalType":"bool"},{"name":"isExitFrozen","type":"bool","internalType":"bool"},{"name":"isRemovalFrozen","type":"bool","internalType":"bool"},{"name":"isFirstDeposit","type":"bool","internalType":"bool"},{"name":"isFeeOnTransfer","type":"bool","internalType":"bool"},{"name":"anyOracleStale","type":"bool","internalType":"bool"},{"name":"anyContractUnverified","type":"bool","internalType":"bool"},{"name":"oracleDeviation","type":"bool","internalType":"bool"},{"name":"simulationReverted","type":"bool","internalType":"bool"}]},{"name":"tokenRisk","type":"tuple","internalType":"struct PolicyTokenFlagsView","components":[{"name":"evaluated","type":"bool","internalType":"bool"},{"name":"notAContract","type":"bool","internalType":"bool"},{"name":"emptyBytecode","type":"bool","internalType":"bool"},{"name":"decimalsRevert","type":"bool","internalType":"bool"},{"name":"weirdDecimals","type":"bool","internalType":"bool"},{"name":"highDecimals","type":"bool","internalType":"bool"},{"name":"totalSupplyRevert","type":"bool","internalType":"bool"},{"name":"zeroTotalSupply","type":"bool","internalType":"bool"},{"name":"veryLowTotalSupply","type":"bool","internalType":"bool"},{"name":"symbolRevert","type":"bool","internalType":"bool"},{"name":"nameRevert","type":"bool","internalType":"bool"},{"name":"isEip1967Proxy","type":"bool","internalType":"bool"},{"name":"isEip1822Proxy","type":"bool","internalType":"bool"},{"name":"isMinimalProxy","type":"bool","internalType":"bool"},{"name":"hasOwner","type":"bool","internalType":"bool"},{"name":"ownershipRenounced","type":"bool","internalType":"bool"},{"name":"ownerIsEoa","type":"bool","internalType":"bool"},{"name":"isPausable","type":"bool","internalType":"bool"},{"name":"isCurrentlyPaused","type":"bool","internalType":"bool"},{"name":"hasBlacklist","type":"bool","internalType":"bool"},{"name":"hasBlocklist","type":"bool","internalType":"bool"},{"name":"possibleFeeOnTransfer","type":"bool","internalType":"bool"},{"name":"hasTransferFeeGetter","type":"bool","internalType":"bool"},{"name":"hasTaxFunction","type":"bool","internalType":"bool"},{"name":"possibleRebasing","type":"bool","internalType":"bool"},{"name":"hasMintCapability","type":"bool","internalType":"bool"},{"name":"hasBurnCapability","type":"bool","internalType":"bool"},{"name":"hasPermit","type":"bool","internalType":"bool"},{"name":"hasFlashMint","type":"bool","internalType":"bool"}]},{"name":"enhancedView","type":"tuple","internalType":"struct EnhancedCoreView","components":[{"name":"economicSeverityTier","type":"uint8","internalType":"uint8"},{"name":"oracleAgeTier","type":"uint8","internalType":"uint8"},{"name":"excessPullTier","type":"uint8","internalType":"uint8"},{"name":"sharePriceDriftTier","type":"uint8","internalType":"uint8"},{"name":"compoundRiskCount","type":"uint8","internalType":"uint8"},{"name":"simulationRevertBlock","type":"bool","internalType":"bool"},{"name":"sweepSeverityTier","type":"uint8","internalType":"uint8"},{"name":"enhancedDataPresent","type":"bool","internalType":"bool"}]},{"name":"operation","type":"uint8","internalType":"enum SwapOpType"},{"name":"onChain","type":"tuple","internalType":"struct SwapV2OnChainView","components":[{"name":"routerNotTrusted","type":"bool","internalType":"bool"},{"name":"factoryNotTrusted","type":"bool","internalType":"bool"},{"name":"deepMultihop","type":"bool","internalType":"bool"},{"name":"duplicateTokenInPath","type":"bool","internalType":"bool"},{"name":"poolNotExists","type":"bool","internalType":"bool"},{"name":"factoryMismatch","type":"bool","internalType":"bool"},{"name":"zeroLiquidity","type":"bool","internalType":"bool"},{"name":"lowLiquidity","type":"bool","internalType":"bool"},{"name":"lowLpSupply","type":"bool","internalType":"bool"},{"name":"poolTooNew","type":"bool","internalType":"bool"},{"name":"severeImbalance","type":"bool","internalType":"bool"},{"name":"kInvariantBroken","type":"bool","internalType":"bool"},{"name":"highSwapImpact","type":"bool","internalType":"bool"},{"name":"flashloanRisk","type":"bool","internalType":"bool"},{"name":"priceManipulated","type":"bool","internalType":"bool"}]}]}],"stateMutability":"view"},{"type":"function","name":"previewGuardedSwapTokensForExactTokens","inputs":[{"name":"ammRouter","type":"address","internalType":"address"},{"name":"path","type":"address[]","internalType":"address[]"},{"name":"amountInMax","type":"uint256","internalType":"uint256"},{"name":"offChainData","type":"bytes","internalType":"bytes"}],"outputs":[{"name":"result","type":"tuple","internalType":"struct SwapV2GuardResult","components":[{"name":"ROUTER_NOT_TRUSTED","type":"bool","internalType":"bool"},{"name":"FACTORY_NOT_TRUSTED","type":"bool","internalType":"bool"},{"name":"DEEP_MULTIHOP","type":"bool","internalType":"bool"},{"name":"DUPLICATE_TOKEN_IN_PATH","type":"bool","internalType":"bool"},{"name":"POOL_NOT_EXISTS","type":"bool","internalType":"bool"},{"name":"FACTORY_MISMATCH","type":"bool","internalType":"bool"},{"name":"ZERO_LIQUIDITY","type":"bool","internalType":"bool"},{"name":"LOW_LIQUIDITY","type":"bool","internalType":"bool"},{"name":"LOW_LP_SUPPLY","type":"bool","internalType":"bool"},{"name":"POOL_TOO_NEW","type":"bool","internalType":"bool"},{"name":"SEVERE_IMBALANCE","type":"bool","internalType":"bool"},{"name":"K_INVARIANT_BROKEN","type":"bool","internalType":"bool"},{"name":"HIGH_SWAP_IMPACT","type":"bool","internalType":"bool"},{"name":"FLASHLOAN_RISK","type":"bool","internalType":"bool"},{"name":"PRICE_MANIPULATED","type":"bool","internalType":"bool"},{"name":"tokenResult","type":"tuple[]","internalType":"struct TokenGuardResult[]","components":[{"name":"NOT_A_CONTRACT","type":"bool","internalType":"bool"},{"name":"EMPTY_BYTECODE","type":"bool","internalType":"bool"},{"name":"DECIMALS_REVERT","type":"bool","internalType":"bool"},{"name":"WEIRD_DECIMALS","type":"bool","internalType":"bool"},{"name":"HIGH_DECIMALS","type":"bool","internalType":"bool"},{"name":"TOTAL_SUPPLY_REVERT","type":"bool","internalType":"bool"},{"name":"ZERO_TOTAL_SUPPLY","type":"bool","internalType":"bool"},{"name":"VERY_LOW_TOTAL_SUPPLY","type":"bool","internalType":"bool"},{"name":"SYMBOL_REVERT","type":"bool","internalType":"bool"},{"name":"NAME_REVERT","type":"bool","internalType":"bool"},{"name":"IS_EIP1967_PROXY","type":"bool","internalType":"bool"},{"name":"IS_EIP1822_PROXY","type":"bool","internalType":"bool"},{"name":"IS_MINIMAL_PROXY","type":"bool","internalType":"bool"},{"name":"HAS_OWNER","type":"bool","internalType":"bool"},{"name":"OWNERSHIP_RENOUNCED","type":"bool","internalType":"bool"},{"name":"OWNER_IS_EOA","type":"bool","internalType":"bool"},{"name":"IS_PAUSABLE","type":"bool","internalType":"bool"},{"name":"IS_CURRENTLY_PAUSED","type":"bool","internalType":"bool"},{"name":"HAS_BLACKLIST","type":"bool","internalType":"bool"},{"name":"HAS_BLOCKLIST","type":"bool","internalType":"bool"},{"name":"POSSIBLE_FEE_ON_TRANSFER","type":"bool","internalType":"bool"},{"name":"HAS_TRANSFER_FEE_GETTER","type":"bool","internalType":"bool"},{"name":"HAS_TAX_FUNCTION","type":"bool","internalType":"bool"},{"name":"POSSIBLE_REBASING","type":"bool","internalType":"bool"},{"name":"HAS_MINT_CAPABILITY","type":"bool","internalType":"bool"},{"name":"HAS_BURN_CAPABILITY","type":"bool","internalType":"bool"},{"name":"HAS_PERMIT","type":"bool","internalType":"bool"},{"name":"HAS_FLASH_MINT","type":"bool","internalType":"bool"}]}]},{"name":"packedRiskReport","type":"uint256","internalType":"uint256"},{"name":"report","type":"tuple","internalType":"struct SwapV2DecodedRiskReport","components":[{"name":"core","type":"tuple","internalType":"struct PolicyCoreView","components":[{"name":"kind","type":"uint8","internalType":"enum PolicyKind"},{"name":"operation","type":"uint8","internalType":"uint8"},{"name":"version","type":"uint8","internalType":"uint8"},{"name":"finalCategory","type":"uint8","internalType":"enum PolicyRiskCategory"},{"name":"offChainCategory","type":"uint8","internalType":"enum PolicyRiskCategory"},{"name":"compositeScore","type":"uint8","internalType":"uint8"},{"name":"onChainScore","type":"uint8","internalType":"uint8"},{"name":"offChainScore","type":"uint8","internalType":"uint8"},{"name":"onChainCriticalCount","type":"uint8","internalType":"uint8"},{"name":"onChainWarningCount","type":"uint8","internalType":"uint8"},{"name":"offChainInfoCount","type":"uint8","internalType":"uint8"},{"name":"anyHardBlock","type":"bool","internalType":"bool"},{"name":"offChainValid","type":"bool","internalType":"bool"},{"name":"onChainFlagsPacked","type":"uint32","internalType":"uint32"},{"name":"offChainFlagsPacked","type":"uint32","internalType":"uint32"},{"name":"tokenFlagsPacked","type":"uint32","internalType":"uint32"},{"name":"priceImpactBps","type":"uint16","internalType":"uint16"},{"name":"outputDiscrepancyBps","type":"uint16","internalType":"uint16"},{"name":"ratioDeviationBps","type":"uint16","internalType":"uint16"},{"name":"tokenCriticalCount","type":"uint8","internalType":"uint8"},{"name":"tokenWarningCount","type":"uint8","internalType":"uint8"},{"name":"tokenRiskEvaluated","type":"bool","internalType":"bool"}]},{"name":"offChain","type":"tuple","internalType":"struct PolicyOffChainView","components":[{"name":"hasDangerousDelegateCall","type":"bool","internalType":"bool"},{"name":"hasSelfDestruct","type":"bool","internalType":"bool"},{"name":"hasApprovalDrain","type":"bool","internalType":"bool"},{"name":"hasOwnerSweep","type":"bool","internalType":"bool"},{"name":"hasReentrancy","type":"bool","internalType":"bool"},{"name":"hasUnexpectedCreate","type":"bool","internalType":"bool"},{"name":"hasUpgradeCall","type":"bool","internalType":"bool"},{"name":"isExitFrozen","type":"bool","internalType":"bool"},{"name":"isRemovalFrozen","type":"bool","internalType":"bool"},{"name":"isFirstDeposit","type":"bool","internalType":"bool"},{"name":"isFeeOnTransfer","type":"bool","internalType":"bool"},{"name":"anyOracleStale","type":"bool","internalType":"bool"},{"name":"anyContractUnverified","type":"bool","internalType":"bool"},{"name":"oracleDeviation","type":"bool","internalType":"bool"},{"name":"simulationReverted","type":"bool","internalType":"bool"}]},{"name":"tokenRisk","type":"tuple","internalType":"struct PolicyTokenFlagsView","components":[{"name":"evaluated","type":"bool","internalType":"bool"},{"name":"notAContract","type":"bool","internalType":"bool"},{"name":"emptyBytecode","type":"bool","internalType":"bool"},{"name":"decimalsRevert","type":"bool","internalType":"bool"},{"name":"weirdDecimals","type":"bool","internalType":"bool"},{"name":"highDecimals","type":"bool","internalType":"bool"},{"name":"totalSupplyRevert","type":"bool","internalType":"bool"},{"name":"zeroTotalSupply","type":"bool","internalType":"bool"},{"name":"veryLowTotalSupply","type":"bool","internalType":"bool"},{"name":"symbolRevert","type":"bool","internalType":"bool"},{"name":"nameRevert","type":"bool","internalType":"bool"},{"name":"isEip1967Proxy","type":"bool","internalType":"bool"},{"name":"isEip1822Proxy","type":"bool","internalType":"bool"},{"name":"isMinimalProxy","type":"bool","internalType":"bool"},{"name":"hasOwner","type":"bool","internalType":"bool"},{"name":"ownershipRenounced","type":"bool","internalType":"bool"},{"name":"ownerIsEoa","type":"bool","internalType":"bool"},{"name":"isPausable","type":"bool","internalType":"bool"},{"name":"isCurrentlyPaused","type":"bool","internalType":"bool"},{"name":"hasBlacklist","type":"bool","internalType":"bool"},{"name":"hasBlocklist","type":"bool","internalType":"bool"},{"name":"possibleFeeOnTransfer","type":"bool","internalType":"bool"},{"name":"hasTransferFeeGetter","type":"bool","internalType":"bool"},{"name":"hasTaxFunction","type":"bool","internalType":"bool"},{"name":"possibleRebasing","type":"bool","internalType":"bool"},{"name":"hasMintCapability","type":"bool","internalType":"bool"},{"name":"hasBurnCapability","type":"bool","internalType":"bool"},{"name":"hasPermit","type":"bool","internalType":"bool"},{"name":"hasFlashMint","type":"bool","internalType":"bool"}]},{"name":"enhancedView","type":"tuple","internalType":"struct EnhancedCoreView","components":[{"name":"economicSeverityTier","type":"uint8","internalType":"uint8"},{"name":"oracleAgeTier","type":"uint8","internalType":"uint8"},{"name":"excessPullTier","type":"uint8","internalType":"uint8"},{"name":"sharePriceDriftTier","type":"uint8","internalType":"uint8"},{"name":"compoundRiskCount","type":"uint8","internalType":"uint8"},{"name":"simulationRevertBlock","type":"bool","internalType":"bool"},{"name":"sweepSeverityTier","type":"uint8","internalType":"uint8"},{"name":"enhancedDataPresent","type":"bool","internalType":"bool"}]},{"name":"operation","type":"uint8","internalType":"enum SwapOpType"},{"name":"onChain","type":"tuple","internalType":"struct SwapV2OnChainView","components":[{"name":"routerNotTrusted","type":"bool","internalType":"bool"},{"name":"factoryNotTrusted","type":"bool","internalType":"bool"},{"name":"deepMultihop","type":"bool","internalType":"bool"},{"name":"duplicateTokenInPath","type":"bool","internalType":"bool"},{"name":"poolNotExists","type":"bool","internalType":"bool"},{"name":"factoryMismatch","type":"bool","internalType":"bool"},{"name":"zeroLiquidity","type":"bool","internalType":"bool"},{"name":"lowLiquidity","type":"bool","internalType":"bool"},{"name":"lowLpSupply","type":"bool","internalType":"bool"},{"name":"poolTooNew","type":"bool","internalType":"bool"},{"name":"severeImbalance","type":"bool","internalType":"bool"},{"name":"kInvariantBroken","type":"bool","internalType":"bool"},{"name":"highSwapImpact","type":"bool","internalType":"bool"},{"name":"flashloanRisk","type":"bool","internalType":"bool"},{"name":"priceManipulated","type":"bool","internalType":"bool"}]}]}],"stateMutability":"view"},{"type":"function","name":"renounceOwnership","inputs":[],"outputs":[],"stateMutability":"nonpayable"},{"type":"function","name":"rescueERC20","inputs":[{"name":"token","type":"address","internalType":"address"},{"name":"to","type":"address","internalType":"address"},{"name":"amount","type":"uint256","internalType":"uint256"}],"outputs":[],"stateMutability":"nonpayable"},{"type":"function","name":"rescueETH","inputs":[{"name":"to","type":"address","internalType":"address payable"},{"name":"amount","type":"uint256","internalType":"uint256"}],"outputs":[],"stateMutability":"nonpayable"},{"type":"function","name":"riskPolicy","inputs":[],"outputs":[{"name":"","type":"address","internalType":"contract SwapV2RiskPolicy"}],"stateMutability":"view"},{"type":"function","name":"riskReportNFT","inputs":[],"outputs":[{"name":"","type":"address","internalType":"contract IRiskReportNFT"}],"stateMutability":"view"},{"type":"function","name":"setRiskPolicy","inputs":[{"name":"newRiskPolicy","type":"address","internalType":"address"}],"outputs":[],"stateMutability":"nonpayable"},{"type":"function","name":"setRiskReportNFT","inputs":[{"name":"newRiskReportNFT","type":"address","internalType":"address"}],"outputs":[],"stateMutability":"nonpayable"},{"type":"function","name":"setSwapGuard","inputs":[{"name":"newGuard","type":"address","internalType":"address"}],"outputs":[],"stateMutability":"nonpayable"},{"type":"function","name":"storeAndMintSwapETHForExactTokensCheck","inputs":[{"name":"ammRouter","type":"address","internalType":"address"},{"name":"path","type":"address[]","internalType":"address[]"},{"name":"amountInMax","type":"uint256","internalType":"uint256"},{"name":"offChainData","type":"bytes","internalType":"bytes"}],"outputs":[{"name":"packedRiskReport","type":"uint256","internalType":"uint256"}],"stateMutability":"nonpayable"},{"type":"function","name":"storeAndMintSwapExactETHForTokensCheck","inputs":[{"name":"ammRouter","type":"address","internalType":"address"},{"name":"path","type":"address[]","internalType":"address[]"},{"name":"amountIn","type":"uint256","internalType":"uint256"},{"name":"offChainData","type":"bytes","internalType":"bytes"}],"outputs":[{"name":"packedRiskReport","type":"uint256","internalType":"uint256"}],"stateMutability":"nonpayable"},{"type":"function","name":"storeAndMintSwapExactTokensForETHCheck","inputs":[{"name":"ammRouter","type":"address","internalType":"address"},{"name":"path","type":"address[]","internalType":"address[]"},{"name":"amountIn","type":"uint256","internalType":"uint256"},{"name":"offChainData","type":"bytes","internalType":"bytes"}],"outputs":[{"name":"packedRiskReport","type":"uint256","internalType":"uint256"}],"stateMutability":"nonpayable"},{"type":"function","name":"storeAndMintSwapExactTokensForTokensCheck","inputs":[{"name":"ammRouter","type":"address","internalType":"address"},{"name":"path","type":"address[]","internalType":"address[]"},{"name":"amountIn","type":"uint256","internalType":"uint256"},{"name":"offChainData","type":"bytes","internalType":"bytes"}],"outputs":[{"name":"packedRiskReport","type":"uint256","internalType":"uint256"}],"stateMutability":"nonpayable"},{"type":"function","name":"storeAndMintSwapTokensForExactETHCheck","inputs":[{"name":"ammRouter","type":"address","internalType":"address"},{"name":"path","type":"address[]","internalType":"address[]"},{"name":"amountInMax","type":"uint256","internalType":"uint256"},{"name":"offChainData","type":"bytes","internalType":"bytes"}],"outputs":[{"name":"packedRiskReport","type":"uint256","internalType":"uint256"}],"stateMutability":"nonpayable"},{"type":"function","name":"storeAndMintSwapTokensForExactTokensCheck","inputs":[{"name":"ammRouter","type":"address","internalType":"address"},{"name":"path","type":"address[]","internalType":"address[]"},{"name":"amountInMax","type":"uint256","internalType":"uint256"},{"name":"offChainData","type":"bytes","internalType":"bytes"}],"outputs":[{"name":"packedRiskReport","type":"uint256","internalType":"uint256"}],"stateMutability":"nonpayable"},{"type":"function","name":"swapGuard","inputs":[],"outputs":[{"name":"","type":"address","internalType":"contract ISwapV2Guard"}],"stateMutability":"view"},{"type":"function","name":"transferOwnership","inputs":[{"name":"newOwner","type":"address","internalType":"address"}],"outputs":[],"stateMutability":"nonpayable"},{"type":"event","name":"GuardedSwapExecuted","inputs":[{"name":"user","type":"address","indexed":true,"internalType":"address"},{"name":"ammRouter","type":"address","indexed":true,"internalType":"address"},{"name":"receiver","type":"address","indexed":true,"internalType":"address"},{"name":"operation","type":"uint8","indexed":false,"internalType":"enum SwapOpType"},{"name":"pathHash","type":"bytes32","indexed":false,"internalType":"bytes32"},{"name":"packedRiskReport","type":"uint256","indexed":false,"internalType":"uint256"}],"anonymous":false},{"type":"event","name":"OwnershipTransferred","inputs":[{"name":"previousOwner","type":"address","indexed":true,"internalType":"address"},{"name":"newOwner","type":"address","indexed":true,"internalType":"address"}],"anonymous":false},{"type":"event","name":"RiskPolicyUpdated","inputs":[{"name":"newRiskPolicy","type":"address","indexed":true,"internalType":"address"}],"anonymous":false},{"type":"event","name":"RiskReportNFTUpdated","inputs":[{"name":"newRiskReportNFT","type":"address","indexed":true,"internalType":"address"}],"anonymous":false},{"type":"event","name":"SwapCheckStored","inputs":[{"name":"user","type":"address","indexed":true,"internalType":"address"},{"name":"ammRouter","type":"address","indexed":true,"internalType":"address"},{"name":"operation","type":"uint8","indexed":false,"internalType":"enum SwapOpType"},{"name":"pathHash","type":"bytes32","indexed":true,"internalType":"bytes32"},{"name":"amountForCheck","type":"uint256","indexed":false,"internalType":"uint256"},{"name":"packedRiskReport","type":"uint256","indexed":false,"internalType":"uint256"}],"anonymous":false},{"type":"event","name":"SwapGuardUpdated","inputs":[{"name":"newGuard","type":"address","indexed":true,"internalType":"address"}],"anonymous":false},{"type":"error","name":"InvalidEthValue","inputs":[]},{"type":"error","name":"InvalidPath","inputs":[]},{"type":"error","name":"InvalidReceiver","inputs":[]},{"type":"error","name":"InvalidWethPath","inputs":[]},{"type":"error","name":"ZeroAddress","inputs":[]}],"bytecode":{"object":"0x608060405234801561000f575f5ffd5b50604051616bfc380380616bfc83398181016040528101906100319190610314565b61004d6100426101ee60201b60201c565b6101f560201b60201c565b600180819055505f73ffffffffffffffffffffffffffffffffffffffff168373ffffffffffffffffffffffffffffffffffffffff1614806100b957505f73ffffffffffffffffffffffffffffffffffffffff168273ffffffffffffffffffffffffffffffffffffffff16145b806100ef57505f73ffffffffffffffffffffffffffffffffffffffff168173ffffffffffffffffffffffffffffffffffffffff16145b15610126576040517fd92e233d00000000000000000000000000000000000000000000000000000000815260040160405180910390fd5b8260025f6101000a81548173ffffffffffffffffffffffffffffffffffffffff021916908373ffffffffffffffffffffffffffffffffffffffff1602179055508160035f6101000a81548173ffffffffffffffffffffffffffffffffffffffff021916908373ffffffffffffffffffffffffffffffffffffffff1602179055508060045f6101000a81548173ffffffffffffffffffffffffffffffffffffffff021916908373ffffffffffffffffffffffffffffffffffffffff160217905550505050610364565b5f33905090565b5f5f5f9054906101000a900473ffffffffffffffffffffffffffffffffffffffff169050815f5f6101000a81548173ffffffffffffffffffffffffffffffffffffffff021916908373ffffffffffffffffffffffffffffffffffffffff1602179055508173ffffffffffffffffffffffffffffffffffffffff168173ffffffffffffffffffffffffffffffffffffffff167f8be0079c531659141344cd1fd0a4f28419497f9722a3daafe3b4186f6b6457e060405160405180910390a35050565b5f5ffd5b5f73ffffffffffffffffffffffffffffffffffffffff82169050919050565b5f6102e3826102ba565b9050919050565b6102f3816102d9565b81146102fd575f5ffd5b50565b5f8151905061030e816102ea565b92915050565b5f5f5f6060848603121561032b5761032a6102b6565b5b5f61033886828701610300565b935050602061034986828701610300565b925050604061035a86828701610300565b9150509250925092565b61688b806103715f395ff3fe6080604052600436106101d0575f3560e01c80638cfc45ee116100f6578063b2118a8d11610094578063e98216f111610063578063e98216f114610729578063f2fde38b14610753578063fcefb33a1461077b578063ff33d6bb146107b9576101d7565b8063b2118a8d14610672578063bf72b2a71461069a578063c1faf3ac146106c4578063e2b56b11146106ec576101d7565b806392008438116100d057806392008438146105a057806398ceee26146105c8578063ac92e81c146105f9578063ac9b2d6414610636576101d7565b80638cfc45ee146105125780638da5cb5b1461054e5780638f7984ed14610578576101d7565b80636844d3a31161016e5780637d6f770c1161013d5780637d6f770c1461043d57806385d329e61461046e5780638afa4ec0146104985780638cede51a146104d4576101d7565b80636844d3a31461037257806368775a1d146103ae5780636ca9758c146103eb578063715018a614610427576101d7565b80631bf5ed48116101aa5780631bf5ed481461027e5780631c6ada18146102bc5780633b66c0d4146102fa57806351e5f3a314610336576101d7565b806303f99df7146101db578063099a04e5146102185780631401562314610240576101d7565b366101d757005b5f5ffd5b3480156101e6575f5ffd5b5061020160048036038101906101fc91906138cc565b6107f7565b60405161020f929190613a83565b60405180910390f35b348015610223575f5ffd5b5061023e60048036038101906102399190613aec565b610b8e565b005b34801561024b575f5ffd5b5061026660048036038101906102619190613b2a565b610ca8565b60405161027593929190614921565b60405180910390f35b348015610289575f5ffd5b506102a4600480360381019061029f9190613b2a565b610ce6565b6040516102b393929190614921565b60405180910390f35b3480156102c7575f5ffd5b506102e260048036038101906102dd9190613b2a565b610d24565b6040516102f193929190614921565b60405180910390f35b348015610305575f5ffd5b50610320600480360381019061031b9190613b2a565b610d56565b60405161032d919061495e565b60405180910390f35b348015610341575f5ffd5b5061035c60048036038101906103579190613b2a565b610d8e565b604051610369919061495e565b60405180910390f35b34801561037d575f5ffd5b5061039860048036038101906103939190614977565b610dbb565b6040516103a591906149a2565b60405180910390f35b3480156103b9575f5ffd5b506103d460048036038101906103cf91906138cc565b610e64565b6040516103e2929190613a83565b60405180910390f35b3480156103f6575f5ffd5b50610411600480360381019061040c9190613b2a565b611206565b60405161041e919061495e565b60405180910390f35b348015610432575f5ffd5b5061043b61123e565b005b610457600480360381019061045291906149bc565b611251565b604051610465929190613a83565b60405180910390f35b348015610479575f5ffd5b5061048261148f565b60405161048f9190614ae1565b60405180910390f35b3480156104a3575f5ffd5b506104be60048036038101906104b99190613b2a565b6114b4565b6040516104cb919061495e565b60405180910390f35b3480156104df575f5ffd5b506104fa60048036038101906104f59190613b2a565b6114ec565b60405161050993929190614921565b60405180910390f35b34801561051d575f5ffd5b5061053860048036038101906105339190613b2a565b61152a565b604051610545919061495e565b60405180910390f35b348015610559575f5ffd5b50610562611556565b60405161056f9190614b09565b60405180910390f35b348015610583575f5ffd5b5061059e60048036038101906105999190614b22565b61157d565b005b3480156105ab575f5ffd5b506105c660048036038101906105c19190614b22565b611670565b005b6105e260048036038101906105dd9190614b4d565b611763565b6040516105f0929190613a83565b60405180910390f35b348015610604575f5ffd5b5061061f600480360381019061061a9190614c29565b611a7d565b60405161062d929190613a83565b60405180910390f35b348015610641575f5ffd5b5061065c60048036038101906106579190613b2a565b611d6e565b604051610669919061495e565b60405180910390f35b34801561067d575f5ffd5b5061069860048036038101906106939190614d05565b611da6565b005b3480156106a5575f5ffd5b506106ae611e43565b6040516106bb9190614d75565b60405180910390f35b3480156106cf575f5ffd5b506106ea60048036038101906106e59190614b22565b611e68565b005b3480156106f7575f5ffd5b50610712600480360381019061070d9190614c29565b611f5b565b604051610720929190613a83565b60405180910390f35b348015610734575f5ffd5b5061073d612259565b60405161074a9190614dae565b60405180910390f35b34801561075e575f5ffd5b5061077960048036038101906107749190614b22565b61227e565b005b348015610786575f5ffd5b506107a1600480360381019061079c9190613b2a565b612300565b6040516107b093929190614921565b60405180910390f35b3480156107c4575f5ffd5b506107df60048036038101906107da9190613b2a565b61233e565b6040516107ee93929190614921565b60405180910390f35b60605f610802612371565b61080b876123c0565b610814866123c0565b60025f9054906101000a900473ffffffffffffffffffffffffffffffffffffffff1673ffffffffffffffffffffffffffffffffffffffff16630e0665a58d8b8b8e336040518663ffffffff1660e01b8152600401610876959493929190614e83565b5f6040518083038186803b15801561088c575f5ffd5b505afa15801561089e573d5f5f3e3d5ffd5b505050506108b28c8a8a8d88886001612428565b905061090833308c8c8c5f8181106108cd576108cc614ecf565b5b90506020020160208101906108e29190614b22565b73ffffffffffffffffffffffffffffffffffffffff16612585909392919063ffffffff16565b61095a8c8b8b8b5f8181106109205761091f614ecf565b5b90506020020160208101906109359190614b22565b73ffffffffffffffffffffffffffffffffffffffff1661260e9092919063ffffffff16565b8b73ffffffffffffffffffffffffffffffffffffffff16638803dbee8c8c8c8c8c8b6040518763ffffffff1660e01b815260040161099d96959493929190614efc565b5f604051808303815f875af11580156109b8573d5f5f3e3d5ffd5b505050506040513d5f823e3d601f19601f820116820180604052508101906109e091906150b2565b9150610a348c5f8b8b5f8181106109fa576109f9614ecf565b5b9050602002016020810190610a0f9190614b22565b73ffffffffffffffffffffffffffffffffffffffff1661260e9092919063ffffffff16565b815f81518110610a4757610a46614ecf565b5b60200260200101518a1115610ace57610acd86835f81518110610a6d57610a6c614ecf565b5b60200260200101518c610a809190615126565b8b8b5f818110610a9357610a92614ecf565b5b9050602002016020810190610aa89190614b22565b73ffffffffffffffffffffffffffffffffffffffff166127299092919063ffffffff16565b5b8673ffffffffffffffffffffffffffffffffffffffff168c73ffffffffffffffffffffffffffffffffffffffff163373ffffffffffffffffffffffffffffffffffffffff167f2fa2c7c1a24072c9b6b24252267e97eafcde9157cdb8d669b7316116ce98837360018d8d604051602001610b49929190615159565b6040516020818303038152906040528051906020012086604051610b6f939291906151a2565b60405180910390a4610b7f6127af565b9a509a98505050505050505050565b610b966127b8565b5f73ffffffffffffffffffffffffffffffffffffffff168273ffffffffffffffffffffffffffffffffffffffff1603610bfb576040517fd92e233d00000000000000000000000000000000000000000000000000000000815260040160405180910390fd5b5f8273ffffffffffffffffffffffffffffffffffffffff1682604051610c2090615204565b5f6040518083038185875af1925050503d805f8114610c5a576040519150601f19603f3d011682016040523d82523d5f602084013e610c5f565b606091505b5050905080610ca3576040517f08c379a0000000000000000000000000000000000000000000000000000000008152600401610c9a90615272565b60405180910390fd5b505050565b610cb061332c565b5f610cb96133b8565b610cc4898989612836565b610cd4898989898989600461294c565b92509250925096509650969350505050565b610cee61332c565b5f610cf76133b8565b610d02898989612b55565b610d12898989898989600261294c565b92509250925096509650969350505050565b610d2c61332c565b5f610d356133b8565b610d448989898989895f61294c565b92509250925096509650969350505050565b5f610d5f612371565b610d6a878787612b55565b610d7a8787878787876002612c5c565b9050610d846127af565b9695505050505050565b5f610d97612371565b610da78787878787876001612c5c565b9050610db16127af565b9695505050505050565b610dc36133b8565b60035f9054906101000a900473ffffffffffffffffffffffffffffffffffffffff1673ffffffffffffffffffffffffffffffffffffffff166361a76900836040518263ffffffff1660e01b8152600401610e1d919061495e565b610b4060405180830381865afa158015610e39573d5f5f3e3d5ffd5b505050506040513d601f19601f82011682018060405250810190610e5d9190615c65565b9050919050565b60605f610e6f612371565b610e78876123c0565b610e81866123c0565b610e8c8c8a8a612836565b60025f9054906101000a900473ffffffffffffffffffffffffffffffffffffffff1673ffffffffffffffffffffffffffffffffffffffff16630e0665a58d8b8b8e336040518663ffffffff1660e01b8152600401610eee959493929190614e83565b5f6040518083038186803b158015610f04575f5ffd5b505afa158015610f16573d5f5f3e3d5ffd5b50505050610f2a8c8a8a8d88886005612428565b9050610f8033308c8c8c5f818110610f4557610f44614ecf565b5b9050602002016020810190610f5a9190614b22565b73ffffffffffffffffffffffffffffffffffffffff16612585909392919063ffffffff16565b610fd28c8b8b8b5f818110610f9857610f97614ecf565b5b9050602002016020810190610fad9190614b22565b73ffffffffffffffffffffffffffffffffffffffff1661260e9092919063ffffffff16565b8b73ffffffffffffffffffffffffffffffffffffffff16634a25d94a8c8c8c8c8c8b6040518763ffffffff1660e01b815260040161101596959493929190614efc565b5f604051808303815f875af1158015611030573d5f5f3e3d5ffd5b505050506040513d5f823e3d601f19601f8201168201806040525081019061105891906150b2565b91506110ac8c5f8b8b5f81811061107257611071614ecf565b5b90506020020160208101906110879190614b22565b73ffffffffffffffffffffffffffffffffffffffff1661260e9092919063ffffffff16565b815f815181106110bf576110be614ecf565b5b60200260200101518a11156111465761114586835f815181106110e5576110e4614ecf565b5b60200260200101518c6110f89190615126565b8b8b5f81811061110b5761110a614ecf565b5b90506020020160208101906111209190614b22565b73ffffffffffffffffffffffffffffffffffffffff166127299092919063ffffffff16565b5b8673ffffffffffffffffffffffffffffffffffffffff168c73ffffffffffffffffffffffffffffffffffffffff163373ffffffffffffffffffffffffffffffffffffffff167f2fa2c7c1a24072c9b6b24252267e97eafcde9157cdb8d669b7316116ce98837360058d8d6040516020016111c1929190615159565b60405160208183030381529060405280519060200120866040516111e7939291906151a2565b60405180910390a46111f76127af565b9a509a98505050505050505050565b5f61120f612371565b61121a878787612b55565b61122a8787878787876003612c5c565b90506112346127af565b9695505050505050565b6112466127b8565b61124f5f612ee9565b565b60605f61125c612371565b611265866123c0565b6112708a8989612b55565b5f34036112a9576040517f715a6e9e00000000000000000000000000000000000000000000000000000000815260040160405180910390fd5b60025f9054906101000a900473ffffffffffffffffffffffffffffffffffffffff1673ffffffffffffffffffffffffffffffffffffffff16630e0665a58b8a8a34336040518663ffffffff1660e01b815260040161130b959493929190614e83565b5f6040518083038186803b158015611321575f5ffd5b505afa158015611333573d5f5f3e3d5ffd5b505050506113478a89893488886002612428565b90508973ffffffffffffffffffffffffffffffffffffffff16637ff36ab5348b8b8b8b8b6040518763ffffffff1660e01b815260040161138b959493929190615c91565b5f6040518083038185885af11580156113a6573d5f5f3e3d5ffd5b50505050506040513d5f823e3d601f19601f820116820180604052508101906113cf91906150b2565b91508573ffffffffffffffffffffffffffffffffffffffff168a73ffffffffffffffffffffffffffffffffffffffff163373ffffffffffffffffffffffffffffffffffffffff167f2fa2c7c1a24072c9b6b24252267e97eafcde9157cdb8d669b7316116ce98837360028c8c60405160200161144c929190615159565b6040516020818303038152906040528051906020012086604051611472939291906151a2565b60405180910390a46114826127af565b9850989650505050505050565b60025f9054906101000a900473ffffffffffffffffffffffffffffffffffffffff1681565b5f6114bd612371565b6114c8878787612836565b6114d88787878787876005612c5c565b90506114e26127af565b9695505050505050565b6114f461332c565b5f6114fd6133b8565b611508898989612b55565b611518898989898989600361294c565b92509250925096509650969350505050565b5f611533612371565b6115428787878787875f612c5c565b905061154c6127af565b9695505050505050565b5f5f5f9054906101000a900473ffffffffffffffffffffffffffffffffffffffff16905090565b6115856127b8565b5f73ffffffffffffffffffffffffffffffffffffffff168173ffffffffffffffffffffffffffffffffffffffff16036115ea576040517fd92e233d00000000000000000000000000000000000000000000000000000000815260040160405180910390fd5b8060025f6101000a81548173ffffffffffffffffffffffffffffffffffffffff021916908373ffffffffffffffffffffffffffffffffffffffff1602179055508073ffffffffffffffffffffffffffffffffffffffff167f499da6c94b0308a7350b44779952ddd923aed66d6ce406800c015503d285f66a60405160405180910390a250565b6116786127b8565b5f73ffffffffffffffffffffffffffffffffffffffff168173ffffffffffffffffffffffffffffffffffffffff16036116dd576040517fd92e233d00000000000000000000000000000000000000000000000000000000815260040160405180910390fd5b8060035f6101000a81548173ffffffffffffffffffffffffffffffffffffffff021916908373ffffffffffffffffffffffffffffffffffffffff1602179055508073ffffffffffffffffffffffffffffffffffffffff167fe8dc7a347ee88a4d9df35f0c4dd767e45984364768a29bbf6162c08923dab69f60405160405180910390a250565b60605f61176e612371565b611777876123c0565b611780866123c0565b61178b8b8a8a612b55565b5f34036117c4576040517f715a6e9e00000000000000000000000000000000000000000000000000000000815260040160405180910390fd5b5f34476117d19190615126565b905060025f9054906101000a900473ffffffffffffffffffffffffffffffffffffffff1673ffffffffffffffffffffffffffffffffffffffff16630e0665a58d8c8c34336040518663ffffffff1660e01b8152600401611835959493929190614e83565b5f6040518083038186803b15801561184b575f5ffd5b505afa15801561185d573d5f5f3e3d5ffd5b505050506118718c8b8b3489896003612428565b91508b73ffffffffffffffffffffffffffffffffffffffff1663fb3bdb41348d8d8d8d8c6040518763ffffffff1660e01b81526004016118b5959493929190615c91565b5f6040518083038185885af11580156118d0573d5f5f3e3d5ffd5b50505050506040513d5f823e3d601f19601f820116820180604052508101906118f991906150b2565b92505f81476119089190615126565b90505f8111156119bc575f8873ffffffffffffffffffffffffffffffffffffffff168260405161193790615204565b5f6040518083038185875af1925050503d805f8114611971576040519150601f19603f3d011682016040523d82523d5f602084013e611976565b606091505b50509050806119ba576040517f08c379a00000000000000000000000000000000000000000000000000000000081526004016119b190615d27565b60405180910390fd5b505b8873ffffffffffffffffffffffffffffffffffffffff168d73ffffffffffffffffffffffffffffffffffffffff163373ffffffffffffffffffffffffffffffffffffffff167f2fa2c7c1a24072c9b6b24252267e97eafcde9157cdb8d669b7316116ce98837360038f8f604051602001611a37929190615159565b6040516020818303038152906040528051906020012088604051611a5d939291906151a2565b60405180910390a45050611a6f6127af565b995099975050505050505050565b60605f611a88612371565b611a91866123c0565b60025f9054906101000a900473ffffffffffffffffffffffffffffffffffffffff1673ffffffffffffffffffffffffffffffffffffffff16630e0665a58c8a8a8e336040518663ffffffff1660e01b8152600401611af3959493929190614e83565b5f6040518083038186803b158015611b09575f5ffd5b505afa158015611b1b573d5f5f3e3d5ffd5b50505050611b2e8b89898d88885f612428565b9050611b8433308c8b8b5f818110611b4957611b48614ecf565b5b9050602002016020810190611b5e9190614b22565b73ffffffffffffffffffffffffffffffffffffffff16612585909392919063ffffffff16565b611bd68b8b8a8a5f818110611b9c57611b9b614ecf565b5b9050602002016020810190611bb19190614b22565b73ffffffffffffffffffffffffffffffffffffffff1661260e9092919063ffffffff16565b8a73ffffffffffffffffffffffffffffffffffffffff166338ed17398b8b8b8b8b8b6040518763ffffffff1660e01b8152600401611c1996959493929190614efc565b5f604051808303815f875af1158015611c34573d5f5f3e3d5ffd5b505050506040513d5f823e3d601f19601f82011682018060405250810190611c5c91906150b2565b9150611cb08b5f8a8a5f818110611c7657611c75614ecf565b5b9050602002016020810190611c8b9190614b22565b73ffffffffffffffffffffffffffffffffffffffff1661260e9092919063ffffffff16565b8573ffffffffffffffffffffffffffffffffffffffff168b73ffffffffffffffffffffffffffffffffffffffff163373ffffffffffffffffffffffffffffffffffffffff167f2fa2c7c1a24072c9b6b24252267e97eafcde9157cdb8d669b7316116ce9883735f8c8c604051602001611d2a929190615159565b6040516020818303038152906040528051906020012086604051611d50939291906151a2565b60405180910390a4611d606127af565b995099975050505050505050565b5f611d77612371565b611d82878787612836565b611d928787878787876004612c5c565b9050611d9c6127af565b9695505050505050565b611dae6127b8565b5f73ffffffffffffffffffffffffffffffffffffffff168273ffffffffffffffffffffffffffffffffffffffff1603611e13576040517fd92e233d00000000000000000000000000000000000000000000000000000000815260040160405180910390fd5b611e3e82828573ffffffffffffffffffffffffffffffffffffffff166127299092919063ffffffff16565b505050565b60035f9054906101000a900473ffffffffffffffffffffffffffffffffffffffff1681565b611e706127b8565b5f73ffffffffffffffffffffffffffffffffffffffff168173ffffffffffffffffffffffffffffffffffffffff1603611ed5576040517fd92e233d00000000000000000000000000000000000000000000000000000000815260040160405180910390fd5b8060045f6101000a81548173ffffffffffffffffffffffffffffffffffffffff021916908373ffffffffffffffffffffffffffffffffffffffff1602179055508073ffffffffffffffffffffffffffffffffffffffff167f1e8414ec84e2e2fe9f715dd52ca9716cbfb7d5f322072e0e70bcf800075ba8ff60405160405180910390a250565b60605f611f66612371565b611f6f866123c0565b611f7a8b8989612836565b60025f9054906101000a900473ffffffffffffffffffffffffffffffffffffffff1673ffffffffffffffffffffffffffffffffffffffff16630e0665a58c8a8a8e336040518663ffffffff1660e01b8152600401611fdc959493929190614e83565b5f6040518083038186803b158015611ff2575f5ffd5b505afa158015612004573d5f5f3e3d5ffd5b505050506120188b89898d88886004612428565b905061206e33308c8b8b5f81811061203357612032614ecf565b5b90506020020160208101906120489190614b22565b73ffffffffffffffffffffffffffffffffffffffff16612585909392919063ffffffff16565b6120c08b8b8a8a5f81811061208657612085614ecf565b5b905060200201602081019061209b9190614b22565b73ffffffffffffffffffffffffffffffffffffffff1661260e9092919063ffffffff16565b8a73ffffffffffffffffffffffffffffffffffffffff166318cbafe58b8b8b8b8b8b6040518763ffffffff1660e01b815260040161210396959493929190614efc565b5f604051808303815f875af115801561211e573d5f5f3e3d5ffd5b505050506040513d5f823e3d601f19601f8201168201806040525081019061214691906150b2565b915061219a8b5f8a8a5f8181106121605761215f614ecf565b5b90506020020160208101906121759190614b22565b73ffffffffffffffffffffffffffffffffffffffff1661260e9092919063ffffffff16565b8573ffffffffffffffffffffffffffffffffffffffff168b73ffffffffffffffffffffffffffffffffffffffff163373ffffffffffffffffffffffffffffffffffffffff167f2fa2c7c1a24072c9b6b24252267e97eafcde9157cdb8d669b7316116ce98837360048c8c604051602001612215929190615159565b604051602081830303815290604052805190602001208660405161223b939291906151a2565b60405180910390a461224b6127af565b995099975050505050505050565b60045f9054906101000a900473ffffffffffffffffffffffffffffffffffffffff1681565b6122866127b8565b5f73ffffffffffffffffffffffffffffffffffffffff168173ffffffffffffffffffffffffffffffffffffffff16036122f4576040517f08c379a00000000000000000000000000000000000000000000000000000000081526004016122eb90615db5565b60405180910390fd5b6122fd81612ee9565b50565b61230861332c565b5f6123116133b8565b61231c898989612836565b61232c898989898989600561294c565b92509250925096509650969350505050565b61234661332c565b5f61234f6133b8565b61235f898989898989600161294c565b92509250925096509650969350505050565b6002600154036123b6576040517f08c379a00000000000000000000000000000000000000000000000000000000081526004016123ad90615e1d565b60405180910390fd5b6002600181905550565b5f73ffffffffffffffffffffffffffffffffffffffff168173ffffffffffffffffffffffffffffffffffffffff1603612425576040517f1e4ec46b00000000000000000000000000000000000000000000000000000000815260040160405180910390fd5b50565b5f6124338787612faa565b5f60025f9054906101000a900473ffffffffffffffffffffffffffffffffffffffff1673ffffffffffffffffffffffffffffffffffffffff1663ccf3096c8a8a8a8a6040518563ffffffff1660e01b81526004016124949493929190615e3b565b5f60405180830381865afa1580156124ae573d5f5f3e3d5ffd5b505050506040513d5f823e3d601f19601f820116820180604052508101906124d6919061634d565b905060035f9054906101000a900473ffffffffffffffffffffffffffffffffffffffff1673ffffffffffffffffffffffffffffffffffffffff166364ef2867868684876040518563ffffffff1660e01b815260040161253894939291906163de565b602060405180830381865afa158015612553573d5f5f3e3d5ffd5b505050506040513d601f19601f820116820180604052508101906125779190616423565b915050979650505050505050565b612608846323b872dd60e01b8585856040516024016125a69392919061644e565b604051602081830303815290604052907bffffffffffffffffffffffffffffffffffffffffffffffffffffffff19166020820180517bffffffffffffffffffffffffffffffffffffffffffffffffffffffff8381831617835250505050612fec565b50505050565b5f63095ea7b360e01b838360405160240161262a929190616483565b604051602081830303815290604052907bffffffffffffffffffffffffffffffffffffffffffffffffffffffff19166020820180517bffffffffffffffffffffffffffffffffffffffffffffffffffffffff8381831617835250505050905061269384826130b2565b612723576127188463095ea7b360e01b855f6040516024016126b69291906164e3565b604051602081830303815290604052907bffffffffffffffffffffffffffffffffffffffffffffffffffffffff19166020820180517bffffffffffffffffffffffffffffffffffffffffffffffffffffffff8381831617835250505050612fec565b6127228482612fec565b5b50505050565b6127aa8363a9059cbb60e01b8484604051602401612748929190616483565b604051602081830303815290604052907bffffffffffffffffffffffffffffffffffffffffffffffffffffffff19166020820180517bffffffffffffffffffffffffffffffffffffffffffffffffffffffff8381831617835250505050612fec565b505050565b60018081905550565b6127c0613160565b73ffffffffffffffffffffffffffffffffffffffff166127de611556565b73ffffffffffffffffffffffffffffffffffffffff1614612834576040517f08c379a000000000000000000000000000000000000000000000000000000000815260040161282b90616554565b60405180910390fd5b565b6128408282612faa565b8273ffffffffffffffffffffffffffffffffffffffff1663ad5c46486040518163ffffffff1660e01b8152600401602060405180830381865afa158015612889573d5f5f3e3d5ffd5b505050506040513d601f19601f820116820180604052508101906128ad9190616586565b73ffffffffffffffffffffffffffffffffffffffff1682826001858590506128d59190615126565b8181106128e5576128e4614ecf565b5b90506020020160208101906128fa9190614b22565b73ffffffffffffffffffffffffffffffffffffffff1614612947576040517f5825717900000000000000000000000000000000000000000000000000000000815260040160405180910390fd5b505050565b61295461332c565b5f61295d6133b8565b6129678989612faa565b60025f9054906101000a900473ffffffffffffffffffffffffffffffffffffffff1673ffffffffffffffffffffffffffffffffffffffff1663ccf3096c8b8b8b8b6040518563ffffffff1660e01b81526004016129c79493929190615e3b565b5f60405180830381865afa1580156129e1573d5f5f3e3d5ffd5b505050506040513d5f823e3d601f19601f82011682018060405250810190612a09919061634d565b925060035f9054906101000a900473ffffffffffffffffffffffffffffffffffffffff1673ffffffffffffffffffffffffffffffffffffffff166364ef2867878786886040518563ffffffff1660e01b8152600401612a6b94939291906163de565b602060405180830381865afa158015612a86573d5f5f3e3d5ffd5b505050506040513d601f19601f82011682018060405250810190612aaa9190616423565b915060035f9054906101000a900473ffffffffffffffffffffffffffffffffffffffff1673ffffffffffffffffffffffffffffffffffffffff166361a76900836040518263ffffffff1660e01b8152600401612b06919061495e565b610b4060405180830381865afa158015612b22573d5f5f3e3d5ffd5b505050506040513d601f19601f82011682018060405250810190612b469190615c65565b90509750975097945050505050565b612b5f8282612faa565b8273ffffffffffffffffffffffffffffffffffffffff1663ad5c46486040518163ffffffff1660e01b8152600401602060405180830381865afa158015612ba8573d5f5f3e3d5ffd5b505050506040513d601f19601f82011682018060405250810190612bcc9190616586565b73ffffffffffffffffffffffffffffffffffffffff1682825f818110612bf557612bf4614ecf565b5b9050602002016020810190612c0a9190614b22565b73ffffffffffffffffffffffffffffffffffffffff1614612c57576040517f5825717900000000000000000000000000000000000000000000000000000000815260040160405180910390fd5b505050565b5f612c678787612faa565b5f60025f9054906101000a900473ffffffffffffffffffffffffffffffffffffffff1673ffffffffffffffffffffffffffffffffffffffff1663fd278bdf8a8a8a8a336040518663ffffffff1660e01b8152600401612cca959493929190614e83565b5f604051808303815f875af1158015612ce5573d5f5f3e3d5ffd5b505050506040513d5f823e3d601f19601f82011682018060405250810190612d0d919061634d565b905060035f9054906101000a900473ffffffffffffffffffffffffffffffffffffffff1673ffffffffffffffffffffffffffffffffffffffff166364ef2867868684876040518563ffffffff1660e01b8152600401612d6f94939291906163de565b602060405180830381865afa158015612d8a573d5f5f3e3d5ffd5b505050506040513d601f19601f82011682018060405250810190612dae9190616423565b915060045f9054906101000a900473ffffffffffffffffffffffffffffffffffffffff1673ffffffffffffffffffffffffffffffffffffffff1663a0712d68836040518263ffffffff1660e01b8152600401612e0a919061495e565b6020604051808303815f875af1158015612e26573d5f5f3e3d5ffd5b505050506040513d601f19601f82011682018060405250810190612e4a9190616423565b508787604051602001612e5e929190615159565b604051602081830303815290604052805190602001208973ffffffffffffffffffffffffffffffffffffffff163373ffffffffffffffffffffffffffffffffffffffff167fb1b97fd408bbfd735849b43ebd763ca553c05c7eaa7acdf5401b56503d41ca86868a87604051612ed5939291906165b1565b60405180910390a450979650505050505050565b5f5f5f9054906101000a900473ffffffffffffffffffffffffffffffffffffffff169050815f5f6101000a81548173ffffffffffffffffffffffffffffffffffffffff021916908373ffffffffffffffffffffffffffffffffffffffff1602179055508173ffffffffffffffffffffffffffffffffffffffff168173ffffffffffffffffffffffffffffffffffffffff167f8be0079c531659141344cd1fd0a4f28419497f9722a3daafe3b4186f6b6457e060405160405180910390a35050565b6002828290501015612fe8576040517f20db826700000000000000000000000000000000000000000000000000000000815260040160405180910390fd5b5050565b5f61304d826040518060400160405280602081526020017f5361666545524332303a206c6f772d6c6576656c2063616c6c206661696c65648152508573ffffffffffffffffffffffffffffffffffffffff166131679092919063ffffffff16565b90505f8151148061306e57508080602001905181019061306d91906165e6565b5b6130ad576040517f08c379a00000000000000000000000000000000000000000000000000000000081526004016130a490616681565b60405180910390fd5b505050565b5f5f5f8473ffffffffffffffffffffffffffffffffffffffff16846040516130da91906166e7565b5f604051808303815f865af19150503d805f8114613113576040519150601f19603f3d011682016040523d82523d5f602084013e613118565b606091505b509150915081801561314557505f8151148061314457508080602001905181019061314391906165e6565b5b5b801561315657506131558561317e565b5b9250505092915050565b5f33905090565b606061317584845f856131a0565b90509392505050565b5f5f8273ffffffffffffffffffffffffffffffffffffffff163b119050919050565b6060824710156131e5576040517f08c379a00000000000000000000000000000000000000000000000000000000081526004016131dc9061676d565b60405180910390fd5b5f5f8673ffffffffffffffffffffffffffffffffffffffff16858760405161320d91906166e7565b5f6040518083038185875af1925050503d805f8114613247576040519150601f19603f3d011682016040523d82523d5f602084013e61324c565b606091505b509150915061325d87838387613269565b92505050949350505050565b606083156132ca575f8351036132c2576132828561317e565b6132c1576040517f08c379a00000000000000000000000000000000000000000000000000000000081526004016132b8906167d5565b60405180910390fd5b5b8290506132d5565b6132d483836132dd565b5b949350505050565b5f825111156132ef5781518083602001fd5b806040517f08c379a00000000000000000000000000000000000000000000000000000000081526004016133239190616835565b60405180910390fd5b6040518061020001604052805f151581526020015f151581526020015f151581526020015f151581526020015f151581526020015f151581526020015f151581526020015f151581526020015f151581526020015f151581526020015f151581526020015f151581526020015f151581526020015f151581526020015f15158152602001606081525090565b6040518060c001604052806133cb61341d565b81526020016133d8613526565b81526020016133e56135ab565b81526020016133f26136a0565b81526020015f600581111561340a57613409614029565b5b81526020016134176136f3565b81525090565b604051806102c001604052805f600281111561343c5761343b614029565b5b81526020015f60ff1681526020015f60ff1681526020015f600381111561346657613465614029565b5b81526020015f600381111561347e5761347d614029565b5b81526020015f60ff1681526020015f60ff1681526020015f60ff1681526020015f60ff1681526020015f60ff1681526020015f60ff1681526020015f151581526020015f151581526020015f63ffffffff1681526020015f63ffffffff1681526020015f63ffffffff1681526020015f61ffff1681526020015f61ffff1681526020015f61ffff1681526020015f60ff1681526020015f60ff1681526020015f151581525090565b604051806101e001604052805f151581526020015f151581526020015f151581526020015f151581526020015f151581526020015f151581526020015f151581526020015f151581526020015f151581526020015f151581526020015f151581526020015f151581526020015f151581526020015f151581526020015f151581525090565b604051806103a001604052805f151581526020015f151581526020015f151581526020015f151581526020015f151581526020015f151581526020015f151581526020015f151581526020015f151581526020015f151581526020015f151581526020015f151581526020015f151581526020015f151581526020015f151581526020015f151581526020015f151581526020015f151581526020015f151581526020015f151581526020015f151581526020015f151581526020015f151581526020015f151581526020015f151581526020015f151581526020015f151581526020015f151581526020015f151581525090565b6040518061010001604052805f60ff1681526020015f60ff1681526020015f60ff1681526020015f60ff1681526020015f60ff1681526020015f151581526020015f60ff1681526020015f151581525090565b604051806101e001604052805f151581526020015f151581526020015f151581526020015f151581526020015f151581526020015f151581526020015f151581526020015f151581526020015f151581526020015f151581526020015f151581526020015f151581526020015f151581526020015f151581526020015f151581525090565b5f604051905090565b5f5ffd5b5f5ffd5b5f73ffffffffffffffffffffffffffffffffffffffff82169050919050565b5f6137b282613789565b9050919050565b6137c2816137a8565b81146137cc575f5ffd5b50565b5f813590506137dd816137b9565b92915050565b5f819050919050565b6137f5816137e3565b81146137ff575f5ffd5b50565b5f81359050613810816137ec565b92915050565b5f5ffd5b5f5ffd5b5f5ffd5b5f5f83601f84011261383757613836613816565b5b8235905067ffffffffffffffff8111156138545761385361381a565b5b6020830191508360208202830111156138705761386f61381e565b5b9250929050565b5f5f83601f84011261388c5761388b613816565b5b8235905067ffffffffffffffff8111156138a9576138a861381a565b5b6020830191508360018202830111156138c5576138c461381e565b5b9250929050565b5f5f5f5f5f5f5f5f5f5f6101008b8d0312156138eb576138ea613781565b5b5f6138f88d828e016137cf565b9a505060206139098d828e01613802565b995050604061391a8d828e01613802565b98505060608b013567ffffffffffffffff81111561393b5761393a613785565b5b6139478d828e01613822565b9750975050608061395a8d828e016137cf565b95505060a061396b8d828e016137cf565b94505060c061397c8d828e01613802565b93505060e08b013567ffffffffffffffff81111561399d5761399c613785565b5b6139a98d828e01613877565b92509250509295989b9194979a5092959850565b5f81519050919050565b5f82825260208201905092915050565b5f819050602082019050919050565b6139ef816137e3565b82525050565b5f613a0083836139e6565b60208301905092915050565b5f602082019050919050565b5f613a22826139bd565b613a2c81856139c7565b9350613a37836139d7565b805f5b83811015613a67578151613a4e88826139f5565b9750613a5983613a0c565b925050600181019050613a3a565b5085935050505092915050565b613a7d816137e3565b82525050565b5f6040820190508181035f830152613a9b8185613a18565b9050613aaa6020830184613a74565b9392505050565b5f613abb82613789565b9050919050565b613acb81613ab1565b8114613ad5575f5ffd5b50565b5f81359050613ae681613ac2565b92915050565b5f5f60408385031215613b0257613b01613781565b5b5f613b0f85828601613ad8565b9250506020613b2085828601613802565b9150509250929050565b5f5f5f5f5f5f60808789031215613b4457613b43613781565b5b5f613b5189828a016137cf565b965050602087013567ffffffffffffffff811115613b7257613b71613785565b5b613b7e89828a01613822565b95509550506040613b9189828a01613802565b935050606087013567ffffffffffffffff811115613bb257613bb1613785565b5b613bbe89828a01613877565b92509250509295509295509295565b5f8115159050919050565b613be181613bcd565b82525050565b5f81519050919050565b5f82825260208201905092915050565b5f819050602082019050919050565b61038082015f820151613c255f850182613bd8565b506020820151613c386020850182613bd8565b506040820151613c4b6040850182613bd8565b506060820151613c5e6060850182613bd8565b506080820151613c716080850182613bd8565b5060a0820151613c8460a0850182613bd8565b5060c0820151613c9760c0850182613bd8565b5060e0820151613caa60e0850182613bd8565b50610100820151613cbf610100850182613bd8565b50610120820151613cd4610120850182613bd8565b50610140820151613ce9610140850182613bd8565b50610160820151613cfe610160850182613bd8565b50610180820151613d13610180850182613bd8565b506101a0820151613d286101a0850182613bd8565b506101c0820151613d3d6101c0850182613bd8565b506101e0820151613d526101e0850182613bd8565b50610200820151613d67610200850182613bd8565b50610220820151613d7c610220850182613bd8565b50610240820151613d91610240850182613bd8565b50610260820151613da6610260850182613bd8565b50610280820151613dbb610280850182613bd8565b506102a0820151613dd06102a0850182613bd8565b506102c0820151613de56102c0850182613bd8565b506102e0820151613dfa6102e0850182613bd8565b50610300820151613e0f610300850182613bd8565b50610320820151613e24610320850182613bd8565b50610340820151613e39610340850182613bd8565b50610360820151613e4e610360850182613bd8565b50505050565b5f613e5f8383613c10565b6103808301905092915050565b5f602082019050919050565b5f613e8282613be7565b613e8c8185613bf1565b9350613e9783613c01565b805f5b83811015613ec7578151613eae8882613e54565b9750613eb983613e6c565b925050600181019050613e9a565b5085935050505092915050565b5f61020083015f830151613eea5f860182613bd8565b506020830151613efd6020860182613bd8565b506040830151613f106040860182613bd8565b506060830151613f236060860182613bd8565b506080830151613f366080860182613bd8565b5060a0830151613f4960a0860182613bd8565b5060c0830151613f5c60c0860182613bd8565b5060e0830151613f6f60e0860182613bd8565b50610100830151613f84610100860182613bd8565b50610120830151613f99610120860182613bd8565b50610140830151613fae610140860182613bd8565b50610160830151613fc3610160860182613bd8565b50610180830151613fd8610180860182613bd8565b506101a0830151613fed6101a0860182613bd8565b506101c08301516140026101c0860182613bd8565b506101e08301518482036101e086015261401c8282613e78565b9150508091505092915050565b7f4e487b71000000000000000000000000000000000000000000000000000000005f52602160045260245ffd5b6003811061406757614066614029565b5b50565b5f81905061407782614056565b919050565b5f6140868261406a565b9050919050565b6140968161407c565b82525050565b5f60ff82169050919050565b6140b18161409c565b82525050565b600481106140c8576140c7614029565b5b50565b5f8190506140d8826140b7565b919050565b5f6140e7826140cb565b9050919050565b6140f7816140dd565b82525050565b5f63ffffffff82169050919050565b614115816140fd565b82525050565b5f61ffff82169050919050565b6141318161411b565b82525050565b6102c082015f82015161414c5f85018261408d565b50602082015161415f60208501826140a8565b50604082015161417260408501826140a8565b50606082015161418560608501826140ee565b50608082015161419860808501826140ee565b5060a08201516141ab60a08501826140a8565b5060c08201516141be60c08501826140a8565b5060e08201516141d160e08501826140a8565b506101008201516141e66101008501826140a8565b506101208201516141fb6101208501826140a8565b506101408201516142106101408501826140a8565b50610160820151614225610160850182613bd8565b5061018082015161423a610180850182613bd8565b506101a082015161424f6101a085018261410c565b506101c08201516142646101c085018261410c565b506101e08201516142796101e085018261410c565b5061020082015161428e610200850182614128565b506102208201516142a3610220850182614128565b506102408201516142b8610240850182614128565b506102608201516142cd6102608501826140a8565b506102808201516142e26102808501826140a8565b506102a08201516142f76102a0850182613bd8565b50505050565b6101e082015f8201516143125f850182613bd8565b5060208201516143256020850182613bd8565b5060408201516143386040850182613bd8565b50606082015161434b6060850182613bd8565b50608082015161435e6080850182613bd8565b5060a082015161437160a0850182613bd8565b5060c082015161438460c0850182613bd8565b5060e082015161439760e0850182613bd8565b506101008201516143ac610100850182613bd8565b506101208201516143c1610120850182613bd8565b506101408201516143d6610140850182613bd8565b506101608201516143eb610160850182613bd8565b50610180820151614400610180850182613bd8565b506101a08201516144156101a0850182613bd8565b506101c082015161442a6101c0850182613bd8565b50505050565b6103a082015f8201516144455f850182613bd8565b5060208201516144586020850182613bd8565b50604082015161446b6040850182613bd8565b50606082015161447e6060850182613bd8565b5060808201516144916080850182613bd8565b5060a08201516144a460a0850182613bd8565b5060c08201516144b760c0850182613bd8565b5060e08201516144ca60e0850182613bd8565b506101008201516144df610100850182613bd8565b506101208201516144f4610120850182613bd8565b50610140820151614509610140850182613bd8565b5061016082015161451e610160850182613bd8565b50610180820151614533610180850182613bd8565b506101a08201516145486101a0850182613bd8565b506101c082015161455d6101c0850182613bd8565b506101e08201516145726101e0850182613bd8565b50610200820151614587610200850182613bd8565b5061022082015161459c610220850182613bd8565b506102408201516145b1610240850182613bd8565b506102608201516145c6610260850182613bd8565b506102808201516145db610280850182613bd8565b506102a08201516145f06102a0850182613bd8565b506102c08201516146056102c0850182613bd8565b506102e082015161461a6102e0850182613bd8565b5061030082015161462f610300850182613bd8565b50610320820151614644610320850182613bd8565b50610340820151614659610340850182613bd8565b5061036082015161466e610360850182613bd8565b50610380820151614683610380850182613bd8565b50505050565b61010082015f82015161469e5f8501826140a8565b5060208201516146b160208501826140a8565b5060408201516146c460408501826140a8565b5060608201516146d760608501826140a8565b5060808201516146ea60808501826140a8565b5060a08201516146fd60a0850182613bd8565b5060c082015161471060c08501826140a8565b5060e082015161472360e0850182613bd8565b50505050565b6006811061473a57614739614029565b5b50565b5f81905061474a82614729565b919050565b5f6147598261473d565b9050919050565b6147698161474f565b82525050565b6101e082015f8201516147845f850182613bd8565b5060208201516147976020850182613bd8565b5060408201516147aa6040850182613bd8565b5060608201516147bd6060850182613bd8565b5060808201516147d06080850182613bd8565b5060a08201516147e360a0850182613bd8565b5060c08201516147f660c0850182613bd8565b5060e082015161480960e0850182613bd8565b5061010082015161481e610100850182613bd8565b50610120820151614833610120850182613bd8565b50610140820151614848610140850182613bd8565b5061016082015161485d610160850182613bd8565b50610180820151614872610180850182613bd8565b506101a08201516148876101a0850182613bd8565b506101c082015161489c6101c0850182613bd8565b50505050565b610b4082015f8201516148b75f850182614137565b5060208201516148cb6102c08501826142fd565b5060408201516148df6104a0850182614430565b5060608201516148f3610840850182614689565b506080820151614907610940850182614760565b5060a082015161491b61096085018261476f565b50505050565b5f610b80820190508181035f83015261493a8186613ed4565b90506149496020830185613a74565b61495660408301846148a2565b949350505050565b5f6020820190506149715f830184613a74565b92915050565b5f6020828403121561498c5761498b613781565b5b5f61499984828501613802565b91505092915050565b5f610b40820190506149b65f8301846148a2565b92915050565b5f5f5f5f5f5f5f5f60c0898b0312156149d8576149d7613781565b5b5f6149e58b828c016137cf565b98505060206149f68b828c01613802565b975050604089013567ffffffffffffffff811115614a1757614a16613785565b5b614a238b828c01613822565b96509650506060614a368b828c016137cf565b9450506080614a478b828c01613802565b93505060a089013567ffffffffffffffff811115614a6857614a67613785565b5b614a748b828c01613877565b92509250509295985092959890939650565b5f819050919050565b5f614aa9614aa4614a9f84613789565b614a86565b613789565b9050919050565b5f614aba82614a8f565b9050919050565b5f614acb82614ab0565b9050919050565b614adb81614ac1565b82525050565b5f602082019050614af45f830184614ad2565b92915050565b614b03816137a8565b82525050565b5f602082019050614b1c5f830184614afa565b92915050565b5f60208284031215614b3757614b36613781565b5b5f614b44848285016137cf565b91505092915050565b5f5f5f5f5f5f5f5f5f60e08a8c031215614b6a57614b69613781565b5b5f614b778c828d016137cf565b9950506020614b888c828d01613802565b98505060408a013567ffffffffffffffff811115614ba957614ba8613785565b5b614bb58c828d01613822565b97509750506060614bc88c828d016137cf565b9550506080614bd98c828d016137cf565b94505060a0614bea8c828d01613802565b93505060c08a013567ffffffffffffffff811115614c0b57614c0a613785565b5b614c178c828d01613877565b92509250509295985092959850929598565b5f5f5f5f5f5f5f5f5f60e08a8c031215614c4657614c45613781565b5b5f614c538c828d016137cf565b9950506020614c648c828d01613802565b9850506040614c758c828d01613802565b97505060608a013567ffffffffffffffff811115614c9657614c95613785565b5b614ca28c828d01613822565b96509650506080614cb58c828d016137cf565b94505060a0614cc68c828d01613802565b93505060c08a013567ffffffffffffffff811115614ce757614ce6613785565b5b614cf38c828d01613877565b92509250509295985092959850929598565b5f5f5f60608486031215614d1c57614d1b613781565b5b5f614d29868287016137cf565b9350506020614d3a868287016137cf565b9250506040614d4b86828701613802565b9150509250925092565b5f614d5f82614ab0565b9050919050565b614d6f81614d55565b82525050565b5f602082019050614d885f830184614d66565b92915050565b5f614d9882614ab0565b9050919050565b614da881614d8e565b82525050565b5f602082019050614dc15f830184614d9f565b92915050565b5f82825260208201905092915050565b5f819050919050565b614de9816137a8565b82525050565b5f614dfa8383614de0565b60208301905092915050565b5f614e1460208401846137cf565b905092915050565b5f602082019050919050565b5f614e338385614dc7565b9350614e3e82614dd7565b805f5b85811015614e7657614e538284614e06565b614e5d8882614def565b9750614e6883614e1c565b925050600181019050614e41565b5085925050509392505050565b5f608082019050614e965f830188614afa565b8181036020830152614ea9818688614e28565b9050614eb86040830185613a74565b614ec56060830184614afa565b9695505050505050565b7f4e487b71000000000000000000000000000000000000000000000000000000005f52603260045260245ffd5b5f60a082019050614f0f5f830189613a74565b614f1c6020830188613a74565b8181036040830152614f2f818688614e28565b9050614f3e6060830185614afa565b614f4b6080830184613a74565b979650505050505050565b5f601f19601f8301169050919050565b7f4e487b71000000000000000000000000000000000000000000000000000000005f52604160045260245ffd5b614f9c82614f56565b810181811067ffffffffffffffff82111715614fbb57614fba614f66565b5b80604052505050565b5f614fcd613778565b9050614fd98282614f93565b919050565b5f67ffffffffffffffff821115614ff857614ff7614f66565b5b602082029050602081019050919050565b5f81519050615017816137ec565b92915050565b5f61502f61502a84614fde565b614fc4565b905080838252602082019050602084028301858111156150525761505161381e565b5b835b8181101561507b57806150678882615009565b845260208401935050602081019050615054565b5050509392505050565b5f82601f83011261509957615098613816565b5b81516150a984826020860161501d565b91505092915050565b5f602082840312156150c7576150c6613781565b5b5f82015167ffffffffffffffff8111156150e4576150e3613785565b5b6150f084828501615085565b91505092915050565b7f4e487b71000000000000000000000000000000000000000000000000000000005f52601160045260245ffd5b5f615130826137e3565b915061513b836137e3565b9250828203905081811115615153576151526150f9565b5b92915050565b5f6020820190508181035f830152615172818486614e28565b90509392505050565b6151848161474f565b82525050565b5f819050919050565b61519c8161518a565b82525050565b5f6060820190506151b55f83018661517b565b6151c26020830185615193565b6151cf6040830184613a74565b949350505050565b5f81905092915050565b50565b5f6151ef5f836151d7565b91506151fa826151e1565b5f82019050919050565b5f61520e826151e4565b9150819050919050565b5f82825260208201905092915050565b7f4554485f5245534355455f4641494c45440000000000000000000000000000005f82015250565b5f61525c601183615218565b915061526782615228565b602082019050919050565b5f6020820190508181035f83015261528981615250565b9050919050565b5f5ffd5b5f5ffd5b600381106152a4575f5ffd5b50565b5f815190506152b581615298565b92915050565b6152c48161409c565b81146152ce575f5ffd5b50565b5f815190506152df816152bb565b92915050565b600481106152f1575f5ffd5b50565b5f81519050615302816152e5565b92915050565b61531181613bcd565b811461531b575f5ffd5b50565b5f8151905061532c81615308565b92915050565b61533b816140fd565b8114615345575f5ffd5b50565b5f8151905061535681615332565b92915050565b6153658161411b565b811461536f575f5ffd5b50565b5f815190506153808161535c565b92915050565b5f6102c0828403121561539c5761539b615290565b5b6153a76102c0614fc4565b90505f6153b6848285016152a7565b5f8301525060206153c9848285016152d1565b60208301525060406153dd848285016152d1565b60408301525060606153f1848285016152f4565b6060830152506080615405848285016152f4565b60808301525060a0615419848285016152d1565b60a08301525060c061542d848285016152d1565b60c08301525060e0615441848285016152d1565b60e083015250610100615456848285016152d1565b6101008301525061012061546c848285016152d1565b61012083015250610140615482848285016152d1565b610140830152506101606154988482850161531e565b610160830152506101806154ae8482850161531e565b610180830152506101a06154c484828501615348565b6101a0830152506101c06154da84828501615348565b6101c0830152506101e06154f084828501615348565b6101e08301525061020061550684828501615372565b6102008301525061022061551c84828501615372565b6102208301525061024061553284828501615372565b61024083015250610260615548848285016152d1565b6102608301525061028061555e848285016152d1565b610280830152506102a06155748482850161531e565b6102a08301525092915050565b5f6101e0828403121561559757615596615290565b5b6155a26101e0614fc4565b90505f6155b18482850161531e565b5f8301525060206155c48482850161531e565b60208301525060406155d88482850161531e565b60408301525060606155ec8482850161531e565b60608301525060806156008482850161531e565b60808301525060a06156148482850161531e565b60a08301525060c06156288482850161531e565b60c08301525060e061563c8482850161531e565b60e0830152506101006156518482850161531e565b610100830152506101206156678482850161531e565b6101208301525061014061567d8482850161531e565b610140830152506101606156938482850161531e565b610160830152506101806156a98482850161531e565b610180830152506101a06156bf8482850161531e565b6101a0830152506101c06156d58482850161531e565b6101c08301525092915050565b5f6103a082840312156156f8576156f7615290565b5b6157036103a0614fc4565b90505f6157128482850161531e565b5f8301525060206157258482850161531e565b60208301525060406157398482850161531e565b604083015250606061574d8482850161531e565b60608301525060806157618482850161531e565b60808301525060a06157758482850161531e565b60a08301525060c06157898482850161531e565b60c08301525060e061579d8482850161531e565b60e0830152506101006157b28482850161531e565b610100830152506101206157c88482850161531e565b610120830152506101406157de8482850161531e565b610140830152506101606157f48482850161531e565b6101608301525061018061580a8482850161531e565b610180830152506101a06158208482850161531e565b6101a0830152506101c06158368482850161531e565b6101c0830152506101e061584c8482850161531e565b6101e0830152506102006158628482850161531e565b610200830152506102206158788482850161531e565b6102208301525061024061588e8482850161531e565b610240830152506102606158a48482850161531e565b610260830152506102806158ba8482850161531e565b610280830152506102a06158d08482850161531e565b6102a0830152506102c06158e68482850161531e565b6102c0830152506102e06158fc8482850161531e565b6102e0830152506103006159128482850161531e565b610300830152506103206159288482850161531e565b6103208301525061034061593e8482850161531e565b610340830152506103606159548482850161531e565b6103608301525061038061596a8482850161531e565b6103808301525092915050565b5f610100828403121561598d5761598c615290565b5b615998610100614fc4565b90505f6159a7848285016152d1565b5f8301525060206159ba848285016152d1565b60208301525060406159ce848285016152d1565b60408301525060606159e2848285016152d1565b60608301525060806159f6848285016152d1565b60808301525060a0615a0a8482850161531e565b60a08301525060c0615a1e848285016152d1565b60c08301525060e0615a328482850161531e565b60e08301525092915050565b60068110615a4a575f5ffd5b50565b5f81519050615a5b81615a3e565b92915050565b5f6101e08284031215615a7757615a76615290565b5b615a826101e0614fc4565b90505f615a918482850161531e565b5f830152506020615aa48482850161531e565b6020830152506040615ab88482850161531e565b6040830152506060615acc8482850161531e565b6060830152506080615ae08482850161531e565b60808301525060a0615af48482850161531e565b60a08301525060c0615b088482850161531e565b60c08301525060e0615b1c8482850161531e565b60e083015250610100615b318482850161531e565b61010083015250610120615b478482850161531e565b61012083015250610140615b5d8482850161531e565b61014083015250610160615b738482850161531e565b61016083015250610180615b898482850161531e565b610180830152506101a0615b9f8482850161531e565b6101a0830152506101c0615bb58482850161531e565b6101c08301525092915050565b5f610b408284031215615bd857615bd7615290565b5b615be260c0614fc4565b90505f615bf184828501615386565b5f830152506102c0615c0584828501615581565b6020830152506104a0615c1a848285016156e2565b604083015250610840615c2f84828501615977565b606083015250610940615c4484828501615a4d565b608083015250610960615c5984828501615a61565b60a08301525092915050565b5f610b408284031215615c7b57615c7a613781565b5b5f615c8884828501615bc2565b91505092915050565b5f608082019050615ca45f830188613a74565b8181036020830152615cb7818688614e28565b9050615cc66040830185614afa565b615cd36060830184613a74565b9695505050505050565b7f4554485f524546554e445f4641494c45440000000000000000000000000000005f82015250565b5f615d11601183615218565b9150615d1c82615cdd565b602082019050919050565b5f6020820190508181035f830152615d3e81615d05565b9050919050565b7f4f776e61626c653a206e6577206f776e657220697320746865207a65726f20615f8201527f6464726573730000000000000000000000000000000000000000000000000000602082015250565b5f615d9f602683615218565b9150615daa82615d45565b604082019050919050565b5f6020820190508181035f830152615dcc81615d93565b9050919050565b7f5265656e7472616e637947756172643a207265656e7472616e742063616c6c005f82015250565b5f615e07601f83615218565b9150615e1282615dd3565b602082019050919050565b5f6020820190508181035f830152615e3481615dfb565b9050919050565b5f606082019050615e4e5f830187614afa565b8181036020830152615e61818587614e28565b9050615e706040830184613a74565b95945050505050565b5f67ffffffffffffffff821115615e9357615e92614f66565b5b602082029050602081019050919050565b5f6103808284031215615eba57615eb9615290565b5b615ec5610380614fc4565b90505f615ed48482850161531e565b5f830152506020615ee78482850161531e565b6020830152506040615efb8482850161531e565b6040830152506060615f0f8482850161531e565b6060830152506080615f238482850161531e565b60808301525060a0615f378482850161531e565b60a08301525060c0615f4b8482850161531e565b60c08301525060e0615f5f8482850161531e565b60e083015250610100615f748482850161531e565b61010083015250610120615f8a8482850161531e565b61012083015250610140615fa08482850161531e565b61014083015250610160615fb68482850161531e565b61016083015250610180615fcc8482850161531e565b610180830152506101a0615fe28482850161531e565b6101a0830152506101c0615ff88482850161531e565b6101c0830152506101e061600e8482850161531e565b6101e0830152506102006160248482850161531e565b6102008301525061022061603a8482850161531e565b610220830152506102406160508482850161531e565b610240830152506102606160668482850161531e565b6102608301525061028061607c8482850161531e565b610280830152506102a06160928482850161531e565b6102a0830152506102c06160a88482850161531e565b6102c0830152506102e06160be8482850161531e565b6102e0830152506103006160d48482850161531e565b610300830152506103206160ea8482850161531e565b610320830152506103406161008482850161531e565b610340830152506103606161168482850161531e565b6103608301525092915050565b5f61613561613084615e79565b614fc4565b90508083825260208201905061038084028301858111156161595761615861381e565b5b835b81811015616183578061616e8882615ea4565b8452602084019350506103808101905061615b565b5050509392505050565b5f82601f8301126161a1576161a0613816565b5b81516161b1848260208601616123565b91505092915050565b5f61020082840312156161d0576161cf615290565b5b6161db610200614fc4565b90505f6161ea8482850161531e565b5f8301525060206161fd8482850161531e565b60208301525060406162118482850161531e565b60408301525060606162258482850161531e565b60608301525060806162398482850161531e565b60808301525060a061624d8482850161531e565b60a08301525060c06162618482850161531e565b60c08301525060e06162758482850161531e565b60e08301525061010061628a8482850161531e565b610100830152506101206162a08482850161531e565b610120830152506101406162b68482850161531e565b610140830152506101606162cc8482850161531e565b610160830152506101806162e28482850161531e565b610180830152506101a06162f88482850161531e565b6101a0830152506101c061630e8482850161531e565b6101c0830152506101e082015167ffffffffffffffff81111561633457616333615294565b5b6163408482850161618d565b6101e08301525092915050565b5f6020828403121561636257616361613781565b5b5f82015167ffffffffffffffff81111561637f5761637e613785565b5b61638b848285016161ba565b91505092915050565b5f82825260208201905092915050565b828183375f83830152505050565b5f6163bd8385616394565b93506163ca8385846163a4565b6163d383614f56565b840190509392505050565b5f6060820190508181035f8301526163f78186886163b2565b9050818103602083015261640b8185613ed4565b905061641a604083018461517b565b95945050505050565b5f6020828403121561643857616437613781565b5b5f61644584828501615009565b91505092915050565b5f6060820190506164615f830186614afa565b61646e6020830185614afa565b61647b6040830184613a74565b949350505050565b5f6040820190506164965f830185614afa565b6164a36020830184613a74565b9392505050565b5f819050919050565b5f6164cd6164c86164c3846164aa565b614a86565b61409c565b9050919050565b6164dd816164b3565b82525050565b5f6040820190506164f65f830185614afa565b61650360208301846164d4565b9392505050565b7f4f776e61626c653a2063616c6c6572206973206e6f7420746865206f776e65725f82015250565b5f61653e602083615218565b91506165498261650a565b602082019050919050565b5f6020820190508181035f83015261656b81616532565b9050919050565b5f81519050616580816137b9565b92915050565b5f6020828403121561659b5761659a613781565b5b5f6165a884828501616572565b91505092915050565b5f6060820190506165c45f83018661517b565b6165d16020830185613a74565b6165de6040830184613a74565b949350505050565b5f602082840312156165fb576165fa613781565b5b5f6166088482850161531e565b91505092915050565b7f5361666545524332303a204552433230206f7065726174696f6e20646964206e5f8201527f6f74207375636365656400000000000000000000000000000000000000000000602082015250565b5f61666b602a83615218565b915061667682616611565b604082019050919050565b5f6020820190508181035f8301526166988161665f565b9050919050565b5f81519050919050565b8281835e5f83830152505050565b5f6166c18261669f565b6166cb81856151d7565b93506166db8185602086016166a9565b80840191505092915050565b5f6166f282846166b7565b915081905092915050565b7f416464726573733a20696e73756666696369656e742062616c616e636520666f5f8201527f722063616c6c0000000000000000000000000000000000000000000000000000602082015250565b5f616757602683615218565b9150616762826166fd565b604082019050919050565b5f6020820190508181035f8301526167848161674b565b9050919050565b7f416464726573733a2063616c6c20746f206e6f6e2d636f6e74726163740000005f82015250565b5f6167bf601d83615218565b91506167ca8261678b565b602082019050919050565b5f6020820190508181035f8301526167ec816167b3565b9050919050565b5f81519050919050565b5f616807826167f3565b6168118185615218565b93506168218185602086016166a9565b61682a81614f56565b840191505092915050565b5f6020820190508181035f83015261684d81846167fd565b90509291505056fea26469706673582212205bdbe1609ba326b62c4fbe8528074154df6aef9d7f7962840cfe97e9d28e755b64736f6c634300081e0033","linkReferences":{}},"methodIdentifiers":{"decodePackedRisk(uint256)":"6844d3a3","guardedSwapETHForExactTokens(address,uint256,address[],address,address,uint256,bytes)":"98ceee26","guardedSwapExactETHForTokens(address,uint256,address[],address,uint256,bytes)":"7d6f770c","guardedSwapExactTokensForETH(address,uint256,uint256,address[],address,uint256,bytes)":"e2b56b11","guardedSwapExactTokensForTokens(address,uint256,uint256,address[],address,uint256,bytes)":"ac92e81c","guardedSwapTokensForExactETH(address,uint256,uint256,address[],address,address,uint256,bytes)":"68775a1d","guardedSwapTokensForExactTokens(address,uint256,uint256,address[],address,address,uint256,bytes)":"03f99df7","owner()":"8da5cb5b","previewGuardedSwapETHForExactTokens(address,address[],uint256,bytes)":"8cede51a","previewGuardedSwapExactETHForTokens(address,address[],uint256,bytes)":"1bf5ed48","previewGuardedSwapExactTokensForETH(address,address[],uint256,bytes)":"14015623","previewGuardedSwapExactTokensForTokens(address,address[],uint256,bytes)":"1c6ada18","previewGuardedSwapTokensForExactETH(address,address[],uint256,bytes)":"fcefb33a","previewGuardedSwapTokensForExactTokens(address,address[],uint256,bytes)":"ff33d6bb","renounceOwnership()":"715018a6","rescueERC20(address,address,uint256)":"b2118a8d","rescueETH(address,uint256)":"099a04e5","riskPolicy()":"bf72b2a7","riskReportNFT()":"e98216f1","setRiskPolicy(address)":"92008438","setRiskReportNFT(address)":"c1faf3ac","setSwapGuard(address)":"8f7984ed","storeAndMintSwapETHForExactTokensCheck(address,address[],uint256,bytes)":"6ca9758c","storeAndMintSwapExactETHForTokensCheck(address,address[],uint256,bytes)":"3b66c0d4","storeAndMintSwapExactTokensForETHCheck(address,address[],uint256,bytes)":"ac9b2d64","storeAndMintSwapExactTokensForTokensCheck(address,address[],uint256,bytes)":"8cfc45ee","storeAndMintSwapTokensForExactETHCheck(address,address[],uint256,bytes)":"8afa4ec0","storeAndMintSwapTokensForExactTokensCheck(address,address[],uint256,bytes)":"51e5f3a3","swapGuard()":"85d329e6","transferOwnership(address)":"f2fde38b"},"id":8}